:020000040800F2
:1000000000000220F919000815170008171700084A
:10001000191700081B1700081D1700080000000032
:100020000000000000000000000000001F17000892
:1000300021170008000000002317000825170008FA
:10004000491A0008491A0008491A0008491A000804
:10005000491A0008491A0008491A0008491A0008F4
:10006000491A0008491A0008491A0008491A0008E4
:10007000491A0008491A0008491A0008491A0008D4
:10008000491A000829170008491A00080000000052
:10009000000000000000000000000000491A0008F5
:1000A000491A0008491A0008491A0008491A0008A4
:1000B000491A0008491A0008491A0008491A000894
:1000C000491A0008491A0008491A0008491A000884
:1000D000491A0008491A0008491A000800000000DF
:1000E000491A0008491A0008491A000800000000CF
:1000F000000000000000000000000000491A000895
:1001000000000000491A0008491A0008491A0008AE
:1001100000000000000000000000000000000000DF
:10012000491A0008491A0008491A0008491A000823
:10013000491A000800000000000000000000000054
:10014000000000000000000000000000351700085B
:10015000491A0008491A0008491A0008491A0008F3
:10016000491A0008491A00080000000000000000B9
:10017000000000000000000000000000000000007F
:1001800000000000491A0008000000000000000004
:08019000491A0008491A000891
:1001C00010B5054C237833B9044B13B10448AFF391
:1001D00000800123237010BD280B002000000000C8
:1001E000FCF5000808B5034B1BB103490348AFF306
:1001F000008008BD000000002C0B0020FCF500086A
:1002000053B94AB9002908BF00281CBF4FF0FF317D
:100210004FF0FF3000F074B9ADF1080C6DE904CE79
:1002200000F006F8DDF804E0DDE9022304B07047D1
:100230002DE9F047089E0D4604468846002B4DD117
:100240008A42944668D9B2FA82F252B101FA02F3B4
:10025000C2F1200120FA01F10CFA02FC41EA030884
:1002600094404FEA1C45210CB8FBF5FE1FFA8CF7B1
:1002700005FB1E8341EA03430EFB07F199420BD9AC
:100280001CEB03030EF1FF3080F01E81994240F217
:100290001B81AEF1020E63445B1AA4B2B3FBF5F00E
:1002A00005FB103344EA034400FB07F7A7420AD9D1
:1002B0001CEB040400F1FF3380F00881A74240F2F8
:1002C000058164440238E41B40EA0E4000211EB15F
:1002D000D4400023C6E90043BDE8F0878B4208D92B
:1002E000002E00F0EE800021C6E900050846BDE8BA
:1002F000F087B3FA83F100294AD1AB4202D382429C
:1003000000F2F980841A65EB030301209846002E61
:10031000E2D0C6E90048DFE702B9FFDEB2FA82F2B6
:10032000002A40F09180A1EB0C054FEA1C471FFA10
:100330008CFE0121B5FBF7F307FB1350250C45EAB2
:1003400000450EFB03F0A84208D91CEB050503F19C
:10035000FF3802D2A84200F2CB8043462D1AA4B245
:10036000B5FBF7F007FB105544EA05440EFB00FE11
:10037000A64508D91CEB040400F1FF3502D2A645BE
:1003800000F2BB802846A4EB0E0440EA03409EE73F
:10039000C1F120078B4022FA07FC4CEA030C20FA3B
:1003A00007F405FA01F31C43FD404FEA1C4900FA2B
:1003B00001F3B5FBF9F8200C1FFA8CFE09FB185568
:1003C00040EA054508FB0EF0A84202FA01F20BD9FB
:1003D0001CEB050508F1FF3A80F08880A84240F246
:1003E0008580A8F1020865442D1AA4B2B5FBF9F086
:1003F00009FB105544EA054500FB0EFEAE4508D941
:100400001CEB050500F1FF346CD2AE456AD9023809
:10041000654440EA0840A0FB0294A5EB0E05A54206
:10042000C846A64656D353D05EB1B3EB080265EB7F
:100430000E0505FA07F722FA01F3CD401F43C6E97E
:1004400000750021BDE8F087C2F1200320FA03F116
:100450000CFA02FC25FA03F395400D434FEA1C47C2
:100460001FFA8CFEB3FBF7F107FB11302B0C43EAAC
:10047000004301FB0EF0984204FA02F408D91CEB89
:10048000030301F1FF382FD298422DD9023963447A
:100490001B1AADB2B3FBF7F007FB103345EA034577
:1004A00000FB0EF3AB4208D91CEB050500F1FF3849
:1004B00016D2AB4214D902386544ED1A40EA014124
:1004C00038E73146304607E78646E5E61846FAE65D
:1004D0004B45A9D2B9EB020864EB0C0E0138A3E737
:1004E0004046EAE7204694E74146D1E7D0467BE71D
:1004F000023B654432E7084609E76444023842E7B4
:10050000704700BF00000000000000000000000075
:1005100001F0FF01102A2BDB10F0070F08D010F8B4
:10052000013B013A8B422DD010F0070F42B3F6D1B8
:10053000F0B441EA012141EA014122F007047FF0D1
:1005400000070023F0E80256083C85EA010586EA28
:10055000010685FA47F5A3FA87F586FA47F6A5FA64
:1005600087F68EB9EED1F0BC01F0FF0102F0070270
:1005700032B110F8013B013A83EA010313B1F8D11B
:100580000020704701387047002D06BF35460338FC
:10059000073815F0010F07D1013015F4807F02BF35
:1005A000013015F4C03F0130F0BC0138704700BF86
:1005B000844641EA000313F003036DD1403A41D36E
:1005C00051F8043B40F8043B51F8043B40F8043B2D
:1005D00051F8043B40F8043B51F8043B40F8043B1D
:1005E00051F8043B40F8043B51F8043B40F8043B0D
:1005F00051F8043B40F8043B51F8043B40F8043BFD
:1006000051F8043B40F8043B51F8043B40F8043BEC
:1006100051F8043B40F8043B51F8043B40F8043BDC
:1006200051F8043B40F8043B51F8043B40F8043BCC
:1006300051F8043B40F8043B51F8043B40F8043BBC
:10064000403ABDD2303211D351F8043B40F8043B5C
:1006500051F8043B40F8043B51F8043B40F8043B9C
:1006600051F8043B40F8043B103AEDD20C3205D36C
:1006700051F8043B40F8043B043AF9D2043208D064
:10068000D2071CBF11F8013B00F8013B01D30B88D6
:1006900003806046704700BF082A13D38B078DD0B4
:1006A00010F003038AD0C3F10403D21ADB071CBF86
:1006B00011F8013B00F8013B80D331F8023B20F8F0
:1006C000023B7BE7043AD9D3013A11F8013B00F829
:1006D000013BF9D20B7803704B7843708B788370B1
:1006E00060467047000000000000000000000000AD
:1006F00000000000000000000000000000000000FA
:1007000090F800F06DE9024520F007016FF0000C51
:1007100010F0070491F820F040F049804FF00004F9
:100720006FF00700D1E9002391F840F000F10800D4
:1007300082FA4CF2A4FA8CF283FA4CF3A2FA8CF30C
:100740004BBBD1E9022382FA4CF200F10800A4FA73
:100750008CF283FA4CF3A2FA8CF3E3B9D1E90423C7
:1007600082FA4CF200F10800A4FA8CF283FA4CF3FE
:10077000A2FA8CF37BB9D1E9062301F1200182FAB8
:100780004CF200F10800A4FA8CF283FA4CF3A2FABE
:100790008CF3002BC6D0002A04BF04301A4612BACC
:1007A000B2FA82F2FDE8024500EBD2007047D1E9CF
:1007B000002304F00305C4F100004FEAC50514F05E
:1007C000040F91F840F00CFA05F562EA05021CBF2F
:1007D00063EA050362464FF00004A9E781F0004197
:1007E00002E000BF83F0004330B54FEA41044FEA16
:1007F000430594EA050F08BF90EA020F1FBF54EAB1
:10080000000C55EA020C7FEA645C7FEA655C00F04C
:10081000E2804FEA5454D4EB5555B8BF6D420CDD1D
:100820002C4480EA020281EA030382EA000083EAA0
:10083000010180EA020281EA0303362D88BF30BD40
:1008400011F0004F4FEA01314FF4801C4CEA113196
:1008500002D0404261EB410113F0004F4FEA0333F5
:100860004CEA133302D0524263EB430394EA050F80
:1008700000F0A780A4F10104D5F1200E0DDB02FAEF
:100880000EFC22FA05F2801841F1000103FA0EF283
:10089000801843FA05F359410EE0A5F120050EF149
:1008A000200E012A03FA0EFC28BF4CF0020C43FA7A
:1008B00005F3C01851EBE37101F0004507D54FF087
:1008C000000EDCF1000C7EEB00006EEB0101B1F5D7
:1008D000801F1BD3B1F5001F0CD349085FEA30001D
:1008E0004FEA3C0C04F101044FEA445212F5800F28
:1008F00080F09A80BCF1004F08BF5FEA500C50F1C5
:10090000000041EB045141EA050130BD5FEA4C0CA7
:10091000404141EB0101013C28BFB1F5801FE9D204
:1009200091F0000F04BF01460020B1FA81F308BF27
:100930002033A3F10B03B3F120020CDA0C3208DDF3
:1009400002F1140CC2F10C0201FA0CF021FA02F1CE
:100950000CE002F11402D8BFC2F1200C01FA02F13E
:1009600020FA0CFCDCBF41EA0C019040E41AA2BF63
:1009700001EB0451294330BD6FEA04041F3C1CDA2B
:100980000C340EDC04F11404C4F1200220FA04F04B
:1009900001FA02F340EA030021FA04F345EA0301F5
:1009A00030BDC4F10C04C4F1200220FA02F001FAB7
:1009B00004F340EA0300294630BD21FA04F0294639
:1009C00030BD94F0000F83F4801306BF81F48011D2
:1009D0000134013D4EE77FEA645C18BF7FEA655C45
:1009E00029D094EA050F08BF90EA020F05D054EA17
:1009F000000C04BF1946104630BD91EA030F1EBF1C
:100A00000021002030BD5FEA545C05D1400049411F
:100A100028BF41F0004130BD14F580043CBF01F512
:100A2000801130BD01F0004545F0FE4141F47001F8
:100A30004FF0000030BD7FEA645C1ABF19461046D3
:100A40007FEA655C1CBF0B46024650EA013406BFD4
:100A500052EA033591EA030F41F4002130BD00BF93
:100A600090F0000F04BF0021704730B54FF4806450
:100A700004F132044FF000054FF0000150E700BFD1
:100A800090F0000F04BF0021704730B54FF4806430
:100A900004F1320410F0004548BF40424FF000011D
:100AA0003EE700BF42004FEAE2014FEA31014FEA60
:100AB00002701FBF12F07F4393F07F4F81F06051AF
:100AC000704732F07F4208BF704793F07F4F04BFFA
:100AD00041F40021704730B54FF4607401F00045D7
:100AE00021F000411CE700BF50EA010208BF704737
:100AF00030B54FF000050AE050EA010208BF704728
:100B000030B511F0004502D5404261EB41014FF490
:100B1000806404F132045FEA915C3FF4D8AE4FF098
:100B200003025FEADC0C18BF03325FEADC0C18BF7B
:100B3000033202EBDC02C2F1200300FA03FC20FACC
:100B400002F001FA03FE40EA0E0021FA02F1144419
:100B5000BDE600BF70B54FF0FF0C4CF4E06C1CEA32
:100B600011541DBF1CEA135594EA0C0F95EA0C0FA3
:100B700000F0DEF82C4481EA030621EA4C5123EA16
:100B80004C5350EA013518BF52EA033541F4801145
:100B900043F4801338D0A0FB02CE4FF00005E1FBF8
:100BA00002E506F00042E0FB03E54FF00006E1FB42
:100BB00003569CF0000F18BF4EF0010EA4F1FF0485
:100BC000B6F5007F64F5407404D25FEA4E0E6D41C5
:100BD00046EB060642EAC62141EA55514FEAC520D6
:100BE00040EA5E504FEACE2EB4F1FD0C88BFBCF552
:100BF000E06F1ED8BEF1004F08BF5FEA500E50F103
:100C0000000041EB045170BD06F0004646EA0101C8
:100C100040EA020081EA0301B4EB5C04C2BFD4EBFA
:100C20000C0541EA045170BD41F480114FF0000EF3
:100C3000013C00F3AB8014F1360FDEBF002001F061
:100C4000004170BDC4F10004203C35DA0C341BDCDB
:100C500004F11404C4F1200500FA05F320FA04F0AD
:100C600001FA05F240EA020001F0004221F00041E1
:100C700010EBD37021FA04F642EB06015EEA430E54
:100C800008BF20EAD37070BDC4F10C04C4F1200584
:100C900000FA04F320FA05F001FA04F240EA020037
:100CA00001F0004110EBD37041F100015EEA430E08
:100CB00008BF20EAD37070BDC4F1200500FA05F228
:100CC0004EEA020E20FA04F301FA05F243EA0203A7
:100CD00021FA04F001F0004121FA04F220EA0200B6
:100CE00000EBD3705EEA430E08BF20EAD37070BDFC
:100CF00094F0000F0FD101F00046400041EB0101DC
:100D000011F4801F08BF013CF7D041EA060195F0BD
:100D1000000F18BF704703F00046520043EB030377
:100D200013F4801F08BF013DF7D043EA0603704764
:100D300094EA0C0F0CEA135518BF95EA0C0F0CD06F
:100D400050EA410618BF52EA4306D1D181EA0301B5
:100D500001F000414FF0000070BD50EA410606BFAF
:100D60001046194652EA430619D094EA0C0F02D1F4
:100D700050EA013613D195EA0C0F05D152EA033639
:100D80001CBF104619460AD181EA030101F0004157
:100D900041F0FE4141F470014FF0000070BD41F0A0
:100DA000FE4141F4780170BD70B54FF0FF0C4CF47A
:100DB000E06C1CEA11541DBF1CEA135594EA0C0F99
:100DC00095EA0C0F00F0A7F8A4EB050481EA030EE6
:100DD00052EA03354FEA013100F088804FEA0333CD
:100DE0004FF0805545EA131343EA12634FEA02229B
:100DF00045EA111545EA10654FEA00260EF000415C
:100E00009D4208BF964244F1FD0404F5407402D2AD
:100E10005B084FEA3202B61A65EB03055B084FEA3E
:100E200032024FF480104FF4002CB6EB020E75EB3B
:100E3000030E22BFB61A754640EA0C005B084FEA63
:100E40003202B6EB020E75EB030E22BFB61A7546E0
:100E500040EA5C005B084FEA3202B6EB020E75EB2B
:100E6000030E22BFB61A754640EA9C005B084FEAA3
:100E70003202B6EB020E75EB030E22BFB61A7546B0
:100E800040EADC0055EA060E18D04FEA051545EA9F
:100E900016754FEA06164FEAC30343EA52734FEA48
:100EA000C2025FEA1C1CC0D111F4801F0BD141EAC1
:100EB00000014FF000004FF0004CB6E711F4801F26
:100EC00004BF01430020B4F1FD0C88BFBCF5E06F06
:100ED0003FF6AFAEB5EB030C04BFB6EB020C5FEA16
:100EE000500C50F1000041EB045170BD0EF0004E6B
:100EF0004EEA113114EB5C04C2BFD4EB0C0541EA9D
:100F0000045170BD41F480114FF0000E013C90E699
:100F100045EA060E8DE60CEA135594EA0C0F08BF5D
:100F200095EA0C0F3FF43BAF94EA0C0F0AD150EA5C
:100F300001347FF434AF95EA0C0F7FF425AF1046EF
:100F400019462CE795EA0C0F06D152EA03353FF417
:100F5000FDAE1046194622E750EA410618BF52EA94
:100F600043067FF4C5AE50EA41047FF40DAF52EA68
:100F700043057FF4EBAE12E74FF0FF3C06E000BF05
:100F80004FF0010C02E000BF4FF0010C4DF804CD12
:100F90004FEA410C7FEA6C5C4FEA430C18BF7FEAD2
:100FA0006C5C1BD001B050EA410C0CBF52EA430C00
:100FB00091EA030F02BF90EA020F0020704710F180
:100FC000000F91EA030F58BF994208BF90422CBF0F
:100FD000D8176FEAE37040F0010070474FEA410C08
:100FE0007FEA6C5C02D150EA013C07D14FEA430C26
:100FF0007FEA6C5CD6D152EA033CD3D05DF8040B97
:10100000704700BF8446104662468C4619466346C8
:1010100000E000BF01B5FFF7B7FF002848BF10F19F
:10102000000F01BD4DF808EDFFF7F4FF0CBF0120E4
:1010300000205DF808FB00BF4DF808EDFFF7EAFF60
:1010400034BF012000205DF808FB00BF4DF808ED1B
:10105000FFF7E0FF94BF012000205DF808FB00BF10
:101060004DF808EDFFF7CEFF94BF012000205DF89A
:1010700008FB00BF4DF808EDFFF7C4FF34BF0120A7
:1010800000205DF808FB00BF4FEA410C7FEA6C5C72
:1010900002D150EA013C0AD14FEA430C7FEA6C5C72
:1010A00002D152EA033C02D14FF0000070474FF0EA
:1010B000010070474FEA410212F5001215D211D516
:1010C0006FF47873B3EB625212D94FEAC12343F045
:1010D000004343EA505311F0004F23FA02F018BFC7
:1010E000404270474FF00000704750EA013005D190
:1010F00011F0004008BF6FF0004070474FF0000053
:10110000704700BF10B59AB004466B4608461022DF
:1011100001A905F0BFFCBDF804309DF808209DF83A
:1011200009105BBA98B22380130443EA01631343A6
:101130009DF8072043EA02236360BDF80A3023814B
:10114000BDF80C306381DDF80E30E36044F24D23CE
:10115000C31A584258411AB010BD30B50D469BB065
:1011600004460E21284605F0A2FD6B46282201A95F
:10117000284605F08FFC019B2360029B6360039B64
:10118000A360BDF81030A381BDF81230E381059B48
:101190002361069B6361079BA361089BE361099B35
:1011A00023620A9B63621BB030BD000010B5084C7F
:1011B000084A04214FF4BC63204602F065FCC820B5
:1011C00000F094FC20460421BDE8104002F0C2BCAF
:1011D00000240020C40B0020094A08B52321002365
:1011E0000133B3F5B46F42F8041BF9D105484FF44D
:1011F0008072002106F0E6FCBDE80840FFF7D6BF8C
:10120000C40B0020442200203B2816D843EA0243A6
:1012100043EA012118235843084B03EB80000023C5
:1012200001FA03F212F4000F03F1010314BF462286
:101230002322182B40F8042BF2D17047C40B002056
:101240002DE9F0470C4686B0064601462046174673
:10125000FFF758FF18B9002006B0BDE8F087314607
:101260003846FFF77AFFE168304605F020FDFFF7CA
:10127000B3FFFB89182BEED1FFF7AEFFBD68DFF897
:101280007490DFF874A0013D002D31DB1B4C4FF052
:10129000000824E005AB032204A9304605F0FAFB60
:1012A0009DF812109DF811209DF8103004F8031CD1
:1012B0001FFA88F004F8022C04F8013CFFF7A4FFA1
:1012C000CDE9015814F8013C009314F8023C14F8DD
:1012D000032C4946504600F07FF808F101087B686E
:1012E000434504F10304D5D8FFF760FF013DCBE788
:1012F0000120B1E718F60008482400207C0B0020EC
:1013000007B50B4B00220192196B41F400111963D0
:101310001B6B03F40013019311461120019B00F095
:101320000BFC112003B05DF804EB00F037BC00BFEC
:1013300000380240F0B589B01422002103A806F05D
:1013400041FC0024214B00941A6B214F214D42F0A7
:1013500080021A631A6B02F080020092009A0194D4
:101360001A6B42F001021A631A6B02F00102019239
:10137000019A02941A6B42F002021A631B6B03F08B
:1013800002030293224638461021029B00F090FE91
:10139000012228464FF4807100F08AFE01261023B6
:1013A00003A93846CDE90336CDE9054400F0B8FD80
:1013B0004FF48073CDE9033603A902232846CDE913
:1013C000053400F0ADFD09B0F0BD00BF00380240AB
:1013D00000000240000402400EB430B5A2B025ABBC
:1013E000054653F8042B0193802102A808F0FAF96E
:1013F0004FF0FF33044682B202A9284602F0A4FC53
:10140000204622B0BDE8304003B0704710B594B01C
:10141000102200210AA806F0D5FB1422002103A8FF
:1014200006F0D0FB204B002101911A6C42F0805253
:101430001A641B6C03F080530193019B1B4B0291B8
:101440001A6842F440421A601B6803F44043029356
:10145000029B01224FF48033CDE9082302244FF48C
:101460008003CDE90E4319214FF4A8730420CDE980
:1014700010130723CDE9120308A801F0E7FA08B119
:1014800072B6FEE70F23CDE903344FF48053CDE964
:1014900006300590214603A801F0B6FC08B172B6EB
:1014A000FEE714B010BD00BF0038024000700040DD
:1014B00000B5ADF5805D87B000F0ECFAFFF7A6FF50
:1014C000FFF738FFFFF71CFF00F0F6F900F0AEF869
:1014D00003F0ACF905F0D6FF00F03CFAFFF77CFE14
:1014E0003B4A3C4C10685168127A03AB03C3002599
:1014F0001A70294640F6FC7207A8069506F062FBB2
:1015000035493648FFF768FF35493648012205F06E
:1015100097F9002840D134493048FFF75DFF012298
:10152000324803A905F0B6F902462070002843D0DE
:101530002F492A48FFF750FF2E492848FFF74CFF54
:101540002D4B2E4A2E492948FFF77AFE002838D025
:101550002C492248FFF740FF244805F097FB02463C
:10156000207000282FD028491C48FFF735FF234C56
:1015700019491A48FFF730FFD4E9012323491748D6
:10158000FFF72AFFE28922491448FFF725FF4FF4AD
:10159000FA7000F0ABFAFAE722781E490F48FFF71D
:1015A0001BFF4FF4805300931B4806AB2A460221D1
:1015B00005F086FC2070B2E718490848FFF70CFFD9
:1015C000BAE71749C5E717490448FFF705FFCEE713
:1015D0002FF70008F428002035F6000848240020E2
:1015E000F0280020902400204CF60008C02600209F
:1015F00075F60008A8F600087C0B0020540B0020AC
:10160000440B0020BFF60008E3F600080EF70008C0
:1016100025F7000861F60008D2F600088EF60008EB
:10162000D3F60008F9F6000872B6FEE70E480F4A36
:1016300008B54FF48273C0E9002300234FF4007211
:10164000C0E90233C0E90433C0E90623C0E9083326
:1016500083620A23C36201F01BFD18B1BDE8084094
:10166000FFF7E2BF08BD00BF442300200030014067
:1016700010B5044688B01422002103A806F0A2FA8F
:101680002268144B9A4222D103F584330021019140
:101690005A6C114842F480525A645A6C02F48052D7
:1016A0000192019A02911A6B42F001021A631B6BBC
:1016B00003F001030293029BE02202230321CDE900
:1016C00003230523CDE9061303A900F029FC08B084
:1016D00010BD00BF003001400000024082B00C4B42
:1016E000002100915A6C42F480425A645A6C02F410
:1016F00080420092009A01911A6C42F080521A6462
:101700001B6C03F080530193019B02B0704700BF34
:1017100000380240FEE7FEE7FEE7FEE7FEE770471F
:101720007047704700F0D0B9014800F03BBB00BFE4
:10173000A0230020014800F065BD00BFFC2D002063
:101740000120704708B506F013FA162303604FF026
:10175000FF3008BD08B506F00BFA16230360FEE75C
:1017600070B50D4614460E46731B9C4201DC2046A4
:1017700070BDAFF3008006F8010BF5E770B50D46BC
:1017800014460E46731B9C4201DC204670BD16F8C1
:10179000010BAFF30080F5E74FF0FF3070474FF4D7
:1017A00000534B60002070470120704700207047B5
:1017B0000B4A116810B5034609B90A49116010684F
:1017C00009490A4C0344091B8B4206D906F0D0F99B
:1017D0000C2303604FF0FF3010BD1360FCE700BF27
:1017E0009C230020C84400200000022000120000BA
:1017F000704700000368B3F1804F37B505462BD121
:10180000164A174C00230193116C41F00101116439
:10181000126C144902F001020192019A4FF0C06269
:10182000C4E9001240224FF48060C4E902234FF45F
:101830008052C4E904024FF4804C4FF48072204679
:10184000C4E906C2C4E9083300F0E0F908B1FFF7C3
:10185000EBFEAC622C63A56303B030BD00380240E0
:10186000A0230020A060024010B5044686B01422D8
:10187000002101A806F0A6F92368B3F1804F15D125
:10188000002300930A4B0B481A6B42F002021A63C2
:101890001B6B03F002030093009B08220223CDE997
:1018A000012301A90123059300F03AFB06B010BD06
:1018B000003802400004024010B58EB01022002112
:1018C00003A806F07FF900241C2221460DEB02003C
:1018D000CDE9014406F076F91D484FF08043C0E998
:1018E00000346823C0E903348460846101F064FE3D
:1018F00008B1FFF799FE4FF480531548039303A9ED
:1019000001F044FF08B1FFF78FFE114801F080FE9F
:1019100008B1FFF789FE00240D4801A9CDE9014473
:1019200002F01AF908B1FFF77FFE60230848099416
:10193000042207A9CDE907340B9401F0C1FE08B1D8
:10194000FFF772FE0248FFF78FFF0EB010BD00BF19
:10195000002400200B480C4A08B54FF4E133C0E9DD
:10196000002300230C22C0E90233C0E905230361F0
:10197000C36102F0BBF918B1BDE80840FFF754BEDF
:1019800008BD00BF482400200010014010B50446E7
:1019900088B01422002103A806F014F92268144B21
:1019A0009A4223D103F59433002101915A6C1148D6
:1019B00042F010025A645A6C02F010020192019A2D
:1019C00002911A6B42F001021A631B6B03F00103D0
:1019D0000293029B4FF4C06202230321CDE903234B
:1019E0000723CDE9061303A900F09AFA08B010BD49
:1019F0000010014000000240DFF834D00D480E49CD
:101A00000E4A002302E0D458C4500433C4188C4258
:101A1000F9D30B4A0B4C002301E013600432A242BD
:101A2000FBD3FFF7E5FE06F0A9F8FFF741FD70478D
:101A30000000022000000020280B00206CFC0008A1
:101A4000280B0020C4440020FEE7000038B50E4AF1
:101A50000E4B054618784FF47A73B3FBF0F3106819
:101A6000B0FBF3F000F0A8F8044658B90F2D09D8E0
:101A7000024629464FF0FF3000F05EF8044B204646
:101A80001D6038BD0120FCE700000020040000209C
:101A90000800002008B50B4B1A6842F400721A6067
:101AA0001A6842F480621A601A6842F480721A60FE
:101AB000032000F02FF80F20FFF7C8FFFFF70EFEFE
:101AC000002008BD003C0240034A044B11681B780B
:101AD0000B441360704700BF8C24002004000020DA
:101AE000014B1868704700BF8C24002038B50446AD
:101AF000FFF7F6FF631C1CBF054B1B78054618BF9C
:101B0000E418FFF7EDFF431BA342FAD338BD00BF33
:101B1000040000200749CA6822F4E06203021204AC
:101B200003F4E063120C134343F0BF6343F4003348
:101B3000CB60704700ED00E0164B30B5DC68C4F3B5
:101B40000224C4F10703251D042B28BF0423062DFE
:101B50004FF0FF3505FA03F38CBF033C002421EA64
:101B60000303A34005FA04F422EA0402002843EA2E
:101B70000203ACBF00F16040074A4FEA0313B8BF4D
:101B800000F00F00DBB2AABF00F56140135480F8EB
:101B9000003330BD00ED00E014ED00E0002808DB6C
:101BA0004209012300F01F0003FA00F0014B43F843
:101BB0002200704700E100E00138B0F1807F0BD2D5
:101BC0004FF0E023054A5861F02182F823100020ED
:101BD000072298611A6170470120704700ED00E00C
:101BE000036810B5084C0246D9B210391820B1FB71
:101BF000F0F0205CD06523F47F7020F003005F29B3
:101C000088BF0430906510BD50F7000870B50446D9
:101C1000FFF766FF0546002C73D0022384F83530A9
:101C20002268002384F83430136823F00103136022
:101C300021680B68D8072FD40B68334DA0691D406D
:101C4000D4E901231343E268134322691343626911
:101C50001343E26903431343226A1343626A042A6B
:101C600043EA050302BFD4E90B5635432B430B600F
:101C70004B69042A23F0070343EA020333D1A26A23
:101C8000E56A13437DB390B9012A21D032F00202F4
:101C900029D1EA0127D51EE0FFF722FF401B0528C6
:101CA000C6D920236365032084F8350070BDB0F5E4
:101CB000005F14D1032A16D801A050F822F000BF0B
:101CC000D71C0008931C0008D71C0008D11C000872
:101CD000B5F1C07F07D1402363650120E4E7022A04
:101CE000F9D9032AD5D04B612046FFF779FFE26D81
:101CF0003F239340836000200123606584F83530E2
:101D0000D4E70120D2E700BF3F8010F070B590F813
:101D10003440866D012C31D0012480F8344090F895
:101D20003540012C4FF000054FF0020424D180F81B
:101D3000354004684565256825F480252560636085
:101D40008368402B0EBFA260A160E260C26D08BF35
:101D5000E1603F239340B360236843F016032360A0
:101D6000036C1BB1236843F008032360236843F02E
:101D700001032360002070BD80F834500220FAE790
:101D800090F83530022B03D0802343650120704743
:101D90000268052380F83530136823F001031360CF
:101DA00000207047F7B5002301935C4B856D1F68D9
:101DB000C36D2E6808229A40324204460CD0016856
:101DC0000868400708D5086820F004000860AA6089
:101DD000626D42F00102626501229A40324208D0EF
:101DE00021684969090641BFAA60626D42F002029A
:101DF000626504229A40324208D021680968880747
:101E000041BFAA60626D42F00402626510229A40EE
:101E1000324210D02368196809070CD5AA601A68E5
:101E2000500337D51B68190301D4236C00E0A36C61
:101E30000BB120469847E16D20228A4032423AD0C9
:101E400023681868C60636D5AA6094F83520052A96
:101E50001A6827D122F016021A605A6922F080020D
:101E60005A61226C0AB9A26C1AB11A6822F00802EF
:101E70001A603F238B40AB60012384F83530002388
:101E800084F83430236D002B45D0204603B0BDE8E4
:101E9000F04018471A68D2055EBF1A6822F008029F
:101EA0001A60C2E7500327D51B68190331D4636C4D
:101EB0000BB120469847636D6BB3636DDA0719D594
:101EC00022684FF41653B7FBF3F7052384F8353037
:101ED000136823F001031360019B0133BB4201939C
:101EE00002D81368DB07F7D4012384F835300023C8
:101EF00084F83430E36CC6E71A6812F4807208D1B3
:101F0000196821F010011960012384F8353084F834
:101F10003420E36BCCE703B0F0BD00BF000000202D
:101F20002DE9F74FDFF87C915F4A00230D6801240B
:101F30009C4004EA050CAC4340F0A6804D6805F0D7
:101F400003044FEA43080326671E06FA08F6012F2A
:101F50006FEA060634D8876807EA060ECF6807FAE4
:101F600008F747EA0E078760476827EA0C0EC5F3B3
:101F700000179F4047EA0E074760C76807EA060E4A
:101F80008F6807FA08F747EA0E07022CC76019D1D5
:101F90004FEAD30A00EB8A0A03F0070BDAF8207045
:101FA0004FEA8B0B4FF00F0E0EFA0BFE27EA0E0EC8
:101FB0000F6907FA0BF747EA0E07CAF8207001E02D
:101FC000032CDAD1076804FA08F43E40264315F4DE
:101FD000403F066058D000240194D9F8446046F48C
:101FE0008046C9F84460D9F8446006F480460196FA
:101FF000019E23F0030606F1804606F59C3603F0A9
:10200000030ED6F808804FEA8E0E0F2707FA0EF758
:1020100028EA0707DFF89480404513D004F1804494
:1020200004F50134A04236D004F58064A04234D0D7
:1020300004F58064A04232D004F58064A0420CBF55
:102040000424072404FA0EF43C43B46014686FEAD5
:102050000C06EF0354BF34404CEA04041460546887
:10206000AF0354BF34404CEA040454609468EF0258
:1020700054BF34404CEA04049460D468AD0254BFA9
:1020800034404CEA0404D4600133102B7FF44EAF8B
:1020900003B0BDE8F08F0124D4E70224D2E7032483
:1020A000D0E700BF00380240003C01400000024081
:1020B0000AB1816170470904FBE7F0B504468BB0B3
:1020C00060B390F8BD33056803F0FF021BB980F8D8
:1020D000BC2305F09DFA032384F8BD33EB6B254642
:1020E00013F4807355F8100B08BF236101F05CFFF7
:1020F0000FCD6E460FC60FCD0FC695E8030086E8DC
:1021000003002546271D97E80E0055F8100B01F037
:1021100095FE064620B1022384F8BD3301254EE02A
:102120000146206801F046FF3146D4F804C01C2661
:102130004FF0010E0846CAB2944501F101011CD8C6
:1021400000231C261946D8B2844503F1010322D886
:102150000FCD6E460FC60FCD0FC695E8030086E87B
:10216000030097E80E00206801F08AFF012305466E
:10217000F0B1022284F8BD23D0E706FB0243C3E995
:10218000110083F83DE083F83C20A3F8422083F857
:102190003F001865CFE706FB0042C2E9811182F8D3
:1021A000FD1182F8FC0182F8FF11C2F81012CAE793
:1021B00084F83800206884F8BD3302F0BFFA28465E
:1021C0000BB0F0BD10B50446006894F8BC33012B89
:1021D00015D0012384F8BC33A36A012B06D1A3696F
:1021E000012B1EBF836B43F48033836301F0D6FE63
:1021F000206802F095FA002084F8BC0310BD02208C
:10220000FCE700002DE9F04F066887B00446304631
:1022100002F0D1FA0290002840F02481206802F0F8
:102220009BFA002800F01E81206802F095FA8207D0
:1022300048BF2268206842BF536903F0020353611C
:1022400002F08AFAC3062AD52268936923F01003A4
:102250009361376AC7F34343022B07F00F0540F041
:10226000048147F6F0731F4214D01C2303FB05457D
:10227000C7F30A184246D5F80812304602F0CCF9E6
:10228000D5F80822D5F8143242444344C5F8082250
:10229000C5F814322268936943F0100393612068F3
:1022A00002F05AFA070300F1F480206802F054FAB1
:1022B00045030CD5206802F05BFA2546039006F52D
:1022C00010694FF00008039B002B40F08A812068C2
:1022D00002F042FA002815DAD6F8043823F0010398
:1022E000C6F8043894F8F433012B40F00A82002138
:1022F00084F8F413204600F0A7FB2268536903F02A
:1023000000435361206802F027FA01050BD5D6F887
:102310000838DA0702D5204605F0EAF92268536941
:1023200003F400635361206802F016FAC30437D542
:10233000D6F80438206823F001031021C6F80438C9
:1023400001F068FE06F5006506F510634FF67F3173
:1023500062680298824200F2D881EB6943F001136F
:10236000EB61236B002B00F0F181D5F8843043F052
:102370000B03C5F884306B6C43F00B036B64D6F829
:102380000038217C206823F4FE63C6F8003804F589
:10239000717202F025FA2268536903F48053536185
:1023A000206802F0D9F9870416D5206802F007FAF0
:1023B000206801F023FFE060256800F0C1FD227B6A
:1023C0000146284601F07AFD204605F07EF9226894
:1023D000536903F400535361206802F0BDF9060706
:1023E00007D5204605F06DF92268536903F008030C
:1023F0005361206802F0B0F9C50208D500212046DB
:1024000005F096F92268536903F48013536120683C
:1024100002F0A2F9800208D50021204605F084F9D7
:102420002268536903F400135361206802F094F9A1
:10243000410007D5204605F07FF92268536903F073
:1024400080435361206802F087F942070AD5236868
:102450005D686B0702D5204605F072F92268536863
:102460002B43536007B0BDE8F08F062B7FF412AF0B
:10247000082204F57171304602F0CEF81C2303FBEC
:102480000545C7F30A17D5F814321F44C5F814726E
:1024900000E72068DFF8ACB202F062F906F53067B9
:1024A0000390A2460025039B002B3FF4FEAE039B46
:1024B000D80756D55FFA85F92068494602F060F9D9
:1024C00010F0010F80461AD02068216900F5306CA9
:1024D00001220CEB451CBA600129036CDCF80820D2
:1024E00066D1110706D55B4509D9100407D54FF40D
:1024F000004302E091063CD52023CCF8083018F0C8
:10250000080F1ED023680822BA601A6C03F53063E6
:1025100003EB45135A45996804D9090444BF4FF4A5
:10252000004199602046049205F0B4F8049A5A4597
:1025300007D92169012904D1206804F5717202F0DC
:102540004FF918F0100F1CBF1023BB6018F0200FBC
:102550001CBF2023BB6018F4005F1CBF4FF4005366
:10256000BB60039B5B080135039320370AF11C0A0B
:1025700099E712F0280FC2D15B4501D91204B6D4F5
:10258000DCF81020DAF80412C2F312028A1ACAF830
:102590001422DAF808220A44CAF8082295B9D4F8B5
:1025A00010227AB904F57172012102F019F909E0DB
:1025B00065498B420BD1130499D4900602D5202291
:1025C000CCF808204946204605F06AF897E7002D28
:1025D000F8D1D4F81022002AF4D104F571722946FA
:1025E000E3E7039BDA0740F183805FFA88FB20680A
:1025F000594602F0CEF8C307074621D5D6F834383D
:102600002169012008F00F0200FA02F223EA020316
:102610008142C6F83438C9F808000DD1D5E9112334
:102620001344AB64B8F1000F06D1236D23B92068C1
:1026300004F5717202F0D4F85946204605F039F8D5
:10264000380744BF0823C9F80830F90644BF1023EF
:10265000C9F808307A0644BF4023C9F80830BB07E0
:1026600044BF0223C9F80830380641D5D5E91432F1
:102670009A423DD89B1A6A6CD4F800A0934228BFB6
:10268000134603339B0804930AF5106303EB4813C6
:102690000593059B04999A6992B28A42D5E914730D
:1026A00024D3BB420BD3DAF8343808F00F020121EF
:1026B00001FA02F223EA0203CAF8343818E0FF1ADA
:1026C0006B6C9F4228BF1F46FB1C9B080493237C16
:1026D0000093A96CBBB25A46504601F0A9FEAB6C00
:1026E0003B44AB646B6D3B446B65D2E7BB42DAD2D3
:1026F000039B5B0808F1010803931C3509F12009CD
:10270000E1E5204605F00CF8F7E599601A6822F437
:1027100000121A601A6842F000621A60C3F80812C8
:10272000D3F8002222F40012C3F80022D3F80022CA
:1027300042F00062C3F80022029A01320292203372
:1027400006E600BF0A30544F0A31544F6B6943F418
:10275000005343F02B036B612B6943F00B032B6198
:102760000DE600BF10B590F8BC23012A04460BD03B
:10277000012280F8BC2380F83810006801F0C0FF07
:10278000002084F8BC0310BD0220FCE770B501F006
:102790000F06C6EBC60411F0800F05464FEA84040D
:1027A0004FF01C001FD000FB065004F13C01012437
:1027B000294480F83D408A604A780E70CB7002B19F
:1027C000CE80022B04BF00230B7195F8BC33012B84
:1027D00012D00123286885F8BC3301F01AFD0020CF
:1027E00085F8BC0370BD00FB065004F5FE710024A3
:1027F000294480F8FD41DEE70220F3E710B50446E6
:1028000001F00F00C0EBC00311F0800F4FEA83030B
:102810004FF01C0216D002FB004203F13C010123E1
:10282000214482F83D30087094F8BC33012B12D05B
:102830000123206884F8BC3301F02AFD002084F8CD
:10284000BC0310BD02FB004203F5FE7100232144CE
:1028500082F8FD31E7E70220F3E738B501F00F0514
:102860001C2404FB050104FB050401F5FE71C4F8FA
:1028700010320023C4F80822C4F8143284F8FD3161
:1028800084F8FC5103690068012B08BFC4F80C22CE
:10289000DAB21DB901F052FD002038BD01F0DCFDB7
:1028A000FAE701F00F011C2303FB0100D0F814022A
:1028B000704738B501F00F051C2404FB050104FB2B
:1028C00005043C312365002363650123A26484F879
:1028D0003D3084F83C5003690068012B08BFE26476
:1028E000DAB21DB901F02AFD002038BD01F0B4FDB7
:1028F000FAE738B5436801F00F059D4204462CD82D
:1029000011F0800F4FF01C001ED000FB054200FBB1
:10291000054101233C3182F83D3001238B700D705D
:1029200094F8BC239A421AD0206884F8BC3301F092
:1029300093FE2DB9217C206804F5717201F050FFDF
:10294000002084F8BC0338BD00FB01431A4603F5A0
:10295000FE71002382F8FD31DFE70120F3E702205A
:10296000F1E738B5436801F00F029A4204462AD8CD
:10297000C2EBC20311F0800F4FEA83034FF01C003B
:1029800018D000FB024003F13C010123214480F8F0
:102990003D3000258D700A7094F8BC33012B14D0A3
:1029A0000123206884F8BC3301F081FE84F8BC5315
:1029B000284638BD00FB024003F5FE710023214488
:1029C00080F8FD31E5E70120F3E70220F1E710B5DB
:1029D00090F8BC33012B044610D0012380F8BC339F
:1029E0000B06006807D501F00F0101F013FB002072
:1029F00084F8BC0310BD01F025FBF8E70220F9E7DD
:102A0000006870B51204446A19B92243826200203A
:102A100070BD836A4D1E04EB134400235E1CDBB2C1
:102A20009D4205D83F3100EB810022434260EEE732
:102A3000403300EB83035B6804EB13443346EDE75C
:102A40000368002059627047704700002DE9F34188
:102A5000044640B30368DD0710D4236898075ED4AA
:102A600023681A0700F1A08023685B0700F1C0808B
:102A7000A069002840F0288100202BE08F4B9A6845
:102A800002F00C02042A07D09A6802F00C02082A0D
:102A90000BD15A68510208D5884B1B689A03DCD5C4
:102AA0006368002BD9D1012014E06268B2F5803F41
:102AB00013D11A6842F480321A60FFF711F87F4E82
:102AC000054633689B03C8D4FFF70AF8401B642807
:102AD000F7D9032002B0BDE8F081784DB2F5A02F00
:102AE0002B6807D143F480232B602B6843F4803399
:102AF0002B60E2E723F480332B602B6823F48023E0
:102B00002B60002AD9D1FEF7EBFF06462B689F0306
:102B1000A3D5FEF7E5FF801B6428F7D9D9E7674BFB
:102B20009A6812F00C0F07D09A6802F00C02082A7B
:102B300011D15B685E020ED4604A13689D0702D50E
:102B4000E368012BAFD11368216923F0F80343EA4E
:102B5000C103136084E7E268594BB2B101221A60E5
:102B6000FEF7BEFF554D06462B68980707D52B6824
:102B7000226923F0F80343EAC2032B6070E7FEF7F3
:102B8000AFFF801B0228EFD9A3E71A60FEF7A8FF6A
:102B90004A4E0546336899077FF562AFFEF7A0FFFE
:102BA000401B0228F6D994E76269454B82B10122A5
:102BB000C3F8802EFEF794FF404E0546736F9F07C3
:102BC0003FF552AFFEF78CFF401B0228F6D980E795
:102BD000C3F8802EFEF784FF384E0546736F9807C2
:102BE0007FF542AFFEF77CFF401B0228F6D970E765
:102BF000324B1A6C12F0805228D101921A6C42F0BA
:102C000080521A641B6C03F080530193019B0127CF
:102C10002C4D2B68D9051BD5A368284D012B27D136
:102C20002B6F43F001032B67FEF75AFF234E054637
:102C300041F28838336F9B0739D5002F3FF418AF26
:102C40001E4A136C23F08053136411E70027DFE75B
:102C50002B6843F480732B60FEF742FF06462B6817
:102C6000DA05D9D4FEF73CFF801B0228F7D930E7FC
:102C7000052B04D12B6F43F004032B67D0E72A6F99
:102C800022F001022A672A6F22F004022A67002B31
:102C9000CAD1FEF725FF41F2883806462B6F980708
:102CA000CBD5FEF71DFF801B4045F7D911E7FEF796
:102CB00017FF401B4045BDD90BE700BF003802405D
:102CC0000000474200700040364DAB6803F00C0333
:102CD000082B3DD0344B002202281A662BD1FEF778
:102CE000FFFE06462B6899011FD4D4E9073213432F
:102CF000626A43EA8213E26A43EA0263A26A520802
:102D0000013A43EA02436B60274B264D01221A66C3
:102D1000FEF7E6FE04462B689A013FF5ADAEFEF7DE
:102D2000DFFE001B0228F6D9D3E6FEF7D9FE801B92
:102D30000228D7D9CDE6FEF7D3FE04462B689B01C7
:102D40007FF59AAEFEF7CCFE001B0228F6D9C0E64E
:102D500001283FF4BFAE6B68E26903F48001914241
:102D60007FF4A1AE216A03F03F028A427FF49BAE5A
:102D7000616A47F6C0721A40B2EB811F7FF493AECE
:102D8000A26A520803F44031013AB1EB024F7FF4DA
:102D90008AAEE26A03F07063B3EB026F3FF46CAE8D
:102DA00081E600BF0038024000004742134908B5E1
:102DB0008B6803F00C03042B1CD0082B1CD14A6831
:102DC0004B68496813F4800314BF0D480D48C1F3E4
:102DD000881118BF002302F03F02A1FB0001FDF79C
:102DE0000FFA064B5B68C3F3014301335B00B0FB92
:102DF000F3F008BD0248FCE70248FAE70038024059
:102E000040787D010024F4002DE9F0410D46044690
:102E100010B90120BDE8F081444B1A6802F00702A6
:102E20008A4228D3226897072DD4D00741D43F4B3C
:102E30001A6802F00702AA4266D8226851076CD4C9
:102E4000130707D53A4A2169936823F4604343EA9C
:102E5000C1039360FFF7AAFF354B364A9B68C3F363
:102E60000313D35CD840344B1860344B1868FEF71A
:102E7000EDFD0020CEE7CAB21A701B6803F007030D
:102E80008B42C6D1CEE72A4B12F0040F1EBF9968C1
:102E900041F4E0519960160742BF996841F46041DE
:102EA00099602349A0688B6823F0F00303438B608B
:102EB000BBE762681E4B012A1CD11B6813F4003F5C
:102EC000A7D01B4EB36823F003031343B360FEF790
:102ED00007FE41F288380746B368626803F00C03C6
:102EE000B3EB820FA3D0FEF7FBFDC01B4045F3D927
:102EF00003208FE7911E01291B6802D813F0007F81
:102F0000DEE713F0020FDBE7EAB21A701B6803F08A
:102F10000703AB427FF47DAF8FE70549E0688B681C
:102F200023F4E05303438B608AE700BF003C024078
:102F30000038024038F70008000000200800002098
:102F4000014B1868704700BF00000020044B054A81
:102F50009B68C3F38223D35C034A1068D840704750
:102F60000038024048F7000800000020044B054AE2
:102F70009B68C3F34233D35C034A1068D840704760
:102F80000038024048F70008000000202DE9F34116
:102F90001C4616460F460546FEF7A2FD3444241A89
:102FA000FEF79EFD234B1B68C3F3CB338046634380
:102FB0002A680193936837EA030301D000202EE0CA
:102FC000731CF7D0FEF78CFDA0EB0800A04229D3BC
:102FD0002B685A6822F0E0025A606A68B2F5827F74
:102FE0000AD1AA68B2F5004F02D0B2F5806F03D1C2
:102FF0001A6822F040021A60AA6AB2F5005F07D18F
:103000001A6822F400521A601A6842F400521A60D8
:10301000012385F85130002385F85030032002B099
:10302000BDE8F081019B002B019B08BF0024013B00
:10303000BEE700BF0000002037B51346124A1568EE
:10304000124AB5FBF2F54FF47A7255434268019586
:10305000B2F5827F04460BD10A468021FFF796FF26
:1030600078B1636D43F020036365032003B030BD86
:10307000019B33B1019B013B019323689B681B06B5
:10308000F6D40020F2E700BF0000002000366E01F9
:1030900010B50446002855D0436A002B4ED1426833
:1030A000B2F5827F00D0C3610023A36294F851304F
:1030B00003F0FF0223B984F850202046FEF7D8FA27
:1030C0002168A068A269022384F851300B6823F0BC
:1030D00040030B60636800F4044003F4827303430D
:1030E000E06800F400600343206900F0020003433D
:1030F000606900F00100034302F400700343E069DB
:1031000000F038000343206A00F080000343A06A07
:1031100000F4005003430B60636A120C03F01003C9
:1031200002F004021A434A60CB6923F40063CB61C6
:1031300000200123606584F8513010BD0023C0E9F0
:103140000433B1E70120F8E72DE9F7431E4690F874
:1031500050300A9F012B04460D46914600F0E68050
:10316000012380F85030FEF7BBFC94F851306268C0
:10317000012B8046D9B20AD0B2F5827F40F0D480CC
:10318000A368002B40F0D080042940F0CD80002DB2
:1031900040D0B9F1000F3DD0002E3BD094F8513013
:1031A000C4F83890042B1CBF052384F85130002349
:1031B0006365C4E910332368E687E6861968A68745
:1031C000490658BF1968256358BF41F04001A686DB
:1031D00058BF1960E168B1F5006F52D10AB1012EF4
:1031E00007D135F8022BDA60E38E2563013B9BB2F1
:1031F000E3860125E38E9BB273B9E38F9BB25BB983
:10320000424639462046FFF717FF002800F081802C
:103210002023636501202BE021688B689E070DD574
:10322000E38E9BB253B14DB1236B33F8022BCA60CE
:103230002363E38E013B9BB2E38600258A6812F08C
:1032400001020CD0E38F9BB24BB1A36BC96823F88A
:10325000021BA363E38F013B9BB2E3871546FEF796
:103260003FFCA0EB0800B842C4D3781CC2D00320B6
:10327000012384F85130002384F8503003B0BDE8B6
:10328000F0830AB1012E08D12A781A73236B013317
:103290002363E38E013B9BB2E38601252DE0226888
:1032A000936899070ED5E38E9BB25BB155B1236B42
:1032B0001B781373236B01332363E38E013B9BB2B3
:1032C000E38600252268916811F001010DD0E38F9B
:1032D0009BB253B1A36BD2681A70A36B0133A36383
:1032E000E38F013B9BB2E3870D46FEF7F9FBA0EBB2
:1032F0000800B8420AD37B1CB9D1E38E9BB2002BE5
:10330000CDD1E38F9BB2002BC9D179E7002FF4D147
:10331000ADE7A368002BABD123680190DA68019276
:103320009B680193019BA3E70220A1E70220A5E788
:10333000036A23F001030362036A70B5446882697B
:103340000D6822F073022A438D6823F002032B4399
:103350000A4DA8420BD1CD6823F008032B43D1E9D5
:10336000055624F44074354323F004032C43446091
:1033700082614A684263036270BD00BF0000014081
:10338000036A23F480730362036A70B54468C269F8
:103390000D6822F073022A438D6823F4007343EA18
:1033A00005230B4DA8420DD1CD6823F4006343EAF9
:1033B0000523D1E9055624F44054354323F48063B2
:1033C00044EA05144460C2614A68C263036270BD86
:1033D00000000140036A23F480530362036A30B59E
:1033E0004468C2690D6822F4E64242EA05228D680B
:1033F00023F4005343EA0533064DA84202BF4D694A
:1034000024F4804444EA85144460C2614A6802643A
:10341000036230BD000001407047704710B5846BF7
:10342000626A82420BD101232377D2690AB984F8F8
:103430003E302046FFF7F1FF0023237710BDA36A3B
:10344000834208D102222277DB69002BF1D10123CC
:1034500084F83F30EDE7E36A834208D10422227703
:10346000DB69002BE5D1012384F84030E1E7236BD1
:103470008342DED108222277DB69002BD9D10123D8
:1034800084F84130D5E7704710B5846B636A834296
:1034900007D1012323772046FFF7F5FF0023237789
:1034A00010BDA36A834201D10223F3E7E36A83429A
:1034B00001D10423EEE7236B8342ECD10823E9E733
:1034C000704710B5846B636A834209D10123237767
:1034D00084F83E302046FFF7F3FF0023237710BD2A
:1034E000A36A834205D102232377012384F83F3066
:1034F000F0E7E36A83424FF0010304D1042222770C
:1035000084F84030E6E7226B824203BF082222772C
:1035100084F8413084F83D30DCE70000244A036839
:1035200090420ED0B0F1804F0BD0A2F57C42904279
:1035300007D002F58062904203D002F5806290428B
:1035400015D14A6823F070031343194A904219D0E9
:10355000B0F1804F16D0A2F57C42904212D002F515
:10356000806290420ED002F5806290420AD0114AE9
:10357000904207D002F58062904203D002F580624B
:10358000904203D1CA6823F4407313434A6923F07D
:103590008003134303608B68C3620B688362044B30
:1035A000984204BF0B69036301234361704700BF66
:1035B000000001400040014010B5044630B390F8CF
:1035C0003D3003F0FF021BB980F83C20FEF712F9F2
:1035D0000223206884F83D30211DFFF79FFF01235F
:1035E00084F84630002084F83E3084F83F3084F878
:1035F000403084F8413084F8423084F8433084F815
:10360000443084F8453084F83D3010BD0120FCE79B
:1036100010B5044630B390F83D3003F0FF021BB9FB
:1036200080F83C20FFF7F8FE0223206884F83D3044
:10363000211DFFF773FF012384F84630002084F832
:103640003E3084F83F3084F8403084F8413084F8CC
:10365000423084F8433084F8443084F8453084F8AC
:103660003D3010BD0120FCE7036A23F01003036224
:10367000036A70B5446882690D6822F4E64242EA42
:1036800005228D6823F0200343EA05130B4DA84261
:103690000DD1CD6823F0800343EA0513D1E9055627
:1036A00024F44064354323F0400344EA8504446035
:1036B00082614A688263036270BD00BF00000140FE
:1036C00070B590F83C30012B054653D00120082AF4
:1036D00085F83C003DD006D8C2B1042A28D000238A
:1036E00085F83C3070BD0C2AF9D12868FFF772FECE
:1036F0002B680969DA6942F40062DA61DA6922F456
:103700008062DA61DA6942EA012231E02868FFF773
:103710000FFE2B6809699A6942F008029A619A695A
:1037200022F004029A619A690A439A610020D6E75E
:103730002868FFF799FF2B6809699A6942F40062CB
:103740009A619A6922F480629A619A6942EA012236
:10375000EBE72868FFF714FE2B680969DA6942F085
:103760000802DA61DA6922F00402DA61DA690A43EE
:10377000DA61DBE70220B5E710B584680A4324F478
:103780007F4442EA03222243826010BD70B590F864
:103790003C30012B04464FF0020300F091800122DF
:1037A00080F83D3080F83C200068836823F47F4334
:1037B00023F0770383600B68602B52D033D8402B03
:1037C00067D016D8202B0DD00AD833F0100109D0BD
:1037D000012384F83D30002384F83C30104670BD4E
:1037E000302BF5D1826822F07002134343F00703B7
:1037F00017E0502BECD14A68CE68016A056A25F0C3
:1038000001050562836921F00A0123F0F00343EA10
:1038100006130A4383610262836823F0700343F056
:103820005703836011E0B3F5805F0ED0B3F5005FFE
:103830000DD0702BCCD1CB68D1E90121FFF79CFFD3
:103840002268936843F0770393600022C0E7CB6857
:10385000D1E90121FFF790FF2268936843F4804388
:10386000F2E74D68CE68016A21F0100101628269B9
:10387000036A22F4704223F0A00343EA051342EAEC
:10388000063282610362836823F0700343F06703AA
:10389000C7E74A68CE68016A056A25F00105056236
:1038A000836921F00A0123F0F00343EA06130A4377
:1038B00083610262836823F0700343F04703B0E73B
:1038C0001A468BE7036A01F01F0110B501248C40F2
:1038D00023EA04030362036A8A401A43026210BDAA
:1038E00038B50D46044611462DB990F83E20022AFF
:1038F000D0B215D138BD042D0AD190F83F00A0F107
:10390000020CDCF1000040EB0C0040B10220F1E7BA
:10391000082D0CBF90F8400094F84100EFE73DB946
:1039200094F83E20501E424242414ABB0120E1E74A
:10393000042D02D194F83F20F4E7082D0CBF94F831
:10394000402094F84120012AF0D109B9002BEDD193
:10395000082D4FF0020256D1E06A84F84020454A13
:10396000C263454A0264454AC26422683C32FEF79B
:10397000CDF90028DAD12268D36843F4006317E058
:1039800009B9002BD2D102223DBB84F83E20606AE7
:10399000384AC263384A0264384AC2642268343200
:1039A000FEF7B4F90028C1D12268D36843F400734C
:1039B000D360206801222946FFF784FF2368304A3C
:1039C00093423FD15A6C42F400425A649A6802F022
:1039D0000702062A48D100208CE7042DB8D184F8CC
:1039E0003F20A06A234AC263234A0264234AC26476
:1039F00022683832FEF78AF9002897D12268D36806
:103A000043F48063D4E70C2D84F8412007D08DD88F
:103A1000082D8BD8002DBAD0042D87D1E1E7206B7B
:103A2000144AC263144A0264144AC26422684032CF
:103A3000FEF76CF900287FF479AF2268D36843F46D
:103A40008053B5E7B3F1804FC0D00E4A9342BDD04A
:103A500002F580629342B9D002F580629342B5D0FC
:103A600002F59A329342B1D01A6842F001021A600C
:103A7000B1E700BF1D34000889340008C3340008D2
:103A80000000014000040040FFF72ABF082938B5B4
:103A900005460C4648D004D861B104293DD0012028
:103AA00038BD0C29FBD10268006BD36823F4805326
:103AB000D36005E00268406AD36823F40073D360E2
:103AC000FEF75EF9002228682146FFF7FBFE2B680F
:103AD0001F4A93420DD1196A41F21112114208D1C5
:103AE000196A40F24442114202BF5A6C22F4004269
:103AF0005A64196A41F21112114208D1196A40F24E
:103B00004442114202BF1A6822F001021A600123E6
:103B10008CB985F83E300020C2E70268806AD3681D
:103B200023F48063D360CBE70268C06AD36823F4D0
:103B30000063D360C4E7042C02D185F83F30EAE784
:103B4000082C0CBF85F8403085F84130E3E700BF12
:103B500000000140FFF79ABF30B590F83C30012BD0
:103B600002464FF002002AD0136882F83D005C68DC
:103B70000D68986824F070042C435C60104CA342DC
:103B800012D0B3F1804F0FD0A4F57C44A3420BD0E8
:103B900004F58064A34207D004F58064A34203D0F7
:103BA00004F59A34A34204D1496820F0800001430F
:103BB00099600123002082F83D3082F83C0030BD3E
:103BC000000001400268C16838B5136923F440530E
:103BD0000B431361054683680069D1680343686934
:103BE0000343E86921F4164121F00C0103430B4320
:103BF000D3605369A96923F440730B4353611F4B8E
:103C00009A4203D003F580639A4224D1FFF7AEF9BC
:103C1000EA691921B2F5004FD5E90043A0FB010183
:103C20001CD1DA184FF0000545EB0503FCF7E8FA64
:103C30006421B0FBF1F501FB1503DB003233B3FB6C
:103C4000F1F303F007025B0002EB051203F4F873D3
:103C50001344A36038BDFFF779F9D9E79A009B0FA9
:103C6000FCF7CEFA6422B0FBF2F102FB11031B0158
:103C70003233B3FBF2F303EB0113EAE70010014028
:103C8000F8B504460E4617461D462268136836EA04
:103C9000030301D1002028E06B1CF7D025B1FDF70C
:103CA0001FFFC01B8542F0D2226802F10C0353E8CB
:103CB000003F23F4D0730C3242E800302168002822
:103CC000F2D101F1140353E8003F23F0010301F1A5
:103CD000140040E80032002AF3D1202384F83D305C
:103CE00084F83C2084F83E300320F8BD10B504462B
:103CF00040B390F83D3003F0FF021BB980F83C2040
:103D0000FDF744FE2268242384F83D30D36823F471
:103D10000053D3602046FFF755FF23681A6922F449
:103D200090421A615A6922F02A025A61DA6842F412
:103D30000052DA6000202023206484F83D3084F8AB
:103D40003E3010BD0120FCE72DE9F843994690F87C
:103D50003D30202B04460E46174648D1002944D05A
:103D6000002A42D090F83C30012B40D0012380F84B
:103D70003C3000252123056480F83D30FDF7B0FE7E
:103D8000A368A784B3F5805F8046E78403D12369E5
:103D90000BB935461E46002384F83C30E38C9BB2B9
:103DA00053B94B46424640212046FFF769FF50B9C0
:103DB000202384F83D3007E04B46424680212046D0
:103DC000FFF75EFF10B10320BDE8F88322684EB90B
:103DD00035F8023BC3F308035360E18C013989B223
:103DE000E184DBE716F8013BF6E70120ECE702206F
:103DF000EAE7000082B000230F4901930246019BCD
:103E000001338B42019314D81369002BF7DA002396
:103E100001931369084943F001031361019B0133C6
:103E20008B42019305D8106910F00100F6D102B061
:103E300070470320FBE700BF400D030084B038B596
:103E400005AD85E80E000A9B012B044625D1836B46
:103E500023F480338363C36823F4840323F0400393
:103E6000C360C36823F44013C360119B012B02BFDE
:103E7000C36843F48013C360FFF7BCFF089B012BAA
:103E800007D1A36843F00603A360A36843F02003AF
:103E9000A360BDE8384004B07047C36843F04003F6
:103EA000C360FFF7A7FF0E9B23B9A36B43F48033D6
:103EB000A363E3E7A36B23F48033F9E7022A4AD133
:103EC000274B284A0B44934239D9274B274A0B44A6
:103ED000934236D9264AA1F57403A3F510539342B1
:103EE00031D9244AA1F18373A3F5E74393422CD33C
:103EF000214B224A0B44934229D9214B214A0B449E
:103F0000934226D3204B214A0B44934223D3204A89
:103F1000A1F1B773A3F5585393421ED31D4B1E4A0C
:103F20000B44934234BF07230623C26822F4705225
:103F3000C260C26842EA8323C360002070470F2337
:103F4000F3E70E23F1E70D23EFE70C23EDE70B2357
:103F5000EBE70A23E9E70923E7E70823E5E700BFE2
:103F6000405327FFFF340C00401E1BFF3F420F0051
:103F70007F4F120020D6130060B6E5FE5FE3160007
:103F800000D3CEFE40771B00C05BB3FEC091210082
:103F900020753800E05459FEE09C4100836843F0EE
:103FA0000103836000207047836823F0010383606E
:103FB0000020704738B5C368012923F0C043054687
:103FC0000C46C36010D1C36843F00053C3600024A3
:103FD0000120FDF78BFD6B69D90704F1010414D4AE
:103FE000322CF5D1012038BD0029FBD1C36843F044
:103FF0008043C3600120FDF779FD6B69DA0704F1A6
:10400000010402D5322CF5D1ECE7A4F13203584279
:104010005841E8E782B0890141F020010023019373
:10402000016107490246019B01338B42019305D888
:10403000106910F02000F6D102B070470320FBE7B2
:10404000400D030082B0002301930849102302466B
:104050000361019B01338B42019305D8106910F075
:104060001000F6D102B070470320FBE7400D0300BB
:10407000D0F800381943C0F800180020704700003D
:1040800084B02DE9F843044609A880E80E00139E89
:1040900000230F46194603F1400204EB820201336C
:1040A0000F2B5160F7D104F50068002E73D1D8F8BA
:1040B000043043F00203C8F80430A36B43F4001348
:1040C000A363A36B23F40023A363A36B23F48023D4
:1040D000A3630023C4F8003ED4F80038C4F80038C5
:1040E0000E9B012B61D10B9900295CD12046FFF773
:1040F000BFFF10212046FFF78DFF05462046FFF742
:10410000A1FF2843C0B200230038C8F8103018BF00
:104110000120C8F8143004F51062C8F81C301946A4
:104120004FF090454FF0006C4FF67F3EBB423ED1C2
:10413000002204F5306311464FF090454FF0006CBB
:104140004FF67F3EBA4244D1D8F8103023F4807342
:10415000C8F810300023A3616FF0804363610C9BAB
:104160001BB9A36943F01003A361A269224B134357
:10417000A3610F9B1BB1A36943F00803A361012E48
:1041800001BFA36943F0804343F00403A361BDE88A
:10419000F84304B07047A36B23F40013A363A36B2D
:1041A00043F4002394E71946A0E703219EE7D2F8E1
:1041B0000090B9F1000F0ADA3BB9C2F800C01161F2
:1041C0000133C2F808E02032B0E71560F7E711606C
:1041D000F5E7D3F80090B9F1000F0ADA3AB9C3F85D
:1041E00000C019610132C3F808E02033AAE71D605E
:1041F000F7E71960F5E700BF00383C80D0F80838D1
:1042000013F0060004D013F0020F14BF02200F2099
:10421000704730B50D78012405F00F039C404B78B2
:1042200000F50062012B00EB4510D36918D11C4347
:10423000D461D0F800391A0410D48A68D0F8004943
:10424000C2F30A03CA78234343EA824343EA85530D
:1042500043F0805343F40043C0F80039002030BDE0
:1042600043EA0444D461D0F8003B1B04F6D48B68C5
:10427000D0F8002BC3F30A031343CA7843EA8243FE
:1042800043F0805343F40043C0F8003BE6E70000EE
:1042900010B50A784978012900EB421300F5006057
:1042A00002F00F0222D1D3F8001900290BDAD3F85B
:1042B000001941F00061C3F80019D3F8001941F06A
:1042C0008041C3F80019C46B012101FA02F224EA0B
:1042D0000204C463C16921EA0202C261D3F8001971
:1042E000144A0A40C3F80029002010BDD3F8001B6F
:1042F00000290BDAD3F8001B41F00061C3F8001B62
:10430000D3F8001B41F08041C3F8001BC46B4FF48D
:10431000803101FA02F224EA0204C463C16921EA8D
:104320000202C261D3F8001B034A0A40C3F8002B03
:10433000DAE700BF007833EC0078F3EF4B78DFF872
:10434000E8C0F0B50E784D69384F012B00EB4614EC
:1043500046D104F51063BDB91D692F401F611D6969
:1043600045F400251D611D6905EA0C05012A1D6142
:1043700023D10A6902B15A61D4F8003943F00443E9
:10438000C4F800390020F0BDD3F810E00EEA0C0CA0
:10439000C3F810C0D3F810C00CEA07071F618F687C
:1043A000AF421D6938BF4F6145F400251D614D695D
:1043B0001F69C5F312053D43D8E7D4F8003943F02F
:1043C0000443C4F800394B69002BDBD0D0F8342803
:1043D00006F00F060123B3401343C0F83438D1E789
:1043E000D4F8100B00EA0C00C4F8100BD4F8100B32
:1043F000384004F530631861886805B148611D696B
:1044000045F400251D611D69C0F312002843012AEF
:10441000186102D1CA6802B15A61D4F8003B43F076
:104420000443C4F8003BADE70000F8FFFFFF07E0DE
:1044300010B59DF8084044B9033301329B0800EBE6
:10444000023001EB83038B4201D1002010BD51F8F3
:10445000042B0260F7E700002DE9F3414D784B692A
:1044600091F803C0694EDFF8A8E117460A78012DDC
:1044700000EB421440F0818004F51065D5F81080FF
:104480004BBB08EA06062E612E6946F400262E6113
:104490002E6906EA0E062E61012F46D10B6903B183
:1044A0006B61BCF1010F0CD1D0F8083813F4807F98
:1044B000D4F800390CBF43F0005343F08053C4F8E4
:1044C0000039D4F8003943F00443C4F8003900201F
:1044D00002B0BDE8F08108EA0E0EC5F810E0D5F88C
:1044E00010E00EEA0606D1F808E02E610EEB030696
:1044F000013EB6FBFEFE474ED5F8108006EACE46DA
:1045000046EA08062E61D5F810E0C3F3120646EA23
:104510000E06BCF1010F2E61BED12E6926F0C046F9
:104520002E612E6946F00056B5E7D4F80059BCF16B
:10453000010F45F00445C4F800590BD0002BC6D03C
:10454000D0F8343802F00F0101228A401A43C0F833
:104550003428BCE7D0F8085815F4807FD4F8005907
:104560000CBF45F0005545F08055C4F80059009740
:10457000C9689BB2FFF75CFFA9E7D4F8102B02EAE9
:104580000E02C4F8102BD4F8102B324004F530651D
:104590008E682A6123BB2B69C6F312061E432E6167
:1045A0002B6943F400232B61012F02D1CB6803B1A7
:1045B0006B61BCF1010F0CD1D0F8083813F4807F87
:1045C000D4F8003B0CBF43F0005343F08053C4F8D1
:1045D000003BD4F8003B43F00443C4F8003B76E7CB
:1045E000DFF83080D5F810E03344013BB3FBF6F33D
:1045F0009AB208EAC34343EA0E032B612B69564380
:10460000C6F312061E432E61CEE700BFFFFF07E090
:104610000000F8FF0000F81F034670B59008002462
:1046200002F0030203F58055844210D301EB8000B1
:1046300062B103F580531C680023D90024FA01F10C
:10464000C154013399B28A42F7D1104470BD2E682B
:1046500041F824600134E7E74A780B78012A00EB3F
:10466000431012D1D0F80029002A06DB2BB1D0F874
:10467000003923F08043C0F80039D0F8003943F402
:104680000013C0F8003900207047D0F8002B002A32
:1046900006DB2BB1D0F8003B23F08043C0F8003B91
:1046A000D0F8003B43F40013C0F8003BEBE70B7875
:1046B0004A7800EB4310CB78012AA3F10203DBB266
:1046C0000FD1D0F80029012B22F40012C0F80029E4
:1046D00005D8D0F8003943F08053C0F800390020E5
:1046E0007047D0F8002B22F40012012BC0F8002BE9
:1046F0009EBFD0F8003B43F08053C0F8003BEEE78C
:10470000D0F8003823F4FE63C0F80038D0F8003841
:10471000090101F4FE611943C0F800180020704738
:10472000D0F8003E23F00303C0F8003ED0F8043870
:1047300023F00203C0F8043800207047D0F8003E90
:1047400023F00303C0F8003ED0F8043843F002031E
:10475000C0F80438002070474269806910407047F3
:10476000D0F8183800F50060C0691840000C704798
:10477000D0F8183800F50060C069184080B2704762
:1047800000EB411100F50060D1F8082B40691040A2
:10479000704710B5D0F81048D0F8343800EB41100D
:1047A00001F00F01CB4000F51060DB018068DBB247
:1047B0002343184010BD406900F001007047D0F855
:1047C000003923F4FF6323F00703C0F80039D0F861
:1047D000043843F48073C0F80438002070470000A8
:1047E00030B5056C104CA54200F5306303D9D0F804
:1047F000004B002C16DB00241C611C6944F40024CF
:104800001C611C6944F018041C611C69012944F0F6
:10481000C0441C6101BF5A61D0F8003B43F08023C3
:10482000C0F8003B002030BD0A30544F08B50349A2
:10483000034802F023FE034B187008BDF028002047
:1048400010000020F428002000207047044B18B10D
:1048500001221A70187870471A7802F0FE02F8E701
:104860000C0000200846032903D8DFE801F0080BFC
:104870000409042070474FF4007313800020704730
:104880000823FAE74FF480531360F7E738B5094C73
:104890000125257003F044F84EF61473984209BFC1
:1048A0002378257003F0FE03237003F05FF820786F
:1048B00038BD00BF0C00002070B50D461C466BB122
:1048C000C1EB4226A91928464FF4007203F05EF8A6
:1048D000013C05F50075F5D1204670BD0420FCE7CC
:1048E00070B50D461C466BB1C1EB4226A91928468E
:1048F0004FF4007203F0EAF8013C05F50075F5D1BC
:10490000204670BD0120FCE720230380004870474B
:104910007C00002020230380004870475C000020BA
:104920002023038000487047A80000200A2303804A
:10493000004870479C00002038B504464FF41D70B5
:1049400002F048FFC4F8BC0208B9022038BD237C3D
:10495000B3B94FF40073022201212046012502F071
:1049600050FFA4F878514FF40073022281212046B1
:1049700002F047FF2046258700F0E4F80020E5E735
:104980004023022201212046012502F03AFFA4F82B
:1049900078514023E9E700002DE9F341D0F8BC82CB
:1049A000002304460D46ADF80630B8F1000F0ED0D6
:1049B0000B7813F060062ED0202E04D14A78FE2A00
:1049C00007D0FF2A19D02946204601F078F803269F
:1049D0001DE04E88002EF6D1CF88012FF3D11A06A4
:1049E000F1D5D0F8C0329B6998473A46C8F8000024
:1049F0004146204601F08AF809E04A88002AE2D1BF
:104A0000CE88002EDFD11B06DDD400F0BCF8304686
:104A100002B0BDE8F0814F780B2FD4D801A353F832
:104A200027F000BF554A00088B4A0008C749000814
:104A3000C7490008C7490008C7490008C749000816
:104A4000C7490008C7490008C74900086B4A000861
:104A50007B4A000890F89C32032BB4D102220DF15E
:104A6000060101F053F83E46D1E790F89C32032B43
:104A7000A9D1012208F10401BBE790F89C32032B75
:104A8000A1D18B78C8F80430C1E790F89C32032B91
:104A9000BDD14B88002BBAD1097902F0C7FE297924
:104AA000204600F033F9B2E708B500F0A9F800207D
:104AB00008BD08B500F0C0F8002008BD38B50446B0
:104AC0000121002502F0A9FEA4F878518121204699
:104AD00002F0A3FED4F8BC32258743B1204600F093
:104AE0006BF8D4F8BC0202F079FEC4F8BC52002086
:104AF00038BD19B1C0F8C0120020704703207047BC
:104B000038B5D0F8BC520446DDB195F81C323BB93B
:104B1000D5F8183223B16B7A13B9012102F08FFE58
:104B20008121204602F08BFE6B7A022B09D1812174
:104B3000204602F084FE20460121BDE8384002F004
:104B40007EBE38BD70B5D0F8BC520446D5B1002049
:104B50002881A5F8600285F86202D4F8C0321B688B
:104B600098470121204602F061FE8121204602F093
:104B70005DFE05F5047220461F23BDE8704001214B
:104B800002F081BE70BD70B5D0F8BC52044695B13C
:104B90004FF480732B81812102F05AFE01212046BF
:104BA00002F056FE05F5047220461F23BDE8704052
:104BB000012102F068BE70BDD0F8BC320BB10022FA
:104BC0001A72704770B5D0F8BC420546ACB10B4BB9
:104BD000C4F83032002384F83C12237204F50C72BE
:104BE0000D23812102F046FE04F5047228461F239E
:104BF000BDE87040012102F046BE70BD55534253DE
:104C0000D0F8BC3210B50446ABB11A7A022A07D0EC
:104C1000033A012A0FD80021BDE81040FFF7D2BFA8
:104C200093F81D1203F21F2200F056F9002802DA51
:104C300001212046F0E710BD70B5D0F8BC42054612
:104C40001CB1267A16B1012E55D070BDD4F814329D
:104C5000C4F83432D4F81832C4F83832012102F0E2
:104C6000B4FD1F2894F81D120BD1D4F81022264B46
:104C70009A4206D1012904D894F81E32013B0F2B29
:104C80000BD920230522284600F082FB0223637201
:104C90002846BDE87040FFF733BF04F21F222846C4
:104CA00000F01AF90028237A07DA052BF0D1012148
:104CB0002846BDE87040FFF785BF013B022BC4D9F1
:104CC000E1680029F4D0D5F8BC22D2F83802D2F835
:104CD000183282F83C62401AC2F83802042010727E
:104CE0008B4228BF0B4604F1100228468121BDE803
:104CF000704002F0BFBD94F81D1204F21F2200F0B4
:104D0000EBF80028A1DAD2E755534243D0F8BC3281
:104D100010B50446A3B15B7A022B08D1812102F0C1
:104D20008EFD20460121BDE8104002F088BD0A0634
:104D300006D5012B04D0BDE810400121FFF742BF8A
:104D400010BDD0F8BC3210B514469BB193F8612267
:104D500003EBC2000132D2B280F84012042A4FF0B5
:104D6000000180F8444280F8451214BF83F86122A4
:104D700083F8611210BD2DE9F04106460846D6F8C9
:104D8000BC52D6F8C022B5F86432D5F870725469B6
:104D9000D5F86C225F43B7F5007F05F1100828BFF6
:104DA0004FF400774146B7FBF3F39BB2A0470028CE
:104DB00008DA304603220421FFF7C3FF4FF0FF302B
:104DC000BDE8F081D5F86C22B5F86432B7FBF3F09A
:104DD0000244D5F87042C5F86C22D5F83822241A5E
:104DE000D21BC5F87042C5F838222CB9214630468E
:104DF000FFF7E8FE0020E3E76343B3F5007F28BF39
:104E00004FF4007342460121304602F03CFDF1E7C9
:104E10002DE9F04106460846D6F8BC42D6F8C02235
:104E2000B4F86432D4F87052D2F81080D4F86C22FE
:104E30005D43B5F5007F04F1100728BF4FF40075FE
:104E40003946B5FBF3F39BB2C047002808DA304679
:104E500011220421FFF775FF4FF0FF30BDE8F0810C
:104E60002B463A468121304602F004FDB4F8640234
:104E7000D4F86C22B5FBF0F3D4F870021A44C01ACF
:104E8000D4F83832C4F86C225B1BC4F87002C4F842
:104E9000383210B903232372E0E70020DEE710B5B3
:104EA00008B1C26002B910BD013A92B283188C5C9D
:104EB0001C74F7E708B5D0F8BC3243B1D3F86832B8
:104EC0001144994206D921220521FFF73AFF4FF0FC
:104ED000FF3008BD0020FCE72DE9F341D0F8BC42CB
:104EE0000646884617462CB94FF0FF35284602B0D3
:104EF000BDE8F08113782F2B44D8192B10D8032B41
:104F000000F0B680122B00F0E180002B00F09180C1
:104F1000202205213046FFF714FF02236372E3E7E6
:104F20001A3B152BF4D801A252F823F05B5100086C
:104F30001D510008114F0008114F00085151000881
:104F4000114F0008114F0008114F0008114F0008C1
:104F500073510008114F0008C1510008114F00089B
:104F6000114F00080B520008114F0008B9520008F9
:104F7000114F0008114F0008114F0008114F000891
:104F800065530008A82B00F0798134D85A2B00F023
:104F9000EA809E2BBCD1D0F8C03204F519725B6850
:104FA00004F51A71404698470546002840F0EF8006
:104FB00094F86232022B00F0EA80D7F80A2012BA85
:104FC000E2600346591CDBB29342C0F01A81D4F868
:104FD0006832013B1A0E22751A0C6275E3751A0AC3
:104FE000B4F86432A2755BBA002222836383D7F8D7
:104FF0000A301BBAE2E0AA2B8AD1237A002B40F0B8
:10500000A181D4F81832BBB194F91C32002B13DB08
:10501000D0F8C03208469B68984728BBD6F8C03203
:105020004046DB6898470546002800F09281272219
:105030001BE0D4F818322BB1202205213046FFF7AF
:1050400080FE51E794F86212022905D13A22FFF757
:1050500078FE0523237247E7D0F8C03240469B68AC
:105060009847054600286ED03A2202213046EEE7E6
:10507000D4F81832002BDFD01222002104F11000E6
:1050800002F0A0FD702323740C2394F86122E375D1
:1050900094F860329A4211D004EBC302013392F8C3
:1050A0004012A17492F844122177DBB2042B92F8DB
:1050B0004522627708BF002384F860321223E36040
:1050C0003B79122B00D8E36000250FE7D4F81832A3
:1050D000002BB1D0557815F0010511D095782DB978
:1050E000A74906222046FFF7DAFEFFE6802D05D10C
:1050F000A44908222046FFF7D2FEE5E724229CE7D8
:10510000D0F8C032127901EBC108D96901EB8801EE
:105110000B7905339A4228BF1A46E3E794F86222D6
:105120003B79012A03F0030301D1022BE6D0012BC6
:10513000DAB203D1002384F8623203E0022A04D1F8
:1051400084F862220025E560D0E6032AFAD1F1E76F
:105150003B79003B18BF0123EDE73A798A49172ACA
:1051600028BF1722C6E7127A88491B2A28BF1B22AC
:10517000C0E7D0F8C0320DF102025B6801A94046D9
:105180009847054618B994F86232022B02D13A22A8
:10519000022153E720610823E374019BA061013BD6
:1051A0001A0E22751A0C6275E3751A0A0223237609
:1051B000BDF80230A2755BBA63830C23E36095E609
:1051C000D0F8C03204F519725B6804F51A714046D4
:1051D000984705460028DAD194F86232022BD6D0DF
:1051E000D4F86832A082013B1A0E22741A0C627441
:1051F000E3741A0AB4F86432A2745BBAE382082337
:10520000DCE7234418740B46DCE6237A63BB94F98D
:105210001C32002BBFF610AF94F86232022BB6D0CE
:10522000D0F8C03208469B6898470028AFD1D7F81D
:10523000021009BAC4F86C12B7F8072052BA92B239
:10524000C4F870223046FFF735FE0028FFF64CAE5A
:10525000D4F87022B4F864325343D4F818229A4236
:105260007FF4EAAE022323724FF4007341463046C6
:10527000E36002B0BDE8F041FFF7CABD237A002B1E
:10528000F2D194F91C32002BBFF6D6AE94F86232FC
:10529000022B3FF47CAFD0F8C03208469B68984799
:1052A00000287FF474AFD7F8021009BAC4F86C1262
:1052B000D7F8062012BAC3E7237A002B42D1D4F8DC
:1052C0001832002B3FF4B8AE94F91C32002BFFF6D5
:1052D000B3AED0F8C03208469B68984700287FF4E8
:1052E00056AFD6F8C0324046DB689847054608B14D
:1052F00027224DE7D7F8021009BAC4F86C12B7F8A4
:10530000072052BA92B2C4F870223046FFF7D2FD9D
:105310000028FFF6E9ADD4F87022B4F864325343A4
:10532000D4F8182293427FF487AE0121B3F5007FB1
:10533000217228BF4FF4007304F11002304602F0CE
:10534000A2FAD3E54146304602B0BDE8F041FFF78E
:1053500012BDD7F8021009BAC4F86C12D7F80620AB
:1053600012BAD0E77D7815F002057FF4C7AED4E914
:105370009B12FFF79FFD0028BFF6E5AEB4E500BF26
:10538000FA00002000010020E3000020C8000020F7
:10539000D0F8BC1210B51C4699B191F8613201EBFE
:1053A000C3000133DBB280F84022042B4FF000022F
:1053B00080F8444280F8452214BF81F8613281F8B8
:1053C000612210BD78B10023C0F8B832C0F8C032F5
:1053D000C0F8CC3209B1C0F8B412012380F89C3275
:1053E000027002F0B1B90320704737B500250446BA
:1053F000ADF8065059B1CB6AC0F8B8124BB10DF1F7
:1054000006009847C4F8CC02284603B030BD0320FC
:10541000FBE71846F9E702F0EBB9D0F8B8320BB168
:105420001B6818470320704708B5D0F8B8320BB195
:105430005B689847002008BD38B5044600F2AA25ED
:10544000284600F031FB012394F8AA12C4F89432E4
:10545000B4F8B032C4F8983201F01F03012B08D021
:10546000022B0CD08BB929462046BDE8384000F00D
:1054700021B929462046BDE8384000F05FBA2946E8
:105480002046BDE8384000F07FBA204601F0800198
:10549000BDE8384002F0D3B970B504461546F9B9F5
:1054A000D0F89432032B0CD1D0E9573293420AD969
:1054B0009B1A9A42C0F85C3128BF1A46294600F070
:1054C0003AFB002070BD90F89C32032B04D1D0F839
:1054D000B8321B6903B19847204600F034FBF0E76F
:1054E00090F89C32032BECD1D0F8B8329B69002B9A
:1054F000E7D0BDE87040184770B5044616460D4623
:10550000D9BBD0F89432022B0ED1D0E907329342A6
:1055100013D99A1AC261314600F005FB2B462A4680
:105520002946204602F0AFF994F8A032012B02D1AF
:10553000002384F8A032002070BD0CD18269934210
:1055400009D8D0F898329A4205D20A4600F0EBFA10
:10555000C4F89852E2E794F89C32032B05D1D4F8B2
:10556000B832DB680BB1204698478021204602F014
:1055700066F9204600F0F2FAD6E790F89C32032B49
:10558000D9D1D0F8B8325B69002BD4D0BDE87040D7
:105590001847012370B580F89C32D0F8B83200214A
:1055A0000446C0F894124160C0F8A412DBB1D0F8F0
:1055B000BC2212B15B6803B1984700221146402516
:1055C00040230126204602F01CF9A4F86461C4F8C7
:1055D00060512B4600228021204602F012F9A68459
:1055E0002562002070BD0320FCE701740020704795
:1055F00090F89C32DBB280F89D32042380F89C3214
:105600000020704790F89C32042B02BF90F89D3226
:10561000DBB280F89C3200207047D0F8B82208B581
:1056200042B190F89C32032B02D1D36923B1984741
:10563000002000E0032008BD1846FCE7D0F8B8229F
:1056400008B542B190F89C32032B02D1136A23B102
:105650009847002000E0032008BD1846FCE7D0F87A
:10566000B82208B542B190F89C32032B02D1536A9C
:1056700023B19847002000E0032008BD1846FCE74E
:1056800000207047012208B580F89C22D0F8B8228B
:1056900012B1526801799047002008BD10B58021F1
:1056A000044602F0CCF820460021BDE8104002F08C
:1056B000C6B80000F7B50D7805F06005202D04464A
:1056C0000E4614D0402D12D0002D40F000814F78AE
:1056D000092F00F2FC80DFE817F001012301FA0036
:1056E0001901FA0082001300FA00E9009E00D4F8C4
:1056F000B8329B683146204603B0BDE8F0401847F9
:105700000023ADF806304B881A0A013A062A37D82A
:10571000DFE802F0041C293636505A00D0F8B432C3
:105720001B68207C0DF106019847F288002A00F0E2
:10573000F380BDF806301BB39A4228BF1A46ADF875
:1057400006200146204600F0E1F91CE0027CD0F87A
:10575000B83232B99B6A0DF10600984702234370B4
:10576000E3E7DB6AF7E7DBB2052B09D8DFE803F0F4
:10577000030E12161A1ED0F8B4325B68002BD0D17B
:105780002046FFF78BFF284603B0F0BDD0F8B432B7
:105790009B68F3E7D0F8B432DB68EFE7D0F8B432B7
:1057A0001B69EBE7D0F8B4325B69E7E7D0F8B432B5
:1057B0009B69E3E7037C002BE2D1D0F8B8320DF10E
:1057C00006005B6B9847B0E7037C002BD8D1D0F87C
:1057D000B8320DF106001B6B98470723BFE78B8893
:1057E000002BCDD1CB88002BCAD14E887F2EC7D8B5
:1057F00090F89C32032BC3D0F1B280F89E1202F0D5
:1058000030F8204600F09FF91EB1022384F89C3244
:10581000B9E70123FAE78E78474F012E3E7003D98E
:10582000FFF73CFF0325AEE790F89C32022BDAB27B
:1058300008D0032A14D0FFF731FF39782046FFF74C
:10584000F3FDEFE7002E67D001214160FFF7E5FD92
:1058500005462046002D94D100F075F90323D5E7C5
:105860005EB9022380F89C3246603146FFF7DCFDCA
:10587000204600F068F9354685E7416801294BD09C
:10588000C9B2FFF7D1FD397861602046FFF7C5FD49
:105890000646002840D02046FFF700FF2179204629
:1058A000FFF7C2FD022384F89C32E4E7CA88012A8C
:1058B0007FF466AF90F89C120229CBB205D833B1C1
:1058C0000146002341F8083F3CE7032B04D0204663
:1058D000FFF7E4FE002556E7011D33E790F89C3200
:1058E000013B022BF3D8CB88022B7FF449AF012375
:1058F000C360D0F8A4320BB10323C360022204F1C9
:105900000C01204600F002F93D463CE74B88012B94
:105910007FF439AFC4F8A432204600F014F932E71E
:1059200090F89C32013B022BD1D84B88012B7FF49D
:105930002AAF0023EEE700BFF528002070B50B78F2
:1059400003F06002402A04460E4601D05B0616D4DE
:1059500094F89C32013B022B11D83379012B0ED8DD
:10596000D4F8B83231469B6820469847F3880546FC
:105970001BB910B9204600F0E6F8284670BD204655
:10598000FFF78CFE0025F8E770B50B7803F0600395
:10599000202B04460D4653D0402B51D073BB6B785F
:1059A0008A880979012B3AD0032B20D033BB90F899
:1059B0009C32022BD8B254D003281FD101F00F0320
:1059C00012F0800F4FF0140202FB034358D09B8C5F
:1059D000A3B101F07F05013505EB850504EB8505D5
:1059E00011F07F0358D12B600222294644E090F841
:1059F0009C32022BDAB22BD0032A03D02046FFF7C9
:105A00004DFE0AE06B882BB94A0603D0EB880BB930
:105A100001F015FF204600F096F8002070BD90F8C8
:105A20009C32022BDAB213D0032AE7D16B88002B09
:105A3000F3D14E0601D001F00BFF204600F083F8B1
:105A4000D4F8B832294620469B68BDE87040184714
:105A50004B06D3D001F0F3FE8021204601F0EFFE8B
:105A6000DBE74906CAD113064CBF04F1140104F563
:105A7000AA7100230B600222204600F047F8CCE711
:105A8000B3F86431002BB9D001F07F05142303FB78
:105A9000054505F5AA75A3E7204601F083FE08B188
:105AA0000123A0E728609FE70B7803704B784370D1
:105AB0004B8843808B888380CB88C380704710B528
:105AC0008021044601F0BBFE20460021BDE81040C5
:105AD00001F0B5BE30B588B1002401382346013449
:105AE000055D002DFAD1DBB201335B0013800B7032
:105AF00003234B70022310F8012F02B930BDCA54A2
