:020000040800F2
:10000000000001207D230008BD1E0008C11E00085D
:10001000D51E0008D71E0008D91E000800000000E9
:10002000000000000000000000000000DB1E0008CF
:10003000DD1E000800000000DF1E0008E11E0008B1
:10004000CD230008CD230008CD230008CD230008D0
:10005000CD230008CD230008CD230008CD230008C0
:10006000CD230008CD230008CD2300080D1F000874
:10007000CD230008CD230008CD230008CD230008A0
:10008000CD2300081D1F0008CD230008000000003C
:10009000000000000000000000000000CD23000868
:1000A000CD230008CD230008CD230008CD23000870
:1000B000CD230008CD230008CD230008CD23000860
:1000C000CD230008CD230008CD230008CD23000850
:1000D000CD230008CD230008CD2300080000000038
:1000E000CD230008CD230008CD2300080000000028
:1000F000000000000000000000000000CD23000808
:1001000000000000CD230008CD230008CD23000807
:1001100000000000000000000000000000000000DF
:10012000CD2300082D1F0008CD230008CD23000893
:10013000CD230008000000000000000000000000C7
:10014000000000000000000000000000CD230008B7
:10015000CD230008CD230008CD230008CD230008BF
:10016000CD230008CD23000800000000000000009F
:10017000000000000000000000000000000000007F
:1001800000000000CD230008000000000000000077
:04019000CD23000873
:1001C00010B5054C237833B9044B13B10448AFF391
:1001D00000800123237010BD000A002000000000F1
:1001E00018CE000808B5034B1BB103490348AFF311
:1001F000008008BD00000000040A002018CE00089E
:1002000053B94AB9002908BF00281CBF4FF0FF317D
:100210004FF0FF3000F074B9ADF1080C6DE904CE79
:1002200000F006F8DDF804E0DDE9022304B07047D1
:100230002DE9F047089E0D4604468846002B4DD117
:100240008A42944668D9B2FA82F252B101FA02F3B4
:10025000C2F1200120FA01F10CFA02FC41EA030884
:1002600094404FEA1C45210CB8FBF5FE1FFA8CF7B1
:1002700005FB1E8341EA03430EFB07F199420BD9AC
:100280001CEB03030EF1FF3080F01E81994240F217
:100290001B81AEF1020E63445B1AA4B2B3FBF5F00E
:1002A00005FB103344EA034400FB07F7A7420AD9D1
:1002B0001CEB040400F1FF3380F00881A74240F2F8
:1002C000058164440238E41B40EA0E4000211EB15F
:1002D000D4400023C6E90043BDE8F0878B4208D92B
:1002E000002E00F0EE800021C6E900050846BDE8BA
:1002F000F087B3FA83F100294AD1AB4202D382429C
:1003000000F2F980841A65EB030301209846002E61
:10031000E2D0C6E90048DFE702B9FFDEB2FA82F2B6
:10032000002A40F09180A1EB0C054FEA1C471FFA10
:100330008CFE0121B5FBF7F307FB1350250C45EAB2
:1003400000450EFB03F0A84208D91CEB050503F19C
:10035000FF3802D2A84200F2CB8043462D1AA4B245
:10036000B5FBF7F007FB105544EA05440EFB00FE11
:10037000A64508D91CEB040400F1FF3502D2A645BE
:1003800000F2BB802846A4EB0E0440EA03409EE73F
:10039000C1F120078B4022FA07FC4CEA030C20FA3B
:1003A00007F405FA01F31C43FD404FEA1C4900FA2B
:1003B00001F3B5FBF9F8200C1FFA8CFE09FB185568
:1003C00040EA054508FB0EF0A84202FA01F20BD9FB
:1003D0001CEB050508F1FF3A80F08880A84240F246
:1003E0008580A8F1020865442D1AA4B2B5FBF9F086
:1003F00009FB105544EA054500FB0EFEAE4508D941
:100400001CEB050500F1FF346CD2AE456AD9023809
:10041000654440EA0840A0FB0294A5EB0E05A54206
:10042000C846A64656D353D05EB1B3EB080265EB7F
:100430000E0505FA07F722FA01F3CD401F43C6E97E
:1004400000750021BDE8F087C2F1200320FA03F116
:100450000CFA02FC25FA03F395400D434FEA1C47C2
:100460001FFA8CFEB3FBF7F107FB11302B0C43EAAC
:10047000004301FB0EF0984204FA02F408D91CEB89
:10048000030301F1FF382FD298422DD9023963447A
:100490001B1AADB2B3FBF7F007FB103345EA034577
:1004A00000FB0EF3AB4208D91CEB050500F1FF3849
:1004B00016D2AB4214D902386544ED1A40EA014124
:1004C00038E73146304607E78646E5E61846FAE65D
:1004D0004B45A9D2B9EB020864EB0C0E0138A3E737
:1004E0004046EAE7204694E74146D1E7D0467BE71D
:1004F000023B654432E7084609E76444023842E7B4
:10050000704700BF00000000000000000000000075
:1005100001F0FF01102A2BDB10F0070F08D010F8B4
:10052000013B013A8B422DD010F0070F42B3F6D1B8
:10053000F0B441EA012141EA014122F007047FF0D1
:1005400000070023F0E80256083C85EA010586EA28
:10055000010685FA47F5A3FA87F586FA47F6A5FA64
:1005600087F68EB9EED1F0BC01F0FF0102F0070270
:1005700032B110F8013B013A83EA010313B1F8D11B
:100580000020704701387047002D06BF35460338FC
:10059000073815F0010F07D1013015F4807F02BF35
:1005A000013015F4C03F0130F0BC0138704700BF86
:1005B000844641EA000313F003036DD1403A41D36E
:1005C00051F8043B40F8043B51F8043B40F8043B2D
:1005D00051F8043B40F8043B51F8043B40F8043B1D
:1005E00051F8043B40F8043B51F8043B40F8043B0D
:1005F00051F8043B40F8043B51F8043B40F8043BFD
:1006000051F8043B40F8043B51F8043B40F8043BEC
:1006100051F8043B40F8043B51F8043B40F8043BDC
:1006200051F8043B40F8043B51F8043B40F8043BCC
:1006300051F8043B40F8043B51F8043B40F8043BBC
:10064000403ABDD2303211D351F8043B40F8043B5C
:1006500051F8043B40F8043B51F8043B40F8043B9C
:1006600051F8043B40F8043B103AEDD20C3205D36C
:1006700051F8043B40F8043B043AF9D2043208D064
:10068000D2071CBF11F8013B00F8013B01D30B88D6
:1006900003806046704700BF082A13D38B078DD0B4
:1006A00010F003038AD0C3F10403D21ADB071CBF86
:1006B00011F8013B00F8013B80D331F8023B20F8F0
:1006C000023B7BE7043AD9D3013A11F8013B00F829
:1006D000013BF9D20B7803704B7843708B788370B1
:1006E00060467047000000000000000000000000AD
:1006F00000000000000000000000000000000000FA
:1007000090F800F06DE9024520F007016FF0000C51
:1007100010F0070491F820F040F049804FF00004F9
:100720006FF00700D1E9002391F840F000F10800D4
:1007300082FA4CF2A4FA8CF283FA4CF3A2FA8CF30C
:100740004BBBD1E9022382FA4CF200F10800A4FA73
:100750008CF283FA4CF3A2FA8CF3E3B9D1E90423C7
:1007600082FA4CF200F10800A4FA8CF283FA4CF3FE
:10077000A2FA8CF37BB9D1E9062301F1200182FAB8
:100780004CF200F10800A4FA8CF283FA4CF3A2FABE
:100790008CF3002BC6D0002A04BF04301A4612BACC
:1007A000B2FA82F2FDE8024500EBD2007047D1E9CF
:1007B000002304F00305C4F100004FEAC50514F05E
:1007C000040F91F840F00CFA05F562EA05021CBF2F
:1007D00063EA050362464FF00004A9E781F0004197
:1007E00002E000BF83F0004330B54FEA41044FEA16
:1007F000430594EA050F08BF90EA020F1FBF54EAB1
:10080000000C55EA020C7FEA645C7FEA655C00F04C
:10081000E2804FEA5454D4EB5555B8BF6D420CDD1D
:100820002C4480EA020281EA030382EA000083EAA0
:10083000010180EA020281EA0303362D88BF30BD40
:1008400011F0004F4FEA01314FF4801C4CEA113196
:1008500002D0404261EB410113F0004F4FEA0333F5
:100860004CEA133302D0524263EB430394EA050F80
:1008700000F0A780A4F10104D5F1200E0DDB02FAEF
:100880000EFC22FA05F2801841F1000103FA0EF283
:10089000801843FA05F359410EE0A5F120050EF149
:1008A000200E012A03FA0EFC28BF4CF0020C43FA7A
:1008B00005F3C01851EBE37101F0004507D54FF087
:1008C000000EDCF1000C7EEB00006EEB0101B1F5D7
:1008D000801F1BD3B1F5001F0CD349085FEA30001D
:1008E0004FEA3C0C04F101044FEA445212F5800F28
:1008F00080F09A80BCF1004F08BF5FEA500C50F1C5
:10090000000041EB045141EA050130BD5FEA4C0CA7
:10091000404141EB0101013C28BFB1F5801FE9D204
:1009200091F0000F04BF01460020B1FA81F308BF27
:100930002033A3F10B03B3F120020CDA0C3208DDF3
:1009400002F1140CC2F10C0201FA0CF021FA02F1CE
:100950000CE002F11402D8BFC2F1200C01FA02F13E
:1009600020FA0CFCDCBF41EA0C019040E41AA2BF63
:1009700001EB0451294330BD6FEA04041F3C1CDA2B
:100980000C340EDC04F11404C4F1200220FA04F04B
:1009900001FA02F340EA030021FA04F345EA0301F5
:1009A00030BDC4F10C04C4F1200220FA02F001FAB7
:1009B00004F340EA0300294630BD21FA04F0294639
:1009C00030BD94F0000F83F4801306BF81F48011D2
:1009D0000134013D4EE77FEA645C18BF7FEA655C45
:1009E00029D094EA050F08BF90EA020F05D054EA17
:1009F000000C04BF1946104630BD91EA030F1EBF1C
:100A00000021002030BD5FEA545C05D1400049411F
:100A100028BF41F0004130BD14F580043CBF01F512
:100A2000801130BD01F0004545F0FE4141F47001F8
:100A30004FF0000030BD7FEA645C1ABF19461046D3
:100A40007FEA655C1CBF0B46024650EA013406BFD4
:100A500052EA033591EA030F41F4002130BD00BF93
:100A600090F0000F04BF0021704730B54FF4806450
:100A700004F132044FF000054FF0000150E700BFD1
:100A800090F0000F04BF0021704730B54FF4806430
:100A900004F1320410F0004548BF40424FF000011D
:100AA0003EE700BF42004FEAE2014FEA31014FEA60
:100AB00002701FBF12F07F4393F07F4F81F06051AF
:100AC000704732F07F4208BF704793F07F4F04BFFA
:100AD00041F40021704730B54FF4607401F00045D7
:100AE00021F000411CE700BF50EA010208BF704737
:100AF00030B54FF000050AE050EA010208BF704728
:100B000030B511F0004502D5404261EB41014FF490
:100B1000806404F132045FEA915C3FF4D8AE4FF098
:100B200003025FEADC0C18BF03325FEADC0C18BF7B
:100B3000033202EBDC02C2F1200300FA03FC20FACC
:100B400002F001FA03FE40EA0E0021FA02F1144419
:100B5000BDE600BF70B54FF0FF0C4CF4E06C1CEA32
:100B600011541DBF1CEA135594EA0C0F95EA0C0FA3
:100B700000F0DEF82C4481EA030621EA4C5123EA16
:100B80004C5350EA013518BF52EA033541F4801145
:100B900043F4801338D0A0FB02CE4FF00005E1FBF8
:100BA00002E506F00042E0FB03E54FF00006E1FB42
:100BB00003569CF0000F18BF4EF0010EA4F1FF0485
:100BC000B6F5007F64F5407404D25FEA4E0E6D41C5
:100BD00046EB060642EAC62141EA55514FEAC520D6
:100BE00040EA5E504FEACE2EB4F1FD0C88BFBCF552
:100BF000E06F1ED8BEF1004F08BF5FEA500E50F103
:100C0000000041EB045170BD06F0004646EA0101C8
:100C100040EA020081EA0301B4EB5C04C2BFD4EBFA
:100C20000C0541EA045170BD41F480114FF0000EF3
:100C3000013C00F3AB8014F1360FDEBF002001F061
:100C4000004170BDC4F10004203C35DA0C341BDCDB
:100C500004F11404C4F1200500FA05F320FA04F0AD
:100C600001FA05F240EA020001F0004221F00041E1
:100C700010EBD37021FA04F642EB06015EEA430E54
:100C800008BF20EAD37070BDC4F10C04C4F1200584
:100C900000FA04F320FA05F001FA04F240EA020037
:100CA00001F0004110EBD37041F100015EEA430E08
:100CB00008BF20EAD37070BDC4F1200500FA05F228
:100CC0004EEA020E20FA04F301FA05F243EA0203A7
:100CD00021FA04F001F0004121FA04F220EA0200B6
:100CE00000EBD3705EEA430E08BF20EAD37070BDFC
:100CF00094F0000F0FD101F00046400041EB0101DC
:100D000011F4801F08BF013CF7D041EA060195F0BD
:100D1000000F18BF704703F00046520043EB030377
:100D200013F4801F08BF013DF7D043EA0603704764
:100D300094EA0C0F0CEA135518BF95EA0C0F0CD06F
:100D400050EA410618BF52EA4306D1D181EA0301B5
:100D500001F000414FF0000070BD50EA410606BFAF
:100D60001046194652EA430619D094EA0C0F02D1F4
:100D700050EA013613D195EA0C0F05D152EA033639
:100D80001CBF104619460AD181EA030101F0004157
:100D900041F0FE4141F470014FF0000070BD41F0A0
:100DA000FE4141F4780170BD70B54FF0FF0C4CF47A
:100DB000E06C1CEA11541DBF1CEA135594EA0C0F99
:100DC00095EA0C0F00F0A7F8A4EB050481EA030EE6
:100DD00052EA03354FEA013100F088804FEA0333CD
:100DE0004FF0805545EA131343EA12634FEA02229B
:100DF00045EA111545EA10654FEA00260EF000415C
:100E00009D4208BF964244F1FD0404F5407402D2AD
:100E10005B084FEA3202B61A65EB03055B084FEA3E
:100E200032024FF480104FF4002CB6EB020E75EB3B
:100E3000030E22BFB61A754640EA0C005B084FEA63
:100E40003202B6EB020E75EB030E22BFB61A7546E0
:100E500040EA5C005B084FEA3202B6EB020E75EB2B
:100E6000030E22BFB61A754640EA9C005B084FEAA3
:100E70003202B6EB020E75EB030E22BFB61A7546B0
:100E800040EADC0055EA060E18D04FEA051545EA9F
:100E900016754FEA06164FEAC30343EA52734FEA48
:100EA000C2025FEA1C1CC0D111F4801F0BD141EAC1
:100EB00000014FF000004FF0004CB6E711F4801F26
:100EC00004BF01430020B4F1FD0C88BFBCF5E06F06
:100ED0003FF6AFAEB5EB030C04BFB6EB020C5FEA16
:100EE000500C50F1000041EB045170BD0EF0004E6B
:100EF0004EEA113114EB5C04C2BFD4EB0C0541EA9D
:100F0000045170BD41F480114FF0000E013C90E699
:100F100045EA060E8DE60CEA135594EA0C0F08BF5D
:100F200095EA0C0F3FF43BAF94EA0C0F0AD150EA5C
:100F300001347FF434AF95EA0C0F7FF425AF1046EF
:100F400019462CE795EA0C0F06D152EA03353FF417
:100F5000FDAE1046194622E750EA410618BF52EA94
:100F600043067FF4C5AE50EA41047FF40DAF52EA68
:100F700043057FF4EBAE12E74FF0FF3C06E000BF05
:100F80004FF0010C02E000BF4FF0010C4DF804CD12
:100F90004FEA410C7FEA6C5C4FEA430C18BF7FEAD2
:100FA0006C5C1BD001B050EA410C0CBF52EA430C00
:100FB00091EA030F02BF90EA020F0020704710F180
:100FC000000F91EA030F58BF994208BF90422CBF0F
:100FD000D8176FEAE37040F0010070474FEA410C08
:100FE0007FEA6C5C02D150EA013C07D14FEA430C26
:100FF0007FEA6C5CD6D152EA033CD3D05DF8040B97
:10100000704700BF8446104662468C4619466346C8
:1010100000E000BF01B5FFF7B7FF002848BF10F19F
:10102000000F01BD4DF808EDFFF7F4FF0CBF0120E4
:1010300000205DF808FB00BF4DF808EDFFF7EAFF60
:1010400034BF012000205DF808FB00BF4DF808ED1B
:10105000FFF7E0FF94BF012000205DF808FB00BF10
:101060004DF808EDFFF7CEFF94BF012000205DF89A
:1010700008FB00BF4DF808EDFFF7C4FF34BF0120A7
:1010800000205DF808FB00BF4FEA410C7FEA6C5C72
:1010900002D150EA013C0AD14FEA430C7FEA6C5C72
:1010A00002D152EA033C02D14FF0000070474FF0EA
:1010B000010070474FEA410212F5001215D211D516
:1010C0006FF47873B3EB625212D94FEAC12343F045
:1010D000004343EA505311F0004F23FA02F018BFC7
:1010E000404270474FF00000704750EA013005D190
:1010F00011F0004008BF6FF0004070474FF0000053
:10110000704700BF10B59AB00446084619AB1022CC
:10111000694604F0A6FC9DF800309DF8012042EAE3
:10112000032222809DF805009DF804100B0443EA79
:1011300000639DF8030043EA00230B4363609DF8BE
:1011400007109DF8063043EA012323819DF809101A
:101150009DF8083043EA012363819DF80D109DF846
:101160000C301B0443EA01639DF80B1043EA012392
:101170009DF80A100B43E36044F24D239A4202D0DB
:1011800000201AB010BD0120FBE730B59BB004462B
:101190000D460E21284604F0A6FD19AB282269460B
:1011A000284604F05EFC9DF803209DF802301B04E5
:1011B00043EA02639DF8012043EA02239DF80020E0
:1011C000134323609DF807209DF806301B0443EA73
:1011D00002639DF8052043EA02239DF8042013438F
:1011E00063609DF80B209DF80A301B0443EA0263FC
:1011F0009DF8092043EA02239DF808201343A360C9
:101200009DF80D209DF80C3043EA0223A3819DF840
:101210000F209DF80E3043EA0223E3819DF813204E
:101220009DF812301B0443EA02639DF8112043EA43
:1012300002239DF81020134323619DF817209DF889
:1012400016301B0443EA02639DF8152043EA02238B
:101250009DF81420134363619DF81B209DF81A30FC
:101260001B0443EA02639DF8192043EA02239DF818
:1012700018201343A3619DF81F209DF81E301B0406
:1012800043EA02639DF81D2043EA02239DF81C20D7
:101290001343E3619DF823209DF822301B0443EAA9
:1012A00002639DF8212043EA02239DF82020134386
:1012B00023629DF827209DF826301B0443EA026331
:1012C0009DF8252043EA02239DF8242013436362FE
:1012D0001BB030BD10B5084C4FF4C063074A002165
:1012E000204602F0B7FE642001F0C4F80021204639
:1012F00002F0DAFF10BD00BF88250020300C00206E
:1013000008B5002304E00B4A0D2142F823100133F5
:10131000B3F5B46FF7D34FF4B46304E0054A00218A
:1013200042F823100133B3F5C06FF7D3FFF7D2FFB4
:1013300008BD00BF300C0020000240EA014010430D
:10134000704700003C2818D970470D2205EB450373
:101350000CEBC30C0E4B43F82C200134E4B2172CD9
:1013600013D8424639463046FFF7E6FFA446A04070
:1013700010F4000FE9D01B22E8E72DE9F041054603
:101380000E46174698460024E9E7BDE8F08100BF05
:10139000300C0020F0B583B005460C4616460146D9
:1013A0002046FFF7AFFE08B903B0F0BD294630462E
:1013B000FFF7EBFEE168284604F095FCF389182B53
:1013C00001D00020F0E7FFF79BFFB768013F21E065
:1013D00001AB03226946284604F043FB9DF8021046
:1013E000114A04EB440302EB030CD1549DF8012095
:1013F0008CF801209DF800308CF80230DB08D20810
:10140000C908A0B2FFF79EFF013C002CE0DAFFF70D
:1014100061FF013F002F02DB7468013CF5E7FFF735
:101420006FFF0120C0E700BF7C0B002010B582B029
:1014300000240094164B1A6B42F480021A631A6B54
:1014400002F480020092009A01941A6B42F4001296
:101450001A631B6B03F400130193019B2246214680
:101460000B2001F02DF80B2001F062F822462146F6
:10147000112001F025F8112001F05AF822462146EA
:10148000392001F01DF8392001F052F802B010BDEA
:1014900000380240F0B58BB0002405940694079400
:1014A0000894099401942A4B1A6B42F004021A63BF
:1014B0001A6B02F004020192019A02941A6B42F034
:1014C00080021A631A6B02F080020292029A03945D
:1014D0001A6B42F001021A631A6B02F001020392C6
:1014E000039A04941A6B42F002021A631B6B03F016
:1014F00002030493049B174F01224FF40051384616
:1015000001F039FB144E22460821304601F033FB2E
:101510004FF400530593012506950795089405A9F6
:10152000384601F041FA082305930695079408947C
:1015300005A9304601F038FA4FF4E04305930694CC
:10154000079505A9054801F02FFA0BB0F0BD00BFC3
:10155000003802400008024000000240000402403F
:1015600008B50B480B4B03600B4B436000238360B3
:10157000C3604FF48042026143618361C3610362CF
:1015800001F05AFC00B908BD00F0F4F8FBE700BF19
:10159000DC0A002000540040801A060070B588B0B4
:1015A00000230393049305930693079302682E4B3D
:1015B0009A4201D008B070BD0446002501952B4E1B
:1015C000336B43F002033363336B03F00203019385
:1015D000019BC02303931223049303230693042344
:1015E000079303A9224801F0DFF90295336C43F415
:1015F00000133364336C03F400130293029B1D4801
:101600001D4B03604FF0007343608560C5604FF46D
:101610008063036145618561C5610562456201F0D2
:1016200027F8D8B9134BA3639C631448144B036089
:101630004FF000734360402383600023C3604FF486
:101640008062026143618361C3610362436201F0AE
:101650000FF830B9094B63639C63ABE700F08AF87D
:10166000E0E700F087F8F5E700540040003802405A
:10167000000402401C0A0020106002407C0A002086
:10168000A06002400EB430B5A2B0054625AB53F8B9
:10169000042B2193802101A807F0DAF904464FF0CA
:1016A000FF3382B201A9284602F0D7FF204622B0BC
:1016B000BDE8304003B0704710B510B12B4B01228C
:1016C0001A702A4B1B7873B34FF48051284801F0ED
:1016D0004BFA28B14FF40051254801F045FAD8B92A
:1016E000052000F0C7FE214B00221A704FF48051F4
:1016F0001F4801F039FA00B300244FF400511C4890
:1017000001F032FA00B902244FF48041184801F088
:101710002BFA80B903240EE04FF48041144801F005
:1017200023FA0028DCD04FF48051114801F01CFA54
:10173000012804D00024204610BD0124DDE74FF429
:1017400000510B4801F010FA012801D00024F2E703
:101750004FF48041064801F007FA012801D0002427
:10176000E9E7024B01221A700024E4E700000020A0
:101770000004024072B6FEE700B595B030220021A9
:1017800008A805F0D5FB0023039304930593069363
:1017900007930193214A116C41F080511164126C3E
:1017A00002F080520192019A02931D4A136823F4B9
:1017B000404343F400431360136803F4404302932F
:1017C000029B012308934FF48033099302230E9365
:1017D0004FF480020F920C22109240221192129329
:1017E0000323139308A801F0C1FC90B90F230393BE
:1017F00002230493802305934FF480530693002320
:101800000793012103A801F0FFFE20B915B05DF890
:1018100004FBFFF7AFFFFFF7ADFF00BF003802404A
:101820000070004010B5ADF5027D002400944FF427
:101830000172214601A805F07BFB00F0EFFDFFF7E8
:101840009BFFFFF727FEFFF7F1FDFFF789FE00F092
:1018500041FC00F03FFD00F0A5F802F06BFF4348AB
:1018600000F016FDFFF74CFD01220821404801F071
:1018700082F900F00FFA204602F0C0FF204602F085
:10188000A9FF12E03B4C00224FF40051204601F02A
:1018900072F9322000F0EEFD01224FF40051204693
:1018A00001F069F9322000F0E5FD012232493348A8
:1018B00003F096FF0028E5D100224FF4005100F11B
:1018C000804000F5023001F056F900F0A9F917E068
:1018D0002B4C01222B49204603F0B0FF2A4B1870F5
:1018E0002A4B2B4A2B492046FFF754FD30BB244896
:1018F00004F0E4F91D4804F0A1FB642000F0BAFDF7
:101900000020FFF7D9FE0446184804F08AFB022C99
:10191000DED0032C19D0012CECD11F4B1A78013AE0
:10192000D2B21A70174C1D49204605F053FB2346CE
:10193000182211460D4804F097FEDBE7184B1922D8
:1019400000210A4804F090FED1E7134B1A780132C7
:10195000D2B21A700B4C1149204605F03BFB2346CE
:1019600014221146014804F07FFEC3E73024002012
:10197000000002400008024030CE00089C260020F3
:10198000CC280020680B0020002B00207C0B0020BE
:10199000400B0020300B0020780B002034CE0008D4
:1019A0003CCE000808B50D480D4B03604FF4827320
:1019B000436000238360C360036143614FF400729E
:1019C0008261C3610362436283620A23C36201F0DE
:1019D0008FFF00B908BDFFF7CDFEFBE7C424002050
:1019E0000030014000B589B00023039304930593B0
:1019F000069307930268154B9A4202D009B05DF82E
:101A000004FB0021019103F584335A6C42F48052A7
:101A10005A645A6C02F480520192019A02911A6B34
:101A200042F001021A631B6B03F001030293029B55
:101A3000E0230393022304930323069305230793D0
:101A400003A9034800F0B0FFD8E700BF0030014011
:101A50000000024010B40C4B1C68216821F04001CA
:101A600021601C68216821F038010904090C2160FB
:101A700019680A6842EAC0020A601A68136843F0EB
:101A80004003136010BC7047C424002000B587B029
:101A90008DF80F004FF47A73009301230DF11702B4
:101AA0000DF10F01034801F082FF9DF8170007B008
:101AB0005DF804FBC424002010B50024FF20FFF7CC
:101AC000E5FFFF2806D001346FF07F439C42F5D339
:101AD000012000E0002010BD38B505464FF6FF7428
:101AE000FF20FFF7D3FFA84203D014B1013CA4B2FA
:101AF000F6E70CB1002038BD0120FCE7F8B506463A
:101B00000D46FE20FFF7E8FF074638B101270FE03A
:101B1000FF20FFF7BBFF06F8010B25466B1E9CB2AA
:101B2000002DF5D1FF20FFF7B1FFFF20FFF7AEFF3B
:101B30003846F8BD08B501220821034801F01BF81A
:101B4000FF20FFF7A3FF08BD0000024008B50022F8
:101B50000821054801F00FF8FFF7AEFF00B908BDF6
:101B6000FFF7E8FF0120FAE70000024038B504461D
:101B70000D4610F0800F22D10C2C04D0FFF7DAFFB5
:101B8000FFF7E4FFC0BB44F04000FFF77FFF280EE3
:101B9000FFF77CFFC5F30740FFF778FFC5F3072089
:101BA000FFF774FFE8B2FFF771FF8CB10120082C3A
:101BB00010D0FFF76BFF0C2C0ED00A2411E000F0C0
:101BC0007F0400213720FFF7D1FF0128D4D912E08C
:101BD0009520ECE78720ECE7FF20FFF757FFECE7C5
:101BE0001C46FF20FFF752FF10F0800F03D0631E4A
:101BF000DBB2002CF4D138BDFF20FCE738B5044639
:101C000000210920FFF7B2FF054618B1FFF792FF48
:101C1000284638BD10212046FFF770FF0546F5E73E
:101C200000B585B06846FFF7E9FF88BB9DF8003036
:101C300003F0C003402B20D09DF8053003F00F03C4
:101C40009DF80A0003EBD0139DF80900400000F056
:101C5000060003449DF808009DF80720800900EB6A
:101C600082009DF80620920202F440621044013086
:101C7000073B984005B05DF804FB9DF809009DF80E
:101C8000083000EB032080B2013080B28002F1E71F
:101C90000020EFE770B582B00720FFF7DBFE0024DD
:101CA00004E0FF20FFF7F2FE0134A4B2092CF8D9BA
:101CB000142500E01D4600210846FFF757FF0446A3
:101CC000012803D06B1E9BB2002DF3D1474B00229D
:101CD0001A70012C0BD0FFF72DFF0020FFF7BAFE82
:101CE000424B1B78002B7ED1204602B070BD4FF4D2
:101CF000D5710820FFF73AFF012848D1002509E0F7
:101D0000FF20FFF7C3FE05F108036B4403F8040C42
:101D10000135ADB2032DF3D99DF80630012BDAD190
:101D20009DF80730AA2BD6D14FF47A7500E01D46F6
:101D30004FF08041A920FFF719FF044620B16B1E28
:101D40009BB2002DF3D11D46002DC4D000213A20B6
:101D5000FFF70CFF0028BED1002509E0FF20FFF7A8
:101D600095FE05F108036B4403F8040C0135ADB290
:101D7000032DF3D99DF8043013F0400F03D01B4B13
:101D800006221A70A7E7194B04221A70A3E7002154
:101D9000A920FFF7EBFE012806D9144B01221A7087
:101DA00026464FF47A7505E0104B02221A70A926D8
:101DB000F7E71D4600213046FFF7D8FE044620B164
:101DC0006B1E9BB2002DF4D11D461DB9074B00229E
:101DD0001A7080E74FF400711020FFF7C7FE00284B
:101DE0003FF479AFF2E700247EE700BF1C25002016
:101DF00070B506461546154A1278062A00D04902E3
:101E0000012D16D01220FFF7B1FE4FF400713046BD
:101E1000FFF774FE044606F50076013D01D0002868
:101E2000F3D000210C20FFF7A1FEFFF783FE204630
:101E300070BD1120FFF79AFE04460028F5D14FF43B
:101E400000713046FFF75AFE0446EEE71C250020DD
:101E500082B0002100910B4B5A6C42F480425A64CC
:101E60005A6C02F480420092009A01911A6C42F07E
:101E700080521A641B6C03F080530193019B02B0E3
:101E8000704700BF003802400A4B1B889BB22BB141
:101E9000084A13889BB2013B9BB21380064B1B88F8
:101EA0009BB22BB1044A13889BB2013B9BB21380B7
:101EB000704700BF1E25002020250020FEE70000FF
:101EC00008B502490248FFF7DDFBFAE748CE0008F3
:101ED00054260020FEE7FEE7FEE770477047704794
:101EE00008B5094A13780133DBB213701378DBB2FB
:101EF000092B02D800F0ACFA08BD134600221A7074
:101F0000FFF7C2FFF6E700BF1D25002008B5024815
:101F100000F05CFC08BD00BF1C0A002008B50248A8
:101F200000F054FC08BD00BF7C0A002008B5024840
:101F300000F04CFC08BD00BF2825002001207047A0
:101F400008B504F0CBFF162303604FF0FF3008BD47
:101F500008B54FF0FF31FFF7F3FFFEE770B50C4611
:101F60001646002506E0AFF30080214601F8010B7C
:101F700001350C46B542F6DB304670BD70B50C46F7
:101F80001646002504E014F8010BAFF3008001357C
:101F9000B542F8DB304670BD4FF0FF3070474FF46C
:101FA00000534B60002070470120704700207047AD
:101FB00010B503460C4A0D490D48006840B10C4865
:101FC00000680344521A934206D8094A136010BDB0
:101FD0000748084C0460F2E704F080FF0C2303601C
:101FE0004FF0FF30F3E700BF0000012000120000B7
:101FF00024250020C0D900207047000002681A4B39
:102000009A4200D0704710B582B004460023019375
:10201000164A516C41F001015164526C02F0010208
:102020000192019A1248134A02604FF040624260E6
:1020300040228260C3604FF4806202614FF480529C
:1020400042614FF4804282614FF48072C261036248
:10205000436200F00DFB20B9054B63629C6302B044
:1020600010BDFFF787FBF7E7000001400038024092
:10207000282500202864024000B587B00023019382
:10208000029303930493059302680F4B9A4202D084
:1020900007B05DF804FB002300930C4B1A6B42F071
:1020A00001021A631B6B03F001030093009B4FF4C2
:1020B00080730193022302930123059301A904482D
:1020C00000F072FCE4E700BF00000140003802406D
:1020D0000000024010B592B00024109411940994AD
:1020E0000A940B940C940D940E940F942022214684
:1020F00001A804F01DFF2248224B03604460846065
:102100002723C36004614461846101F0C7FE002895
:1021100029D100231093119310A9194802F03AF91C
:1021200020BB6023099300220A920B920C920D921D
:102130000E920F9209A9124801F00EFFC8B90023B0
:10214000019302930393049305934FF40052069274
:10215000089301A90A4802F05BF968B90848FFF73B
:102160008BFF12B010BDFFF705FBD2E7FFF702FBB4
:10217000D7E7FFF7FFFAE2E7FFF7FCFAEEE700BF69
:10218000882500200000014000B583B014390C29D7
:1021900008D8DFE801F00B0707210F25070707071D
:1021A00007073200002003B05DF804FBFFF7D8F901
:1021B0000120F8E7134B00221A700120F3E71148C1
:1021C000017801F1010C80F800C013F801CB0E4832
:1021D00000F801C0013AD2B2002AF0D10120E2E7B2
:1021E0004FF47A730093074B1B78074A782107480E
:1021F00000F000FF18B90120D5E70120D3E7002047
:10220000D1E700BFD0250020D4250020DC0A002023
:1022100008B529392A2937D8DFE801F022201636F7
:10222000173636363636363636363636363636366D
:10223000363636363636363636363636363636175D
:10224000173636262A2E320000BF012008BD00BFF7
:1022500001339BB2B3F5A07FF9D3F6E70023F9E78A
:10226000012000F007F9F0E7002380F82730ECE7C1
:10227000002380F82730E8E7002380F82730E4E7E0
:10228000002380F82730E0E7012380F82730DCE7DF
:1022900010B504460B4B0C4A0C4903F025FF2046B1
:1022A00004F0DCFD0021204604F0DFFD204603F0B1
:1022B000B8FE204603F003FF0549204604F014FA57
:1022C00010BD00BF112200088921000818D800089D
:1022D00090CE000808B50A480A4B03604FF4E1337A
:1022E000436000238360C36003610C224261836109
:1022F000C36102F083F900B908BDFFF73BFAFBE7C1
:10230000542600200010014000B589B0002303933B
:102310000493059306930793026803F1804303F542
:1023200088339A4202D009B05DF804FB0021019184
:1023300003F594335A6C42F010025A645A6C02F05E
:1023400010020192019A02911A6B42F001021A6383
:102350001B6B03F001030293029B4FF4C0630393D2
:1023600002230493032306930723079303A9024838
:1023700000F01AFBD7E700BF00000240DFF834D0BE
:102380000D480E490E4A002302E0D458C4500433CD
:10239000C4188C42F9D30B4A0B4C002301E01360A4
:1023A0000432A242FBD3FFF727FE04F09DFDFFF7A6
:1023B00039FA70470000012000000020E8090020E1
:1023C000A4DC0008000A0020C0D90020FEE70000BD
:1023D00010B504460E4B18784FF47A73B3FBF0F344
:1023E0000C4A1068B0FBF3F000F0B0F868B90F2C9D
:1023F00001D901200AE0002221464FF0FF3000F011
:102400005FF8054B1C60002000E0012010BD00BFFC
:1024100008000020040000200C00002008B50B4B31
:102420001A6842F400721A601A6842F480621A60F4
:102430001A6842F480721A60032000F02FF80F200F
:10244000FFF7C6FFFFF704FD002008BD003C024077
:10245000034A1168034B1B780B441360704700BF9D
:102460009826002008000020014B1868704700BF24
:102470009826002038B50446FFF7F6FF0546B4F16C
:10248000FF3F02D0044B1B781C44FFF7EDFF401BBD
:10249000A042FAD338BD00BF08000020074AD36825
:1024A00023F4E0631B041B0C000200F4E060034310
:1024B00043F0BF6343F40033D360704700ED00E0A6
:1024C00000B5194BDB68C3F30223C3F1070CBCF161
:1024D000040F28BF4FF0040C03F1040EBEF1060FE9
:1024E00018D9033B4FF0FF3E0EFA0CFC21EA0C0119
:1024F00099400EFA03F322EA0303194300280BDB89
:102500000901C9B200F1604000F5614080F8001394
:102510005DF804FB0023E5E700F00F000901C9B2F4
:10252000024B1954F4E700BF00ED00E014ED00E0A9
:10253000002807DB00F01F02400901239340024AF4
:1025400042F82030704700BF00E100E00138B0F1F0
:10255000807F0BD24FF0E0235861054AF02182F8CA
:1025600023100020986107221A61704701207047EC
:1025700000ED00E030B405682C6824F480242C6061
:10258000046863608368402B05D003689960036822
:10259000DA6030BC704703689A600368D960F8E776
:1025A00010B40368D9B210390B4AA2FB01421209D8
:1025B0000A4CA25CC2655F2908D923F47F7323F01B
:1025C000030304338365806D10BC704723F47F736D
:1025D00023F003038365F6E7ABAAAAAA78CE000826
:1025E000836A826992B9012B0AD0022B02D00BB107
:1025F00000207047C36A13F0807F28D10020704705
:10260000C36AB3F1C07F24D000207047B2F5005FE9
:1026100009D0022B25D9032B25D1C36A13F0807F63
:1026200023D100207047032B03D8DFE803F0140404
:10263000140A00207047C36A13F0807F0DD1002078
:102640007047C36AB3F1C07F09D0002070470120F2
:10265000704701207047012070470120704701201A
:10266000704701207047002070470120704700002C
:1026700070B50446FFF7F8FE002C5BD00546022338
:1026800084F83530002384F834302268136823F04E
:102690000103136023681A6812F0010F0AD0FFF7D4
:1026A000E3FE431B052BF5D920236365032084F843
:1026B000350070BD1A68204810406168A2680A435E
:1026C000E1680A4321690A4361690A43A1690A432F
:1026D000E1690A43216A0A430243616A04291ED060
:1026E0001A602668756925F00705636A1D43042B87
:1026F00007D1A36A1D43E36A1BB12046FFF770FFB1
:1027000090B975612046FFF74BFFE26D3F23934080
:10271000836000206065012384F83530C9E7E16AF1
:10272000206B01430A43DBE740236365012084F803
:102730003500BEE70120BCE73F8010F038B5044605
:10274000856D90F8340001282BD0012084F83400E6
:1027500094F83500C0B2012804D0002384F8343046
:10276000022038BD022084F8350000206065204634
:10277000FFF700FFE26D3F239340AB6022681368D0
:1027800043F016031360236C23B12268136843F0EF
:10279000080313602268136843F0010313600020EC
:1027A000DFE70220DDE790F83530DBB2022B03D003
:1027B0008023436501207047052380F83530026887
:1027C000136823F00103136000207047F0B583B055
:1027D000044600230193724B1D68724BA3FB053521
:1027E000AD0A876D3E68C26D08239340334210D016
:1027F00003681A6812F0040F0BD01A6822F0040262
:102800001A60C26D08239340BB60436D43F001031F
:102810004365E26D01239340334209D02268526937
:1028200012F0800F04D0BB60636D43F00203636558
:10283000E26D04239340334209D02268126812F0FB
:10284000020F04D0BB60636D43F004036365E26D67
:1028500010239340334224D02268126812F0080FEC
:102860001FD0BB6023681A6812F4802F0DD01B683C
:1028700013F4002F04D1236C9BB12046984710E03D
:10288000A36C73B1204698470BE01A6812F4807F5E
:1028900003D11A6822F008021A60236C0BB120469B
:1028A0009847E26D20239340334255D02268126846
:1028B00012F0100F50D0BB6094F83530DBB2052B0E
:1028C0000ED023681A6812F4802F33D01B6813F4DB
:1028D000002F2AD1636C002B3ED0204698473BE066
:1028E0002268136823F0160313602268536923F0EB
:1028F00080035361236CA3B12268136823F008039B
:102900001360E26D3F239340BB60012384F83530B0
:10291000002384F83430236D002B3FD020469847A5
:102920003CE0A36C002BE7D1EBE7E36BA3B12046BF
:10293000984711E01A6812F4807F09D11A6822F0D2
:1029400010021A60012384F83530002384F83430F3
:10295000E36B0BB120469847636DFBB1636D13F0D9
:10296000010F17D0052384F835302268136823F04F
:1029700001031360019B01330193AB4204D8236828
:102980001B6813F0010FF5D1012384F835300023C3
:1029900084F83430E36C0BB12046984703B0F0BDA7
:1029A00004000020B5814E1B00230F2B00F2D280C3
:1029B00070B582B060E085685E000324B44025EA0B
:1029C0000405CC68B4402C438460456825EA0205C0
:1029D0004C68C4F300129A402A4342605AE0DC0873
:1029E000083450F8246003F0070295000F22AA4033
:1029F00026EA020E0A69AA4042EA0E0240F82420A2
:102A00005CE0042200E0002202FA0EF22A430234C3
:102A1000514D45F82420514A14686FEA0C0224EA0B
:102A20000C054E6816F4803F01D04CEA04054B4C6F
:102A30002560646802EA04054E6816F4003F01D080
:102A40004CEA0405454C6560A46802EA04054E683A
:102A500016F4801F01D04CEA0405404CA560E468E0
:102A600022404D6815F4001F01D04CEA04023B4C93
:102A7000E26001330F2B6BD801229A400C6804EA04
:102A8000020C32EA0404F4D14C6804F00304013C63
:102A9000012C90D94A6802F00302032A09D0C468C5
:102AA0005D000322AA4024EA02048A68AA40224365
:102AB000C2604A6802F00302022A90D004684FEA1A
:102AC000430E032202FA0EF224EA02044A6802F0DC
:102AD000030202FA0EF2224302604A6812F4403FF7
:102AE000C7D0002201921E4A546C44F480445464BE
:102AF000526C02F480420192019A9C08A51C164A6D
:102B000052F8255003F003024FEA820E0F2202FA18
:102B10000EF225EA0205134A90423FF474AF02F523
:102B2000806290420ED002F5806290420CD002F595
:102B3000806290420AD002F5806290423FF461AF19
:102B4000072261E701225FE702225DE703225BE7DC
:102B500002B070BD704700BF00380140003C01402A
:102B600000380240000002400369194201D00120F0
:102B70007047002070470AB1816170470904816184
:102B8000704703685A6912F4806F01D100207047C2
:102B90006FF480625A6100230363202280F83D2095
:102BA00080F83E30026C42F00402026480F83C304F
:102BB000012070472DE9F04107460D4690461E461C
:102BC00024E0FFF751FC069BC01AB04200D8EEB9D2
:102BD00000233B63202287F83D2087F83E303A6C83
:102BE00042F020023A6487F83C3001201EE03B6846
:102BF0009C6925EA040C1FFA8CFCBCFA8CFC4FEA99
:102C00005C1CE04511D1B6F1FF3FDAD1C5F30743B3
:102C1000012BECD13B685B6925EA030C1FFA8CFCA5
:102C2000BCFA8CFC4FEA5C1CEBE70020BDE8F081AD
:102C30002DE9F04105460E46174698463DE01A68D4
:102C400042F400721A602B686FF480625A610023AC
:102C50002B63202285F83D2085F83E302A6C42F017
:102C600004022A6485F83C30012034E0FFF7FCFBC5
:102C7000A0EB0800B84200D8FFB900232B63202244
:102C800085F83D2085F83E302A6C42F020022A6407
:102C900085F83C3001201EE02B689C6926EA04047C
:102CA000A4B2003C18BF0124A4B12B685A6912F4E5
:102CB000806FC4D1B7F1FF3FD8D1C6F30743012BD2
:102CC000EAD12B685C6926EA0404A4B2003C18BF70
:102CD0000124E9E70020BDE8F0810000F0B583B0F1
:102CE00004460D4616461F46C36A082B0DD0012B1D
:102CF0000BD013F5803F08D0036B122B0AD102686A
:102D0000136843F48073136004E02268136843F48B
:102D1000807313600097334600224FF00111204664
:102D2000FFF748FF80B92369B3F5804F16D12368B8
:102D300005F0FE051D613B46324613492046FFF76C
:102D400077FFF8B903B0F0BD23681B6813F4807FE8
:102D500002D04FF4007323640320F3E7EB112268E1
:102D600003F0060343F0F00313613B463246074984
:102D70002046FFF75DFF18B92368EDB21D61DAE761
:102D80000120DFE70120DDE702000100080001006B
:102D900070B504460D46164623685B6913F0800F34
:102DA0001CD12046FFF7EDFED0B9B5F1FF3FF3D0BF
:102DB000FFF75AFB801BA84201D8002DECD100235D
:102DC0002363202284F83D2084F83E30226C42F0B8
:102DD0002002226484F83C30012000E0002070BD15
:102DE0000120FCE770B504460D46164623685B6972
:102DF00013F0040F1CD12046FFF7C3FED0B9B5F184
:102E0000FF3FF3D0FFF730FB801BA84201D8002D15
:102E1000ECD100232363202284F83D2084F83E3047
:102E2000226C42F02002226484F83C30012000E051
:102E3000002070BD0120FCE7002800F0CC8070B5B8
:102E4000044690F83D30002B77D0242384F83D30A1
:102E50002268136823F0010313602268136843F4A7
:102E6000004313602268136823F40043136000F0EA
:102E700081FC62685A4B9A4264D85A4B98428CBF84
:102E800000230123002B40F0A8805749A1FB00310B
:102E90008B0C25686A6822F03F0242EA91426A6020
:102EA00021680A6A22F03F0266684D4DAE424FD853
:102EB000013313430B622168CA6922F44F4222F0A6
:102EC000FF026668464B9E424CD8431E7600B3FB19
:102ED000F6F3013340F6FC70034278D0C3F30B03E2
:102EE0001343CB6121680B6823F0C003E269206AB9
:102EF000024313430B6021688B6823F4034323F0E0
:102F0000FF032269E068024313438B602168CB68AA
:102F100023F0FF036269A06902431343CB60226878
:102F2000136843F00103136000202064202384F819
:102F30003D30206384F83E0070BD80F83C30FEF7E1
:102F40002DFB82E7294B98428CBF0023012399E790
:102F50004FF4967505FB03F3254DA5FB03539B0921
:102F60000133A6E7A368BBB9451E06EB460CB5FBCB
:102F7000FCF50135C5F30B05B5FA85F56D0945BBC3
:102F8000C3B9013806EB4603B0FBF3F30133C3F3D7
:102F90000B0343F40043A3E7451E06EB860C0CEB42
:102FA0008C0CB5FBFCF50135C5F30B05B5FA85F5C1
:102FB0006D09E4E7013806EB860303EB8303B0FBFE
:102FC000F3F30133C3F30B0343F4404388E70423D3
:102FD00086E7012384E7012070470120ACE700BFAA
:102FE000A08601007F841E0083DE1B43FF083D0096
:102FF000D34D62102DE9F04385B004460F4691464B
:1030000098460C9EFFF730FA054694F83D00C0B292
:10301000202804D00227384605B0BDE8F08300958B
:10302000192301224F492046FFF7C4FD002840F034
:10303000928094F83C30012B00F08F80012384F8BB
:103040003C3023681A6812F0010F03D11A6842F06D
:1030500001021A602268136823F4006313602123BD
:1030600084F83D30102384F83E3000232364C4F8F4
:103070002490A4F82A80638D23853B4BE3622B4682
:10308000324639462046FFF729FE0746002866D11A
:103090000023039323685A6903929B690393039B5C
:1030A00011E0236C042B01D00127B4E722681368D8
:1030B00043F400731360F7E72A4631462046FFF7D2
:1030C00091FE00282ED1238D002B36D02A46314682
:1030D0002046FFF75DFE0028E3D1626A236812787C
:1030E0001A61606A431C6362618D89B2013989B2D9
:1030F0006185238D013B9BB223852268516911F0C4
:10310000040FD9D0002BD7D043781361636A013301
:103110006362638D9BB2013B9BB26385238D013B50
:103120002385C9E7236C042B01D0012773E72268AC
:10313000136843F400731360F7E72268136843F4DD
:1031400000731360202384F83D30002384F83E3060
:1031500084F83C305FE702275DE702275BE7012741
:1031600059E700BF020010000000FFFF002800F038
:10317000E08170B582B00446036813F0010F3BD0C4
:103180009F4B9B6803F00C03042B2CD09C4B9B683B
:1031900003F00C03082B21D06368B3F5803F4FD0B8
:1031A000B3F5A02F52D0964B1A6822F480321A60E1
:1031B0001A6822F480221A606368002B50D0FFF74F
:1031C00053F905468E4B1B6813F4003F14D1FFF7EB
:1031D0004BF9401B6428F5D90320B1E1884B5B68AB
:1031E00013F4800FD8D0864B1B6813F4003F03D034
:1031F0006368002B00F09F81236813F0020F54D006
:103200007F4B9B6813F00C0F3ED07D4B9B6803F007
:103210000C03082B33D0E368002B68D0794B0122D4
:103220001A60FFF721F90546754B1B6813F0020F72
:1032300054D1FFF719F9401B0228F5D903207FE18B
:103240006F4A136843F480331360B5E76C4B1A6818
:1032500042F480221A601A6842F480321A60ABE7A6
:10326000FFF702F90546664B1B6813F4003FC3D015
:10327000FFF7FAF8401B6428F5D9032060E1604BA2
:103280005B6813F4800FC6D15D4B1B6813F0020F0F
:1032900003D0E368012B40F05081594A136823F0B2
:1032A000F803216943EAC1031360236813F0080F90
:1032B00042D063696BB3534B0122C3F8802EFFF7F2
:1032C000D3F805464E4B5B6F13F0020F34D1FFF776
:1032D000CBF8401B0228F5D9032031E1484A136896
:1032E00023F0F803216943EAC1031360DDE7454B8E
:1032F00000221A60FFF7B8F80546414B1B6813F02F
:10330000020FD2D0FFF7B0F8401B0228F5D90320F6
:1033100016E13C4B0022C3F8802EFFF7A5F80546C6
:10332000374B5B6F13F0020F06D0FFF79DF8401B81
:103330000228F5D9032003E1236813F0040F77D0A6
:103340002F4B1B6C13F0805F33D1002301932C4B68
:103350001A6C42F080521A641B6C03F08053019384
:10336000019B0125284B1B6813F4807F23D0A368A1
:10337000012B34D0052B38D0214B1A6F22F00102DB
:103380001A671A6F22F004021A67A368002B3DD057
:10339000FFF76AF806461A4B1B6F13F0020F46D16F
:1033A000FFF762F8801B41F288339842F3D903207B
:1033B000C6E00025D6E7144A136843F4807313600F
:1033C000FFF752F80646104B1B6813F4807FCED1EE
:1033D000FFF74AF8801B0228F5D90320B0E0084A1D
:1033E000136F43F001031367CFE7054B1A6F42F0E9
:1033F00004021A671A6F42F001021A67C5E700BF9C
:10340000003802400000474200700040FFF72CF8EF
:103410000646524B1B6F13F0020F08D0FFF724F83B
:10342000801B41F288339842F3D9032088E0EDB93C
:10343000A369002B00F08380484A926802F00C02D6
:10344000082A51D0022B17D0454B00221A66FFF7ED
:103450000BF80446414B1B6813F0007F42D0FFF786
:1034600003F8001B0228F5D9032069E03B4A136CDE
:1034700023F080531364DBE7394B00221A66FEF712
:10348000F3FF0546354B1B6813F0007F06D0FEF7AF
:10349000EBFF401B0228F5D9032051E0E369226AC3
:1034A0001343626A43EA8213A26A5208013A43EA6A
:1034B0000243E26A43EA0263284A5360284B01222E
:1034C0001A66FEF7D1FF0446244B1B6813F0007FF9
:1034D00006D1FEF7C9FF001B0228F5D903202FE013
:1034E00000202DE000202BE0012B2BD01B4B5B6834
:1034F00003F48001E269914226D103F03F02216A80
:103500008A4223D1616A47F6C0721A40B2EB811F2A
:103510001ED103F44031A26A5208013AB1EB024FC6
:1035200018D103F07063E26AB3EB026F14D100208C
:1035300006E001207047012002E0012000E00020A9
:1035400002B070BD0120FBE70120F9E70120F7E799
:103550000120F5E70120F3E70120F1E70038024000
:103560000000474208B5254B9B6803F00C03042B71
:103570003FD0082B3FD1214B5A6802F03F025B68D5
:1035800013F4800F12D01D4B5968C1F388111C48E9
:103590000023A1FB0001FCF733FE184B5B68C3F36B
:1035A000014301335B00B0FBF3F025E0134B596896
:1035B000C1F3881C4FEA4C11B1EB0C006EEB0E0E00
:1035C0004FEA8E1343EA90638101091A63EB0E03FD
:1035D000DB0043EA5173C90011EB0C0C43F100030B
:1035E000990200234FEA8C2041EA9C51FCF708FE27
:1035F000D3E7034800E0034808BD00BF003802409D
:1036000000366E010024F400002800F09B8070B5A5
:103610000D4604464F4B1B6803F007038B4208D24C
:10362000CBB24C4A1370136803F007038B4240F08F
:103630008B80236813F0020F17D013F0040F04D00F
:10364000454A936843F4E0539360236813F0080FEE
:1036500004D0414A936843F4604393603E4A9368C0
:1036600023F0F003A1680B439360236813F0010F6C
:1036700032D06368012B21D09A1E012A25D9364AFF
:10368000126812F0020F61D033498A6822F00302F7
:1036900013438B60FEF7E8FE06462F4B9B6803F052
:1036A0000C036268B3EB820F16D0FEF7DDFE801BC1
:1036B00041F288339842F0D9032042E0264A12684A
:1036C00012F4003FE0D101203BE0234A126812F0DF
:1036D000007FD9D1012034E01E4B1B6803F00703A3
:1036E000AB4207D9EAB21B4B1A701B6803F0070301
:1036F000AB422DD1236813F0040F06D0164A93680D
:1037000023F4E053E1680B439360236813F0080F40
:1037100007D0114A936823F46043216943EAC10347
:103720009360FFF71FFF0C4B9B68C3F303130B4A17
:10373000D35CD8400A4B18600A4B1868FEF748FE65
:10374000002070BD012070470120FAE70120F8E752
:103750000120F6E7003C02400038024060CE00083D
:10376000040000200C000020014B1868704700BFC7
:103770000400002008B5FFF7F7FF044B9B68C3F374
:103780008223034AD35CD84008BD00BF0038024002
:1037900070CE000808B5FFF7E7FF044B9B68C3F342
:1037A0004233034AD35CD84008BD00BF0038024012
:1037B00070CE00082DE9F04782B0054688461746CE
:1037C0001E46FEF751FE0A9B1B1A03EB0609FEF785
:1037D0004BFE82462B4B1B68C3F3CB3309FB03F331
:1037E00001932B689C6838EA04030CBF4FF0010C6E
:1037F0004FF0000CBC4540D0B6F1FF3FF1D0FEF7D2
:1038000033FEA0EB0A0048450AD2B9F1000F07D0F9
:10381000019A02B14A46019B013B01939146E0E7C0
:103820002A68536823F0E00353606B68B3F5827F26
:103830000BD0AB6AB3F5005F14D0012385F851308B
:10384000002385F85030032018E0AB68B3F5004F33
:1038500002D0B3F5806FECD12A68136823F04003DF
:103860001360E6E72A68136823F4005313602A689C
:10387000136843F400531360DFE7002002B0BDE893
:10388000F08700BF0400002010B584B00446164B3A
:103890001868164BA3FB0030400D4FF47A7303FBFE
:1038A00000F003906368B3F5827F0BD0039BBBB13C
:1038B000039B013B039323689B6813F0800FF5D1B2
:1038C00000200EE000920B46002280212046FFF7E8
:1038D00071FF30B1636D43F020036365032000E0A6
:1038E000002004B010BD00BF04000020819F5E16C0
:1038F00000285AD010B50446436A33B94368B3F57B
:10390000827F05D00023C36102E00023036143618D
:103910000023A36294F85130002B40D0022384F896
:1039200051302268136823F040031360636803F486
:103930008273A26802F404421343E26802F4006254
:103940001343226902F002021343626902F001028A
:103950001343A26902F400721343E26902F03802D1
:103960001343226A02F080021343A26A02F4005257
:10397000216813430B60638B03F00403626A02F057
:103980001002216813434B602268D36923F400635B
:10399000D36100206065012384F8513010BD84F8A4
:1039A00050302046FEF71EF8B8E7012070472DE999
:1039B000F04383B01F460A9D90F85030012B00F071
:1039C0001081044688469146012380F85030FEF766
:1039D0004BFD064694F85130DBB26268012B0AD0E9
:1039E000B2F5827F40F0E380A268002A40F0E980CF
:1039F000042B40F0E880B8F1000F00F0E680B9F148
:103A0000000F00F0E480002F00F0E38094F85130C4
:103A1000DBB2042B02D0052384F851300023636508
:103A2000C4F83890E787A787C4F83080E786A78670
:103A30002364636423681A6812F0400F03D11A6884
:103A400042F040021A60E368B3F5006F11D063687A
:103A50000BB1012F0BD1226B236812781A73236BE1
:103A600001332363E38E9BB2013B9BB2E3860127C4
:103A70006BE063680BB1012F0BD1226B23681288B6
:103A8000DA60236B02332363E38E9BB2013B9BB26C
:103A9000E38601271CE023689A6812F0010F0ED01C
:103AA000E28F92B25AB1DA68A36B1A80A36B023329
:103AB000A363E38F9BB2013B9BB2E3870127FEF731
:103AC000D3FC801BA84203D3B5F1FF3F40F08380B5
:103AD000E38E9BB21BB9E38F9BB2002B53D02368BC
:103AE0009A6812F0020FD6D0E28E92B2002AD2D09B
:103AF000002FD0D0226B1288DA60236B023323634D
:103B0000E38E9BB2013B9BB2E3860027C3E72368A9
:103B10009A6812F0010F0ED0E28F92B25AB1DA68B1
:103B2000A36B1A70A36B0133A363E38F9BB2013BBA
:103B30009BB2E3870127FEF797FC831BAB4202D3BE
:103B4000B5F1FF3F49D1002D49D0E38E9BB213B9A7
:103B5000E38F9BB2BBB123689A6812F0020FD6D0F4
:103B6000E28E92B2002AD2D0002FD0D0226B1278EF
:103B70001A73236B01332363E38E9BB2013B9BB229
:103B8000E3860027C3E7324629462046FFF77CFE3E
:103B900048B9A36863B901932368DA6801929B6806
:103BA0000193019B04E020236365012000E00220D3
:103BB000012384F85130002384F8503003B0BDE86D
:103BC000F0830220F4E70220F2E70120F0E7012071
:103BD000EEE70120ECE70320EAE70320E8E7032013
:103BE000E6E70220EAE7000070B4036A23F001036D
:103BF0000362036A4668826922F073020C6844EA31
:103C0000020523F002028B6813430D4CA04209D039
:103C10000B4CA0420DD0466085614A684263036246
:103C200070BC704723F00803CA68134323F00403F1
:103C3000EEE726F440764A6932438E691643EAE796
:103C40000000014030B4036A23F480730362036A06
:103C50004568C26922F073020C68224323F40073A2
:103C60008C6843EA04230F4CA04209D00D4CA042BB
:103C70000ED04560C2614A68C263036230BC7047BF
:103C800023F40063CC6843EA042323F48063EDE764
:103C900025F440554C6945EA04158C6945EA04153C
:103CA000E7E700BF0000014030B4036A23F480530B
:103CB0000362036A4468C26922F4E6420D6842EA7C
:103CC000052223F400538D6843EA0533074DA842CB
:103CD00006D04460C2614A680264036230BC704727
:103CE00024F480444D6944EA8514F2E70000014061
:103CF000704710B5846B636A83420ED0A36A834217
:103D000014D0E36A83421AD0236B834220D020462A
:103D1000FFF7EEFF0023237710BD01232377C3694C
:103D2000002BF4D1012384F83E30F0E702232377FF
:103D3000C369002BEBD1012384F83F30E7E704236C
:103D40002377C369002BE2D1012384F84030DEE7FA
:103D500008232377C369002BD9D1012384F841308C
:103D6000D5E7704710B5846B636A83420BD0A36AB2
:103D7000834210D0E36A834210D0236B834204D184
:103D80000823237701E0012323772046FFF7E9FF8B
:103D90000023237710BD02232377F6E7042323773C
:103DA000F3E7704710B5846B636A83420CD0A36A53
:103DB000834213D0E36A834216D0236B834219D027
:103DC000012384F83D3003E00123237784F83E305B
:103DD0002046FFF7E6FF0023237710BD0223237759
:103DE000012384F83F30F3E704232377012384F889
:103DF0004030EDE708232377012384F84130E7E7DB
:103E00000368254A90420ED0B0F1804F0BD0A2F546
:103E10007C42904207D002F58062904203D002F5C6
:103E20008062904203D123F070034A6813431A4A18
:103E300090421AD0B0F1804F17D0A2F57C42904248
:103E400013D002F5806290420FD002F5806290425A
:103E50000BD002F59A32904207D002F58062904270
:103E600003D002F58062904203D123F44073CA6804
:103E7000134323F080034A69134303608B68C362D2
:103E80000B688362044B984202D001234361704760
:103E90000B690363F9E700BF0000014040B310B5B0
:103EA000044690F83D30F3B1022384F83D302146BA
:103EB00051F8040BFFF7A4FF012384F8463084F87F
:103EC0003E3084F83F3084F8403084F8413084F844
:103ED000423084F8433084F8443084F8453084F824
:103EE0003D30002010BD80F83C30FEF787F8DBE75E
:103EF0000120704730B4036A23F010030362036AA1
:103F00004468826922F4E6420D6842EA052223F001
:103F100020038D6843EA05130E4DA84209D00D4DCC
:103F2000A8420ED0446082614A688263036230BC5A
:103F3000704723F08003CD6843EA051323F0400364
:103F4000EDE724F440644D6944EA85048D6944EA50
:103F50008504E7E70000014038B590F83C30012BBC
:103F600066D004460D46012380F83C300C2A5AD80E
:103F7000DFE802F0075959591B5959593059595915
:103F800044000068FFF730FE2268936943F008039D
:103F900093612268936923F0040393612268936913
:103FA00029690B43936100203EE00068FFF7A2FF00
:103FB0002268936943F4006393612268936923F450
:103FC0008063936122689369296943EA01239361BD
:103FD000002029E00068FFF735FE2268D36943F02E
:103FE0000803D3612268D36923F00403D3612268F4
:103FF000D36929690B43D361002015E00068FFF7FE
:1040000053FE2268D36943F40063D3612268D36905
:1040100023F48063D3612268D369296943EA0123C9
:10402000D361002000E00120002384F83C3038BD3B
:104030000220FCE701F01F01012303FA01FC036ADF
:1040400023EA0C030362036A02FA01F10B430362E1
:104050007047000070B5044616460D4600292ED163
:1040600090F83E00C0B2022814BF002001200028B2
:1040700040F00281002D3ED194F83E20D2B2012AB8
:1040800014BF00220122002A00F0F880002E4ED03A
:10409000002D50D1022284F83E200C2D00F2F08039
:1040A000DFE815F05900EE00EE00EE009600EE009D
:1040B000EE00EE00AD00EE00EE00EE00C4000429BC
:1040C00009D008290FD090F84100C0B2022814BFCF
:1040D00000200120CBE790F83F00C0B2022814BFB7
:1040E00000200120C3E790F84000C0B2022814BFAE
:1040F00000200120BBE7042D09D0082D0FD094F833
:104100004120D2B2012A14BF00220122BBE794F859
:104110003F20D2B2012A14BF00220122B3E794F853
:104120004020D2B2012A14BF00220122ABE7002BAB
:10413000AED00120A3E0042D05D0082D07D0022227
:1041400084F84120A9E7022284F83F20A5E7022253
:1041500084F84020A1E7626A4F49D163626A4F49FF
:104160001164626A4E49D164226834323146606A11
:10417000FEF7E4FA002840F085802268D36843F413
:104180000073D360012229462068FFF753FF23689C
:10419000444A934260D02368424A934261D0B3F1CB
:1041A000804F5ED0A2F57C4293425AD002F58062E5
:1041B000934256D002F58062934252D002F59A3271
:1041C00093424ED01A6842F001021A60002056E075
:1041D000A26A3149D163A26A30491164A26A3049A6
:1041E000D164226838323146A06AFEF7A7FA002867
:1041F0004AD12268D36843F48063D360C2E7E26A9D
:104200002549D163E26A25491164E26A2449D164EF
:1042100022683C323146E06AFEF790FA002835D138
:104220002268D36843F40063D360ABE7226B1A497A
:10423000D163226B19491164226B1949D164226838
:1042400040323146206BFEF779FA08BB2268D3680A
:1042500043F48053D36095E75A6C42F400425A64A9
:1042600099E79A6802F00702062A13D01A6842F00A
:1042700001021A60002002E0022000E0012070BD6F
:104280000120FCE70120FAE70120F8E70120F6E72A
:104290000120F4E70020F2E7F33C0008653D000848
:1042A000A53D00080000014038B504460D460C2924
:1042B0006CD8DFE801F0076B6B6B2E6B6B6B376BA9
:1042C0006B6B40000268D36823F40073D360406ACC
:1042D000FEF769FA002229462068FFF7ABFE236843
:1042E0002B4A934230D02368196A41F211121142CD
:1042F00008D1196A40F24442114203D11A6822F0EF
:1043000001021A60002D2ED1012384F83E300020D6
:104310003DE00268D36823F48063D360806AFEF7CF
:1043200042FAD7E70268D36823F40063D360C06A17
:10433000FEF739FACEE70268D36823F48053D360DE
:10434000006BFEF730FAC5E7196A41F2111211420B
:10435000C9D1196A40F244421142C4D15A6C22F4C4
:1043600000425A64BFE7042D06D0082D09D001236E
:1043700084F8413000200AE0012384F83F30002017
:1043800005E0012384F84030002000E0012038BD22
:104390000000014090F83C30012B34D010B40123D0
:1043A00080F83C30022380F83D3003685A689C68EE
:1043B00022F0700C0A6842EA0C025A600368134A41
:1043C000934212D0B3F1804F0FD0A2F57C429342BA
:1043D0000BD002F58062934207D002F580629342CF
:1043E00003D002F59A32934204D124F080044A6843
:1043F00014439C60012380F83D30002380F83C305A
:10440000184610BC70470220704700BF00000140F2
:1044100090F83C30012B22D0012380F83C30CB684F
:1044200023F440738A68134323F480634A68134378
:1044300023F400630A68134323F480530A69134387
:1044400023F400534A69134323F48043CA69134396
:1044500002685364002380F83C30184670470220FD
:104460007047000038B504460268136923F44053CE
:10447000C1680B43136183680269134342691343A4
:10448000C2691A430168CB6823F4164323F00C0376
:104490001343CB600268536923F4407381690B4373
:1044A00053610368314A934206D002F58062934219
:1044B00002D0FFF75FF901E0FFF76CF9E369B3F5AC
:1044C000004F29D00021031849411B1841F1000178
:1044D000C90041EA5371DB00181863684FEA830290
:1044E0004FEA937341F10001FBF78AFE204DA5FBD3
:1044F00000325109642303FB11031B013233A5FB76
:1045000003235B0903F0F00202EB011203F00F0337
:10451000216813448B6038BD0023021843EB03016C
:10452000121841F10001C90041EA5271D20010187D
:1045300041F10001626892185B41FBF761FE0C4D8E
:10454000A5FB00325109642303FB1103DB00323366
:10455000A5FB03235B095A0002F4F87202EB011277
:1045600003F00703216813448B60D4E70010014077
:104570001F85EB512DE9F84305460F46164699462F
:10458000DDF820802C68246837EA04030CBF4FF064
:10459000010C4FF0000CB4452DD1B8F1FF3FF1D024
:1045A000B8F1000F05D0FDF75FFFA0EB0900404513
:1045B000E8D92A6802F10C0353E8003F23F4D073D2
:1045C0000C3242E800310029F3D12A6802F11403C9
:1045D00053E8003F23F00103143242E80031002980
:1045E000F3D1202385F83D3085F83E30002385F84F
:1045F0003C30032000E00020BDE8F88358B310B53C
:10460000044690F83D300BB3242384F83D302268F3
:10461000D36823F40053D3602046FFF723FF2268BA
:10462000136923F4904313612268536923F02A032A
:1046300053612268D36843F40053D36000202064A0
:10464000202384F83D3084F83E3010BD80F83C30A3
:10465000FDF75AFED8E7012070472DE9F04182B0FE
:104660001E4690F83D30DBB2202B54D104460D4657
:104670009046002953D0002A53D090F83C30012BAB
:1046800051D0012380F83C3000230364212380F8BB
:104690003D30FDF7E9FE0746A4F82480A4F8268003
:1046A000A368B3F5805F05D04FF00008002384F8BD
:1046B0003C3012E0236913B14FF00008F6E7A8463A
:1046C0000025F3E738F8023B2268C3F30803536080
:1046D000E28C92B2013A92B2E284E38C9BB273B163
:1046E00000963B46002280212046FFF743FFE0B9B9
:1046F000002DE7D015F8012B23685A60E8E70096F3
:104700003B46002240212046FFF734FF78B92023A2
:1047100084F83D3000E0022002B0BDE8F0810120C5
:10472000FAE70120F8E70220F6E70320F4E7032088
:10473000F2E7000008B50349034801F043FC034BCE
:10474000187008BDFC2A002014000020002B002057
:1047500000207047024B01221A701878704700BF82
:1047600010000020024B01221A701878704700BF19
:104770001000002000207047002070470120704783
:1047800000239C4600E00133B3F5A06F0BD2821CDE
:104790000A4901EB8202526832F81320002AF2D053
:1047A0000CF1010CEFE74FF47A7000FB0CF0044BB6
:1047B000A3FB0030C0F38F20704700BF280000200B
:1047C000CDCCCCCC02E000F8011B1A46531E002AC7
:1047D000F9D1704738B50546064C831C04EB8303BA
:1047E0004FF4206200215868FFF7ECFF2C440123AE
:1047F000237438BD280000200020704708B5094BFD
:104800001B5C4BB9074B01221A5403EB8002526820
:1048100012681844007A9047FDF73CFA00B1012075
:1048200008BD00BF68D500200BB90420704770B5E3
:104830000C4615461E461A4629462046FDF7D8FA6C
:1048400004E0324629462046FDF7D2FA20B102287C
:10485000F7D0FDF71FFAF4E770BD000038B5044C3F
:1048600004EB80056D68ED680444207AA84738BDE4
:1048700068D50020B0B938B514460546032913D8C9
:10488000DFE801F0020B0408084638BD4FF400735E
:104890001360FAE708231380F7E7FDF7C1F92060FA
:1048A0002846F2E7012070470420EEE742780078BE
:1048B00040EA02207047C278837843EA02224378B4
:1048C00043EA0223007840EA032070470170090A96
:1048D000417070470170C1F307234370C1F3074370
:1048E0008370090EC1707047944632B10A78013165
:1048F00002700130BCF1010CF8D170470170013039
:10490000013AFBD1704784469CF800000CF1010C81
:104910000B780131C01A013A01D00028F4D0704759
:10492000034600E00133187808B18842FAD1704795
:1049300030B400252B4601E001250133012B15D8A9
:104940001A01174CA258002AF6D00468A242F4D1EA
:10495000134A02EB0312546882689442EDD1104A64
:1049600002EB0312946842699442E6D1022B0AD00A
:10497000A1B90B4A02EB03139B89B3F5807F0BD0DF
:10498000002030BC70472DB9022901D01220F8E771
:104990000020F6E70020F4E71020F2E71020F0E70F
:1049A00044D50020002000E00130012804D8030194
:1049B000034AD358002BF7D1023818BF01207047A3
:1049C00044D5002030B4002300E00133012B13D87C
:1049D0001A01254CA45802689442F6D1224A02EBEF
:1049E0000312546882689442EFD11F4A02EB03120B
:1049F000946842699442E8D1022B0DD021B11A4A41
:104A000002EB0312928962BB01BB174A02EB03124D
:104A10009189013189B21BE00023012B05D81A01CD
:104A2000114CA2580AB10133F7E7022B17D00E4DF3
:104A30001C0105EB0312D0F800C045F804C08468DF
:104A400054604069906000209081D7E74FF48071F6
:104A5000054A02EB03129181581C30BC70470020BC
:104A6000FBE70020F9E700BF44D50020013801280A
:104A700015D80D4B03EB00139B89B3F5807F03D052
:104A80001BB1013B9BB200E00023074A02EB00127E
:104A9000938133B903010020034AD05070470220AC
:104AA00070470020704700BF44D50020002302E07B
:104AB00010BC70470133012B11D81A0108498A58DC
:104AC0008242F7D110B41A0100248C500133012B1B
:104AD000EED81A0102498A588242F7D1F3E77047AB
:104AE00044D5002002394369023B8B4204D94389F3
:104AF000806A01FB03007047002070470268C36AA8
:104B00000433490A5289B1FBF2F101E0091A083372
:104B1000186818B18142F9D258680844704770B5D6
:104B200006460D4601F11A00FFF7C0FE3378032B4D
:104B300000D070BD044605F11400FFF7B7FE44EA4B
:104B40000040F6E770B506460C46154691B204F1F2
:104B50001A00FFF7BBFE3378032B00D070BD290C81
:104B600004F11400FFF7B2FEF8E700002DE9F84F5A
:104B700081468A460F6800F1240B0B2220215846FB
:104B8000FFF7BCFE002633464FF0080819E0013558
:104B90007B5D2F2BFBD05C2BF9D03D44CAF8005035
:104BA000002E5CD099F82430E52B4AD0202C4CD82C
:104BB000042389F82F30002015E008264FF00B0859
:104BC0002B465D1CFC5C202CE7D92F2CE0D05C2C04
:104BD000DED02E2C01D0B04507D8B8F10B0F36D05F
:104BE0002E2CEAD00620BDE8F88F04F17F02D2B265
:104BF0007D2A16D80233795DA1F14002D2B23E2A55
:104C000003D981F080027E2A23D808F1FF32B24214
:104C100021D9721C0BF806400BF8021002361D4613
:104C2000CEE721460F48FFF77BFEB0B9A4F1610340
:104C3000DBB2192B01D8203CE4B20BF80640013658
:104C4000BEE7052389F82430B0E70023B1E706204A
:104C5000C9E70620C7E70620C5E70620C3E7062008
:104C6000C1E700BF80CE00080146006838B10246A7
:104C70001378202B06D93A2B04D00132F8E74FF0F5
:104C8000FF3070473A2B01D00020704710B4034624
:104C900013F8010B3038092808D89A4202D04FF097
:104CA000FF3005E030B901320A6001E04FF0FF301B
:104CB00010BC70474FF0FF30FAE738B50D46044698
:104CC00098B103689BB11A78A2B18188DA889142C1
:104CD00003D0092000242C6038BD5878FFF78CFDE4
:104CE00010F0010009D12468F5E70920F3E71C461C
:104CF0000920F0E709200024EDE709200024EAE775
:104D00002DE9F041C57815B92846BDE8F081044683
:104D1000C76A00F1300801233A4641464078FFF760
:104D20009DFD0546A0B90023E370236AFB1AA26922
:104D30009342E9D2A67808E0A3691F4401233A46CA
:104D400041466078FFF78AFD013E012EF4D8DBE78B
:104D50000125D9E770B5C36A8B4202D100263046DF
:104D600070BD04460D46FFF7CBFF06460028F6D17E
:104D700001232A4604F130016078FFF755FD10B198
:104D800001264FF0FF35E562E9E7000038B504463B
:104D90000023C3704FF0FF33C362FFF7DBFF30BB6C
:104DA000054604F22E20FFF781FD4AF6552398426E
:104DB0001FD194F83030E92B07D0236B03F0FF1399
:104DC0000D4A934201D0022514E004F16600FFF77A
:104DD00072FD20F07F40094B98420BD004F1820015
:104DE000FFF769FD064B984204D0022502E0042536
:104DF00000E00325284638BDEB00900046415400F2
:104E0000464154332DE9F04F85B00D461646002338
:104E10000B60FFF729FF071EC0F24481B54B53F822
:104E20002740002C00F043812C6006F0FE0623781A
:104E300073B16078FFF7E0FC10F0010508D1002E97
:104E400000F0318110F0040F00F02D810A252AE1D5
:104E500000232370F8B26070FFF7D0FC10F001055A
:104E600040F027811EB110F0040F40F02481002192
:104E70002046FFF78BFF022800F0B68000270428A9
:104E800000F01B81012800F21A8104F13B00FFF7BA
:104E90000DFDB0F5007F40F0148104F14600FFF7EE
:104EA00005FD064620B904F15400FFF704FD06464F
:104EB000A66194F84020A270531EDBB2012B00F2D1
:104EC000028106FB02F894F83D90A4F80A90B9F12B
:104ED000000F00F0FA8009F1FF3319EA030F40F0E8
:104EE000F68004F14100FFF7E1FC8246208110F0DA
:104EF0000F0F40F0EE8004F14300FFF7D7FC83462C
:104F000020B904F15000FFF7D6FC834604F13E00BF
:104F1000FFF7CCFC0246002800F0DD8000EB080320
:104F200003EB1A139B45C0F0D880ABEB030BBBFB24
:104F3000F9F1CB45C0F0D3804FF6F57081426BD9C3
:104F40004FF0030B40F6F570814201D84FF0010B92
:104F500001F10209C4F81490E7613A4422623B442B
:104F6000A362BBF1030F5AD0BAF1000F00F0BD806D
:104F700042446262BBF1020F62D009EB490309F0BF
:104F8000010909EB530909F2FF19B6EB592FC0F0DB
:104F9000AE804FF0FF332361E36080232371BBF1C8
:104FA000030F50D084F800B0534A138801339BB2EA
:104FB0001380E3802046FFF779FD74E0002004AB06
:104FC00003EB860343F8100C0136032E0ED804F1D0
:104FD0003000330103F5DF7318440379002BEDD063
:104FE0000830FFF768FCEAE70026EEE700260AE053
:104FF00039462046FFF7CAFE01287FF640AF01364A
:10500000032E3FF63CAF04AB03EB860353F8107C52
:10501000002FEDD10320F2E74FF0020B92E704F1ED
:105020005A00FFF743FC00285BD1BAF1000F5AD1B8
:1050300004F15C00FFF73FFC60624FEA8909A2E7D8
:105040004FEA49099FE704F16000FFF72FFC0128B0
:10505000A8D1791C2046FFF77DFE0028A2D10023AD
:10506000237104F22E20FFF721FC4AF655239842C3
:1050700098D104F13000FFF71EFC204B984291D1EB
:1050800004F50570FFF717FC1D4B98428AD104F513
:105090000670FFF710FC206104F50770FFF70BFCAA
:1050A000E0607FE70B25284605B0BDE8F08F0C25B2
:1050B000F9E70325F7E70A25F5E70125F3E70D25CD
:1050C000F1E70D25EFE70D25EDE70D25EBE70D25C4
:1050D000E9E70D25E7E70D25E5E70D25E3E70D25D4
:1050E000E1E70D25DFE70D25DDE70D25DBE70D25E4
:1050F000D9E700BF40D5002064D50020525261415D
:10510000727241612DE9F04701297ED907460C46AC
:10511000164643698B427AD90378022B45D0032B7C
:1051200057D0012B03D002252846BDE8F08701EBBC
:105130005108016A01EB5821FFF70CFE05460028D3
:10514000F2D107F1300A08F10109C8F3080814F098
:1051500001041FD01AF9083003F00F03320102F4E2
:105160007F621343DBB20AF808300123FB70396A0F
:1051700001EB59213846FFF7EDFD05460028D3D154
:10518000C9F3080944B1C6F307120AF8092001233C
:10519000FB70C9E7F3B2E6E71AF9092022F00F0223
:1051A000C6F303263243D2B2EFE7016A01EB1421C2
:1051B000FFF7D0FD05460028B6D107F130006400A6
:1051C00004F4FF74B1B22044FFF780FB0123FB70AD
:1051D000AAE7016A01EBD411FFF7BCFD05460028E0
:1051E000A2D126F0704607F13003A40004F4FE7447
:1051F0001C442046FFF75FFB00F07041314320461E
:10520000FFF768FB0123FB708EE702258CE7022580
:105210008AE7F8B50568012956D90C466B698B42B7
:1052200054D92B78022B2DD0032B3BD0012B01D04E
:1052300001204AE001EB5106296A01EB562128467C
:10524000FFF788FD10B14FF0FF303EE0771CC6F34A
:1052500008062E4496F83060296A01EB572128464B
:10526000FFF778FDA0BBC7F308073D4495F8300071
:1052700046EA002014F0010F01D0000925E0C0F338
:105280000B0022E0296A01EB14212846FFF762FD9A
:1052900008BB05F13000640004F4FF742044FFF7FC
:1052A00005FB12E0296A01EBD4112846FFF752FDF5
:1052B000A0B905F13000A40004F4FE742044FFF707
:1052C000FAFA20F0704000E00120F8BD0120FCE770
:1052D0004FF0FF30F9E74FF0FF30F6E74FF0FF30C7
:1052E000F3E72DE9F041D0F80080B1F5001F40D27E
:1052F00006460F4611F01F0F3DD1416184682CB95D
:1053000098F80030022B01D9D8F82440B4B9B8F885
:105310000830B3EB571F30D9D8F82430F361B461AB
:10532000F36993B303EB5723F36108F13003C7F339
:105330000801194431620020BDE8F081B8F80A5034
:105340006D02AF420FD321463046FFF762FF04469D
:10535000B0F1FF3F13D0012813D9D8F8143083429D
:1053600011D97F1BEDE721464046FFF7BBFBF061FB
:10537000D5E70220E0E70220DEE70220DCE701209B
:10538000DAE70220D8E70220D6E70220D4E72DE9A9
:10539000F041054606680F4651B9D6F80C80B8F1C1
:1053A000000F12D07369434511D84FF001080EE089
:1053B000FFF72FFF0346012847D9B0F1FF3F49D03F
:1053C0007269824246D8B84601E04FF0010844466F
:1053D0000CE021462846FFF71CFF034678B1012860
:1053E00038D0B0F1FF3F35D0444532D00134736935
:1053F000A342EED8B8F1010F29D90224E9E74FF012
:10540000FF3221463046FFF77DFE034600B977B9EB
:10541000A3B9F46032697369023B9A4201D8013A38
:105420003261337943F001033371234612E022469F
:1054300039463046FFF766FE0346E9E7012B01D007
:10544000012307E04FF0FF3304E0012302E00023D3
:1054500000E000231846BDE8F081F8B50C46056869
:1054600001292ED9064611466B69A3422BD94AB1B0
:105470004FF0FF322846FFF745FE074610B123E004
:10548000A24221D9274621463046FFF7C2FE0446F4
:10549000E0B101281CD0B0F1FF3F1BD000223946FB
:1054A0002846FFF72FFE074670B92B696A69911EDF
:1054B0008B42E5D201332B612B7943F001032B7131
:1054C000DEE7022700E002273846F8BD0027FBE7A9
:1054D0000227F9E70127F7E72DE9F0470668456954
:1054E000C369002B6CD0044688462035B5F5001FF3
:1054F00068D2C5F308073FB90133C361816979B93F
:105500003389B3EB551F07D9656106F130033B447E
:1055100023620020BDE8F0870023C3610420F9E77F
:105520007389013B13EA5529EED1FFF772FE8246DB
:10553000012849D9B0F1FF3F48D07369834237D879
:10554000B8F1000F11D0A1692046FFF720FF824675
:1055500000283DD001283DD0B0F1FF3F3CD030467F
:10556000FFF7CEFB28B10120D4E70023E36104203C
:10557000D0E74FF40072002106F13000FFF7BEF9CA
:1055800051463046FFF7AEFAF062738999450BD267
:105590000123F3703046FFF7B3FBF8B909F10109B5
:1055A000F36A0133F362F0E7F36AA3EB0903F362F2
:1055B000C4F818A051463046FFF794FAE061A3E71B
:1055C0000420A7E70420A5E70220A3E70120A1E724
:1055D00007209FE702209DE701209BE7012099E734
:1055E00070B5044606680021FFF77BFE054640B112
:1055F000284670BD00212046FFF76EFF05460028B3
:10560000F6D1E1693046FFF7A5FB05460028EFD14A
:10561000206A03787BB1C37A03F03F03A371C37A96
:1056200013F0080FE6D10B2204F12401FFF76BF908
:105630000028DFD1DCE70425DAE730B583B0044683
:105640000191056801E001330193019B1A782F2A2B
:10565000F9D05C2AF7D00022A2601B781F2B1ED93C
:1056600001A92046FFF782FA034600BB2046FFF758
:10567000B7FF94F82F200346E0B912F0040F16D1BB
:10568000A37913F0100F1CD005F130036169C1F349
:10569000080119442846FFF742FAA060E0E780239A
:1056A00084F82F3011462046FFF71BFE03461846AC
:1056B00003B030BD0428FAD112F0040FF7D105234E
:1056C000F5E70523F3E7F8B504460E460768002121
:1056D000FFF707FE0246C0B9002508E00135B542D4
:1056E00013D001212046FFF7F7FE024668B9E169B1
:1056F0003846FFF72FFB024638B9236A1B78E52BA3
:10570000ECD0002BEAD00025EBE7042A01D01046AC
:10571000F8BD0722FBE770B5044606680121FFF7D4
:10572000D2FF054608B1284670BDE1693046FFF753
:1057300011FB05460028F6D120220021206AFFF740
:10574000DDF80B2204F12401206AFFF7CDF80123D4
:10575000F370E8E770B50446FFF7D2FA054648B99A
:105760002378032B08D0002211466078FFF782F8D7
:1057700000B10125284670BD2379012BF3D104F136
:1057800030064FF4007200213046FFF7B7F84AF6B2
:10579000552104F22E20FFF799F80F493046FFF704
:1057A00099F80E4904F50570FFF794F8216904F59E
:1057B0000670FFF78FF8E16804F50770FFF78AF8C5
:1057C000E2690132E262012331466078FFF746F870
:1057D00000232371C7E700BF5252614172724161D9
:1057E00070B584B0019000911646039103A8FFF7AD
:1057F0003BFA041E1CDB104B53F8245025B12846FD
:10580000FFF754F900232B70019B0BB100221A7093
:10581000019B094A42F8243063B1012E02D00020D6
:1058200004B070BD002201A96846FFF7EBFAF7E764
:105830000B20F5E70020F3E740D500202DE9F043E9
:1058400091B00191002800F00A811546064602F049
:105850003F073A4603A901A8FFF7D4FA044630B13E
:105860000CB100233360204611B0BDE8F083039BE8
:105870000493019904A8FFF7E0FE044660B99DF97E
:105880003F30002B50DB37F0010314BF0121002112
:1058900004A8FFF74DF8044615F01C0F5AD0002C51
:1058A0004ED0042C42D047F00807002C61D117F0ED
:1058B000080F5ED0FEF74CFF054601460C980E30EF
:1058C000FFF708F829460C981630FFF703F80C9BF1
:1058D0002022DA72DDF80C80DDF83090494640462F
:1058E000FFF71DF90546002249464046FFF72AF911
:1058F00000210C981C30FEF7EDFF039B0122DA70AB
:10590000BDB3039BD3F82C800022294604A8FFF7DF
:10591000A4FD044668BB41460398FFF71BFA044602
:10592000013D039BDD6024E00624B5E7FFF73AF86C
:1059300008B91224B7E704A8FFF7EDFE0446B2E762
:105940009DF8163013F0110F12D115F0040FACD0E2
:1059500008240EE06CB99DF8163013F0100F4CD1EE
:1059600015F0020F05D013F0010F02D0072416E046
:105970000724A4B917F0080F01D047F04007039B94
:10598000DB6A73620C9BB36237F0010314BF012121
:10599000002104A8FFF716F8306100285DD0002C24
:1059A0007FF45EAF039DDDF8308041462846FFF767
:1059B000B6F8B06008F11C00FEF77DFFF060002132
:1059C000F1623560EB88B380377571753162B16112
:1059D00006F130084FF400724046FEF78FFF17F0D3
:1059E000200F3FF43DAFF568002D3FF439AFB561AE
:1059F000039B5F897F02B16805E00424CFE7B1F122
:105A0000FF3F0BD0ED1B5CB9BD4209D93046FFF713
:105A100000FC01460128F2D80224F0E70124F1E756
:105A2000F161002C7FF41CAFC5F30803002B3FF499
:105A300017AF039F3846FFF755F808B9022410E75F
:105A400000EB55223262012341467878FEF7ECFEE6
:105A500000283FF405AF012403E7022400E70924EE
:105A600001E72DE9F04F85B004460E4617469846EB
:105A70000023C8F8003003A9FFF71FF901900028A0
:105A800040F0AE80637D0193002B40F0A980237D20
:105A900013F0010F00F0C380E568A369ED1ABD4261
:105AA00062D33D4660E0E36A1BB12046FFF726F86B
:105AB0006AE0E1692046FFF7ACFB65E04FF0020ABF
:105AC00084F815A0CDF804A08AE04FF0010A84F80C
:105AD00015A0CDF804A083E04FF0020A84F815A0C9
:105AE000CDF804A07CE094F91430002B02DB4FEADF
:105AF0004A272FE0206AA0EB09005045F7D24FF467
