:020000040800F2
:10000000000001203D2100084D1C0008511C000883
:10001000651C0008671C0008691C0008000000003F
:100020000000000000000000000000006B1C000841
:100030006D1C0008000000006F1C0008711C000807
:100040008D2100088D2100088D2100088D210008D8
:100050008D2100088D2100088D2100088D210008C8
:100060008D2100088D2100088D2100089D1C0008AD
:100070008D2100088D2100088D2100088D210008A8
:100080008D210008AD1C00088D2100080000000033
:100090000000000000000000000000008D210008AA
:1000A0008D2100088D2100088D2100088D21000878
:1000B0008D2100088D2100088D2100088D21000868
:1000C0008D2100088D2100088D2100088D21000858
:1000D0008D2100088D2100088D21000800000000FE
:1000E0008D2100088D2100088D21000800000000EE
:1000F0000000000000000000000000008D2100084A
:10010000000000008D2100088D2100088D210008CD
:1001100000000000000000000000000000000000DF
:100120008D210008BD1C00088D2100088D210008CC
:100130008D21000800000000000000000000000009
:100140000000000000000000000000008D210008F9
:100150008D2100088D2100088D2100088D210008C7
:100160008D2100088D210008000000000000000023
:10017000000000000000000000000000000000007F
:10018000000000008D2100080000000000000000B9
:040190008D210008B5
:1001C00010B5054C237833B9044B13B10448AFF391
:1001D00000800123237010BD000A002000000000F1
:1001E00040C2000808B5034B1BB103490348AFF3F5
:1001F000008008BD00000000040A002040C2000882
:1002000053B94AB9002908BF00281CBF4FF0FF317D
:100210004FF0FF3000F074B9ADF1080C6DE904CE79
:1002200000F006F8DDF804E0DDE9022304B07047D1
:100230002DE9F047089E0D4604468846002B4DD117
:100240008A42944668D9B2FA82F252B101FA02F3B4
:10025000C2F1200120FA01F10CFA02FC41EA030884
:1002600094404FEA1C45210CB8FBF5FE1FFA8CF7B1
:1002700005FB1E8341EA03430EFB07F199420BD9AC
:100280001CEB03030EF1FF3080F01E81994240F217
:100290001B81AEF1020E63445B1AA4B2B3FBF5F00E
:1002A00005FB103344EA034400FB07F7A7420AD9D1
:1002B0001CEB040400F1FF3380F00881A74240F2F8
:1002C000058164440238E41B40EA0E4000211EB15F
:1002D000D4400023C6E90043BDE8F0878B4208D92B
:1002E000002E00F0EE800021C6E900050846BDE8BA
:1002F000F087B3FA83F100294AD1AB4202D382429C
:1003000000F2F980841A65EB030301209846002E61
:10031000E2D0C6E90048DFE702B9FFDEB2FA82F2B6
:10032000002A40F09180A1EB0C054FEA1C471FFA10
:100330008CFE0121B5FBF7F307FB1350250C45EAB2
:1003400000450EFB03F0A84208D91CEB050503F19C
:10035000FF3802D2A84200F2CB8043462D1AA4B245
:10036000B5FBF7F007FB105544EA05440EFB00FE11
:10037000A64508D91CEB040400F1FF3502D2A645BE
:1003800000F2BB802846A4EB0E0440EA03409EE73F
:10039000C1F120078B4022FA07FC4CEA030C20FA3B
:1003A00007F405FA01F31C43FD404FEA1C4900FA2B
:1003B00001F3B5FBF9F8200C1FFA8CFE09FB185568
:1003C00040EA054508FB0EF0A84202FA01F20BD9FB
:1003D0001CEB050508F1FF3A80F08880A84240F246
:1003E0008580A8F1020865442D1AA4B2B5FBF9F086
:1003F00009FB105544EA054500FB0EFEAE4508D941
:100400001CEB050500F1FF346CD2AE456AD9023809
:10041000654440EA0840A0FB0294A5EB0E05A54206
:10042000C846A64656D353D05EB1B3EB080265EB7F
:100430000E0505FA07F722FA01F3CD401F43C6E97E
:1004400000750021BDE8F087C2F1200320FA03F116
:100450000CFA02FC25FA03F395400D434FEA1C47C2
:100460001FFA8CFEB3FBF7F107FB11302B0C43EAAC
:10047000004301FB0EF0984204FA02F408D91CEB89
:10048000030301F1FF382FD298422DD9023963447A
:100490001B1AADB2B3FBF7F007FB103345EA034577
:1004A00000FB0EF3AB4208D91CEB050500F1FF3849
:1004B00016D2AB4214D902386544ED1A40EA014124
:1004C00038E73146304607E78646E5E61846FAE65D
:1004D0004B45A9D2B9EB020864EB0C0E0138A3E737
:1004E0004046EAE7204694E74146D1E7D0467BE71D
:1004F000023B654432E7084609E76444023842E7B4
:10050000704700BF00000000000000000000000075
:1005100001F0FF01102A2BDB10F0070F08D010F8B4
:10052000013B013A8B422DD010F0070F42B3F6D1B8
:10053000F0B441EA012141EA014122F007047FF0D1
:1005400000070023F0E80256083C85EA010586EA28
:10055000010685FA47F5A3FA87F586FA47F6A5FA64
:1005600087F68EB9EED1F0BC01F0FF0102F0070270
:1005700032B110F8013B013A83EA010313B1F8D11B
:100580000020704701387047002D06BF35460338FC
:10059000073815F0010F07D1013015F4807F02BF35
:1005A000013015F4C03F0130F0BC0138704700BF86
:1005B000844641EA000313F003036DD1403A41D36E
:1005C00051F8043B40F8043B51F8043B40F8043B2D
:1005D00051F8043B40F8043B51F8043B40F8043B1D
:1005E00051F8043B40F8043B51F8043B40F8043B0D
:1005F00051F8043B40F8043B51F8043B40F8043BFD
:1006000051F8043B40F8043B51F8043B40F8043BEC
:1006100051F8043B40F8043B51F8043B40F8043BDC
:1006200051F8043B40F8043B51F8043B40F8043BCC
:1006300051F8043B40F8043B51F8043B40F8043BBC
:10064000403ABDD2303211D351F8043B40F8043B5C
:1006500051F8043B40F8043B51F8043B40F8043B9C
:1006600051F8043B40F8043B103AEDD20C3205D36C
:1006700051F8043B40F8043B043AF9D2043208D064
:10068000D2071CBF11F8013B00F8013B01D30B88D6
:1006900003806046704700BF082A13D38B078DD0B4
:1006A00010F003038AD0C3F10403D21ADB071CBF86
:1006B00011F8013B00F8013B80D331F8023B20F8F0
:1006C000023B7BE7043AD9D3013A11F8013B00F829
:1006D000013BF9D20B7803704B7843708B788370B1
:1006E00060467047000000000000000000000000AD
:1006F00000000000000000000000000000000000FA
:1007000090F800F06DE9024520F007016FF0000C51
:1007100010F0070491F820F040F049804FF00004F9
:100720006FF00700D1E9002391F840F000F10800D4
:1007300082FA4CF2A4FA8CF283FA4CF3A2FA8CF30C
:100740004BBBD1E9022382FA4CF200F10800A4FA73
:100750008CF283FA4CF3A2FA8CF3E3B9D1E90423C7
:1007600082FA4CF200F10800A4FA8CF283FA4CF3FE
:10077000A2FA8CF37BB9D1E9062301F1200182FAB8
:100780004CF200F10800A4FA8CF283FA4CF3A2FABE
:100790008CF3002BC6D0002A04BF04301A4612BACC
:1007A000B2FA82F2FDE8024500EBD2007047D1E9CF
:1007B000002304F00305C4F100004FEAC50514F05E
:1007C000040F91F840F00CFA05F562EA05021CBF2F
:1007D00063EA050362464FF00004A9E781F0004197
:1007E00002E000BF83F0004330B54FEA41044FEA16
:1007F000430594EA050F08BF90EA020F1FBF54EAB1
:10080000000C55EA020C7FEA645C7FEA655C00F04C
:10081000E2804FEA5454D4EB5555B8BF6D420CDD1D
:100820002C4480EA020281EA030382EA000083EAA0
:10083000010180EA020281EA0303362D88BF30BD40
:1008400011F0004F4FEA01314FF4801C4CEA113196
:1008500002D0404261EB410113F0004F4FEA0333F5
:100860004CEA133302D0524263EB430394EA050F80
:1008700000F0A780A4F10104D5F1200E0DDB02FAEF
:100880000EFC22FA05F2801841F1000103FA0EF283
:10089000801843FA05F359410EE0A5F120050EF149
:1008A000200E012A03FA0EFC28BF4CF0020C43FA7A
:1008B00005F3C01851EBE37101F0004507D54FF087
:1008C000000EDCF1000C7EEB00006EEB0101B1F5D7
:1008D000801F1BD3B1F5001F0CD349085FEA30001D
:1008E0004FEA3C0C04F101044FEA445212F5800F28
:1008F00080F09A80BCF1004F08BF5FEA500C50F1C5
:10090000000041EB045141EA050130BD5FEA4C0CA7
:10091000404141EB0101013C28BFB1F5801FE9D204
:1009200091F0000F04BF01460020B1FA81F308BF27
:100930002033A3F10B03B3F120020CDA0C3208DDF3
:1009400002F1140CC2F10C0201FA0CF021FA02F1CE
:100950000CE002F11402D8BFC2F1200C01FA02F13E
:1009600020FA0CFCDCBF41EA0C019040E41AA2BF63
:1009700001EB0451294330BD6FEA04041F3C1CDA2B
:100980000C340EDC04F11404C4F1200220FA04F04B
:1009900001FA02F340EA030021FA04F345EA0301F5
:1009A00030BDC4F10C04C4F1200220FA02F001FAB7
:1009B00004F340EA0300294630BD21FA04F0294639
:1009C00030BD94F0000F83F4801306BF81F48011D2
:1009D0000134013D4EE77FEA645C18BF7FEA655C45
:1009E00029D094EA050F08BF90EA020F05D054EA17
:1009F000000C04BF1946104630BD91EA030F1EBF1C
:100A00000021002030BD5FEA545C05D1400049411F
:100A100028BF41F0004130BD14F580043CBF01F512
:100A2000801130BD01F0004545F0FE4141F47001F8
:100A30004FF0000030BD7FEA645C1ABF19461046D3
:100A40007FEA655C1CBF0B46024650EA013406BFD4
:100A500052EA033591EA030F41F4002130BD00BF93
:100A600090F0000F04BF0021704730B54FF4806450
:100A700004F132044FF000054FF0000150E700BFD1
:100A800090F0000F04BF0021704730B54FF4806430
:100A900004F1320410F0004548BF40424FF000011D
:100AA0003EE700BF42004FEAE2014FEA31014FEA60
:100AB00002701FBF12F07F4393F07F4F81F06051AF
:100AC000704732F07F4208BF704793F07F4F04BFFA
:100AD00041F40021704730B54FF4607401F00045D7
:100AE00021F000411CE700BF50EA010208BF704737
:100AF00030B54FF000050AE050EA010208BF704728
:100B000030B511F0004502D5404261EB41014FF490
:100B1000806404F132045FEA915C3FF4D8AE4FF098
:100B200003025FEADC0C18BF03325FEADC0C18BF7B
:100B3000033202EBDC02C2F1200300FA03FC20FACC
:100B400002F001FA03FE40EA0E0021FA02F1144419
:100B5000BDE600BF70B54FF0FF0C4CF4E06C1CEA32
:100B600011541DBF1CEA135594EA0C0F95EA0C0FA3
:100B700000F0DEF82C4481EA030621EA4C5123EA16
:100B80004C5350EA013518BF52EA033541F4801145
:100B900043F4801338D0A0FB02CE4FF00005E1FBF8
:100BA00002E506F00042E0FB03E54FF00006E1FB42
:100BB00003569CF0000F18BF4EF0010EA4F1FF0485
:100BC000B6F5007F64F5407404D25FEA4E0E6D41C5
:100BD00046EB060642EAC62141EA55514FEAC520D6
:100BE00040EA5E504FEACE2EB4F1FD0C88BFBCF552
:100BF000E06F1ED8BEF1004F08BF5FEA500E50F103
:100C0000000041EB045170BD06F0004646EA0101C8
:100C100040EA020081EA0301B4EB5C04C2BFD4EBFA
:100C20000C0541EA045170BD41F480114FF0000EF3
:100C3000013C00F3AB8014F1360FDEBF002001F061
:100C4000004170BDC4F10004203C35DA0C341BDCDB
:100C500004F11404C4F1200500FA05F320FA04F0AD
:100C600001FA05F240EA020001F0004221F00041E1
:100C700010EBD37021FA04F642EB06015EEA430E54
:100C800008BF20EAD37070BDC4F10C04C4F1200584
:100C900000FA04F320FA05F001FA04F240EA020037
:100CA00001F0004110EBD37041F100015EEA430E08
:100CB00008BF20EAD37070BDC4F1200500FA05F228
:100CC0004EEA020E20FA04F301FA05F243EA0203A7
:100CD00021FA04F001F0004121FA04F220EA0200B6
:100CE00000EBD3705EEA430E08BF20EAD37070BDFC
:100CF00094F0000F0FD101F00046400041EB0101DC
:100D000011F4801F08BF013CF7D041EA060195F0BD
:100D1000000F18BF704703F00046520043EB030377
:100D200013F4801F08BF013DF7D043EA0603704764
:100D300094EA0C0F0CEA135518BF95EA0C0F0CD06F
:100D400050EA410618BF52EA4306D1D181EA0301B5
:100D500001F000414FF0000070BD50EA410606BFAF
:100D60001046194652EA430619D094EA0C0F02D1F4
:100D700050EA013613D195EA0C0F05D152EA033639
:100D80001CBF104619460AD181EA030101F0004157
:100D900041F0FE4141F470014FF0000070BD41F0A0
:100DA000FE4141F4780170BD70B54FF0FF0C4CF47A
:100DB000E06C1CEA11541DBF1CEA135594EA0C0F99
:100DC00095EA0C0F00F0A7F8A4EB050481EA030EE6
:100DD00052EA03354FEA013100F088804FEA0333CD
:100DE0004FF0805545EA131343EA12634FEA02229B
:100DF00045EA111545EA10654FEA00260EF000415C
:100E00009D4208BF964244F1FD0404F5407402D2AD
:100E10005B084FEA3202B61A65EB03055B084FEA3E
:100E200032024FF480104FF4002CB6EB020E75EB3B
:100E3000030E22BFB61A754640EA0C005B084FEA63
:100E40003202B6EB020E75EB030E22BFB61A7546E0
:100E500040EA5C005B084FEA3202B6EB020E75EB2B
:100E6000030E22BFB61A754640EA9C005B084FEAA3
:100E70003202B6EB020E75EB030E22BFB61A7546B0
:100E800040EADC0055EA060E18D04FEA051545EA9F
:100E900016754FEA06164FEAC30343EA52734FEA48
:100EA000C2025FEA1C1CC0D111F4801F0BD141EAC1
:100EB00000014FF000004FF0004CB6E711F4801F26
:100EC00004BF01430020B4F1FD0C88BFBCF5E06F06
:100ED0003FF6AFAEB5EB030C04BFB6EB020C5FEA16
:100EE000500C50F1000041EB045170BD0EF0004E6B
:100EF0004EEA113114EB5C04C2BFD4EB0C0541EA9D
:100F0000045170BD41F480114FF0000E013C90E699
:100F100045EA060E8DE60CEA135594EA0C0F08BF5D
:100F200095EA0C0F3FF43BAF94EA0C0F0AD150EA5C
:100F300001347FF434AF95EA0C0F7FF425AF1046EF
:100F400019462CE795EA0C0F06D152EA03353FF417
:100F5000FDAE1046194622E750EA410618BF52EA94
:100F600043067FF4C5AE50EA41047FF40DAF52EA68
:100F700043057FF4EBAE12E74FF0FF3C06E000BF05
:100F80004FF0010C02E000BF4FF0010C4DF804CD12
:100F90004FEA410C7FEA6C5C4FEA430C18BF7FEAD2
:100FA0006C5C1BD001B050EA410C0CBF52EA430C00
:100FB00091EA030F02BF90EA020F0020704710F180
:100FC000000F91EA030F58BF994208BF90422CBF0F
:100FD000D8176FEAE37040F0010070474FEA410C08
:100FE0007FEA6C5C02D150EA013C07D14FEA430C26
:100FF0007FEA6C5CD6D152EA033CD3D05DF8040B97
:10100000704700BF8446104662468C4619466346C8
:1010100000E000BF01B5FFF7B7FF002848BF10F19F
:10102000000F01BD4DF808EDFFF7F4FF0CBF0120E4
:1010300000205DF808FB00BF4DF808EDFFF7EAFF60
:1010400034BF012000205DF808FB00BF4DF808ED1B
:10105000FFF7E0FF94BF012000205DF808FB00BF10
:101060004DF808EDFFF7CEFF94BF012000205DF89A
:1010700008FB00BF4DF808EDFFF7C4FF34BF0120A7
:1010800000205DF808FB00BF4FEA410C7FEA6C5C72
:1010900002D150EA013C0AD14FEA430C7FEA6C5C72
:1010A00002D152EA033C02D14FF0000070474FF0EA
:1010B000010070474FEA410212F5001215D211D516
:1010C0006FF47873B3EB625212D94FEAC12343F045
:1010D000004343EA505311F0004F23FA02F018BFC7
:1010E000404270474FF00000704750EA013005D190
:1010F00011F0004008BF6FF0004070474FF0000053
:10110000704700BF10B5084C4FF4E263074A002156
:10111000204602F063FF642001F08CF80021204695
:1011200003F086F810BD00BFC8280020300B002057
:1011300008B5002304E00B4A222142F823100133B2
:10114000B3F5D26FF7D34FF4D26304E0054A002120
:1011500042F823100133B3F5E26FF7D3FFF7D2FF64
:1011600008BD00BF300B002010B582B000240094F1
:10117000164B1A6B42F480021A631A6B02F4800257
:101180000092009A01941A6B42F400121A631B6BCE
:1011900003F400130193019B224621460B2001F02A
:1011A0006FF80B2001F0A4F822462146112001F02F
:1011B00067F8112001F09CF822462146392001F001
:1011C0005FF8392001F094F802B010BD00380240F9
:1011D000F0B58BB000240594069407940894099404
:1011E00001942A4B1A6B42F004021A631A6B02F044
:1011F00004020192019A02941A6B42F080021A636F
:101200001A6B02F080020292029A03941A6B42F067
:1012100001021A631A6B02F001020392039A04940A
:101220001A6B42F002021A631B6B03F00203049371
:10123000049B174F01224FF40051384601F07BFB0D
:10124000144E22460821304601F075FB4FF400533E
:101250000593012506950795089405A9384601F0E0
:1012600083FA0823059306950794089405A9304648
:1012700001F07AFA4FF4E04305930694079505A927
:10128000054801F071FA0BB0F0BD00BF0038024014
:1012900000080240000002400004024008B50B486C
:1012A0000B4B03600B4B436000238360C3604FF420
:1012B0008042026143618361C361036201F09CFC6F
:1012C00000B908BD00F0F4F8FBE700BFDC0A00201D
:1012D00000540040801A060070B588B000230393C4
:1012E000049305930693079302682E4B9A4201D00C
:1012F00008B070BD0446002501952B4E336B43F0BA
:1013000002033363336B03F002030193019BC02399
:10131000039312230493032306930423079303A93F
:10132000224801F021FA0295336C43F40013336430
:10133000336C03F400130293029B1D481D4B0360A2
:101340004FF0007343608560C5604FF480630361B4
:1013500045618561C5610562456201F069F8D8B9EA
:10136000134BA3639C631448144B03604FF000734A
:101370004360402383600023C3604FF480620261B6
:1013800043618361C3610362436201F051F830B984
:10139000094B63639C63ABE700F08AF8E0E700F079
:1013A00087F8F5E70054004000380240000402408E
:1013B0001C0A0020106002407C0A0020A06002404D
:1013C00010B510B12B4B01221A702A4B1B7873B346
:1013D0004FF48051284801F0A7FA28B14FF400518A
:1013E000254801F0A1FAD8B9052000F023FF214BD0
:1013F00000221A704FF480511F4801F095FA00B393
:1014000000244FF400511C4801F08EFA00B9022468
:101410004FF48041184801F087FA80B903240EE0A8
:101420004FF48041144801F07FFA0028DCD04FF4DB
:101430008051114801F078FA012804D00024204698
:1014400010BD0124DDE74FF400510B4801F06CFAA8
:10145000012801D00024F2E74FF48041064801F052
:1014600063FA012801D00024E9E7024B01221A7037
:101470000024E4E700000020000402400EB430B570
:10148000A2B0054625AB53F8042B2193802101A877
:1014900004F0D6FF04464FF0FF3382B201A928467C
:1014A00003F09FF8204622B0BDE8304003B07047FB
:1014B00072B6FEE700B595B03022002108A804F00E
:1014C0006DFF002303930493059306930793019301
:1014D000204A116C41F080511164126C02F080526C
:1014E0000192019A02931C4A136823F4404343F487
:1014F00000431360136803F440430293029B0123EB
:1015000008934FF48033099302230E934FF4800223
:101510000F920C22109254221192129303231393D0
:1015200008A801F003FD80B90F2303930221049161
:10153000002305934FF480520692079303A801F00D
:1015400043FF20B915B05DF804FBFFF7B1FFFFF7CB
:10155000AFFF00BF00380240007000402DE9F041AD
:10156000ADF5047D002402944FF40172214603A8D6
:1015700004F014FF00F032FEFFF79CFFFFF728FE97
:10158000FFF7F2FDFFF78AFE00F06CFC00F082FD31
:1015900000F0D0F803F092F8574800F059FDFFF73B
:1015A000C7FD01220821554801F0C5F900F03AFABB
:1015B000204603F0FDF8204603F0DCF801225049F4
:1015C000504803F0A1FBB0B922464FF4005100F19E
:1015D000804000F5023001F0AEF94B494B48FFF76F
:1015E0004DFF4FF40273009302AB224602214448A0
:1015F00003F0B8FB41E0464D444C2A78454920466B
:10160000FFF73CFF3E4EDFF8FC80012231464046AA
:1016100003F07AFB0246404F39462046FFF72EFF83
:101620004FF40273009302AB00220321304603F013
:1016300099FB287001223146404603F065FB0246C3
:1016400039462046FFF71AFF2A7834492046FFF72B
:1016500015FF12E0324C00224FF40051204601F0F9
:101660006AF9322000F0E6FD01224FF400512046D5
:1016700001F061F9322000F0DDFD0122204921480E
:1016800003F042FB0028E5D100224FF4005100F1A5
:10169000804000F5023001F04EF900F089F9C20AED
:1016A00020491A48FFF7EAFE0BE01F4B30221821B1
:1016B000114804F00FFA104803F0F6FE322000F053
:1016C000B9FD0020FFF77CFE04460B4803F0DFFE67
:1016D000022CEAD0032C08D0012CECD1134B182299
:1016E0001146054804F0F6F9E5E7114B18220C21E4
:1016F000014804F0EFF9DEE7702700200000024007
:1017000058C20008DC2900205CC20008942900208F
:10171000102C002074C200088CC2000894C200087B
:1017200000080240A0C20008B8C20008B0C2000809
:10173000C0C2000808B50D480D4B03604FF482731A
:10174000436000238360C360036143614FF4007210
:101750008261C3610362436283620A23C36201F050
:10176000A7FF00B908BDFFF7A3FEFBE70428002090
:101770000030014000B589B0002303930493059322
:10178000069307930268154B9A4202D009B05DF8A0
:1017900004FB0021019103F584335A6C42F480521A
:1017A0005A645A6C02F480520192019A02911A6BA7
:1017B00042F001021A631B6B03F001030293029BC8
:1017C000E023039302230493032306930523079343
:1017D00003A9034800F0C8FFD8E700BF003001406C
:1017E0000000024010B40C4B1C68216821F040013D
:1017F00021601C68216821F038010904090C21606E
:1018000019680A6842EAC0020A601A68136843F05D
:101810004003136010BC70470428002000B587B057
:101820008DF80F004FF47A73009301230DF1170226
:101830000DF10F01034801F09AFF9DF8170007B062
:101840005DF804FB0428002010B50024FF20FFF7FA
:10185000E5FFFF2806D001346FF07F439C42F5D3AB
:10186000012000E0002010BD38B505464FF6FF749A
:10187000FF20FFF7D3FFA84203D014B1013CA4B26C
:10188000F6E70CB1002038BD0120FCE7F8B50646AC
:101890000D46FE20FFF7E8FF074638B101270FE0AD
:1018A000FF20FFF7BBFF06F8010B25466B1E9CB21D
:1018B000002DF5D1FF20FFF7B1FFFF20FFF7AEFFAE
:1018C0003846F8BD08B501220821034801F033F875
:1018D000FF20FFF7A3FF08BD0000024008B500226B
:1018E0000821054801F027F8FFF7AEFF00B908BD51
:1018F000FFF7E8FF0120FAE70000024038B5044690
:101900000D4610F0800F22D10C2C04D0FFF7DAFF27
:10191000FFF7E4FFC0BB44F04000FFF77FFF280E55
:10192000FFF77CFFC5F30740FFF778FFC5F30720FB
:10193000FFF774FFE8B2FFF771FF8CB10120082CAC
:1019400010D0FFF76BFF0C2C0ED00A2411E000F032
:101950007F0400213720FFF7D1FF0128D4D912E0FE
:101960009520ECE78720ECE7FF20FFF757FFECE737
:101970001C46FF20FFF752FF10F0800F03D0631EBC
:10198000DBB2002CF4D138BDFF20FCE738B50446AB
:1019900000210920FFF7B2FF054618B1FFF792FFBB
:1019A000284638BD10212046FFF770FF0546F5E7B1
:1019B00000B585B06846FFF7E9FF88BB9DF80030A9
:1019C00003F0C003402B20D09DF8053003F00F0337
:1019D0009DF80A0003EBD0139DF80900400000F0C9
:1019E000060003449DF808009DF80720800900EBDD
:1019F00082009DF80620920202F4406210440130F9
:101A0000073B984005B05DF804FB9DF809009DF880
:101A1000083000EB032080B2013080B28002F1E791
:101A20000020EFE770B582B00720FFF7DBFE00244F
:101A300004E0FF20FFF7F2FE0134A4B2092CF8D92C
:101A4000142500E01D4600210846FFF757FF044615
:101A5000012803D06B1E9BB2002DF3D1474B00220F
:101A60001A70012C0BD0FFF72DFF0020FFF7BAFEF4
:101A7000424B1B78002B7ED1204602B070BD4FF444
:101A8000D5710820FFF73AFF012848D1002509E069
:101A9000FF20FFF7C3FE05F108036B4403F8040CB5
:101AA0000135ADB2032DF3D99DF80630012BDAD103
:101AB0009DF80730AA2BD6D14FF47A7500E01D4669
:101AC0004FF08041A920FFF719FF044620B16B1E9B
:101AD0009BB2002DF3D11D46002DC4D000213A2029
:101AE000FFF70CFF0028BED1002509E0FF20FFF71B
:101AF00095FE05F108036B4403F8040C0135ADB203
:101B0000032DF3D99DF8043013F0400F03D01B4B85
:101B100006221A70A7E7194B04221A70A3E70021C6
:101B2000A920FFF7EBFE012806D9144B01221A70F9
:101B300026464FF47A7505E0104B02221A70A9264A
:101B4000F7E71D4600213046FFF7D8FE044620B1D6
:101B50006B1E9BB2002DF4D11D461DB9074B002210
:101B60001A7080E74FF400711020FFF7C7FE0028BD
:101B70003FF479AFF2E700247EE700BF5C28002045
:101B800070B506461546154A1278062A00D0490255
:101B9000012D16D01220FFF7B1FE4FF40071304630
:101BA000FFF774FE044606F50076013D01D00028DB
:101BB000F3D000210C20FFF7A1FEFFF783FE2046A3
:101BC00070BD1120FFF79AFE04460028F5D14FF4AE
:101BD00000713046FFF75AFE0446EEE75C2800200D
:101BE00082B0002100910B4B5A6C42F480425A643F
:101BF0005A6C02F480420092009A01911A6C42F0F1
:101C000080521A641B6C03F080530193019B02B055
:101C1000704700BF003802400A4B1B889BB22BB1B3
:101C2000084A13889BB2013B9BB21380064B1B886A
:101C30009BB22BB1044A13889BB2013B9BB2138029
:101C4000704700BF5E28002060280020FEE70000EB
:101C500008B502490248FFF711FCFAE7C8C20008BC
:101C600094290020FEE7FEE7FEE7704770477047C3
:101C700008B5094A13780133DBB213701378DBB26D
:101C8000092B02D800F0C4FA08BD134600221A70CE
:101C9000FFF7C2FFF6E700BF5D28002008B5024845
:101CA00000F074FC08BD00BF1C0A002008B5024803
:101CB00000F06CFC08BD00BF7C0A002008B502489B
:101CC00000F064FC08BD00BF6828002001207047B8
:101CD00008B504F039FB162303604FF0FF3008BD50
:101CE00008B54FF0FF31FFF7F3FFFEE770B50C4684
:101CF0001646002506E0AFF30080214601F8010BEF
:101D000001350C46B542F6DB304670BD70B50C4669
:101D10001646002504E014F8010BAFF300800135EE
:101D2000B542F8DB304670BD4FF0FF3070474FF4DE
:101D300000534B600020704701207047002070471F
:101D400010B503460C4A0D490D48006840B10C48D7
:101D500000680344521A934206D8094A136010BD22
:101D60000748084C0460F2E704F0EEFA0C23036025
:101D70004FF0FF30F3E700BF000001200012000029
:101D800064280020C0DA00207047000002681A4B67
:101D90009A4200D0704710B582B0044600230193E8
:101DA000164A516C41F001015164526C02F001027B
:101DB0000192019A1248134A02604FF04062426059
:101DC00040228260C3604FF4806202614FF480520F
:101DD00042614FF4804282614FF48072C2610362BB
:101DE000436200F025FB20B9054B63629C6302B09F
:101DF00010BDFFF75DFBF7E700000140003802402F
:101E0000682800202864024000B587B000230193B1
:101E1000029303930493059302680F4B9A4202D0F6
:101E200007B05DF804FB002300930C4B1A6B42F0E3
:101E300001021A631B6B03F001030093009B4FF434
:101E400080730193022302930123059301A904489F
:101E500000F08AFCE4E700BF0000014000380240C7
:101E60000000024010B596B000241294139414940C
:101E700015941094119409940A940B940C940D9455
:101E80000E940F942022214601A804F087FA2C48D2
:101E90002C4B0360446084606823C3600461446128
:101EA000846101F009FF002837D14FF48053129369
:101EB00012A9234802F004F8002831D1204801F08B
:101EC00027FF00282FD100231093119310A91C483D
:101ED00002F024FA50BB6023099300220A920B926D
:101EE0000C920D920E920F9209A9154801F06EFF07
:101EF000F8B90023019302930393049305934FF4DD
:101F000000520692089301A90D4802F045FA98B9CB
:101F10000B48FFF779FF16B010BDFFF7C9FAC4E709
:101F2000FFF7C6FACAE7FFF7C3FACCE7FFF7C0FA34
:101F3000D1E7FFF7BDFADCE7FFF7BAFAE8E700BF41
:101F4000C82800200000014000B583B014390C29D6
:101F500008D8DFE801F00B0707210F25070707075F
:101F600007073200002003B05DF804FBFFF796F985
:101F70000120F8E7134B00221A700120F3E7114803
:101F8000017801F1010C80F800C013F801CB0E4874
:101F900000F801C0013AD2B2002AF0D10120E2E7F4
:101FA0004FF47A730093074B1B78074A7821074850
:101FB00000F000FF18B90120D5E70120D3E7002089
:101FC000D1E700BF1029002014290020DC0A0020DE
:101FD00008B529392A2937D8DFE801F0222016363A
:101FE00017363636363636363636363636363636B0
:101FF00036363636363636363636363636363617A0
:10200000173636262A2E320000BF012008BD00BF39
:1020100001339BB2B3F5A07FF9D3F6E70023F9E7CC
:10202000012000F007F9F0E7002380F82730ECE703
:10203000002380F82730E8E7002380F82730E4E722
:10204000002380F82730E0E7012380F82730DCE721
:1020500010B504460B4B0C4A0C4903F07BFA2046A2
:1020600004F032F90021204604F035F9204603F04F
:102070000EFA204603F059FA0549204603F06AFD9E
:1020800010BD00BFD11F0008491F0008DCCC0008AC
:1020900054C3000808B50A480A4B03604FF4E13303
:1020A000436000238360C36003610C22426183614B
:1020B000C36102F067FA00B908BDFFF7F9F9FBE761
:1020C000942900200010014000B589B0002303933B
:1020D0000493059306930793026803F1804303F585
:1020E00088339A4202D009B05DF804FB00210191C7
:1020F00003F594335A6C42F010025A645A6C02F0A1
:1021000010020192019A02911A6B42F001021A63C5
:102110001B6B03F001030293029B4FF4C063039314
:1021200002230493032306930723079303A902487A
:1021300000F01AFBD7E700BF00000240DFF834D000
:102140000D480E490E4A002302E0D458C45004330F
:10215000C4188C42F9D30B4A0B4C002301E01360E6
:102160000432A242FBD3FFF70FFE04F0F3F8FFF7AF
:10217000F5F970470000012000000020E809002068
:102180006CD10008000A0020C0DA0020FEE7000041
:1021900010B504460E4B18784FF47A73B3FBF0F386
:1021A0000C4A1068B0FBF3F000F0B0F868B90F2CDF
:1021B00001D901200AE0002221464FF0FF3000F053
:1021C0005FF8054B1C60002000E0012010BD00BF3F
:1021D00008000020040000200C00002008B50B4B74
:1021E0001A6842F400721A601A6842F480621A6037
:1021F0001A6842F480721A60032000F02FF80F2052
:10220000FFF7C6FFFFF7ECFC002008BD003C0240D2
:10221000034A1168034B1B780B441360704700BFDF
:10222000D829002008000020014B1868704700BF23
:10223000D829002038B50446FFF7F6FF0546B4F16B
:10224000FF3F02D0044B1B781C44FFF7EDFF401BFF
:10225000A042FAD338BD00BF08000020074AD36867
:1022600023F4E0631B041B0C000200F4E060034352
:1022700043F0BF6343F40033D360704700ED00E0E8
:1022800000B5194BDB68C3F30223C3F1070CBCF1A3
:10229000040F28BF4FF0040C03F1040EBEF1060F2B
:1022A00018D9033B4FF0FF3E0EFA0CFC21EA0C015B
:1022B00099400EFA03F322EA0303194300280BDBCB
:1022C0000901C9B200F1604000F5614080F80013D7
:1022D0005DF804FB0023E5E700F00F000901C9B237
:1022E000024B1954F4E700BF00ED00E014ED00E0EC
:1022F000002807DB00F01F02400901239340024A37
:1023000042F82030704700BF00E100E00138B0F132
:10231000807F0BD24FF0E0235861054AF02182F80C
:1023200023100020986107221A617047012070472E
:1023300000ED00E030B405682C6824F480242C60A3
:10234000046863608368402B05D003689960036864
:10235000DA6030BC704703689A600368D960F8E7B8
:1023600010B40368D9B210390B4AA2FB014212091A
:102370000A4CA25CC2655F2908D923F47F7323F05D
:10238000030304338365806D10BC704723F47F73AF
:1023900023F003038365F6E7ABAAAAAAF8C20008F4
:1023A000836A826992B9012B0AD0022B02D00BB149
:1023B00000207047C36A13F0807F28D10020704747
:1023C000C36AB3F1C07F24D000207047B2F5005F2C
:1023D00009D0022B25D9032B25D1C36A13F0807FA6
:1023E00023D100207047032B03D8DFE803F0140447
:1023F000140A00207047C36A13F0807F0DD10020BB
:102400007047C36AB3F1C07F09D000207047012034
:10241000704701207047012070470120704701205C
:10242000704701207047002070470120704700006E
:1024300070B50446FFF7F8FE002C5BD0054602237A
:1024400084F83530002384F834302268136823F090
:102450000103136023681A6812F0010F0AD0FFF716
:10246000E3FE431B052BF5D920236365032084F885
:10247000350070BD1A68204810406168A2680A43A0
:10248000E1680A4321690A4361690A43A1690A4371
:10249000E1690A43216A0A430243616A04291ED0A2
:1024A0001A602668756925F00705636A1D43042BC9
:1024B00007D1A36A1D43E36A1BB12046FFF770FFF3
:1024C00090B975612046FFF74BFFE26D3F239340C3
:1024D000836000206065012384F83530C9E7E16A34
:1024E000206B01430A43DBE740236365012084F846
:1024F0003500BEE70120BCE73F8010F038B5044648
:10250000856D90F8340001282BD0012084F8340028
:1025100094F83500C0B2012804D0002384F8343088
:10252000022038BD022084F8350000206065204676
:10253000FFF700FFE26D3F239340AB602268136812
:1025400043F016031360236C23B12268136843F031
:10255000080313602268136843F00103136000202E
:10256000DFE70220DDE790F83530DBB2022B03D045
:102570008023436501207047052380F835300268C9
:10258000136823F00103136000207047F0B583B097
:10259000044600230193724B1D68724BA3FB053563
:1025A000AD0A876D3E68C26D08239340334210D058
:1025B00003681A6812F0040F0BD01A6822F00402A4
:1025C0001A60C26D08239340BB60436D43F0010362
:1025D0004365E26D01239340334209D0226852697A
:1025E00012F0800F04D0BB60636D43F0020363659B
:1025F000E26D04239340334209D02268126812F03E
:10260000020F04D0BB60636D43F004036365E26DA9
:1026100010239340334224D02268126812F0080F2E
:102620001FD0BB6023681A6812F4802F0DD01B687E
:1026300013F4002F04D1236C9BB12046984710E07F
:10264000A36C73B1204698470BE01A6812F4807FA0
:1026500003D11A6822F008021A60236C0BB12046DD
:102660009847E26D20239340334255D02268126888
:1026700012F0100F50D0BB6094F83530DBB2052B50
:102680000ED023681A6812F4802F33D01B6813F41D
:10269000002F2AD1636C002B3ED0204698473BE0A8
:1026A0002268136823F0160313602268536923F02D
:1026B00080035361236CA3B12268136823F00803DD
:1026C0001360E26D3F239340BB60012384F83530F3
:1026D000002384F83430236D002B3FD020469847E8
:1026E0003CE0A36C002BE7D1EBE7E36BA3B1204602
:1026F000984711E01A6812F4807F09D11A6822F015
:1027000010021A60012384F83530002384F8343035
:10271000E36B0BB120469847636DFBB1636D13F01B
:10272000010F17D0052384F835302268136823F091
:1027300001031360019B01330193AB4204D823686A
:102740001B6813F0010FF5D1012384F83530002305
:1027500084F83430E36C0BB12046984703B0F0BDE9
:1027600004000020B5814E1B00230F2B00F2D28005
:1027700070B582B060E085685E000324B44025EA4D
:102780000405CC68B4402C438460456825EA020502
:102790004C68C4F300129A402A4342605AE0DC08B5
:1027A000083450F8246003F0070295000F22AA4075
:1027B00026EA020E0A69AA4042EA0E0240F82420E4
:1027C0005CE0042200E0002202FA0EF22A43023406
:1027D000514D45F82420514A14686FEA0C0224EA4E
:1027E0000C054E6816F4803F01D04CEA04054B4CB2
:1027F0002560646802EA04054E6816F4003F01D0C3
:102800004CEA0405454C6560A46802EA04054E687C
:1028100016F4801F01D04CEA0405404CA560E46822
:1028200022404D6815F4001F01D04CEA04023B4CD5
:10283000E26001330F2B6BD801229A400C6804EA46
:10284000020C32EA0404F4D14C6804F00304013CA5
:10285000012C90D94A6802F00302032A09D0C46807
:102860005D000322AA4024EA02048A68AA402243A7
:10287000C2604A6802F00302022A90D004684FEA5C
:10288000430E032202FA0EF224EA02044A6802F01E
:10289000030202FA0EF2224302604A6812F4403F39
:1028A000C7D0002201921E4A546C44F48044546400
:1028B000526C02F480420192019A9C08A51C164AAF
:1028C00052F8255003F003024FEA820E0F2202FA5B
:1028D0000EF225EA0205134A90423FF474AF02F566
:1028E000806290420ED002F5806290420CD002F5D8
:1028F000806290420AD002F5806290423FF461AF5C
:10290000072261E701225FE702225DE703225BE71E
:1029100002B070BD704700BF00380140003C01406C
:1029200000380240000002400369194201D0012032
:102930007047002070470AB18161704709048161C6
:10294000704703685A6912F4806F01D10020704704
:102950006FF480625A6100230363202280F83D20D7
:1029600080F83E30026C42F00402026480F83C3091
:10297000012070472DE9F04107460D4690461E465E
:1029800024E0FFF751FC069BC01AB04200D8EEB914
:1029900000233B63202287F83D2087F83E303A6CC5
:1029A00042F020023A6487F83C3001201EE03B6888
:1029B0009C6925EA040C1FFA8CFCBCFA8CFC4FEADB
:1029C0005C1CE04511D1B6F1FF3FDAD1C5F30743F6
:1029D000012BECD13B685B6925EA030C1FFA8CFCE8
:1029E000BCFA8CFC4FEA5C1CEBE70020BDE8F081F0
:1029F0002DE9F04105460E46174698463DE01A6817
:102A000042F400721A602B686FF480625A610023EE
:102A10002B63202285F83D2085F83E302A6C42F059
:102A200004022A6485F83C30012034E0FFF7FCFB07
:102A3000A0EB0800B84200D8FFB900232B63202286
:102A400085F83D2085F83E302A6C42F020022A6449
:102A500085F83C3001201EE02B689C6926EA0404BE
:102A6000A4B2003C18BF0124A4B12B685A6912F427
:102A7000806FC4D1B7F1FF3FD8D1C6F30743012B14
:102A8000EAD12B685C6926EA0404A4B2003C18BFB2
:102A90000124E9E70020BDE8F0810000F0B583B033
:102AA00004460D4616461F46C36A082B0DD0012B5F
:102AB0000BD013F5803F08D0036B122B0AD10268AC
:102AC000136843F48073136004E02268136843F4CE
:102AD000807313600097334600224FF001112046A7
:102AE000FFF748FF80B92369B3F5804F16D12368FB
:102AF00005F0FE051D613B46324613492046FFF7AF
:102B000077FFF8B903B0F0BD23681B6813F4807F2A
:102B100002D04FF4007323640320F3E7EB11226823
:102B200003F0060343F0F00313613B4632460749C6
:102B30002046FFF75DFF18B92368EDB21D61DAE7A3
:102B40000120DFE70120DDE70200010008000100AD
:102B500070B504460D46164623685B6913F0800F76
:102B60001CD12046FFF7EDFED0B9B5F1FF3FF3D001
:102B7000FFF75AFB801BA84201D8002DECD100239F
:102B80002363202284F83D2084F83E30226C42F0FA
:102B90002002226484F83C30012000E0002070BD57
:102BA0000120FCE770B504460D46164623685B69B4
:102BB00013F0040F1CD12046FFF7C3FED0B9B5F1C6
:102BC000FF3FF3D0FFF730FB801BA84201D8002D58
:102BD000ECD100232363202284F83D2084F83E308A
:102BE000226C42F02002226484F83C30012000E094
:102BF000002070BD0120FCE7002800F0CC8070B5FB
:102C0000044690F83D30002B77D0242384F83D30E3
:102C10002268136823F0010313602268136843F4E9
:102C2000004313602268136823F40043136000F02C
:102C300081FC62685A4B9A4264D85A4B98428CBFC6
:102C400000230123002B40F0A8805749A1FB00314D
:102C50008B0C25686A6822F03F0242EA91426A6062
:102C600021680A6A22F03F0266684D4DAE424FD895
:102C7000013313430B622168CA6922F44F4222F0E8
:102C8000FF026668464B9E424CD8431E7600B3FB5B
:102C9000F6F3013340F6FC70034278D0C3F30B0324
:102CA0001343CB6121680B6823F0C003E269206AFB
:102CB000024313430B6021688B6823F4034323F022
:102CC000FF032269E068024313438B602168CB68ED
:102CD00023F0FF036269A06902431343CB602268BB
:102CE000136843F00103136000202064202384F85C
:102CF0003D30206384F83E0070BD80F83C30FEF724
:102D0000EBFA82E7294B98428CBF0023012399E715
:102D10004FF4967505FB03F3254DA5FB03539B0963
:102D20000133A6E7A368BBB9451E06EB460CB5FB0D
:102D3000FCF50135C5F30B05B5FA85F56D0945BB05
:102D4000C3B9013806EB4603B0FBF3F30133C3F319
:102D50000B0343F40043A3E7451E06EB860C0CEB84
:102D60008C0CB5FBFCF50135C5F30B05B5FA85F503
:102D70006D09E4E7013806EB860303EB8303B0FB40
:102D8000F3F30133C3F30B0343F4404388E7042315
:102D900086E7012384E7012070470120ACE700BFEC
:102DA000A08601007F841E0083DE1B43FF083D00D8
:102DB000D34D62102DE9F04385B004460F4691468D
:102DC00098460C9EFFF730FA054694F83D00C0B2D5
:102DD000202804D00227384605B0BDE8F0830095CE
:102DE000192301224F492046FFF7C4FD002840F077
:102DF000928094F83C30012B00F08F80012384F8FE
:102E00003C3023681A6812F0010F03D11A6842F0AF
:102E100001021A602268136823F4006313602123FF
:102E200084F83D30102384F83E3000232364C4F836
:102E30002490A4F82A80638D23853B4BE3622B46C4
:102E4000324639462046FFF729FE0746002866D15C
:102E50000023039323685A6903929B690393039B9E
:102E600011E0236C042B01D00127B4E7226813681A
:102E700043F400731360F7E72A4631462046FFF714
:102E800091FE00282ED1238D002B36D02A463146C4
:102E90002046FFF75DFE0028E3D1626A23681278BE
:102EA0001A61606A431C6362618D89B2013989B21B
:102EB0006185238D013B9BB223852268516911F006
:102EC000040FD9D0002BD7D043781361636A013344
:102ED0006362638D9BB2013B9BB26385238D013B93
:102EE0002385C9E7236C042B01D0012773E72268EF
:102EF000136843F400731360F7E72268136843F420
:102F000000731360202384F83D30002384F83E30A2
:102F100084F83C305FE702275DE702275BE7012783
:102F200059E700BF020010000000FFFF002800F07A
:102F3000E08170B582B00446036813F0010F3BD006
:102F40009F4B9B6803F00C03042B2CD09C4B9B687D
:102F500003F00C03082B21D06368B3F5803F4FD0FA
:102F6000B3F5A02F52D0964B1A6822F480321A6023
:102F70001A6822F480221A606368002B50D0FFF791
:102F800053F905468E4B1B6813F4003F14D1FFF72D
:102F90004BF9401B6428F5D90320B1E1884B5B68ED
:102FA00013F4800FD8D0864B1B6813F4003F03D076
:102FB0006368002B00F09F81236813F0020F54D048
:102FC0007F4B9B6813F00C0F3ED07D4B9B6803F04A
:102FD0000C03082B33D0E368002B68D0794B012217
:102FE0001A60FFF721F90546754B1B6813F0020FB5
:102FF00054D1FFF719F9401B0228F5D903207FE1CE
:103000006F4A136843F480331360B5E76C4B1A685A
:1030100042F480221A601A6842F480321A60ABE7E8
:10302000FFF702F90546664B1B6813F4003FC3D057
:10303000FFF7FAF8401B6428F5D9032060E1604BE4
:103040005B6813F4800FC6D15D4B1B6813F0020F51
:1030500003D0E368012B40F05081594A136823F0F4
:10306000F803216943EAC1031360236813F0080FD2
:1030700042D063696BB3534B0122C3F8802EFFF734
:10308000D3F805464E4B5B6F13F0020F34D1FFF7B8
:10309000CBF8401B0228F5D9032031E1484A1368D8
:1030A00023F0F803216943EAC1031360DDE7454BD0
:1030B00000221A60FFF7B8F80546414B1B6813F071
:1030C000020FD2D0FFF7B0F8401B0228F5D9032039
:1030D00016E13C4B0022C3F8802EFFF7A5F8054609
:1030E000374B5B6F13F0020F06D0FFF79DF8401BC4
:1030F0000228F5D9032003E1236813F0040F77D0E9
:103100002F4B1B6C13F0805F33D1002301932C4BAA
:103110001A6C42F080521A641B6C03F080530193C6
:10312000019B0125284B1B6813F4807F23D0A368E3
:10313000012B34D0052B38D0214B1A6F22F001021D
:103140001A671A6F22F004021A67A368002B3DD099
:10315000FFF76AF806461A4B1B6F13F0020F46D1B1
:10316000FFF762F8801B41F288339842F3D90320BD
:10317000C6E00025D6E7144A136843F48073136051
:10318000FFF752F80646104B1B6813F4807FCED130
:10319000FFF74AF8801B0228F5D90320B0E0084A5F
:1031A000136F43F001031367CFE7054B1A6F42F02B
:1031B00004021A671A6F42F001021A67C5E700BFDE
:1031C000003802400000474200700040FFF72CF832
:1031D0000646524B1B6F13F0020F08D0FFF724F87E
:1031E000801B41F288339842F3D9032088E0EDB97F
:1031F000A369002B00F08380484A926802F00C0219
:10320000082A51D0022B17D0454B00221A66FFF72F
:103210000BF80446414B1B6813F0007F42D0FFF7C8
:1032200003F8001B0228F5D9032069E03B4A136C20
:1032300023F080531364DBE7394B00221A66FEF754
:10324000F3FF0546354B1B6813F0007F06D0FEF7F1
:10325000EBFF401B0228F5D9032051E0E369226A05
:103260001343626A43EA8213A26A5208013A43EAAC
:103270000243E26A43EA0263284A5360284B012270
:103280001A66FEF7D1FF0446244B1B6813F0007F3B
:1032900006D1FEF7C9FF001B0228F5D903202FE055
:1032A00000202DE000202BE0012B2BD01B4B5B6876
:1032B00003F48001E269914226D103F03F02216AC2
:1032C0008A4223D1616A47F6C0721A40B2EB811F6D
:1032D0001ED103F44031A26A5208013AB1EB024F09
:1032E00018D103F07063E26AB3EB026F14D10020CF
:1032F00006E001207047012002E0012000E00020EC
:1033000002B070BD0120FBE70120F9E70120F7E7DB
:103310000120F5E70120F3E70120F1E70038024042
:103320000000474208B5254B9B6803F00C03042BB3
:103330003FD0082B3FD1214B5A6802F03F025B6817
:1033400013F4800F12D01D4B5968C1F388111C482B
:103350000023A1FB0001FCF753FF184B5B68C3F38C
:10336000014301335B00B0FBF3F025E0134B5968D8
:10337000C1F3881C4FEA4C11B1EB0C006EEB0E0E42
:103380004FEA8E1343EA90638101091A63EB0E033F
:10339000DB0043EA5173C90011EB0C0C43F100034D
:1033A000990200234FEA8C2041EA9C51FCF728FF48
:1033B000D3E7034800E0034808BD00BF00380240DF
:1033C00000366E010024F400002800F09B8070B5E8
:1033D0000D4604464F4B1B6803F007038B4208D28F
:1033E000CBB24C4A1370136803F007038B4240F0D2
:1033F0008B80236813F0020F17D013F0040F04D052
:10340000454A936843F4E0539360236813F0080F30
:1034100004D0414A936843F4604393603E4A936802
:1034200023F0F003A1680B439360236813F0010FAE
:1034300032D06368012B21D09A1E012A25D9364A41
:10344000126812F0020F61D033498A6822F0030239
:1034500013438B60FEF7E8FE06462F4B9B6803F094
:103460000C036268B3EB820F16D0FEF7DDFE801B03
:1034700041F288339842F0D9032042E0264A12688C
:1034800012F4003FE0D101203BE0234A126812F021
:10349000007FD9D1012034E01E4B1B6803F00703E5
:1034A000AB4207D9EAB21B4B1A701B6803F0070343
:1034B000AB422DD1236813F0040F06D0164A93684F
:1034C00023F4E053E1680B439360236813F0080F83
:1034D00007D0114A936823F46043216943EAC1038A
:1034E0009360FFF71FFF0C4B9B68C3F303130B4A5A
:1034F000D35CD8400A4B18600A4B1868FEF748FEA8
:10350000002070BD012070470120FAE70120F8E794
:103510000120F6E7003C024000380240E0C200080B
:10352000040000200C000020014B1868704700BF09
:103530000400002008B5FFF7F7FF044B9B68C3F3B6
:103540008223034AD35CD84008BD00BF0038024044
:10355000F0C2000808B5FFF7E7FF044B9B68C3F310
:103560004233034AD35CD84008BD00BF0038024054
:10357000F0C200082DE9F04782B00546884617469C
:103580001E46FEF751FE0A9B1B1A03EB0609FEF7C7
:103590004BFE82462B4B1B68C3F3CB3309FB03F373
:1035A00001932B689C6838EA04030CBF4FF0010CB0
:1035B0004FF0000CBC4540D0B6F1FF3FF1D0FEF714
:1035C00033FEA0EB0A0048450AD2B9F1000F07D03C
:1035D000019A02B14A46019B013B01939146E0E703
:1035E0002A68536823F0E00353606B68B3F5827F69
:1035F0000BD0AB6AB3F5005F14D0012385F85130CE
:10360000002385F85030032018E0AB68B3F5004F75
:1036100002D0B3F5806FECD12A68136823F0400321
:103620001360E6E72A68136823F4005313602A68DE
:10363000136843F400531360DFE7002002B0BDE8D5
:10364000F08700BF0400002010B584B00446164B7C
:103650001868164BA3FB0030400D4FF47A7303FB40
:1036600000F003906368B3F5827F0BD0039BBBB17E
:10367000039B013B039323689B6813F0800FF5D1F4
:1036800000200EE000920B46002280212046FFF72A
:1036900071FF30B1636D43F020036365032000E0E8
:1036A000002004B010BD00BF04000020819F5E1602
:1036B00000285AD010B50446436A33B94368B3F5BD
:1036C000827F05D00023C36102E0002303614361D0
:1036D0000023A36294F85130002B40D0022384F8D9
:1036E00051302268136823F040031360636803F4C9
:1036F0008273A26802F404421343E26802F4006297
:103700001343226902F002021343626902F00102CC
:103710001343A26902F400721343E26902F0380213
:103720001343226A02F080021343A26A02F4005299
:10373000216813430B60638B03F00403626A02F099
:103740001002216813434B602268D36923F400639D
:10375000D36100206065012384F8513010BD84F8E6
:1037600050302046FEF706F8B8E7012070472DE9F3
:10377000F04383B01F460A9D90F85030012B00F0B3
:103780001081044688469146012380F85030FEF7A8
:103790004BFD064694F85130DBB26268012B0AD02B
:1037A000B2F5827F40F0E380A268002A40F0E98011
:1037B000042B40F0E880B8F1000F00F0E680B9F18A
:1037C000000F00F0E480002F00F0E38094F8513007
:1037D000DBB2042B02D0052384F85130002363654B
:1037E000C4F83890E787A787C4F83080E786A786B3
:1037F0002364636423681A6812F0400F03D11A68C7
:1038000042F040021A60E368B3F5006F11D06368BC
:103810000BB1012F0BD1226B236812781A73236B23
:1038200001332363E38E9BB2013B9BB2E386012706
:103830006BE063680BB1012F0BD1226B23681288F8
:10384000DA60236B02332363E38E9BB2013B9BB2AE
:10385000E38601271CE023689A6812F0010F0ED05E
:10386000E28F92B25AB1DA68A36B1A80A36B02336B
:10387000A363E38F9BB2013B9BB2E3870127FEF773
:10388000D3FC801BA84203D3B5F1FF3F40F08380F7
:10389000E38E9BB21BB9E38F9BB2002B53D02368FE
:1038A0009A6812F0020FD6D0E28E92B2002AD2D0DD
:1038B000002FD0D0226B1288DA60236B023323638F
:1038C000E38E9BB2013B9BB2E3860027C3E72368EC
:1038D0009A6812F0010F0ED0E28F92B25AB1DA68F4
:1038E000A36B1A70A36B0133A363E38F9BB2013BFD
:1038F0009BB2E3870127FEF797FC831BAB4202D301
:10390000B5F1FF3F49D1002D49D0E38E9BB213B9E9
:10391000E38F9BB2BBB123689A6812F0020FD6D036
:10392000E28E92B2002AD2D0002FD0D0226B127831
:103930001A73236B01332363E38E9BB2013B9BB26B
:10394000E3860027C3E7324629462046FFF77CFE80
:1039500048B9A36863B901932368DA6801929B6848
:103960000193019B04E020236365012000E0022015
:10397000012384F85130002384F8503003B0BDE8AF
:10398000F0830220F4E70220F2E70120F0E70120B3
:10399000EEE70120ECE70320EAE70320E8E7032055
:1039A000E6E70220EAE7000070B4036A23F00103AF
:1039B0000362036A4668826922F073020C6844EA73
:1039C000020523F002028B6813430D4CA04209D07C
:1039D0000B4CA0420DD0466085614A684263036289
:1039E00070BC704723F00803CA68134323F0040334
:1039F000EEE726F440764A6932438E691643EAE7D9
:103A00000000014030B4036A23F480730362036A48
:103A10004568C26922F073020C68224323F40073E4
:103A20008C6843EA04230F4CA04209D00D4CA042FD
:103A30000ED04560C2614A68C263036230BC704701
:103A400023F40063CC6843EA042323F48063EDE7A6
:103A500025F440554C6945EA04158C6945EA04157E
:103A6000E7E700BF0000014030B4036A23F480534D
:103A70000362036A4468C26922F4E6420D6842EABE
:103A8000052223F400538D6843EA0533074DA8420D
:103A900006D04460C2614A680264036230BC704769
:103AA00024F480444D6944EA8514F2E700000140A3
:103AB00010B4036A046A24F001040462846924F0E7
:103AC000F00C4CEA021223F00A030B4382610362FA
:103AD00010BC704710B4046A24F0100404628469B6
:103AE000036A24F4704C4CEA023223F0A00343EA48
:103AF00001138261036210BC7047836823F0700376
:103B00000B4343F00703836070477047704710B55D
:103B1000846B636A83420ED0A36A834214D0E36A43
:103B200083421AD0236B834220D02046FFF7EEFF5A
:103B30000023237710BD01232377C369002BF4D121
:103B4000012384F83E30F0E702232377C369002B7A
:103B5000EBD1012384F83F30E7E704232377C369DF
:103B6000002BE2D1012384F84030DEE708232377DD
:103B7000C369002BD9D1012384F84130D5E77047C0
:103B800010B5846B636A83420BD0A36A834210D062
:103B9000E36A834210D0236B834204D10823237746
:103BA00001E0012323772046FFF7E9FF0023237775
:103BB00010BD02232377F6E704232377F3E770474A
:103BC00010B5846B636A83420CD0A36A834213D01E
:103BD000E36A834216D0236B834219D0012384F811
:103BE0003D3003E00123237784F83E302046FFF781
:103BF000E6FF0023237710BD02232377012384F8F7
:103C00003F30F3E704232377012384F84030EDE7C6
:103C100008232377012384F84130E7E70368254A26
:103C200090420ED0B0F1804F0BD0A2F57C42904272
:103C300007D002F58062904203D002F58062904284
:103C400003D123F070034A6813431A4A90421AD0F2
:103C5000B0F1804F17D0A2F57C42904213D002F50C
:103C6000806290420FD002F5806290420BD002F544
:103C70009A32904207D002F58062904203D002F55A
:103C80008062904203D123F44073CA68134323F047
:103C900080034A69134303608B68C3620B688362C5
:103CA000044B984202D00123436170470B690363C0
:103CB000F9E700BF0000014040B310B5044690F89A
:103CC0003D30F3B1022384F83D30214651F8040B16
:103CD000FFF7A4FF012384F8463084F83E3084F8CF
:103CE0003F3084F8403084F8413084F8423084F822
:103CF000433084F8443084F8453084F83D30002067
:103D000010BD80F83C30FEF741F8DBE7012070473A
:103D100040B310B5044690F83D30F3B1022384F867
:103D20003D30214651F8040BFFF778FF012384F85A
:103D3000463084F83E3084F83F3084F8403084F8D0
:103D4000413084F8423084F8433084F8443084F8B9
:103D5000453084F83D30002010BD80F83C30FFF73E
:103D6000D4FEDBE70120704730B4036A23F0100370
:103D70000362036A4468826922F4E6420D6842EAFB
:103D8000052223F020038D6843EA05130E4DA84257
:103D900009D00D4DA8420ED0446082614A6882630A
:103DA000036230BC704723F08003CD6843EA0513FB
:103DB00023F04003EDE724F440644D6944EA8504B0
:103DC0008D6944EA8504E7E70000014038B590F8C2
:103DD0003C30012B66D004460D46012380F83C3070
:103DE0000C2A5AD8DFE802F0075959591B5959597A
:103DF0003059595944000068FFF7D6FD226893698D
:103E000043F0080393612268936923F004039361EC
:103E10002268936929690B43936100203EE00068A2
:103E2000FFF7A2FF2268936943F40063936122685D
:103E3000936923F48063936122689369296943EA53
:103E400001239361002029E00068FFF7DBFD226871
:103E5000D36943F00803D3612268D36923F00403D4
:103E6000D3612268D36929690B43D361002015E02F
:103E70000068FFF7F9FD2268D36943F40063D3615A
:103E80002268D36923F48063D3612268D3692969E6
:103E900043EA0123D361002000E00120002384F8DD
:103EA0003C3038BD0220FCE710B4846824F47F4C19
:103EB00042EA03220A4342EA0C02826010BC7047C5
:103EC00090F83C30012B78D010B50446012380F8DF
:103ED0003C30022380F83D300268936823F47F432E
:103EE00023F0770393600B68602B4CD029D8402BCC
:103EF00054D00CD9502B22D1CA6849680068FFF70A
:103F0000D7FD50212068FFF7F8FD002005E0202BA9
:103F10000DD009D9302B0AD00120012384F83D307F
:103F2000002384F83C3010BD0BB1102B05D119468D
:103F30002068FFF7E2FD0020EFE70120EDE7012018
:103F4000EBE7B3F5805F34D0B3F5005F0CD1CB68FD
:103F50004A6889680068FFF7A7FF2268936843F4FE
:103F6000804393600020D8E7702B24D1CB684A6847
:103F700089680068FFF798FF2268936843F0770329
:103F800093600020C9E7CA6849680068FFF7A2FD8E
:103F900060212068FFF7B1FD0020BEE7CA684968CC
:103FA0000068FFF785FD40212068FFF7A6FD00208F
:103FB000B3E70020B1E70120AFE70220704701F02E
:103FC0001F01012303FA01FC036A23EA0C030362C5
:103FD000036A02FA01F10B430362704770B50446AD
:103FE00016460D4600292ED190F83E00C0B2022898
:103FF00014BF00200120002840F00281002D3ED196
:1040000094F83E20D2B2012A14BF00220122002AD5
:1040100000F0F880002E4ED0002D50D1022284F8FE
:104020003E200C2D00F2F080DFE815F05900EE0084
:10403000EE00EE009600EE00EE00EE00AD00EE00A9
:10404000EE00EE00C400042909D008290FD090F832
:104050004100C0B2022814BF00200120CBE790F835
:104060003F00C0B2022814BF00200120C3E790F82F
:104070004000C0B2022814BF00200120BBE7042D7D
:1040800009D0082D0FD094F84120D2B2012A14BFD4
:1040900000220122BBE794F83F20D2B2012A14BFCC
:1040A00000220122B3E794F84020D2B2012A14BFC3
:1040B00000220122ABE7002BAED00120A3E0042DAB
:1040C00005D0082D07D0022284F84120A9E702225A
:1040D00084F83F20A5E7022284F84020A1E7626A25
:1040E0004F49D163626A4F491164626A4E49D16493
:1040F000226834323146606AFEF700FA002840F048
:1041000085802268D36843F40073D3600122294676
:104110002068FFF754FF2368444A934260D0236825
:10412000424A934261D0B3F1804F5ED0A2F57C4207
:1041300093425AD002F58062934256D002F58062D3
:10414000934252D002F59A3293424ED01A6842F00E
:1041500001021A60002056E0A26A3149D163A26AC6
:1041600030491164A26A3049D1642268383231463C
:10417000A06AFEF7C3F900284AD12268D36843F445
:104180008063D360C2E7E26A2549D163E26A2549C8
:104190001164E26A2449D16422683C323146E06A03
:1041A000FEF7ACF9002835D12268D36843F40063E8
:1041B000D360ABE7226B1A49D163226B19491164B2
:1041C000226B1949D164226840323146206BFEF7D8
:1041D00095F908BB2268D36843F48053D36095E710
:1041E0005A6C42F400425A6499E79A6802F0070256
:1041F000062A13D01A6842F001021A60002002E079
:10420000022000E0012070BD0120FCE70120FAE758
:104210000120F8E70120F6E70120F4E70020F2E7AB
:104220000F3B0008813B0008C13B00080000014033
:1042300038B504460D460C296CD8DFE801F0076B51
:104240006B6B2E6B6B6B376B6B6B40000268D368CC
:1042500023F40073D360406AFEF785F900222946F3
:104260002068FFF7ACFE23682B4A934230D02368C6
:10427000196A41F21112114208D1196A40F24442FE
:10428000114203D11A6822F001021A60002D2ED1CA
:10429000012384F83E3000203DE00268D36823F417
:1042A0008063D360806AFEF75EF9D7E70268D3685F
:1042B00023F40063D360C06AFEF755F9CEE70268C5
:1042C000D36823F48053D360006BFEF74CF9C5E745
:1042D000196A41F211121142C9D1196A40F24442DD
:1042E0001142C4D15A6C22F400425A64BFE7042D33
:1042F00006D0082D09D0012384F8413000200AE0BF
:10430000012384F83F30002005E0012384F8403089
:10431000002000E0012038BD0000014090F83C3052
:10432000012B34D010B4012380F83C30022380F8F4
:104330003D3003685A689C6822F0700C0A6842EAB3
:104340000C025A600368134A934212D0B3F1804FB3
:104350000FD0A2F57C4293420BD002F580629342CB
:1043600007D002F58062934203D002F59A3293425D
:1043700004D124F080044A6814439C60012380F82F
:104380003D30002380F83C30184610BC70470220B6
:10439000704700BF0000014090F83C30012B22D054
:1043A000012380F83C30CB6823F440738A681343C0
:1043B00023F480634A68134323F400630A681343B9
:1043C00023F480530A69134323F400534A691343C7
:1043D00023F48043CA69134302685364002380F8BE
:1043E0003C301846704702207047000038B504463C
:1043F0000268136923F44053C1680B431361836857
:104400000269134342691343C2691A430168CB68C6
:1044100023F4164323F00C031343CB600268536963
:1044200023F4407381690B4353610368314A93421B
:1044300006D002F58062934202D0FFF77BF801E0DC
:10444000FFF788F8E369B3F5004F29D0002103187E
:1044500049411B1841F10001C90041EA5371DB00D9
:10446000181863684FEA83024FEA937341F1000121
:10447000FBF7C6FE204DA5FB00325109642303FB68
:1044800011031B013233A5FB03235B0903F0F00288
:1044900002EB011203F00F03216813448B6038BD57
:1044A0000023021843EB0301121841F10001C90077
:1044B00041EA5271D200101841F10001626892186D
:1044C0005B41FBF79DFE0C4DA5FB003251096423B7
:1044D00003FB1103DB003233A5FB03235B095A0006
:1044E00002F4F87202EB011203F00703216813448F
:1044F0008B60D4E7001001401F85EB512DE9F84394
:1045000005460F4616469946DDF820802C6824683B
:1045100037EA04030CBF4FF0010C4FF0000CB44518
:104520002DD1B8F1FF3FF1D0B8F1000F05D0FDF764
:104530007BFEA0EB09004045E8D92A6802F10C0394
:1045400053E8003F23F4D0730C3242E800310029D5
:10455000F3D12A6802F1140353E8003F23F001036A
:10456000143242E800310029F3D1202385F83D3090
:1045700085F83E30002385F83C30032000E0002021
:10458000BDE8F88358B310B5044690F83D300BB33E
:10459000242384F83D302268D36823F40053D36089
:1045A0002046FFF723FF2268136923F49043136129
:1045B0002268536923F02A0353612268D36843F4C5
:1045C0000053D36000202064202384F83D3084F819
:1045D0003E3010BD80F83C30FDF776FDD8E7012075
:1045E00070472DE9F04182B01E4690F83D30DBB2B5
:1045F000202B54D104460D469046002953D0002A62
:1046000053D090F83C30012B51D0012380F83C303E
:1046100000230364212380F83D30FDF705FE0746A3
:10462000A4F82480A4F82680A368B3F5805F05D0A1
:104630004FF00008002384F83C3012E0236913B1E6
:104640004FF00008F6E7A8460025F3E738F8023BEC
:104650002268C3F308035360E28C92B2013A92B22B
:10466000E284E38C9BB273B100963B46002280212A
:104670002046FFF743FFE0B9002DE7D015F8012BE6
:1046800023685A60E8E700963B4600224021204616
:10469000FFF734FF78B9202384F83D3000E0022092
:1046A00002B0BDE8F0810120FAE70120F8E702201E
:1046B000F6E70320F4E70320F2E7000008B503491A
:1046C000034800F0B5FE034B187008BD0C2C002009
:1046D00014000020102C002000207047024B002204
:1046E0001A701878704700BF100000200020704733
:1046F0000120704708B5FDF795F9044B18701B7839
:1047000003F0FF0003B908BD0120FCE71000002002
:1047100008B5084611461A46FDF732FA08BD0000F2
:1047200000239C4600E00133B3F5A06F0BD2821C3E
:104730000A4901EB8202526832F81320002AF2D0B3
:104740000CF1010CEFE74FF47A7000FB0CF0044B16
:10475000A3FB0030C0F38F20704700BF280000206B
:10476000CDCCCCCC02E000F8011B1A46531E002A27
:10477000F9D1704738B50546064C831C04EB83031A
:104780004FF4206200215868FFF7ECFF2C4401230E
:10479000237438BD2800002008B5044B03EB8002C9
:1047A000526852680344187A904708BD68D60020C2
:1047B00008B5084B1B5C53B9064B01221A5403EB96
:1047C0008002526812681844007A904708BD0020A1
:1047D000FCE700BF68D6002038B5044C04EB800528
:1047E0006D68AD680444207AA84738BD68D60020BB
:1047F00038B5044C04EB80056D68ED680444207AFC
:10480000A84738BD68D6002010B5044B03EB8004E0
:10481000646824690344187AA04710BD68D6002054
:104820004278007840EA02207047C278837843EAF1
:104830000222437843EA0223007840EA03207047CB
:104840000170090A417070470170C1F3072343707A
:10485000C1F307438370090EC1707047944632B1AB
:104860000A78013102700130BCF1010CF8D17047B7
:1048700001700130013AFBD170470000002302E0D3
:1048800010BC70470133012B11D81A0108498A580E
:104890008242F7D110B41A0100248C500133012B4D
:1048A000EED81A0102498A588242F7D1F3E77047DD
:1048B00044D600200146006838B102461378202B08
:1048C00006D93A2B04D00132F8E74FF0FF30704799
:1048D0003A2B01D00020704710B4034613F8010BA7
:1048E0003038092808D89A4202D04FF0FF3005E04E
:1048F00030B901320A6001E04FF0FF3010BC704760
:104900004FF0FF30FAE72DE9F041C57815B9284698
:10491000BDE8F0810446C76A00F1300801233A4639
:1049200041464078FFF764FF0546A0B90023E370D5
:10493000236AFB1AA2699342E9D2A67808E0A36928
:104940001F4401233A4641466078FFF751FF013E7C
:10495000012EF4D8DBE70125D9E770B5C36A8B4295
:1049600002D10026304670BD04460D46FFF7CBFF4E
:1049700006460028F6D101232A4604F1300160786A
:10498000FFF72AFF10B101264FF0FF35E562E9E796
:1049900038B504460023C3704FF0FF33C362FFF7FE
:1049A000DCFF30BB054604F22E20FFF739FF4AF644
:1049B000552398421FD194F83030E92B07D0236B50
:1049C00003F0FF130D4A934201D0022514E004F1D5
:1049D0006600FFF72AFF20F07F40094B98420BD07A
:1049E00004F18200FFF721FF064B984204D0022514
:1049F00002E0042500E00325284638BDEB009000C6
:104A000046415400464154332DE9F04F85B00D46E0
:104A1000164600230B60FFF74DFF071EC0F24481CE
:104A2000B54B53F82740002C00F043812C6006F072
:104A3000FE06237873B16078FFF7AEFE10F0010533
:104A400008D1002E00F0318110F0040F00F02D810C
:104A50000A252AE100232370F8B26070FFF7A8FE50
:104A600010F0010540F027811EB110F0040F40F056
:104A7000248100212046FFF78BFF022800F0B6803A
:104A80000027042800F01B81012800F21A8104F19C
:104A90003B00FFF7C5FEB0F5007F40F0148104F144
:104AA0004600FFF7BDFE064620B904F15400FFF7AB
:104AB000BCFE0646A66194F84020A270531EDBB2ED
:104AC000012B00F2028106FB02F894F83D90A4F855
:104AD0000A90B9F1000F00F0FA8009F1FF3319EAEA
:104AE000030F40F0F68004F14100FFF799FE824683
:104AF000208110F00F0F40F0EE8004F14300FFF72B
:104B00008FFE834620B904F15000FFF78EFE8346E6
:104B100004F13E00FFF784FE0246002800F0DD802D
:104B200000EB080303EB1A139B45C0F0D880ABEBF6
:104B3000030BBBFBF9F1CB45C0F0D3804FF6F5700A
:104B400081426BD94FF0030B40F6F570814201D8DA
:104B50004FF0010B01F10209C4F81490E7613A44E7
:104B600022623B44A362BBF1030F5AD0BAF1000F9B
:104B700000F0BD8042446262BBF1020F62D009EBDB
:104B8000490309F0010909EB530909F2FF19B6EBD2
:104B9000592FC0F0AE804FF0FF332361E3608023D4
:104BA0002371BBF1030F50D084F800B0534A13882F
:104BB00001339BB21380E3802046FFF75FFE74E071
:104BC000002004AB03EB860343F8100C0136032EE0
:104BD0000ED804F13000330103F5DF731844037974
:104BE000002BEDD00830FFF720FEEAE70026EEE7C5
:104BF00000260AE039462046FFF7CAFE01287FF664
:104C000040AF0136032E3FF63CAF04AB03EB860307
:104C100053F8107C002FEDD10320F2E74FF0020B88
:104C200092E704F15A00FFF7FBFD00285BD1BAF1CF
:104C3000000F5AD104F15C00FFF7F7FD60624FEA04
:104C40008909A2E74FEA49099FE704F16000FFF7ED
:104C5000E7FD0128A8D1791C2046FFF77EFE002839
:104C6000A2D10023237104F22E20FFF7D9FD4AF6CA
:104C70005523984298D104F13000FFF7D6FD204B20
:104C8000984291D104F50570FFF7CFFD1D4B984276
:104C90008AD104F50670FFF7C8FD206104F507709E
:104CA000FFF7C3FDE0607FE70B25284605B0BDE8B0
:104CB000F08F0C25F9E70325F7E70A25F5E701252D
:104CC000F3E70D25F1E70D25EFE70D25EDE70D25C0
:104CD000EBE70D25E9E70D25E7E70D25E5E70D25D0
:104CE000E3E70D25E1E70D25DFE70D25DDE70D25E0
:104CF000DBE70D25D9E700BF40D6002064D60020B1
:104D0000525261417272416170B584B0019000915C
:104D10001646039103A8FFF7CDFD041E1CDB104BC4
:104D200053F8245025B12846FFF7A8FD00232B7027
:104D3000019B0BB100221A70019B094A42F82430F2
:104D400063B1012E02D0002004B070BD002201A981
:104D50006846FFF759FEF7E70B20F5E70020F3E779
:104D600040D600202DE9F04F8DB009900F46164631
:104D7000009309A8FFF79EFD0028C0F2F482914B32
:104D800053F820300BB100221A70C4B22046FFF74E
:104D90000FFD10F0010F40F0F58210F0040F40F00D
:104DA000F3820BAA03212046FFF72EFD38B90B9B97
:104DB0002BB1B3F5004F02D85A1E134201D0012384
:104DC0000B931EB1B6F5007FC0F0E282B6F1807F92
:104DD00000F2E082731E13EA060BCDF804B040F037
:104DE000DB824FEA5629169B5B0A0293169B23F43B
:104DF000FF7525F00105002D00F0D0820AAA0121DF
:104E00002046FFF701FD002840F0CA8217F0080392
:104E1000039301D14FF03F0B0A9A5A45C0F0C2826A
:104E2000A2EB0B020A927F2A40F2BE82B6F5813FC6
:104E300080F0BC8217F0020006D007F00703022BB7
:104E400056D017F0010F59D017F0010F00F0B082C3
:104E50004FF0020A964604944A46BAF1030F57D01F
:104E6000002A79D01746BEFBF7F340F6F5718B4266
:104E700040F282809E1C760006F2FF16760A4FF002
:104E800020094FF0010C0CEB0B0806EB08034B4418
:104E90000B9CE118013964420C40E41ABAF1030F8B
:104EA00072D0264403EB0713A3EB0B039E45C0F01F
:104EB0008382AEEB0C039B1BA3EB0903B3FBF7F35D
:104EC000BAF1030F63D0BAF1020F40F083804FF6BE
:104ED000F5718B4268D912B97B00402B14D9A8B95F
:104EE000002A40F06D827A00802AB6D90E204CE26A
:104EF0004FF0030A964604944A46AEE74FF0030A81
:104F0000964604944A46A8E71A46A6E74FF0030AD5
:104F10009AB11746BEFBF7F39E1CB60006F2FF16C9
:104F2000760AA3F57F43F63B27498B4200F2428283
:104F3000DDF804904FF0200CA5E74FEA5E441146DF
:104F4000012701E001317F00204B33F81130002BA5
:104F5000E0D0A342F6D9DDE74FEA1E34114601271F
:104F600001E001317F001A4B33F81130002B3FF480
:104F70007AAFA342F5D976E703EB4306013676080C
:104F800003364FF0010A77E7A444A0448AE74FF6BE
:104F9000F5718B4297D8002A40F010827A08012FD1
:104FA0003FF65BAF0E20F0E140F6F5718B4211D871
:104FB000002A40F007827A00802A7FF64EAF0E204A
:104FC000E3E100BF40D60020FFFFFE0F44C300080E
:104FD00034C30008CDF81890CDF81480CDF81CC06B
:104FE000049C9846BAF1010F04D140F6F573984538
:104FF00000F2EA814FF400720021DDF8009048468B
:10500000FFF736FC0B22D9494846FFF727FC4FF43F
:10501000007109F10B00FFF713FC89F80D70BDF862
:105020001C1009F10E00FFF70BFC012389F810306A
:1050300009F11100BAF1030F00F09C804FF40071E8
:10504000FFF7FEFB0A99B1F5803F80F0958089B2A9
:10505000009B03F11300FFF7F3FBF823DDF800904A
:1050600089F815303F2109F11800FFF7E9FBFF210E
:1050700009F11A00FFF7E4FB594609F11C00FFF79C
:10508000E3FBBAF1030F7DD0FFF726FB0146DDF805
:10509000009009F12700FFF7D7FBB1B209F1160024
:1050A000FFF7CEFB802389F82430292389F82630A6
:1050B0001322AF4909F12B00FFF7D0FB009B03F54A
:1050C000FF794AF655214846FFF7BAFB01235A46B5
:1050D00000992046FFF78CFB002840F07781BAF159
:1050E000030F79D02A460021009D2846FFF7C0FB18
:1050F000DDF814800497CDF81C90CDF820B0DDF8D1
:1051000008B0A946019B002B00F09E80CDF81480CA
:10511000049FDDF81C90DDF820B0BAF1030F00F019
:10512000CD80069E059FCDF80490DDF80880DDF85F
:1051300000903546464528BF45462B463A464946E7
:105140002046FFF755FB002840F044812F44761B92
:10515000EFD1DDF80490BAF1030F00F0BA800A9B9A
:10516000B3F5803F80F0FD80BAF1020F00F0AF8010
:105170000127AFE0002163E7009B03F12000FFF768
:1051800063FB6AE7FFF7A8FA0146DDF8009009F132
:105190004300FFF759FB314609F12400FFF754FBA8
:1051A000022109F12C00FFF74FFB012109F130002A
:1051B000FFF746FB062109F13200FFF741FB802390
:1051C00089F84030292389F842301322694909F1CE
:1051D0004700FFF743FB71E701230BF1060200993B
:1051E0002046FFF705FB4FF4007200210098FFF7FF
:1051F0003FFB61490098FFF727FB6049009B03F5DF
:10520000F270FFF721FB08F1FF31DDF8008008F5AF
:10521000F470FFF719FB022108F5F670FFF714FB95
:105220004AF655214846FFF70BFB01230BF1070215
:1052300041462046FFF7DCFA01230BEB030241460F
:105240002046FFF7D5FA4DE7BAF1030F22D0BAF1A5
:10525000010F31D06FF007014846FFF7F5FA3746E6
:105260003D465F4528BF5D462B464246494620469F
:10527000FFF7BEFA002840F0AB804FF40072002127
:105280004846FFF7F5FAA8447F1BE9D1019B01339B
:10529000019337E76FF007014846FFF7D5FA4FF063
:1052A000FF3109F10400FFF7CFFA6FF0704109F107
:1052B0000800FFF7C9FAD2E73149CDE73E46474635
:1052C000CDF80490DDF80880DDF8009031E7042780
:1052D00000E00C27039B002B3BD14FF40072002110
:1052E000009E3046FFF7C4FA4AF655214846FFF7BC
:1052F000A7FA0025314686F8BE51012681F8BF6124
:1053000081F8C06181F8C15181F8C2710A9B5B4488
:1053100043F6C162B3FBF2F3FE2281F8C3219A087F
:1053200042F03F020F4681F8C42181F8C531594649
:1053300007F5E370FFF788FA0A9907F5E570FFF7BC
:1053400083FA33462A4639462046FFF751FA0028A9
:1053500042D1002211462046FFF756FAA8B101209B
:1053600013E00627B6E70B200FE000BF00C30008DC
:1053700020C300080CC3000852526141727241619F
:10538000F8FFFF00032000E00A200DB0BDE8F08F19
:105390001320FAE71320F8E71320F6E70E20F4E7CE
:1053A0000120F2E70E20F0E70E20EEE71320ECE7F5
:1053B0001320EAE70E20E8E70E20E6E70E20E4E7F8
:1053C0000E20E2E70E20E0E70E20DEE70120DCE71A
:1053D0000120DAE70120D8E70120D6E7134B5B7AFA
:1053E00013BB10B5044603F0FF00104B93F809C03F
:1053F0005FFA8CFC4FF0000E03F80CE093F809C044
:1054000003EB8C0CCCF804405C7A1C4422725A7A70
:10541000541CE4B25C7230320A703A234B702F2372
:105420008B7081F803E010BD0120704768D6002022
:1054300008B50022FFF7D2FF08BD10B582B003689F
:105440001B7C446B03FB01F1C90089B2214400912C
:10545000002100F021FF02B010BD2DE9F041064609
:1054600090F8387090F83950036893F81180002450
:105470002A4621463046FFF7E0FF0134E4B2013509
:10548000EDB2A74201D9A845F2D8BDE8F08108B530
:1054900003681B7C90F8382003FB02F2D200002145
:1054A000406B00F07BFF08BD10B50446FFF7D5FF49
:1054B000204600F017FF10BD10B5044680F83910E3
:1054C000036B1B689847236B5B682046984710BDA9
:1054D00010B5044690F8933023B900212046FFF719
:1054E000EBFF10BDFFF7D3FFF7E738B50446FFF732
:1054F000B4FF94F8393094F838501D44EDB2236865
:105500005B7CAB4208D994F8933053B929462046C6
:10551000FFF7D2FF012038BD204600F0E3FE002057
:10552000F9E72046FFF7B3FFF0E710B50446FFF7B1
:10553000CFFF2046FFF7D9FF0028FAD100212046EF
:10554000FFF7BAFF10BD0000082303700048704742
:1055500074D6002030B585B004460D46009313463E
:10556000084A094900F0E0FE0DF10F00FFF7ECFFDB
:1055700001460095054B9DF80F20204600F09FFC4A
:1055800005B030BD41600008ED610008F75C00081F
:10559000405C70474218435C507800EB032080B2B7
:1055A00070470020704738B504460D460021284654
:1055B000FFF7EEFF207001212846FFF7E9FF60703A
:1055C00002212846FFF7E4FFA07003212846FFF7D9
:1055D000DFFFE07004212846FFF7DAFF2071052184
:1055E0002846FFF7D5FF607106212846FFF7D0FF58
:1055F000A07107212846FFF7CBFFE071082128465C
:10560000FFF7C6FF207209212846FFF7C1FF60722D
:105610000A212846FFF7BCFFA0720B212846FFF79E
:10562000B7FFE0720C212846FFF7B2FF20730D216F
:105630002846FFF7ADFF60730E212846FFF7A8FF4D
:10564000A0730F212846FFF7A3FFE073102128461F
:10565000FFF79EFF207411212846FFF79BFF608211
:1056600013212846FFF796FFA08215212846FFF751
:1056700091FFE08238BD10B590F80CC00468227824
:1056800042FA0CFE5FFA8EF20CEB0103DBB2072B41
:105690000DD9CCF1080C5FFA8CFC621C02606278B8
:1056A00002FA0CF242EA0E02D2B2083BDBB24FF031
:1056B000FF3C0CFA01F1037322EA010010BD38B57A
:1056C000044600F160050166002380F86C3090F814
:1056D00078102846FFF7CFFF84F86A0094F8791015
:1056E0002846FFF7C8FF84F86B0094F8923084F8DE
:1056F0006E30B3FA83F35B0984F86F3038BD10B5B0
:105700000C46FFF7B8FF013CE4B2012303FA04F4AE
:10571000001B40B210BD012B08D0022B09D013B1E1
:10572000401A80B27047104480B27047084480B27B
:105730007047801A80B27047012B08D0022B09D025
:1057400013B1104480B27047084480B27047801A89
:1057500080B27047401A80B270472DE9F04F89B08F
:1057600006460C46079290F968305FFA83FB90F981
:105770006930DBB2039319E0059420E096F86E30AF
:1057800086F89230CDF80080BDF814300699304686
:1057900000F020FABC423DD3ABEB05052C44E4B24B
:1057A000039B0133DBB203934FF0000B96F96A5071
:1057B000EDB2A5EB0B07FFB2BC42DDD30597B6F8FF
:1057C00066A04FFA8BF19DF90C9096F870804346D5
:1057D0004A460491B6F86400FFF7AEFF06904346D0
:1057E0004A4604995046FFF796FF0246079B002B56
:1057F000C4D196F86D30002BCCD196F86F3086F876
:105800009230CDF80080BDF814300699304600F093
:10581000E1F9BFE75C4486F8684086F8699009B012
:10582000BDE8F08F2DE9F04F85B0044600F160052A
:10583000FFF745FF94F96B7094F87A102846FFF74C
:105840005EFF804694F87B102846FFF758FF064617
:1058500094F87C102846FFF752FF039094F96A9061
:10586000B9F1000F54DD3E44F6B2764276B294F8B8
:1058700070B05B4632464146B4F86400FFF75CFF07
:105880008246A4F864005B4632464146B4F866009E
:10589000FFF741FF0246A4F86600BBF1030F66D88C
:1058A000DFE80BF0023A47591AFA89F39BB2384401
:1058B00080B200905146204600F007FA40B3002322
:1058C00084F8683084F8693094F876102846FFF739
:1058D000D2FE804694F877102846FFF7CCFE0646A5
:1058E000002241462046FFF738FF0122314620467C
:1058F000FFF733FF01212846FFF7BDFE0028EFD157
:1059000094F96930BB42DFDB94F86E3084F8923052
:10591000039805B0BDE8F08FAAEB070189B2013109
:105920000AF101039BB210FA89F080B21FFA81FAE2
:10593000BFE71FFA89F1AAEB010189B201310AF12F
:1059400001039BB2C61BB6B20136013290B2B2B2AD
:105950001FFA81FAADE70AEB07039BB21FFA89F140
:10596000411A89B20131013290B28AB2A1E753469D
:105970009FE770B50E46846D1734FF2913D8602950
:1059800003D9B0F888301C4406E0402904D9B0F8A7
:1059900086301C4400E01C44637803B32278B24292
:1059A000F9D1A01C1CE0B0F88A000444254600216F
:1059B0002846FFF7EFFD044402212846FFF7EAFDE1
:1059C00004358642F3D801E0A3781C44227863783A
:1059D00053EA022305D09E42F6D1E01C00E00020ED
:1059E00070BD0020FCE710B50446A0F86410A0F8D4
:1059F00066201946FFF7BDFF28B101462046FFF794
:105A000011FF80B210BD0020FCE7F8B504460D463A
:105A100016461F4690F87030032B07D8DFE803F0D6
:105A2000020D1217C36D98470644B6B23B46324684
:105A300029462046FFF7D7FFF8BDC36D98472D1ABA
:105A4000ADB2F3E7C36D9847361AB6B2EEE7C36D51
:105A500098470544ADB2E9E72DE9F04104460F4609
:105A600016461D4600F056FA4FF0000804E00744C1
:105A7000BFB240441FFA80F86368297820469847EF
:105A80004FF6FF72904222D001354FF6FE729042DF
:105A9000F2D00346324639462046FFF7B6FF94F867
:105AA0007030032BE5D801A252F823F06F5A00089A
:105AB000BD5A0008C35A0008C95A00080644B6B2C5
:105AC000D7E73F1ABFB2D4E7361AB6B2D1E740469D
:105AD000BDE8F08110B5024C4460FFF7BDFF10BD7A
:105AE000FF5E0008836D6BB390F9812080F88E20F3
:105AF00090F9823080F88F3090F88D1011B3012921
