:020000040800F2
:1000000000000120B51A0008111700081517000894
:10001000291700082B1700082D1700080000000002
:100020000000000000000000000000002F17000882
:1000300031170008000000003317000835170008CA
:10004000051B0008051B0008051B0008051B000810
:10005000051B0008051B0008051B0008051B000800
:10006000051B0008051B0008051B00086117000898
:10007000051B0008051B0008051B0008051B0008E0
:10008000051B000871170008051B00080000000090
:10009000000000000000000000000000051B000838
:1000A000051B0008051B0008051B0008051B0008B0
:1000B000051B0008051B0008051B0008051B0008A0
:1000C000051B0008051B0008051B0008051B000890
:1000D000051B0008051B0008051B000800000000A8
:1000E000051B0008051B0008051B00080000000098
:1000F000000000000000000000000000051B0008D8
:1001000000000000051B0008051B0008051B000877
:1001100000000000000000000000000000000000DF
:10012000051B000881170008051B0008051B0008B7
:10013000051B000800000000000000000000000097
:10014000000000000000000000000000051B000887
:10015000051B0008051B0008051B0008051B0008FF
:10016000051B0008051B000800000000000000003F
:10017000000000000000000000000000000000007F
:1001800000000000051B0008000000000000000047
:04019000051B000843
:1001C00010B5054C237833B9044B13B10448AFF391
:1001D00000800123237010BDD00900200000000022
:1001E0002898000808B5034B1BB103490348AFF337
:1001F000008008BD00000000D409002028980008F5
:1002000053B94AB9002908BF00281CBF4FF0FF317D
:100210004FF0FF3000F074B9ADF1080C6DE904CE79
:1002200000F006F8DDF804E0DDE9022304B07047D1
:100230002DE9F047089E0D4604468846002B4DD117
:100240008A42944668D9B2FA82F252B101FA02F3B4
:10025000C2F1200120FA01F10CFA02FC41EA030884
:1002600094404FEA1C45210CB8FBF5FE1FFA8CF7B1
:1002700005FB1E8341EA03430EFB07F199420BD9AC
:100280001CEB03030EF1FF3080F01E81994240F217
:100290001B81AEF1020E63445B1AA4B2B3FBF5F00E
:1002A00005FB103344EA034400FB07F7A7420AD9D1
:1002B0001CEB040400F1FF3380F00881A74240F2F8
:1002C000058164440238E41B40EA0E4000211EB15F
:1002D000D4400023C6E90043BDE8F0878B4208D92B
:1002E000002E00F0EE800021C6E900050846BDE8BA
:1002F000F087B3FA83F100294AD1AB4202D382429C
:1003000000F2F980841A65EB030301209846002E61
:10031000E2D0C6E90048DFE702B9FFDEB2FA82F2B6
:10032000002A40F09180A1EB0C054FEA1C471FFA10
:100330008CFE0121B5FBF7F307FB1350250C45EAB2
:1003400000450EFB03F0A84208D91CEB050503F19C
:10035000FF3802D2A84200F2CB8043462D1AA4B245
:10036000B5FBF7F007FB105544EA05440EFB00FE11
:10037000A64508D91CEB040400F1FF3502D2A645BE
:1003800000F2BB802846A4EB0E0440EA03409EE73F
:10039000C1F120078B4022FA07FC4CEA030C20FA3B
:1003A00007F405FA01F31C43FD404FEA1C4900FA2B
:1003B00001F3B5FBF9F8200C1FFA8CFE09FB185568
:1003C00040EA054508FB0EF0A84202FA01F20BD9FB
:1003D0001CEB050508F1FF3A80F08880A84240F246
:1003E0008580A8F1020865442D1AA4B2B5FBF9F086
:1003F00009FB105544EA054500FB0EFEAE4508D941
:100400001CEB050500F1FF346CD2AE456AD9023809
:10041000654440EA0840A0FB0294A5EB0E05A54206
:10042000C846A64656D353D05EB1B3EB080265EB7F
:100430000E0505FA07F722FA01F3CD401F43C6E97E
:1004400000750021BDE8F087C2F1200320FA03F116
:100450000CFA02FC25FA03F395400D434FEA1C47C2
:100460001FFA8CFEB3FBF7F107FB11302B0C43EAAC
:10047000004301FB0EF0984204FA02F408D91CEB89
:10048000030301F1FF382FD298422DD9023963447A
:100490001B1AADB2B3FBF7F007FB103345EA034577
:1004A00000FB0EF3AB4208D91CEB050500F1FF3849
:1004B00016D2AB4214D902386544ED1A40EA014124
:1004C00038E73146304607E78646E5E61846FAE65D
:1004D0004B45A9D2B9EB020864EB0C0E0138A3E737
:1004E0004046EAE7204694E74146D1E7D0467BE71D
:1004F000023B654432E7084609E76444023842E7B4
:10050000704700BF00000000000000000000000075
:1005100001F0FF01102A2BDB10F0070F08D010F8B4
:10052000013B013A8B422DD010F0070F42B3F6D1B8
:10053000F0B441EA012141EA014122F007047FF0D1
:1005400000070023F0E80256083C85EA010586EA28
:10055000010685FA47F5A3FA87F586FA47F6A5FA64
:1005600087F68EB9EED1F0BC01F0FF0102F0070270
:1005700032B110F8013B013A83EA010313B1F8D11B
:100580000020704701387047002D06BF35460338FC
:10059000073815F0010F07D1013015F4807F02BF35
:1005A000013015F4C03F0130F0BC0138704700BF86
:1005B000844641EA000313F003036DD1403A41D36E
:1005C00051F8043B40F8043B51F8043B40F8043B2D
:1005D00051F8043B40F8043B51F8043B40F8043B1D
:1005E00051F8043B40F8043B51F8043B40F8043B0D
:1005F00051F8043B40F8043B51F8043B40F8043BFD
:1006000051F8043B40F8043B51F8043B40F8043BEC
:1006100051F8043B40F8043B51F8043B40F8043BDC
:1006200051F8043B40F8043B51F8043B40F8043BCC
:1006300051F8043B40F8043B51F8043B40F8043BBC
:10064000403ABDD2303211D351F8043B40F8043B5C
:1006500051F8043B40F8043B51F8043B40F8043B9C
:1006600051F8043B40F8043B103AEDD20C3205D36C
:1006700051F8043B40F8043B043AF9D2043208D064
:10068000D2071CBF11F8013B00F8013B01D30B88D6
:1006900003806046704700BF082A13D38B078DD0B4
:1006A00010F003038AD0C3F10403D21ADB071CBF86
:1006B00011F8013B00F8013B80D331F8023B20F8F0
:1006C000023B7BE7043AD9D3013A11F8013B00F829
:1006D000013BF9D20B7803704B7843708B788370B1
:1006E00060467047000000000000000000000000AD
:1006F00000000000000000000000000000000000FA
:1007000090F800F06DE9024520F007016FF0000C51
:1007100010F0070491F820F040F049804FF00004F9
:100720006FF00700D1E9002391F840F000F10800D4
:1007300082FA4CF2A4FA8CF283FA4CF3A2FA8CF30C
:100740004BBBD1E9022382FA4CF200F10800A4FA73
:100750008CF283FA4CF3A2FA8CF3E3B9D1E90423C7
:1007600082FA4CF200F10800A4FA8CF283FA4CF3FE
:10077000A2FA8CF37BB9D1E9062301F1200182FAB8
:100780004CF200F10800A4FA8CF283FA4CF3A2FABE
:100790008CF3002BC6D0002A04BF04301A4612BACC
:1007A000B2FA82F2FDE8024500EBD2007047D1E9CF
:1007B000002304F00305C4F100004FEAC50514F05E
:1007C000040F91F840F00CFA05F562EA05021CBF2F
:1007D00063EA050362464FF00004A9E781F0004197
:1007E00002E000BF83F0004330B54FEA41044FEA16
:1007F000430594EA050F08BF90EA020F1FBF54EAB1
:10080000000C55EA020C7FEA645C7FEA655C00F04C
:10081000E2804FEA5454D4EB5555B8BF6D420CDD1D
:100820002C4480EA020281EA030382EA000083EAA0
:10083000010180EA020281EA0303362D88BF30BD40
:1008400011F0004F4FEA01314FF4801C4CEA113196
:1008500002D0404261EB410113F0004F4FEA0333F5
:100860004CEA133302D0524263EB430394EA050F80
:1008700000F0A780A4F10104D5F1200E0DDB02FAEF
:100880000EFC22FA05F2801841F1000103FA0EF283
:10089000801843FA05F359410EE0A5F120050EF149
:1008A000200E012A03FA0EFC28BF4CF0020C43FA7A
:1008B00005F3C01851EBE37101F0004507D54FF087
:1008C000000EDCF1000C7EEB00006EEB0101B1F5D7
:1008D000801F1BD3B1F5001F0CD349085FEA30001D
:1008E0004FEA3C0C04F101044FEA445212F5800F28
:1008F00080F09A80BCF1004F08BF5FEA500C50F1C5
:10090000000041EB045141EA050130BD5FEA4C0CA7
:10091000404141EB0101013C28BFB1F5801FE9D204
:1009200091F0000F04BF01460020B1FA81F308BF27
:100930002033A3F10B03B3F120020CDA0C3208DDF3
:1009400002F1140CC2F10C0201FA0CF021FA02F1CE
:100950000CE002F11402D8BFC2F1200C01FA02F13E
:1009600020FA0CFCDCBF41EA0C019040E41AA2BF63
:1009700001EB0451294330BD6FEA04041F3C1CDA2B
:100980000C340EDC04F11404C4F1200220FA04F04B
:1009900001FA02F340EA030021FA04F345EA0301F5
:1009A00030BDC4F10C04C4F1200220FA02F001FAB7
:1009B00004F340EA0300294630BD21FA04F0294639
:1009C00030BD94F0000F83F4801306BF81F48011D2
:1009D0000134013D4EE77FEA645C18BF7FEA655C45
:1009E00029D094EA050F08BF90EA020F05D054EA17
:1009F000000C04BF1946104630BD91EA030F1EBF1C
:100A00000021002030BD5FEA545C05D1400049411F
:100A100028BF41F0004130BD14F580043CBF01F512
:100A2000801130BD01F0004545F0FE4141F47001F8
:100A30004FF0000030BD7FEA645C1ABF19461046D3
:100A40007FEA655C1CBF0B46024650EA013406BFD4
:100A500052EA033591EA030F41F4002130BD00BF93
:100A600090F0000F04BF0021704730B54FF4806450
:100A700004F132044FF000054FF0000150E700BFD1
:100A800090F0000F04BF0021704730B54FF4806430
:100A900004F1320410F0004548BF40424FF000011D
:100AA0003EE700BF42004FEAE2014FEA31014FEA60
:100AB00002701FBF12F07F4393F07F4F81F06051AF
:100AC000704732F07F4208BF704793F07F4F04BFFA
:100AD00041F40021704730B54FF4607401F00045D7
:100AE00021F000411CE700BF50EA010208BF704737
:100AF00030B54FF000050AE050EA010208BF704728
:100B000030B511F0004502D5404261EB41014FF490
:100B1000806404F132045FEA915C3FF4D8AE4FF098
:100B200003025FEADC0C18BF03325FEADC0C18BF7B
:100B3000033202EBDC02C2F1200300FA03FC20FACC
:100B400002F001FA03FE40EA0E0021FA02F1144419
:100B5000BDE600BF70B54FF0FF0C4CF4E06C1CEA32
:100B600011541DBF1CEA135594EA0C0F95EA0C0FA3
:100B700000F0DEF82C4481EA030621EA4C5123EA16
:100B80004C5350EA013518BF52EA033541F4801145
:100B900043F4801338D0A0FB02CE4FF00005E1FBF8
:100BA00002E506F00042E0FB03E54FF00006E1FB42
:100BB00003569CF0000F18BF4EF0010EA4F1FF0485
:100BC000B6F5007F64F5407404D25FEA4E0E6D41C5
:100BD00046EB060642EAC62141EA55514FEAC520D6
:100BE00040EA5E504FEACE2EB4F1FD0C88BFBCF552
:100BF000E06F1ED8BEF1004F08BF5FEA500E50F103
:100C0000000041EB045170BD06F0004646EA0101C8
:100C100040EA020081EA0301B4EB5C04C2BFD4EBFA
:100C20000C0541EA045170BD41F480114FF0000EF3
:100C3000013C00F3AB8014F1360FDEBF002001F061
:100C4000004170BDC4F10004203C35DA0C341BDCDB
:100C500004F11404C4F1200500FA05F320FA04F0AD
:100C600001FA05F240EA020001F0004221F00041E1
:100C700010EBD37021FA04F642EB06015EEA430E54
:100C800008BF20EAD37070BDC4F10C04C4F1200584
:100C900000FA04F320FA05F001FA04F240EA020037
:100CA00001F0004110EBD37041F100015EEA430E08
:100CB00008BF20EAD37070BDC4F1200500FA05F228
:100CC0004EEA020E20FA04F301FA05F243EA0203A7
:100CD00021FA04F001F0004121FA04F220EA0200B6
:100CE00000EBD3705EEA430E08BF20EAD37070BDFC
:100CF00094F0000F0FD101F00046400041EB0101DC
:100D000011F4801F08BF013CF7D041EA060195F0BD
:100D1000000F18BF704703F00046520043EB030377
:100D200013F4801F08BF013DF7D043EA0603704764
:100D300094EA0C0F0CEA135518BF95EA0C0F0CD06F
:100D400050EA410618BF52EA4306D1D181EA0301B5
:100D500001F000414FF0000070BD50EA410606BFAF
:100D60001046194652EA430619D094EA0C0F02D1F4
:100D700050EA013613D195EA0C0F05D152EA033639
:100D80001CBF104619460AD181EA030101F0004157
:100D900041F0FE4141F470014FF0000070BD41F0A0
:100DA000FE4141F4780170BD70B54FF0FF0C4CF47A
:100DB000E06C1CEA11541DBF1CEA135594EA0C0F99
:100DC00095EA0C0F00F0A7F8A4EB050481EA030EE6
:100DD00052EA03354FEA013100F088804FEA0333CD
:100DE0004FF0805545EA131343EA12634FEA02229B
:100DF00045EA111545EA10654FEA00260EF000415C
:100E00009D4208BF964244F1FD0404F5407402D2AD
:100E10005B084FEA3202B61A65EB03055B084FEA3E
:100E200032024FF480104FF4002CB6EB020E75EB3B
:100E3000030E22BFB61A754640EA0C005B084FEA63
:100E40003202B6EB020E75EB030E22BFB61A7546E0
:100E500040EA5C005B084FEA3202B6EB020E75EB2B
:100E6000030E22BFB61A754640EA9C005B084FEAA3
:100E70003202B6EB020E75EB030E22BFB61A7546B0
:100E800040EADC0055EA060E18D04FEA051545EA9F
:100E900016754FEA06164FEAC30343EA52734FEA48
:100EA000C2025FEA1C1CC0D111F4801F0BD141EAC1
:100EB00000014FF000004FF0004CB6E711F4801F26
:100EC00004BF01430020B4F1FD0C88BFBCF5E06F06
:100ED0003FF6AFAEB5EB030C04BFB6EB020C5FEA16
:100EE000500C50F1000041EB045170BD0EF0004E6B
:100EF0004EEA113114EB5C04C2BFD4EB0C0541EA9D
:100F0000045170BD41F480114FF0000E013C90E699
:100F100045EA060E8DE60CEA135594EA0C0F08BF5D
:100F200095EA0C0F3FF43BAF94EA0C0F0AD150EA5C
:100F300001347FF434AF95EA0C0F7FF425AF1046EF
:100F400019462CE795EA0C0F06D152EA03353FF417
:100F5000FDAE1046194622E750EA410618BF52EA94
:100F600043067FF4C5AE50EA41047FF40DAF52EA68
:100F700043057FF4EBAE12E74FF0FF3C06E000BF05
:100F80004FF0010C02E000BF4FF0010C4DF804CD12
:100F90004FEA410C7FEA6C5C4FEA430C18BF7FEAD2
:100FA0006C5C1BD001B050EA410C0CBF52EA430C00
:100FB00091EA030F02BF90EA020F0020704710F180
:100FC000000F91EA030F58BF994208BF90422CBF0F
:100FD000D8176FEAE37040F0010070474FEA410C08
:100FE0007FEA6C5C02D150EA013C07D14FEA430C26
:100FF0007FEA6C5CD6D152EA033CD3D05DF8040B97
:10100000704700BF8446104662468C4619466346C8
:1010100000E000BF01B5FFF7B7FF002848BF10F19F
:10102000000F01BD4DF808EDFFF7F4FF0CBF0120E4
:1010300000205DF808FB00BF4DF808EDFFF7EAFF60
:1010400034BF012000205DF808FB00BF4DF808ED1B
:10105000FFF7E0FF94BF012000205DF808FB00BF10
:101060004DF808EDFFF7CEFF94BF012000205DF89A
:1010700008FB00BF4DF808EDFFF7C4FF34BF0120A7
:1010800000205DF808FB00BF4FEA410C7FEA6C5C72
:1010900002D150EA013C0AD14FEA430C7FEA6C5C72
:1010A00002D152EA033C02D14FF0000070474FF0EA
:1010B000010070474FEA410212F5001215D211D516
:1010C0006FF47873B3EB625212D94FEAC12343F045
:1010D000004343EA505311F0004F23FA02F018BFC7
:1010E000404270474FF00000704750EA013005D190
:1010F00011F0004008BF6FF0004070474FF0000053
:10110000704700BF10B5084C4FF4E263074A002156
:10111000204602F047F8642000F048FD00212046F8
:1011200002F06AF910BD00BF0C280020080B002057
:1011300008B5002304E00B4A222142F823100133B2
:10114000B3F5D26FF7D34FF4D26304E0054A002120
:1011500042F823100133B3F5E26FF7D3FFF7D2FF64
:1011600008BD00BF080B0020000240EA0140104308
:1011700070470000452816D97047222500EB40042F
:1011800002EBC4020B4C44F822500133DBB2172BA4
:1011900007D81A4601FA03F414F4000FEDD04425E1
:1011A000ECE730BC70470023172B01D830B4F0E7D0
:1011B000704700BF080B002008B5C043C0B25428D8
:1011C0000ED9A92817D95630C0B2A0EB8001013939
:1011D00000EB40000022C9B2C0B2FFF7C5FF08BD56
:1011E00000EB4002A0EB80000138D2B20021C0B277
:1011F000FFF7BAFFF3E75538C1B2A1EB8102013A1C
:1012000001EB4101D2B2C9B20020FFF7ADFFE6E722
:1012100010B5044600F0C4FC154B1B689C4211D964
:10122000002214EB000C42EB0201914208BF9C45E6
:101230001AD0104A13780133137004440C4B1C600D
:1012400000240FE083420FD2F3E70A4B187850FADC
:1012500084F0C0B2FFF7B0FF01462046FFF78AFFD7
:101260000134A4B2452CF0D9FFF74CFF10BD00BFEC
:10127000F0090020EC09002010B582B00024009491
:10128000164B1A6B42F480021A631A6B02F4800246
:101290000092009A01941A6B42F400121A631B6BBD
:1012A00003F400130193019B224621460B2000F01A
:1012B000A3FC0B2000F0D8FC22462146112000F0B0
:1012C0009BFC112000F0D0FC22462146392000F082
:1012D00093FC392000F0C8FC02B010BD0038024079
:1012E000F0B58BB0002405940694079408940994F3
:1012F00001942A4B1A6B42F004021A631A6B02F033
:1013000004020192019A02941A6B42F080021A635D
:101310001A6B02F080020292029A03941A6B42F056
:1013200001021A631A6B02F001020392039A0494F9
:101330001A6B42F002021A631B6B03F00203049360
:10134000049B174F01224FF40051384600F0A8FFCC
:10135000144E22460821304600F0A2FF4FF40053FD
:101360000593012506950795089405A9384600F0D0
:10137000B7FE0823059306950794089405A93046FF
:1013800000F0AEFE4FF4E04305930694079505A9DF
:10139000054800F0A5FE0BB0F0BD00BF00380240CC
:1013A00000080240000002400004024008B50B485B
:1013B0000B4B03600B4B436000238360C3604FF40F
:1013C0008042026143618361C361036200F06EFF8A
:1013D00000B908BD00F096F8FBE700BFB40A002092
:1013E00000540040801A060070B588B000230393B3
:1013F000049305930693079302682E4B9A4201D0FB
:1014000008B070BD0446002501952B4E336B43F0A8
:1014100002033363336B03F002030193019BC02388
:10142000039312230493032306930423079303A92E
:10143000224800F055FE0295336C43F400133364E8
:10144000336C03F400130293029B1D481D4B036091
:101450004FF0007343608560C5604FF480630361A3
:1014600045618561C5610562456200F09DFCD8B9A2
:10147000134BA3639C631448144B03604FF0007339
:101480004360402383600023C3604FF480620261A5
:1014900043618361C3610362436200F085FC30B93C
:1014A000094B63639C63ABE700F02CF8E0E700F0C6
:1014B00029F8F5E7005400400038024000040240DB
:1014C000F409002010600240540A0020A06002408D
:1014D0000EB430B5A2B0054625AB53F8042B2193CA
:1014E000802101A802F09EFA04464FF0FF3382B239
:1014F00001A9284602F059F9204622B0BDE8304043
:1015000003B0704772B6FEE700B595B030220021F7
:1015100008A802F035FA0023039304930593069379
:1015200007930193204A116C41F080511164126CB1
:1015300002F080520192019A02931C4A136823F42C
:10154000404343F400431360136803F440430293A1
:10155000029B012308934FF48033099302230E93D7
:101560004FF480020F920C22109254221192129387
:101570000323139308A800F077FF80B90F23039388
:1015800002210491002305934FF4805206920793A1
:1015900003A801F0B7F920B915B05DF804FBFFF717
:1015A000B1FFFFF7AFFF00BF0038024000700040FE
:1015B00000B5ADF5037D002100914FF4017201A843
:1015C00002F0DEF900F0C6FAFFF79EFFFFF788FE93
:1015D000FFF752FEFFF7EAFE00F0A6F900F016FA58
:1015E00000F008F802F04EF9FFF7A2FD3220FFF7F5
:1015F0000FFEFBE708B50D480D4B03604FF48273F7
:10160000436000238360C360036143614FF4007251
:101610008261C3610362436283620A23C36201F091
:1016200047FA00B908BDFFF76DFFFBE74827002028
:101630000030014000B589B0002303930493059363
:10164000069307930268154B9A4202D009B05DF8E1
:1016500004FB0021019103F584335A6C42F480525B
:101660005A645A6C02F480520192019A02911A6BE8
:1016700042F001021A631B6B03F001030293029B09
:10168000E023039302230493032306930523079384
:1016900003A9034800F024FDD8E700BF0030014053
:1016A0000000024082B0002100910B4B5A6C42F4C2
:1016B00080425A645A6C02F480420092009A01916E
:1016C0001A6C42F080521A641B6C03F08053019331
:1016D000019B02B0704700BF003802400A4B1B88D4
:1016E0009BB22BB1084A13889BB2013B9BB213807B
:1016F000064B1B889BB22BB1044A13889BB2013B5B
:101700009BB21380704700BFA2270020A4270020AF
:10171000FEE7000008B502490248FFF7D9FEFAE7E4
:101720004098000854280020FEE7FEE7FEE77047D7
:101730007047704708B5094A13780133DBB213705C
:101740001378DBB2092B02D800F01EFA08BD13464D
:1017500000221A70FFF7C2FFF6E700BFA0270020A3
:1017600008B5024800F0CEFB08BD00BFF409002018
:1017700008B5024800F0C6FB08BD00BF540A0020AF
:1017800008B5024800F0BEFB08BD00BFAC27002032
:101790000120704708B502F0C9F8162303604FF026
:1017A000FF3008BD08B54FF0FF31FFF7F3FFFEE74C
:1017B00070B50C461646002506E0AFF300802146C2
:1017C00001F8010B01350C46B542F6DB304670BD21
:1017D00070B50C461646002504E014F8010BAFF373
:1017E00000800135B542F8DB304670BD4FF0FF3068
:1017F00070474FF400534B60002070470120704742
:101800000020704710B503460C4A0D490D4800688A
:1018100040B10C4800680344521A934206D8094A62
:10182000136010BD0748084C0460F2E702F07EF830
:101830000C2303604FF0FF30F3E700BF00000120EE
:1018400000120000A8270020F828002070470000A0
:1018500002681A4B9A4200D0704710B582B0044615
:1018600000230193164A516C41F001015164526CFE
:1018700002F001020192019A1248134A02604FF0ED
:101880004062426040228260C3604FF48062026125
:101890004FF4805242614FF4804282614FF4807273
:1018A000C2610362436200F07FFA20B9054B6362B4
:1018B0009C6302B010BDFFF725FEF7E70000014072
:1018C00000380240AC2700202864024000B587B0F1
:1018D00000230193029303930493059302680F4B33
:1018E0009A4202D007B05DF804FB002300930C4B32
:1018F0001A6B42F001021A631B6B03F001030093A1
:10190000009B4FF4807301930223029301230593FC
:1019100001A9044800F0E4FBE4E700BF0000014037
:10192000003802400000024010B596B00024129426
:101930001394149415941094119409940A940B948C
:101940000C940D940E940F942022214601A802F0CD
:1019500017F82C482C4B0360446084606823C360F4
:1019600004614461846101F08BFA002837D14FF49F
:101970008053129312A9234801F086FB002831D12D
:10198000204801F0A9FA00282FD1002310931193C9
:1019900010A91C4801F0A6FD50BB6023099300224A
:1019A0000A920B920C920D920E920F9209A9154871
:1019B00001F0F0FAF8B90023019302930393049322
:1019C00005934FF400520692089301A90D4801F0C7
:1019D000C7FD98B90B48FFF779FF16B010BDFFF7A8
:1019E00091FDC4E7FFF78EFDCAE7FFF78BFDCCE75B
:1019F000FFF788FDD1E7FFF785FDDCE7FFF782FD04
:101A0000E8E700BF0C2800200000014008B50A48A4
:101A10000A4B03604FF4E133436000238360C360EB
:101A200003610C2242618361C36101F08FFE00B942
:101A300008BDFFF767FDFBE75428002000100140B8
:101A400000B589B00023039304930593069307938D
:101A5000026803F1804303F588339A4202D009B04B
:101A60005DF804FB0021019103F594335A6C42F0B8
:101A700010025A645A6C02F010020192019A02910B
:101A80001A6B42F001021A631B6B03F0010302930D
:101A9000029B4FF4C0630393022304930323069332
:101AA0000723079303A9024800F01AFBD7E700BFFA
:101AB00000000240DFF834D00D480E490E4A0023E2
:101AC00002E0D458C4500433C4188C42F9D30B4AF2
:101AD0000B4C002301E013600432A242FBD3FFF75A
:101AE000B5FE01F029FFFFF763FD704700000120FC
:101AF00000000020D00900208C9C0008D0090020A4
:101B0000F8280020FEE7000010B504460E4B1878B8
:101B10004FF47A73B3FBF0F30C4A1068B0FBF3F0A8
:101B200000F0B0F868B90F2C01D901200AE00022BA
:101B300021464FF0FF3000F05FF8054B1C6000209D
:101B400000E0012010BD00BF0400002000000020C4
:101B50000800002008B50B4B1A6842F400721A60A6
:101B60001A6842F480621A601A6842F480721A603D
:101B7000032000F02FF80F20FFF7C6FFFFF792FDBC
:101B8000002008BD003C0240034A1168034B1B784B
:101B90000B441360704700BF982800200400002009
:101BA000014B1868704700BF9828002038B50446DC
:101BB000FFF7F6FF0546B4F1FF3F02D0044B1B7858
:101BC0001C44FFF7EDFF401BA042FAD338BD00BF15
:101BD00004000020074AD36823F4E0631B041B0CB5
:101BE000000200F4E060034343F0BF6343F40033BA
:101BF000D360704700ED00E000B5194BDB68C3F31C
:101C00000223C3F1070CBCF1040F28BF4FF0040CF2
:101C100003F1040EBEF1060F18D9033B4FF0FF3E4F
:101C20000EFA0CFC21EA0C0199400EFA03F322EAA9
:101C30000303194300280BDB0901C9B200F160401E
:101C400000F5614080F800135DF804FB0023E5E730
:101C500000F00F000901C9B2024B1954F4E700BFAC
:101C600000ED00E014ED00E0002807DB00F01F02AB
:101C7000400901239340024A42F82030704700BFD8
:101C800000E100E00138B0F1807F0BD24FF0E0239B
:101C90005861054AF02182F823100020986107223C
:101CA0001A6170470120704700ED00E030B405680C
:101CB0002C6824F480242C60046863608368402BC3
:101CC00005D0036899600368DA6030BC7047036828
:101CD0009A600368D960F8E710B40368D9B2103984
:101CE0000B4AA2FB014212090A4CA25CC2655F29A1
:101CF00008D923F47F7323F0030304338365806DD5
:101D000010BC704723F47F7323F003038365F6E769
:101D1000ABAAAAAA70980008836A826992B9012BBB
:101D20000AD0022B02D00BB100207047C36A13F017
:101D3000807F28D100207047C36AB3F1C07F24D0D0
:101D400000207047B2F5005F09D0022B25D9032B84
:101D500025D1C36A13F0807F23D100207047032B65
:101D600003D8DFE803F01404140A00207047C36AA4
:101D700013F0807F0DD100207047C36AB3F1C07F9C
:101D800009D00020704701207047012070470120D2
:101D900070470120704701207047012070470020E4
:101DA000704701207047000070B50446FFF7F8FE49
:101DB000002C5BD00546022384F83530002384F8DC
:101DC00034302268136823F00103136023681A6813
:101DD00012F0010F0AD0FFF7E3FE431B052BF5D9E4
:101DE00020236365032084F8350070BD1A682048FD
:101DF00010406168A2680A43E1680A4321690A4306
:101E000061690A43A1690A43E1690A43216A0A43F5
:101E10000243616A04291ED01A602668756925F09C
:101E20000705636A1D43042B07D1A36A1D43E36AB8
:101E30001BB12046FFF770FF90B975612046FFF790
:101E40004BFFE26D3F2393408360002060650123D8
:101E500084F83530C9E7E16A206B01430A43DBE7C8
:101E600040236365012084F83500BEE70120BCE70C
:101E70003F8010F038B50446856D90F83400012895
:101E80002BD0012084F8340094F83500C0B201282A
:101E900004D0002384F83430022038BD022084F8B6
:101EA0003500002060652046FFF700FFE26D3F230C
:101EB0009340AB602268136843F016031360236CF1
:101EC00023B12268136843F0080313602268136883
:101ED00043F0010313600020DFE70220DDE790F804
:101EE0003530DBB2022B03D08023436501207047DD
:101EF000052380F835300268136823F0010313606E
:101F000000207047F0B583B0044600230193724B64
:101F10001D68724BA3FB0535AD0A876D3E68C26D27
:101F200008239340334210D003681A6812F0040F5C
:101F30000BD01A6822F004021A60C26D0823934085
:101F4000BB60436D43F001034365E26D01239340A1
:101F5000334209D02268526912F0800F04D0BB606E
:101F6000636D43F002036365E26D042393403342E3
:101F700009D02268126812F0020F04D0BB60636DB2
:101F800043F004036365E26D10239340334224D091
:101F90002268126812F0080F1FD0BB6023681A680D
:101FA00012F4802F0DD01B6813F4002F04D1236C82
:101FB0009BB12046984710E0A36C73B12046984728
:101FC0000BE01A6812F4807F03D11A6822F008022D
:101FD0001A60236C0BB120469847E26D2023934092
:101FE000334255D02268126812F0100F50D0BB60F7
:101FF00094F83530DBB2052B0ED023681A6812F442
:10200000802F33D01B6813F4002F2AD1636C002B70
:102010003ED0204698473BE02268136823F0160321
:1020200013602268536923F080035361236CA3B1CA
:102030002268136823F008031360E26D3F23934086
:10204000BB60012384F83530002384F83430236DDD
:10205000002B3FD0204698473CE0A36C002BE7D1F3
:10206000EBE7E36BA3B12046984711E01A6812F43E
:10207000807F09D11A6822F010021A60012384F8C7
:102080003530002384F83430E36B0BB12046984799
:10209000636DFBB1636D13F0010F17D0052384F856
:1020A00035302268136823F001031360019B01336C
:1020B0000193AB4204D823681B6813F0010FF5D1DC
:1020C000012384F83530002384F83430E36C0BB1FD
:1020D0002046984703B0F0BD00000020B5814E1B9C
:1020E00000230F2B00F2D28070B582B060E08568CB
:1020F0005E000324B44025EA0405CC68B4402C43B8
:102100008460456825EA02054C68C4F300129A40D1
:102110002A4342605AE0DC08083450F8246003F097
:10212000070295000F22AA4026EA020E0A69AA4079
:1021300042EA0E0240F824205CE0042200E0002283
:1021400002FA0EF22A430234514D45F82420514A36
:1021500014686FEA0C0224EA0C054E6816F4803FFE
:1021600001D04CEA04054B4C2560646802EA040582
:102170004E6816F4003F01D04CEA0405454C6560FA
:10218000A46802EA04054E6816F4801F01D04CEAE8
:102190000405404CA560E46822404D6815F4001F1A
:1021A00001D04CEA04023B4CE26001330F2B6BD8A8
:1021B00001229A400C6804EA020C32EA0404F4D1C9
:1021C0004C6804F00304013C012C90D94A6802F0E9
:1021D0000302032A09D0C4685D000322AA4024EA4E
:1021E00002048A68AA402243C2604A6802F00302DD
:1021F000022A90D004684FEA430E032202FA0EF23C
:1022000024EA02044A6802F0030202FA0EF22243B0
:1022100002604A6812F4403FC7D0002201921E4A71
:10222000546C44F480445464526C02F48042019231
:10223000019A9C08A51C164A52F8255003F0030287
:102240004FEA820E0F2202FA0EF225EA0205134A25
:1022500090423FF474AF02F5806290420ED002F5D6
:10226000806290420CD002F5806290420AD002F562
:10227000806290423FF461AF072261E701225FE78D
:1022800002225DE703225BE702B070BD704700BF2A
:1022900000380140003C014000380240000002408C
:1022A0000AB181617047090481617047002800F01C
:1022B000CC8070B5044690F83D30002B77D02423B5
:1022C00084F83D302268136823F00103136022680C
:1022D000136843F4004313602268136823F4004337
:1022E000136000F0C5FB62685A4B9A4264D85A4B9F
:1022F00098428CBF00230123002B40F0A88057494F
:10230000A1FB00318B0C25686A6822F03F0242EA8B
:1023100091426A6021680A6A22F03F0266684D4D68
:10232000AE424FD8013313430B622168CA6922F4CD
:102330004F4222F0FF026668464B9E424CD8431E35
:102340007600B3FBF6F3013340F6FC70034278D01D
:10235000C3F30B031343CB6121680B6823F0C00365
:10236000E269206A024313430B6021688B6823F4FF
:10237000034323F0FF032269E068024313438B60A9
:102380002168CB6823F0FF036269A069024313430D
:10239000CB602268136843F00103136000202064BF
:1023A000202384F83D30206384F83E0070BD80F81F
:1023B0003C30FFF719F882E7294B98428CBF002385
:1023C000012399E74FF4967505FB03F3254DA5FB13
:1023D00003539B090133A6E7A368BBB9451E06EB6F
:1023E000460CB5FBFCF50135C5F30B05B5FA85F5D3
:1023F0006D0945BBC3B9013806EB4603B0FBF3F3E7
:102400000133C3F30B0343F40043A3E7451E06EB7C
:10241000860C0CEB8C0CB5FBFCF50135C5F30B05FC
:10242000B5FA85F56D09E4E7013806EB860303EBA1
:102430008303B0FBF3F30133C3F30B0343F44043D3
:1024400088E7042386E7012384E701207047012001
:10245000ACE700BFA08601007F841E0083DE1B4323
:10246000FF083D00D34D6210002800F0E08170B5F8
:1024700082B00446036813F0010F3BD09F4B9B686A
:1024800003F00C03042B2CD09C4B9B6803F00C0333
:10249000082B21D06368B3F5803F4FD0B3F5A02F50
:1024A00052D0964B1A6822F480321A601A6822F4CD
:1024B00080221A606368002B50D0FFF771FB05463D
:1024C0008E4B1B6813F4003F14D1FFF769FB401BD0
:1024D0006428F5D90320B1E1884B5B6813F4800FC1
:1024E000D8D0864B1B6813F4003F03D06368002BE1
:1024F00000F09F81236813F0020F54D07F4B9B683C
:1025000013F00C0F3ED07D4B9B6803F00C03082B9F
:1025100033D0E368002B68D0794B01221A60FFF7B3
:102520003FFB0546754B1B6813F0020F54D1FFF7B4
:1025300037FB401B0228F5D903207FE16F4A13685F
:1025400043F480331360B5E76C4B1A6842F4802281
:102550001A601A6842F480321A60ABE7FFF720FB7A
:102560000546664B1B6813F4003FC3D0FFF718FB0A
:10257000401B6428F5D9032060E1604B5B6813F4CD
:10258000800FC6D15D4B1B6813F0020F03D0E368C8
:10259000012B40F05081594A136823F0F803216958
:1025A00043EAC1031360236813F0080F42D0636944
:1025B0006BB3534B0122C3F8802EFFF7F1FA0546A7
:1025C0004E4B5B6F13F0020F34D1FFF7E9FA401B5B
:1025D0000228F5D9032031E1484A136823F0F803B3
:1025E000216943EAC1031360DDE7454B00221A600D
:1025F000FFF7D6FA0546414B1B6813F0020FD2D005
:10260000FFF7CEFA401B0228F5D9032016E13C4B18
:102610000022C3F8802EFFF7C3FA0546374B5B6FE5
:1026200013F0020F06D0FFF7BBFA401B0228F5D9C2
:10263000032003E1236813F0040F77D02F4B1B6CAA
:1026400013F0805F33D1002301932C4B1A6C42F0BE
:1026500080521A641B6C03F080530193019B012587
:10266000284B1B6813F4807F23D0A368012B34D040
:10267000052B38D0214B1A6F22F001021A671A6F0E
:1026800022F004021A67A368002B3DD0FFF788FAF6
:1026900006461A4B1B6F13F0020F46D1FFF780FA64
:1026A000801B41F288339842F3D90320C6E000250D
:1026B000D6E7144A136843F480731360FFF770FA87
:1026C0000646104B1B6813F4807FCED1FFF768FAE3
:1026D000801B0228F5D90320B0E0084A136F43F0AD
:1026E00001031367CFE7054B1A6F42F004021A6724
:1026F0001A6F42F001021A67C5E700BF00380240B6
:102700000000474200700040FFF74AFA0646524B6D
:102710001B6F13F0020F08D0FFF742FA801B41F243
:1027200088339842F3D9032088E0EDB9A369002BE0
:1027300000F08380484A926802F00C02082A51D0C7
:10274000022B17D0454B00221A66FFF729FA0446E0
:10275000414B1B6813F0007F42D0FFF721FA001BAA
:102760000228F5D9032069E03B4A136C23F080531B
:102770001364DBE7394B00221A66FFF711FA0546AE
:10278000354B1B6813F0007F06D0FFF709FA401B9A
:102790000228F5D9032051E0E369226A1343626AF3
:1027A00043EA8213A26A5208013A43EA0243E26A08
:1027B00043EA0263284A5360284B01221A66FFF756
:1027C000EFF90446244B1B6813F0007F06D1FFF796
:1027D000E7F9001B0228F5D903202FE000202DE0A7
:1027E00000202BE0012B2BD01B4B5B6803F48001F6
:1027F000E269914226D103F03F02216A8A4223D145
:10280000616A47F6C0721A40B2EB811F1ED103F411
:102810004031A26A5208013AB1EB024F18D103F0DD
:102820007063E26AB3EB026F14D1002006E001206E
:102830007047012002E0012000E0002002B070BDDE
:102840000120FBE70120F9E70120F7E70120F5E788
:102850000120F3E70120F1E7003802400000474281
:1028600008B5254B9B6803F00C03042B3FD0082BC5
:102870003FD1214B5A6802F03F025B6813F4800F8E
:1028800012D01D4B5968C1F388111C480023A1FBCD
:102890000001FDF7B5FC184B5B68C3F3014301333E
:1028A0005B00B0FBF3F025E0134B5968C1F3881CC3
:1028B0004FEA4C11B1EB0C006EEB0E0E4FEA8E138B
:1028C00043EA90638101091A63EB0E03DB0043EADC
:1028D0005173C90011EB0C0C43F100039902002362
:1028E0004FEA8C2041EA9C51FDF78AFCD3E703486C
:1028F00000E0034808BD00BF0038024000366E010A
:102900000024F400002800F09B8070B50D460446BA
:102910004F4B1B6803F007038B4208D2CBB24C4AE3
:102920001370136803F007038B4240F08B80236819
:1029300013F0020F17D013F0040F04D0454A936828
:1029400043F4E0539360236813F0080F04D0414A26
:10295000936843F4604393603E4A936823F0F00326
:10296000A1680B439360236813F0010F32D06368B2
:10297000012B21D09A1E012A25D9364A126812F05D
:10298000020F61D033498A6822F0030213438B603F
:10299000FFF706F906462F4B9B6803F00C036268AD
:1029A000B3EB820F16D0FFF7FBF8801B41F28833A0
:1029B0009842F0D9032042E0264A126812F4003F00
:1029C000E0D101203BE0234A126812F0007FD9D108
:1029D000012034E01E4B1B6803F00703AB4207D90C
:1029E000EAB21B4B1A701B6803F00703AB422DD1F0
:1029F000236813F0040F06D0164A936823F4E053BB
:102A0000E1680B439360236813F0080F07D0114A65
:102A1000936823F46043216943EAC1039360FFF79D
:102A20001FFF0C4B9B68C3F303130B4AD35CD840C6
:102A30000A4B18600A4B1868FFF766F8002070BD53
:102A4000012070470120FAE70120F8E70120F6E7AE
:102A5000003C024000380240589800080000002066
:102A600008000020014B1868704700BF00000020DC
:102A700008B5FFF7F7FF044B9B68C3F38223034AB3
:102A8000D35CD84008BD00BF0038024068980008F9
:102A900008B5FFF7E7FF044B9B68C3F34233034AD3
:102AA000D35CD84008BD00BF0038024068980008D9
:102AB00000285AD010B50446436A33B94368B3F5C9
:102AC000827F05D00023C36102E0002303614361DC
:102AD0000023A36294F85130002B40D0022384F8E5
:102AE00051302268136823F040031360636803F4D5
:102AF0008273A26802F404421343E26802F40062A3
:102B00001343226902F002021343626902F00102D8
:102B10001343A26902F400721343E26902F038021F
:102B20001343226A02F080021343A26A02F40052A5
:102B3000216813430B60638B03F00403626A02F0A5
:102B40001002216813434B602268D36923F40063A9
:102B5000D36100206065012384F8513010BD84F8F2
:102B600050302046FEF766FDB8E7012070470000B0
:102B700070B4036A23F001030362036A4668826942
:102B800022F073020C6844EA020523F002028B680B
:102B900013430D4CA04209D00B4CA0420DD046600F
:102BA00085614A684263036270BC704723F0080382
:102BB000CA68134323F00403EEE726F440764A691B
:102BC00032438E691643EAE70000014030B4036ADD
:102BD00023F480730362036A4568C26922F07302BA
:102BE0000C68224323F400738C6843EA04230F4CDF
:102BF000A04209D00D4CA0420ED04560C2614A6887
:102C0000C263036230BC704723F40063CC6843EABC
:102C1000042323F48063EDE725F440554C6945EA2D
:102C200004158C6945EA0415E7E700BF0000014080
:102C300030B4036A23F480530362036A4468C269B0
:102C400022F4E6420D6842EA052223F400538D681F
:102C500043EA0533074DA84206D04460C2614A6882
:102C60000264036230BC704724F480444D6944EA36
:102C70008514F2E70000014010B4036A046A24F0EE
:102C800001040462846924F0F00C4CEA021223F07F
:102C90000A030B438261036210BC704710B4046ADC
:102CA00024F0100404628469036A24F4704C4CEA32
:102CB000023223F0A00343EA01138261036210BCD5
:102CC0007047836823F070030B4343F0070383606E
:102CD00070477047704710B5846B636A83420ED0AB
:102CE000A36A834214D0E36A83421AD0236B8342DF
:102CF00020D02046FFF7EEFF0023237710BD0123ED
:102D00002377C369002BF4D1012384F83E30F0E728
:102D100002232377C369002BEBD1012384F83F30D2
:102D2000E7E704232377C369002BE2D1012384F86A
:102D30004030DEE708232377C369002BD9D1012374
:102D400084F84130D5E7704710B5846B636A8342DD
:102D50000BD0A36A834210D0E36A834210D0236B66
:102D6000834204D10823237701E0012323772046FF
:102D7000FFF7E9FF0023237710BD02232377F6E74F
:102D800004232377F3E7704710B5846B636A8342AB
:102D90000CD0A36A834213D0E36A834216D0236B1C
:102DA000834219D0012384F83D3003E001232377C7
:102DB00084F83E302046FFF7E6FF0023237710BD5E
:102DC00002232377012384F83F30F3E7042323779A
:102DD000012384F84030EDE708232377012384F8AA
:102DE0004130E7E70368254A90420ED0B0F1804FAA
:102DF0000BD0A2F57C42904207D002F5806290424F
:102E000003D002F58062904203D123F070034A6838
:102E100013431A4A90421AD0B0F1804F17D0A2F54E
:102E20007C42904213D002F5806290420FD002F5AE
:102E3000806290420BD002F59A32904207D002F5A0
:102E40008062904203D002F58062904203D123F465
:102E50004073CA68134323F080034A691343036035
:102E60008B68C3620B688362044B984202D00123D3
:102E7000436170470B690363F9E700BF000001403D
:102E800040B310B5044690F83D30F3B1022384F806
:102E90003D30214651F8040BFFF7A4FF012384F8CD
:102EA000463084F83E3084F83F3084F8403084F86F
:102EB000413084F8423084F8433084F8443084F858
:102EC000453084F83D30002010BD80F83C30FEF7DE
:102ED000BFFCDBE70120704740B310B5044690F813
:102EE0003D30F3B1022384F83D30214651F8040B04
:102EF000FFF778FF012384F8463084F83E3084F8E9
:102F00003F3084F8403084F8413084F8423084F80F
:102F1000433084F8443084F8453084F83D30002054
:102F200010BD80F83C30FFF7D4FEDBE7012070478E
:102F300030B4036A23F010030362036A44688269B1
:102F400022F4E6420D6842EA052223F020038D6850
:102F500043EA05130E4DA84209D00D4DA8420ED0EC
:102F6000446082614A688263036230BC704723F028
:102F70008003CD6843EA051323F04003EDE724F412
:102F800040644D6944EA85048D6944EA8504E7E7B5
:102F90000000014038B590F83C30012B66D0044663
:102FA0000D46012380F83C300C2A5AD8DFE802F0A5
:102FB000075959591B5959593059595944000068F2
:102FC000FFF7D6FD2268936943F0080393612268F6
:102FD000936923F0040393612268936929690B4381
:102FE000936100203EE00068FFF7A2FF226893692A
:102FF00043F4006393612268936923F480639361CF
:1030000022689369296943EA01239361002029E03A
:103010000068FFF7DBFD2268D36943F00803D36142
:103020002268D36923F00403D3612268D369296934
:103030000B43D361002015E00068FFF7F9FD22681B
:10304000D36943F40063D3612268D36923F48063B6
:10305000D3612268D369296943EA0123D36100203F
:1030600000E00120002384F83C3038BD0220FCE75A
:1030700010B4846824F47F4C42EA03220A4342EAF3
:103080000C02826010BC704790F83C30012B78D065
:1030900010B50446012380F83C30022380F83D300F
:1030A0000268936823F47F4323F0770393600B68EF
:1030B000602B4CD029D8402B54D00CD9502B22D186
:1030C000CA6849680068FFF7D7FD50212068FFF7FC
:1030D000F8FD002005E0202B0DD009D9302B0AD0B7
:1030E0000120012384F83D30002384F83C3010BDDA
:1030F0000BB1102B05D119462068FFF7E2FD002027
:10310000EFE70120EDE70120EBE7B3F5805F34D076
:10311000B3F5005F0CD1CB684A6889680068FFF797
:10312000A7FF2268936843F4804393600020D8E7A8
:10313000702B24D1CB684A6889680068FFF798FF34
:103140002268936843F0770393600020C9E7CA6858
:1031500049680068FFF7A2FD60212068FFF7B1FD14
:103160000020BEE7CA6849680068FFF785FD402176
:103170002068FFF7A6FD0020B3E70020B1E701209B
:10318000AFE70220704701F01F01012303FA01FCA1
:10319000036A23EA0C030362036A02FA01F10B4398
:1031A0000362704770B5044616460D4600292ED1BD
:1031B00090F83E00C0B2022814BF00200120002871
:1031C00040F00281002D3ED194F83E20D2B2012A77
:1031D00014BF00220122002A00F0F880002E4ED0F9
:1031E000002D50D1022284F83E200C2D00F2F080F8
:1031F000DFE815F05900EE00EE00EE009600EE005C
:10320000EE00EE00AD00EE00EE00EE00C40004297A
:1032100009D008290FD090F84100C0B2022814BF8D
:1032200000200120CBE790F83F00C0B2022814BF75
:1032300000200120C3E790F84000C0B2022814BF6C
:1032400000200120BBE7042D09D0082D0FD094F8F1
:103250004120D2B2012A14BF00220122BBE794F818
:103260003F20D2B2012A14BF00220122B3E794F812
:103270004020D2B2012A14BF00220122ABE7002B6A
:10328000AED00120A3E0042D05D0082D07D00222E6
:1032900084F84120A9E7022284F83F20A5E7022212
:1032A00084F84020A1E7626A4F49D163626A4F49BE
:1032B0001164626A4E49D164226834323146606AD0
:1032C000FEF7D8FD002840F085802268D36843F4DB
:1032D0000073D360012229462068FFF754FF23685A
:1032E000444A934260D02368424A934261D0B3F18A
:1032F000804F5ED0A2F57C4293425AD002F58062A4
:10330000934256D002F58062934252D002F59A322F
:1033100093424ED01A6842F001021A60002056E033
:10332000A26A3149D163A26A30491164A26A304964
:10333000D164226838323146A06AFEF79BFD00282E
:103340004AD12268D36843F48063D360C2E7E26A5B
:103350002549D163E26A25491164E26A2449D164AE
:1033600022683C323146E06AFEF784FD002835D100
:103370002268D36843F40063D360ABE7226B1A4939
:10338000D163226B19491164226B1949D1642268F7
:1033900040323146206BFEF76DFD08BB2268D368D2
:1033A00043F48053D36095E75A6C42F400425A6468
:1033B00099E79A6802F00702062A13D01A6842F0C9
:1033C00001021A60002002E0022000E0012070BD2E
:1033D0000120FCE70120FAE70120F8E70120F6E7E9
:1033E0000120F4E70020F2E7D72C0008492D00085F
:1033F000892D00080000014038B504460D460C290F
:103400006CD8DFE801F0076B6B6B2E6B6B6B376B67
:103410006B6B40000268D36823F40073D360406A8A
:10342000FEF75DFD002229462068FFF7ACFE236809
:103430002B4A934230D02368196A41F2111211428B
:1034400008D1196A40F24442114203D11A6822F0AD
:1034500001021A60002D2ED1012384F83E30002095
:103460003DE00268D36823F48063D360806AFEF78E
:1034700036FDD7E70268D36823F40063D360C06ADF
:10348000FEF72DFDCEE70268D36823F48053D360A6
:10349000006BFEF724FDC5E7196A41F211121142D3
:1034A000C9D1196A40F244421142C4D15A6C22F483
:1034B00000425A64BFE7042D06D0082D09D001232D
:1034C00084F8413000200AE0012384F83F300020D6
:1034D00005E0012384F84030002000E0012038BDE1
:1034E0000000014090F83C30012B34D010B401238F
:1034F00080F83C30022380F83D3003685A689C68AD
:1035000022F0700C0A6842EA0C025A600368134AFF
:10351000934212D0B3F1804F0FD0A2F57C42934278
:103520000BD002F58062934207D002F5806293428D
:1035300003D002F59A32934204D124F080044A6801
:1035400014439C60012380F83D30002380F83C3018
:10355000184610BC70470220704700BF00000140B1
:1035600090F83C30012B22D0012380F83C30CB680E
:1035700023F440738A68134323F480634A68134337
:1035800023F400630A68134323F480530A69134346
:1035900023F400534A69134323F48043CA69134355
:1035A00002685364002380F83C30184670470220BC
:1035B0007047000038B504460268136923F440538D
:1035C000C1680B4313618368026913434269134363
:1035D000C2691A430168CB6823F4164323F00C0335
:1035E0001343CB600268536923F4407381690B4332
:1035F00053610368314A934206D002F580629342D8
:1036000002D0FFF735FA01E0FFF742FAE369B3F5BC
:10361000004F29D00021031849411B1841F1000136
:10362000C90041EA5371DB00181863684FEA83024E
:103630004FEA937341F10001FCF7E2FD204DA5FB39
:1036400000325109642303FB11031B013233A5FB34
:1036500003235B0903F0F00202EB011203F00F03F6
:10366000216813448B6038BD0023021843EB03012B
:10367000121841F10001C90041EA5271D20010183C
:1036800041F10001626892185B41FCF7B9FD0C4DF5
:10369000A5FB00325109642303FB1103DB00323325
:1036A000A5FB03235B095A0002F4F87202EB011236
:1036B00003F00703216813448B60D4E70010014036
:1036C0001F85EB512DE9F84305460F4616469946EE
:1036D000DDF820802C68246837EA04030CBF4FF023
:1036E000010C4FF0000CB4452DD1B8F1FF3FF1D0E3
:1036F000B8F1000F05D0FEF753FAA0EB09004045E2
:10370000E8D92A6802F10C0353E8003F23F4D07390
:103710000C3242E800310029F3D12A6802F1140387
:1037200053E8003F23F00103143242E8003100293E
:10373000F3D1202385F83D3085F83E30002385F80D
:103740003C30032000E00020BDE8F88358B310B5FA
:10375000044690F83D300BB3242384F83D302268B2
:10376000D36823F40053D3602046FFF723FF226879
:10377000136923F4904313612268536923F02A03E9
:1037800053612268D36843F40053D360002020645F
:10379000202384F83D3084F83E3010BD80F83C3062
:1037A000FEF74EF9D8E7012070472DE9F04182B0CD
:1037B0001E4690F83D30DBB2202B54D104460D4616
:1037C0009046002953D0002A53D090F83C30012B6A
:1037D00051D0012380F83C3000230364212380F87A
:1037E0003D30FEF7DDF90746A4F82480A4F82680D2
:1037F000A368B3F5805F05D04FF00008002384F87C
:103800003C3012E0236913B14FF00008F6E7A846F8
:103810000025F3E738F8023B2268C3F3080353603E
:10382000E28C92B2013A92B2E284E38C9BB273B121
:1038300000963B46002280212046FFF743FFE0B977
:10384000002DE7D015F8012B23685A60E8E70096B1
:103850003B46002240212046FFF734FF78B9202361
:1038600084F83D3000E0022002B0BDE8F081012084
:10387000FAE70120F8E70220F6E70320F4E7032047
:10388000F2E7000008B50349034800F049F8034B8C
:10389000187008BD9C28002010000020A0280020DF
:1038A000024B01221A701878704700BF0C000020EC
:1038B000024B01221A701878704700BF0C000020DC
:1038C000002070470020704701207047134B5B7A3F
:1038D00013BB10B5044603F0FF00104B93F809C06A
:1038E0005FFA8CFC4FF0000E03F80CE093F809C06F
:1038F00003EB8C0CCCF804405C7A1C4422725A7A9C
:10390000541CE4B25C7230320A703A234B702F239D
:103910008B7081F803E010BD01207047A4280020BF
:1039200008B50022FFF7D2FF08BD0000014B186860
:10393000704700BF2400002070B50D4E0D4D761B62
:10394000B61006D0002455F8043B01349847A6422F
:10395000F9D1094E094D761B05F066FFB61006D069
:10396000002455F8043B01349847A642F9D170BDB4
:10397000809C0008809C0008889C0008809C0008AF
:10398000830730B548D0541E002A3FD0CAB2034640
:1039900001E0013C3AD303F8012B9D07F9D1032C38
:1039A0002DD9CDB245EA05250F2C45EA054536D976
:1039B000A4F1100222F00F0C03F1200EE6444FEAAE
:1039C000121C03F1100242E9045542E9025510327B
:1039D0007245F8D10CF1010214F00C0F03EB021246
:1039E00004F00F0C13D0ACF1040323F003030433F1
:1039F000134442F8045B9342FBD10CF003042CB156
:103A0000CAB21C4403F8012B9C42FBD130BD644672
:103A10001346002CF4D1F9E703461446BFE71A46D3
:103A2000A446E0E710B51A4C002924689AB02ADBB6
:103A3000009004904FF40270ADF80C0013D00139DF
:103A40004FF6FF7002910591ADF80E0069462046D1
:103A500000F04EF8421C01DA8B232360009B002209
:103A60001A701AB010BD4FF6FF7002910591ADF8B3
:103A70000E006946204600F03BF8431C01DA8B2318
:103A800023601AB010BD8B2323604FF0FF30F8E79E
:103A900024000020024B13B1024800F005B8704723
:103AA00000000000B53A0008002301461A461846F7
:103AB00001F03CBD38B5084B084D5B1B9C1007D08E
:103AC000043B1D44013C55F804399847002CF9D1BA
:103AD000BDE8384005F0AEBE8C9C0008889C00080C
:103AE000704700BF704700BF704700BF704700BFFE
:103AF0002DE9F04FD5B00C460C9191460E930A90EB
:103B000002F0A6FE036817931846FCF7F9FDA38997
:103B10001690190603D52369002B00F08B8700242B
:103B20002BAB4D46CDE92944CDE91944CDE91B44E1
:103B30001294289398461894002308940024CDE901
:103B400014342B78002B00F0DD81AA4604E01AF82B
:103B5000013F002B00F01681252BF8D1BAEB0506AA
:103B600040F014819AF80030002B00F0CB81002344
:103B70004FF0FF329AF801608DF8833009930AF113
:103B8000010A07921F462B244FF020090AF1010A6F
:103B9000A6F120035A2B00F22D81DFE813F0BA02C0
:103BA0002B012B01B5022B012B012B016A002B01EC
:103BB0002B014F02E3022B015A02C9022B01C4025E
:103BC0005B005B005B005B005B005B005B005B001D
:103BD0005B002B012B012B012B012B012B012B0156
:103BE000BF012B011A028600BF01BF01BF012B01DB
:103BF0002B012B012B01B0022B012B01C3002B0148
:103C00002B012B0124022B015F022B012B013C070E
:103C10002B012B012B012B012B012B012B012B0144
:103C2000BF012B011A028800BF01BF01BF01A3021F
:103C3000880081002B0196022B018202C5007002D0
:103C400081002B0124027E0039072B012B0119076B
:103C50002B017E00A6F1300300221AF8016B02EB63
:103C6000820203EB4202A6F13003092BF5D9099237
:103C70008EE7DDF828B0584602F0EAFD43681B9352
:103C80001846FCF73DFD1C900646584602F0E0FD44
:103C900083681993002E40F07A869AF8006075E7E1
:103CA0009AF8006047F0200770E747F01007BA065F
:103CB0000E9B40F18081073323F007031A465B68AF
:103CC00052F8084B0E929946002BC0F25F85079B75
:103CD000013301F01F8054EA090327F0800B00F044
:103CE000E3840A2C79F1000380F0818730340123CA
:103CF0008DF84F415F460B930DF24F1507990B98C6
:103D00009DF8832081424FF00003B8BF01460D9318
:103D100006910F9313931093002A7CD0069B0133D6
:103D2000069378E047F0100717F0200900F034817F
:103D30000E9B073323F00703D3F8049053F8084B86
:103D40000E9327F4806B002300228DF88320079ABE
:103D5000511C00F00D8254EA09012BF0800740F05D
:103D60000682002A41F01080002B40F0A2841BF054
:103D700001030B9300F0378530238DF84F310DF29E
:103D80004F15BBE7BAEB050600F0BC802A9B334415
:103D90002A93299B0133072BC8E90056299305DC98
:103DA00008F10808089B33440893DBE60C990A984D
:103DB00028AA03F033FC80B90DF1AC08F2E70C99A6
:103DC0000A9828AA03F02AFC002800F08C800D9B9A
:103DD0001BB10D990A9802F035FC0C9B9B8913F0DE
:103DE000400F089B18BF4FF0FF330893089855B059
:103DF000BDE8F08F002E00F0858000228DF8EC6089
:103E00008DF88320012306930D920B9307920F9256
:103E1000139210923BAD17F0020302D006990231C3
:103E2000069117F0840B07D109990698A1EB0009B8
:103E3000B9F1000F00F315832A9C8AB1299A0DF17C
:103E4000830101320134C8F80010072A4FF0010144
:103E50002A942992C8F8041000F3468308F1080850
:103E600083B1299B21AA01330234C8F80020072B13
:103E70004FF002022A942993C8F8042000F34883E3
:103E800008F10808BBF1800F00F00E82079B0B9A27
:103E9000A3EB020BBBF1000F00F34F82FB0500F117
:103EA000A5810B9BC8F804301C44299BC8F800501E
:103EB0000133072B2A94299300F3C78208F10808DD
:103EC0007B0705D5099B069A9D1A002D00F32C83CC
:103ED000DDE9083206998A42ACBF9B185B1808934B
:103EE000002C7FF46CAF002329930D9B1BB10D991F
:103EF0000A9802F0A7FB0DF1AC0855462B78002B71
:103F00007FF423AE2A9B002B3FF467AF0C9C0A98EA
:103F100028AA214603F082FBA38960E70E9B0733A2
:103F200023F00702F2E80234CDE91434DDE9143459
:103F300024F000440E92994618462146A74B4FF0B4
:103F4000FF32FDF7A1F8002840F06284A34B4846F9
:103F500021464FF0FF32FDF779F8002840F05884F1
:103F6000DDE9140100220023FDF766F8002840F087
:103F7000AD879DF883209A4D9A4B27F08007032147
:103F8000472EC8BF1D4600230D9306910B91079342
:103F90000F9313931093BFE617F0100340F02E8495
:103FA00017F0400200F054870E9A52F8044B0E921C
:103FB0009946A4B2C5E653F8044B0E93FB0600F1F4
:103FC00018847D0640F1128444F3C0394B4624B274
:103FD0007AE60E9B002253F8041B8DF883208DF89F
:103FE000EC100E930EE70E9C079B54F8045B4FF009
:103FF00000098DF88390002D00F0D5865A1C00F042
:1040000052851A4649462846FCF782FA0D90002848
:1040100001F057800D9BCDF81C905B1B0B930E9409
:1040200023EAE3739DF883200693CDF83490CDF80E
:104030003C90CDF84C90CDF840906DE60E9B53F837
:10404000042B0992002A80F2C983099A0E935242E6
:1040500009929AF8006047F0040797E547F0100BC3
:104060001BF0200900F081830E9B073323F0070328
:10407000D3F8049053F8084B0E93012364E60E9B8B
:1040800053F8044B0E93302378268DF88430564B2A
:10409000189347F0020B8DF885604FF0000902235A
:1040A00052E6BD0600F18284FC0600F173867806B4
:1040B00000F13C87B90540F16D860E9B089953F8D5
:1040C000042B0E931170554618E79AF800606C2E79
:1040D00003BF9AF8016047F020070AF1010A47F090
:1040E000100753E59AF80060682E03BF9AF8016044
:1040F00047F400770AF1010A47F0400746E59AF8CD
:10410000006047F0080741E59AF8006047F00107B2
:104110003CE59DF88330002B7FF4BFAD9AF800603A
:104120008DF8839032E59AF8006047F080072DE51E
:10413000524612F8016B2A2E01F0CD81A6F1300310
:10414000092B924698BF002201F288801AF8016B71
:1041500002EB820203EB4202A6F13003092BF5D9F0
:10416000079215E59AF800608DF883400EE5BB468E
:10417000012B3FF4B6AD022B54AD12D1189A04F0C6
:104180000F032409D35C05F8013D44EA09744FEAA2
:10419000191954EA0903F2D154AB5B1B5F460B9328
:1041A000ACE504F00703E40844EA49744FEAD9098E
:1041B000303354EA09012A4605F8013DF1D11BF0DC
:1041C000010FE9D0302BE7D03023023A05F8013C4B
:1041D00054AB9B1A5F460B9315468FE5FFFFEF7FAD
:1041E0007C980008809800088C980008652E40F3A1
:1041F000E680DDE9140100220023FCF713FF00280C
:1042000000F0CD81299BBF4AC8F80020013301345A
:104210000122072B2A942993C8F8042000F37D85F6
:1042200008F10808229B129A934280F2D382169BCF
:10423000179A1C44C8E90023299B2A940133072BB1
:10424000299300F3EB8308F10808129B5D1E002DF3
:104250007FF736AE102D299BDFF8AC9240F36E85C8
:1042600049462246B946DDF828B00C9C10260F4678
:1042700005E008F10808103D102D40F35B8501337F
:104280001032072BC8E90076CDE92932F1DD28AAE2
:104290002146584603F0C2F900287FF498ADDDE9C5
:1042A00029320DF1AC08E6E7099B069AA3EB020B55
:1042B000BBF1000F7FF7EAADBBF1100F299ADFF8D1
:1042C00048922CDD1D9621464E460C9CDDF8289028
:1042D000102306E0ABF1100BBBF1100F08F108083A
:1042E0001ADD01321031072AC8E90063CDE929211E
:1042F000F0DD28AA214648460DF1AC0803F08EF9FE
:1043000000287FF464ADABF1100BBBF1100FDDE9B9
:1043100029214FF01003E4DCB1461D9E0C4601320A
:104320005C44072ACDE92924C8F80090C8F804B0F5
:1043300000F31D8508F10808A8E5BBF1100F299AC4
:10434000DFF8C4912DDD41462046A8464C460C9D21
:10435000DDF82890102306E0ABF1100BBBF1100F35
:1043600001F1080119DD01321030072AC1E90043CB
:10437000CDE92920F0DD28AA2946484603F04EF968
:1043800000287FF424ADABF1100BBBF1100FDDE979
:1043900029202BA94FF01003E5DC4546A1468846AD
:1043A000044601325C44072ACDE92924C8F800906C
:1043B000C8F804B000F3CC8108F108086EE5129B40
:1043C000012B40F37C81299EC8F80050013601344E
:1043D0000123072E2A942996C8F8043000F3E081BF
:1043E00008F10808169B179A01361C44072EC8E9E5
:1043F0000023CDE9296400F3E08108F10808DDE934
:10440000140100220023FCF70DFE002840F0748107
:10441000129B0136013B01351C44072EC8F80050A1
:104420002996C8F804302A9400F3598108F1080845
:104430001A9BC8F8043001361C44072E24ABCDE982
:104440002964C8F800307FF739AD0C990A9828AA7A
:1044500003F0E4F800287FF4BAAC2A9C0DF1AC0814
:104460002EE5B9F1100FDDE929212BDDCDE91D3B4A
:104470001F96DDF828B04E461024A9460C9D04E096
:10448000103E102E08F1080817DD01321F4B1031C5
:10449000072AC8E90034CDE92921F1DD28AA2946F7
:1044A00058460DF1AC0803F0B9F800287FF48FAC42
:1044B000103E102EDDE92921E7DCDDE91D3B4D46EC
:1044C000B1461F9EC8F80490013209EB0104072A87
:1044D0000E49C8F80010CDE9292400F3FF839DF8A8
:1044E000832008F10808A8E40C990A981D9328AACB
:1044F00003F094F800287FF46AAC2A9C1D9B0DF110
:10450000AC08ADE4BC980008D0980008C09800083A
:104510000C990A9828AA03F081F800287FF457AC78
:104520002A9C0DF1AC08ADE4102D299B21DD0A9FDA
:10453000DDF83090102604E0103D102D08F1080839
:1045400017DD0133B04A1034072BC8E90026CDE946
:104550002934F1DD28AA494638460DF1AC0803F0AC
:104560005DF800287FF433AC103D102DDDE92934CF
:10457000E7DC0133A44AC8F804502C44072BCDE9EA
:104580002934C8F800207FF7A3AC0C990A9828AA10
:1045900003F044F800287FF41AAC2A9C98E422998E
:1045A000002940F36683DDF84090129B9945A8BF2F
:1045B0009946B9F1000F0BDD299B01334C44072BC1
:1045C000C8E900592A94299300F32F8508F10808B7
:1045D000109EB9F1000FA8BFA6EB0906002E00F34C
:1045E0003882DDF840B07805AB4400F16682229B4A
:1045F000129A934202DBF90740F18E84169A1799BA
:104600001444C8E90012299A2A940132072A2992EF
:1046100000F3188508F10808129AAE18A6EB0B06ED
:10462000D51AAE42A8BF2E46002E0DDD299BC8F834
:1046300000B001333444072BC8F804602A9429934E
:1046400000F31A8608F10808002EA8BFAD1B002D44
:104650007FF736AC102D299BDFF8B09140F36E83C5
:1046600049462246B946DDF828B00C9C10260F4674
:1046700005E008F10808103D102D40F35B8301337D
:104680001032072BC8E90076CDE92932F1DD28AADE
:104690002146584602F0C2FF00287FF498ABDDE9BE
:1046A00029320DF1AC08E6E7079B002B7FF41EAB27
:1046B0005F46002307930B9354ADFFF71FBBFA0728
:1046C0003FF581AE299EC8F8005001360134012320
:1046D000072E2A942996C8F804307FF7A7AE0C99C4
:1046E0000A9828AA02F09AFF00287FF470ABDDE94F
:1046F00029640DF1AC089BE6129B5D1E002D7FF72F
:1047000097AE102DDFF8049140F396832246079769
:104710000A9C0C9F4FF0100B05E008F10808103DB3
:10472000102D40F3878301361032072EC8E9009B15
:10473000CDE92962F1DD28AA3946204602F06EFF54
:1047400000287FF444ABDDE929620DF1AC08E6E70F
:104750000C990A9828AA02F061FF00287FF437AB71
:104760002A9C0DF1AC08FFF799BB1BF0100340F039
:1047700028811BF0400200F079830E9A52F8044B16
:104780000E929946A4B20123FFF7DEBA2D236442AC
:104790008DF8833069EB4909BB460123FFF7D7BA8F
:1047A0000C990A9828AA02F039FF00287FF40FAB71
:1047B000DDE929640DF1AC0814E60C990A9828AAE1
:1047C00002F02CFF00287FF402ABDDE929640DF133
:1047D000AC0814E6FD077FF573AB28E59AF8006096
:1047E0000E93FFF7D3B954ADFFF788BAB80500F1BF
:1047F000A6834FEAE4794B46FFF766BA0E9B53F85F
:10480000044B0E93FFF79DBAC0980008D09800089B
:10481000DDE9140102460B46FCF736FC002840F0A7
:104820000F86612E00F04585412E00F06D84079BB8
:10483000013326F02003069300F0A983472B00F0F4
:104840008885DDE9141247F480730F931346002B1B
:10485000C0F292850B9300231D938B460D93069B0C
:10486000462B00F0FD83452B00F04485079901910C
:1048700026A9049123A9039122A9029102210B9B4D
:104880000A9800915A4600F02BFF069B472B0546DD
:1048900040F0318617F0010FB9460F9F40F0FC84BD
:1048A000269B5B1B1293069B472B00F08283069B83
:1048B000462B00F01284229B1093109B069A013B1A
:1048C000412A229300F0AD85F2B20021002BB8BF3F
:1048D000109B8DF89020BABFC3F101032D222B222B
:1048E000092B8DF8912040F38D850DF19F04B64F73
:1048F0002246104687FB0321DA17C2EBA10202EB26
:104900008201A3EB4101303100F8011C19466329F3
:10491000134600F1FF32ECDC3033D9B2831E9C42E7
:1049200002F8011C40F2F18513460DF1920201E0FC
:1049300013F8011B02F8011B9C42F9D10DF1A103F0
:104940000DF192021B1A134424AA9B1A1A93129B6C
:104950001A9A012B1A440B9240F39E850B9B169AD0
:1049600013440B930B9A002329F4806722EAE27226
:1049700047F480770F930692139310931D9B002B9F
:1049800040F03F839DF883200793FFF7C5B9199B3B
:10499000002B3FF482A9199B1B78002B3FF47DA9C3
:1049A0009AF8006047F48067FFF7F0B80E9B08980C
:1049B00053F8041B0E93C217C1E900025546FFF7D6
:1049C0009DBA0E9B53F8044B0E930123FFF7BCB91D
:1049D0007E4B189317F0200900F0EC800E9B0733F4
:1049E00023F00703D3F8049053F8084B0E93F8070D
:1049F00009D554EA090306D030238DF8856047F0C5
:104A000002078DF8843027F4806B0223FFF79CB9EE
:104A1000BB46FFF725BB6E4B1893DBE70C990A9852
:104A200028AA02F0FBFD00287FF4D1A92A9C0DF1F1
:104A3000AC080AE40A98402101F00EFF0C9B1860B4
:104A40001861002800F065850C9A40235361FFF738
:104A500066B8102E299BDFF87C9140F329824846E6
:104A600042462146A846B9460A9C0C9D4FF0100BC1
:104A7000074604E00832103E102E40F31382013343
:104A80001031072BC2E9007BCDE92931F2DD28AADC
:104A90002946204602F0C2FD00287FF498A9DDE9EE
:104AA00029312BAAE7E72846CDF81C900E94FBF796
:104AB00027FE03460B90FFF7B3BA129BCDF82CA04C
:104AC0004246DDF84C801097EB1807935E46199F1D
:104AD000DDF87090DDF828A0DDF830B00F9B13955D
:104AE0002146B8F1000F2FD0002B30D1013F08F143
:104AF000FF381B9BC2E90039299B01334944072B2E
:104B00002A91299368DC0832079B38789B1B8342E3
:104B1000A8BF0346002B1C460BDD29980130194421
:104B20000728C2E900632A91299000F3148138789C
:104B30000832002CACBF051B0546002D0BDC0644DB
:104B40000F9BB8F1000FCFD1002B00F023820F9BF9
:104B5000013B0F93CDE7102D29981DDD102404E0B3
:104B6000103D102D02F1080216DD0130194B1031F5
:104B70000728C2E90034CDE92901F1DD28AA594608
:104B8000504602F04BFD00287FF421A9103D102D66
:104B9000DDE929012BAAE8DC01300E4B55602944E0
:104BA0000728CDE92901136000F3328238780832F2
:104BB0000644C5E717F0100300F0A1800E9B53F8E0
:104BC000044B0E9313E700BF676666668C98000877
:104BD000A0980008D098000828AA5946504602F02C
:104BE0001DFD00287FF4F3A82A992BAA8CE70BF46B
:104BF000806300220696CDF82CA0CDF8348054AF07
:104C0000DDF864809A4616460CE0002320464946AB
:104C10000A22FBF7F5FA0A2C79F100031BD30446AC
:104C200089462F4620460A2200234946FBF7E8FA28
:104C300030327D1E013607F8012CBAF1000FE4D0A6
:104C400098F800309E42E0D1FF2EDED00A2C79F198
:104C5000000380F0408154AB5B1BDDF82CA0CDF845
:104C600064801296DDF83480069E0B935F46FFF752
:104C700045B8299BBC4AC8F8002001330134012201
:104C8000072B2A942993C8F8042000F3388108F1EF
:104C90000808002940F09780129A07F00103134397
:104CA0003FF40EA9169B17991A19C8E90013299BFE
:104CB0002A920133072B299300F3478108F1080852
:104CC0001299C8F8005001338C18072BCDE929340C
:104CD000C8F804107FF7F2A8FFF7B7BB0C990A9841
:104CE0001D9328AA02F09AFC00287FF470A89DF872
:104CF00083202A9C1D9B0DF1AC08FFF79EB817F08E
:104D0000400200F0C2800E9A52F8044B0E9299466F
:104D1000A4B26CE6BB46FEF7E4BF0C990A9828AA39
:104D200002F07CFC00287FF452A82A9C0DF1AC080C
:104D3000FFF778BA14463A464F46914601332C4461
:104D4000072BC8F80090C8F80450CDE929347FF744
:104D5000B5A8FFF77ABB28AA5946504602F05EFC78
:104D600000287FF434A838782A992BAAE1E60C9918
:104D70000A9828AA02F052FC00287FF428A82A9C4E
:104D80000DF1AC08FFF782B8012BBB467FF4F3A905
:104D9000FEF7ACBF0E9B089953F8042B55461160E3
:104DA0000E93FFF7ABB8062B294628BF06230795BD
:104DB0000D952A4606936D4D0E940B930F9113910A
:104DC0001091FEF7A9BF169B17981A19C8E900039E
:104DD000299B2A920133072B299300F3B68008F10F
:104DE00008080029BFF66CAF4E421031DFF8809101
:104DF00080F297824146DDF828B0A84610240C9D29
:104E000004E00831103E102E40F389820133103245
:104E1000072BC1E90094CDE92932F2DD28AA294601
:104E2000584602F0FBFB00287EF4D1AFDDE92932C1
:104E30002BA9E7E7079F144601362C44072ECDE93E
:104E40002964C8F80090C8F804507FF7EFAA46E438
:104E50000E9B17F4007914BF53F8044B53F8044B1E
:104E60000E931CBF9146E4B2FEF76BBF0E9B1BF482
:104E7000007914BF53F8044B53F8044B0E931CBF36
:104E80009146E4B20123FEF75FBF0E9B17F4007951
:104E900014BF53F8044B53F8044B0E931CBF9146B8
:104EA000E4B2A4E5454690463A460C464F46914644
:104EB00001333444072BCDE92934C8F80090C8F8F1
:104EC000046057DC08F10808FFF78BBB2D228DF832
:104ED0008320FFF750B81C9B1B99ED1A1A462846F1
:104EE00002F06AFB98F801300BB108F10108204686
:104EF00049460A2200230026FBF782F98FE60C9927
:104F00000A9828AA02F08AFB00287EF460AF229952
:104F10002A9C0DF1AC08BCE6129AAE18A6EB0B0663
:104F2000D51AAE42A8BF2E46FFF78EBB0E9B08993E
:104F300053F8042B0E9311805546FEF7DFBF44F360
:104F4000C0194B4664B2FEF7BFBE0C990A9828AA56
:104F500002F064FB00287EF43AAFDDE929322299A1
:104F60000DF1AC083DE700BFBC980008B4980008FC
:104F7000D09800080C990A9828AA02F04FFB002844
:104F80007EF425AF2A9C0DF1AC08FFF72ABB06235F
:104F9000079356E4DDE91235EB189E421997B346A4
:104FA000DDF82CA0109F90460C4628BF9B46FFF7CB
:104FB0001EBB229B1093DA1C02DB079A934204DD8E
:104FC000023E26F02003069377E4109B129A934248
:104FD000C0F2488119F0010F00F01182169A1344B3
:104FE0000B9319F4806F03D0109B002B00F3C78143
:104FF0000B9B23EAE3730693672600230F93139317
:10500000BCE42D2200238DF883200793FEF786BE93
:1050100028AA5946504602F001FB00287EF4D7AE7C
:1050200038782A992BAA06448AE50C990A9828AA66
:1050300002F0F4FA00287EF4CAAE2A9C0DF1AC0806
:10504000FFF7C6BA0C990A9828AA02F0E7FA0028D6
:105050007EF4BDAE229B2A9C0DF1AC08FFF7DCBAB2
:105060000799019126A9049123A9039122A90291EC
:1050700003210B9B0A9800915A4600F031FB0378FC
:10508000302B054600F0F181229B079AB946134464
:105090000F9FEC180B99584600220023FBF7C2FF24
:1050A00010B12346FFF7FDBB269BA342BFF4F9AB2B
:1050B00030215A1C26921970269B9C42F9D8FFF782
:1050C000F0BB079B9DF883200E9406930B930790EB
:1050D0000F9013901090FEF71FBE229A1092002A94
:1050E00040F3E081079909F001030B4340F0B781D9
:1050F000109B0B93662619F4806F40F041810B9B47
:1051000023EAE373069378E730238DF8843058233D
:105110008DF88530079B632B47F0020400F3BF80B6
:1051200000230D933BADDDE9141247F481730F9317
:105130001346002B2746C0F285800B9326F02003F0
:10514000069300238B461D93612E00F04081412E73
:105150007FF485AB22AA0B99584602F0E3F90022AE
:105160004FF07F53FBF7F6FC02460B46CDE91023C8
:1051700000220023FBF756FF08B101232293AC4B1A
:105180000B93079BCDE912A6CDE91E78DDF82CA084
:10519000DDE9106703F1FF39AB46109506E0002208
:1051A000002309F1FF39FBF73DFFE8B9A14B0022CD
:1051B00030463946FBF7CEFC0F460646FBF77AFF32
:1051C0000446FBF75DFC0B46024639463046FBF7CA
:1051D00009FB1AF80430B9F1FF3FD8464D460BF8E9
:1051E000013B06460F46DAD130463946924BDDF890
:1051F00048A0139ECDF848800022A946DDF87C80A7
:10520000109D1E9FCDE91001FBF734FF002855D1FA
:10521000DDE91001884B0022FBF704FF08B1E1072C
:105220004CD44B46002B06DB01335B4430220BF899
:10523000012B5B45FBD1ABEB0503B94612930F9FE6
:10524000FFF731BB26F020030693DDE914349B46BB
:1052500004F100430B932D231D9375E7002307935F
:10526000FEF796BC129B169A9A18109B0B92002B75
:1052700040F3098167263EE70C990A9828AA02F0B4
:10528000CDF900287EF4A3AD229D129B2A9C5D1BC4
:105290000DF1AC08FFF7D8B9079BEC18FAE60A98AD
:1052A000591C01F0D9FA0546002800F026810D901E
:1052B00039E730238DF88430782329E7129B269331
:1052C0000B9B1BF8012CD97B8A425B4609D130200D
:1052D00003F8010C269B5A1E269213F8012C9142CA
:1052E000F6D0392A0BBF0B9A0132927AD2B203F868
:1052F000012CA0E707990B9B0A984C1C26A9049146
:1053000023A9039122A9029102215A4601940091F6
:1053100000F0E6F90546B9462C440F9FBAE645462B
:10532000884601333244072BCDE92932C8F8009072
:10533000C8F804607FF7C2AC0C990A9828AA02F05A
:105340006DF900287EF443ADDDE929320DF1AC089A
:10535000B6E4079B002B08BF0123079347F4807333
:105360000F93159B002BC0F2B180DDF850B00D906B
:105370000B931D90FFF77ABA00230D9365E767261C
:1053800019990B78FF2B00F0B2800024109A204668
:1053900003E001300131FF2B08D0934206DAD21A24
:1053A0004B78002BF5D10B780134F4E7199110926A
:1053B00013900F940F9A139B1C9913440B9A01FBA3
:1053C00003230B9323EAE3730693FFF7D7BA22AACA
:1053D0000B99584602F0A6F800224FF07F53FBF7D6
:1053E000B9FB02460B46CDE9102300220023FBF750
:1053F00019FE08B101232293104B0B93C1E6109BB9
:105400000B93EEE5002963D130228DF892200DF147
:105410009302303302F8013B24ABD31A1A93FFF7FF
:1054200096BA06F10F02D2B20121FFF74FBA00BFC0
:10543000A0980008000030400000E03F8C98000871
:10544000159B384D002BB4BF2D229DF88320364B81
:10545000B8BF8DF8832027F08007FEF790BD169B1C
:10546000D31819440B91662645E60B99584600223D
:105470000023FBF7D7FD00287FF406AE079BC3F19E
:105480000103229301E6C3F101031A4422EAE27305
:105490000B9206936726B0E519F0010F3FF462AA5C
:1054A000FFF75CBA079A09F0010959EA020304D12F
:1054B0000123069366260B939FE5169B01331A443E
:1054C00022EAE2730B920693662696E50D90BCE6FF
:1054D0000DF192029DE70E9B9AF80160924653F8F7
:1054E000042B0E9342EAE2720792FEF74FBB0023B1
:1054F0000F9313935EE7079C0DE70C998B8943F09C
:10550000400213468A81FEF76ABC02231A93FFF712
:105510001EBA0A9A0C2313604FF0FF330893FEF76C
:1055200065BC00BF84980008889800082DE9F04702
:10553000DFF87CA00646DAF8000098460F46914650
:10554000FEF7D2FA1B4B1B68D3F8484124B36568B9
:105550001F2D26DC5EB96B1C0235DAF80000636093
:1055600044F82570FEF7C2FA0020BDE8F08704EB8E
:1055700085010123C1F88890D4F88821AB401A43F3
:10558000022EC4F88821C1F80881E4D1D4F88C2116
:105590001343C4F88C31DEE703F5A674C3F8484121
:1055A000D5E7DAF80000FEF7A1FA4FF0FF30DCE7AC
:1055B00050040020789800082DE9F04F03690C6929
:1055C000A34283B0C0F28680013C01F11405A30020
:1055D00000F11408009355F8243058F824200133C2
:1055E0008A469A4208EB8401814605EB84070191C3
:1055F000B2FBF3F638D30023AE4640469B465EF836
:10560000041B02681FFA81FC06FB0C33090C4FEAED
:10561000134C06FB01CC99B2ABEB01011FFA8CF3E2
:1056200011FA82F1C3EB124202EB214289B241EA44
:105630000241774540F8041B4FEA1C434FEA224BD6
:10564000DDD2009B58F8033073B9019B043B9845A9
:1056500004D307E0984504F1FF3403D253F804293A
:10566000002AF7D0C9F810405146484601F032FEF2
:1056700000282BDB01364046002355F8041BD0F8E8
:1056800000C08AB29A1A0B0C12FA8CF2C3EB1C43BC
:1056900003EB224392B242EA0342AF4240F8042BAA
:1056A0004FEA2343E9D258F8242008EB84036AB96F
:1056B000043B984504D307E0984504F1FF3403D236
:1056C00053F80429002AF7D0C9F81040304603B037
:1056D000BDE8F08F002003B0BDE8F08F00000000AF
:1056E0002DE9F04F016C99B090469946CDE90489B7
:1056F000259D044641B1426C4A60012393408B6072
:1057000001F08CFB00232364B9F1000AB4BF01232C
:1057100000232B60764BBCBF2AF0004ACDF814A0C2
:1057200033EA0A0300F0AA80DDE904231046194693
:1057300000220023CDE90A01FBF774FC074670B193
:10574000249A01231360269B002B00F0E482694811
:105750001860431E0393039819B0BDE8F08F16AB91
:10576000019317AB00932046DDE90A2301F078FE90
:105770005FEA1A56054640F09780DDE916763E440A
:1057800006F23240202840F3B583C0F140000AFA07
:1057900000FA06F2124028FA00F04AEA0000FBF78D
:1057A0005FF90123013EA1F1F8710F93524B0022E2
:1057B000FBF718F848A3D3E90023FBF7CBF948A37C
:1057C000D3E90023FBF710F8804630468946FBF703
:1057D00057F945A3D3E90023FBF7BCF902460B4672
:1057E00040464946FBF700F880468946FBF762FCD5
:1057F00000228346002340464946FBF71DFC002853
:1058000040F07C82BBF1160F00F26B823B4B03EB46
:10581000CB03D3E90023DDE90A01FBF70DFC0028E7
:1058200072D00023BE1B0E93731E0BF1FF3B069339
:1058300000F15E8200230993BBF1000F6BDA099B34
:10584000CDF81CB0A3EB0B030993CBF100030D9330
:10585000229B092B4FF0000B66D8052B40F34883A1
:10586000043B22930026229B023B032B00F2688616
:10587000DFE813F05C04590450043304249A42F224
:105880000F73CAF3130A13605AEA08031AD1269B4E
:10589000002B00F064861A4B03930833269A039872
:1058A000136019B0BDE8F08FDDE90A12C2F31303EB
:1058B000084643F07F510F97A6F2FF36169F41F43A
:1058C000401173E7269B002B40F0EA830D4B0393B6
:1058D00041E700BFAFF3008061436F63A787D23F0A
:1058E000B3C8608B288AC63FFB799F501344D33FCF
:1058F0000000F07FBD9800080000F83F309A0008D3
:10590000E4980008E0980008BE1B731E069300F19F
:1059100085840E900990069B5B44CDE9063B0023ED
:105920000D93229B092B98D90023CDE92233012620
:105930004FF0FF330C960893089B1293002161648B
:10594000204601F045FA0390002800F00186039BF1
:105950002364089B0E2B00F21381002E00F01081AF
:105960000799002940F35C84AE4B01F00F0203EB72
:10597000C2034FEA2118C905D3E9006740F1148436
:10598000A94BDDE90A01D3E90823FBF70DFACDE9BC
:10599000100108F00F084FF0030AB8F1000F13D000
:1059A000DFF8849218F0010F09D030463946D9E962
:1059B0000023FBF7CFF80AF1010A06460F465FEA1B
:1059C000680809F10809EDD1DDE9100132463B46CE
:1059D000FBF7EAF9804689460E9B43B1934B0022C0
:1059E00040464946FBF728FB002840F030855046EA
:1059F000FBF746F842464B46FBF7ACF88C4B0022CF
:105A0000FAF7F2FEA1F15073CDE910011193089B52
:105A1000002B00F09780079B1493089B13930C9B1B
:105A2000002B00F0A584139A7E4B8249039E03EB62
:105A3000C20353E902230020FBF7B6F9DDE9102386
:105A4000FAF7D0FECDE9100149464046FBF732FB9C
:105A50000746FBF715F802460B4640464946FAF75B
:105A6000C1FE3037DDE9102306F8017B8046894608
:105A7000FBF7E2FA002840F02985CDF854B0002762
:105A8000DDE910AB1095139D13942AE00137AF4266
:105A900080F22C85684B504659460022FBF75AF895
:105AA000654B002282468B4640464946FBF752F83A
:105AB00089468046FBF7FEFA0446FAF7E1FF024604
:105AC0000B4640464946FAF78DFE303406F8014B46
:105AD00052465B4680468946FBF7AEFA002840F006
:105AE000F38442464B4651490020FAF77BFE52466A
:105AF0005B46FBF7A1FA0028C8D0DDE91343109DEF
