:020000040800F2
:10000000000002208D1C00087119000873190008F7
:100010007519000877190008791900080000000018
:100020000000000000000000000000007B19000834
:100030007D190008000000007F19000881190008E0
:10004000DD1C0008DD1C0008DD1C0008DD1C0008AC
:10005000DD1C0008DD1C0008DD1C0008DD1C00089C
:10006000DD1C0008DD1C0008DD1C0008DD1C00088C
:10007000DD1C0008DD1C0008DD1C0008DD1C00087C
:10008000DD1C000889190008DD1C000800000000C4
:10009000000000000000000000000000DD1C00085F
:1000A000DD1C0008DD1C0008DD1C0008DD1C00084C
:1000B000DD1C0008DD1C0008DD1C0008DD1C00083C
:1000C000DD1C0008DD1C0008DD1C0008DD1C00082C
:1000D000DD1C0008DD1C0008DD1C0008000000001D
:1000E000DD1C0008DD1C0008DD1C0008000000000D
:1000F000000000000000000000000000DD1C0008FF
:1001000000000000DD1C0008DD1C0008DD1C0008EC
:1001100000000000000000000000000000000000DF
:10012000DD1C0008DD1C0008DD1C0008DD1C0008CB
:10013000DD1C0008000000000000000000000000BE
:1001400000000000000000000000000099190008F5
:10015000DD1C0008DD1C0008DD1C0008DD1C00089B
:10016000DD1C0008DD1C000800000000000000008D
:10017000000000000000000000000000000000007F
:1001800000000000DD1C000800000000000000006E
:08019000DD1C0008DD1C000865
:1001C00010B5054C237833B9044B13B10448AFF391
:1001D00000800123237010BD300B002000000000C0
:1001E000040E010808B5034B1BB103490348AFF3E4
:1001F000008008BD00000000340B0020040E010840
:1002000053B94AB9002908BF00281CBF4FF0FF317D
:100210004FF0FF3000F074B9ADF1080C6DE904CE79
:1002200000F006F8DDF804E0DDE9022304B07047D1
:100230002DE9F047089E0D4604468846002B4DD117
:100240008A42944668D9B2FA82F252B101FA02F3B4
:10025000C2F1200120FA01F10CFA02FC41EA030884
:1002600094404FEA1C45210CB8FBF5FE1FFA8CF7B1
:1002700005FB1E8341EA03430EFB07F199420BD9AC
:100280001CEB03030EF1FF3080F01E81994240F217
:100290001B81AEF1020E63445B1AA4B2B3FBF5F00E
:1002A00005FB103344EA034400FB07F7A7420AD9D1
:1002B0001CEB040400F1FF3380F00881A74240F2F8
:1002C000058164440238E41B40EA0E4000211EB15F
:1002D000D4400023C6E90043BDE8F0878B4208D92B
:1002E000002E00F0EE800021C6E900050846BDE8BA
:1002F000F087B3FA83F100294AD1AB4202D382429C
:1003000000F2F980841A65EB030301209846002E61
:10031000E2D0C6E90048DFE702B9FFDEB2FA82F2B6
:10032000002A40F09180A1EB0C054FEA1C471FFA10
:100330008CFE0121B5FBF7F307FB1350250C45EAB2
:1003400000450EFB03F0A84208D91CEB050503F19C
:10035000FF3802D2A84200F2CB8043462D1AA4B245
:10036000B5FBF7F007FB105544EA05440EFB00FE11
:10037000A64508D91CEB040400F1FF3502D2A645BE
:1003800000F2BB802846A4EB0E0440EA03409EE73F
:10039000C1F120078B4022FA07FC4CEA030C20FA3B
:1003A00007F405FA01F31C43FD404FEA1C4900FA2B
:1003B00001F3B5FBF9F8200C1FFA8CFE09FB185568
:1003C00040EA054508FB0EF0A84202FA01F20BD9FB
:1003D0001CEB050508F1FF3A80F08880A84240F246
:1003E0008580A8F1020865442D1AA4B2B5FBF9F086
:1003F00009FB105544EA054500FB0EFEAE4508D941
:100400001CEB050500F1FF346CD2AE456AD9023809
:10041000654440EA0840A0FB0294A5EB0E05A54206
:10042000C846A64656D353D05EB1B3EB080265EB7F
:100430000E0505FA07F722FA01F3CD401F43C6E97E
:1004400000750021BDE8F087C2F1200320FA03F116
:100450000CFA02FC25FA03F395400D434FEA1C47C2
:100460001FFA8CFEB3FBF7F107FB11302B0C43EAAC
:10047000004301FB0EF0984204FA02F408D91CEB89
:10048000030301F1FF382FD298422DD9023963447A
:100490001B1AADB2B3FBF7F007FB103345EA034577
:1004A00000FB0EF3AB4208D91CEB050500F1FF3849
:1004B00016D2AB4214D902386544ED1A40EA014124
:1004C00038E73146304607E78646E5E61846FAE65D
:1004D0004B45A9D2B9EB020864EB0C0E0138A3E737
:1004E0004046EAE7204694E74146D1E7D0467BE71D
:1004F000023B654432E7084609E76444023842E7B4
:10050000704700BF00000000000000000000000075
:1005100001F0FF01102A2BDB10F0070F08D010F8B4
:10052000013B013A8B422DD010F0070F42B3F6D1B8
:10053000F0B441EA012141EA014122F007047FF0D1
:1005400000070023F0E80256083C85EA010586EA28
:10055000010685FA47F5A3FA87F586FA47F6A5FA64
:1005600087F68EB9EED1F0BC01F0FF0102F0070270
:1005700032B110F8013B013A83EA010313B1F8D11B
:100580000020704701387047002D06BF35460338FC
:10059000073815F0010F07D1013015F4807F02BF35
:1005A000013015F4C03F0130F0BC0138704700BF86
:1005B000844641EA000313F003036DD1403A41D36E
:1005C00051F8043B40F8043B51F8043B40F8043B2D
:1005D00051F8043B40F8043B51F8043B40F8043B1D
:1005E00051F8043B40F8043B51F8043B40F8043B0D
:1005F00051F8043B40F8043B51F8043B40F8043BFD
:1006000051F8043B40F8043B51F8043B40F8043BEC
:1006100051F8043B40F8043B51F8043B40F8043BDC
:1006200051F8043B40F8043B51F8043B40F8043BCC
:1006300051F8043B40F8043B51F8043B40F8043BBC
:10064000403ABDD2303211D351F8043B40F8043B5C
:1006500051F8043B40F8043B51F8043B40F8043B9C
:1006600051F8043B40F8043B103AEDD20C3205D36C
:1006700051F8043B40F8043B043AF9D2043208D064
:10068000D2071CBF11F8013B00F8013B01D30B88D6
:1006900003806046704700BF082A13D38B078DD0B4
:1006A00010F003038AD0C3F10403D21ADB071CBF86
:1006B00011F8013B00F8013B80D331F8023B20F8F0
:1006C000023B7BE7043AD9D3013A11F8013B00F829
:1006D000013BF9D20B7803704B7843708B788370B1
:1006E00060467047000000000000000000000000AD
:1006F00000000000000000000000000000000000FA
:1007000090F800F06DE9024520F007016FF0000C51
:1007100010F0070491F820F040F049804FF00004F9
:100720006FF00700D1E9002391F840F000F10800D4
:1007300082FA4CF2A4FA8CF283FA4CF3A2FA8CF30C
:100740004BBBD1E9022382FA4CF200F10800A4FA73
:100750008CF283FA4CF3A2FA8CF3E3B9D1E90423C7
:1007600082FA4CF200F10800A4FA8CF283FA4CF3FE
:10077000A2FA8CF37BB9D1E9062301F1200182FAB8
:100780004CF200F10800A4FA8CF283FA4CF3A2FABE
:100790008CF3002BC6D0002A04BF04301A4612BACC
:1007A000B2FA82F2FDE8024500EBD2007047D1E9CF
:1007B000002304F00305C4F100004FEAC50514F05E
:1007C000040F91F840F00CFA05F562EA05021CBF2F
:1007D00063EA050362464FF00004A9E781F0004197
:1007E00002E000BF83F0004330B54FEA41044FEA16
:1007F000430594EA050F08BF90EA020F1FBF54EAB1
:10080000000C55EA020C7FEA645C7FEA655C00F04C
:10081000E2804FEA5454D4EB5555B8BF6D420CDD1D
:100820002C4480EA020281EA030382EA000083EAA0
:10083000010180EA020281EA0303362D88BF30BD40
:1008400011F0004F4FEA01314FF4801C4CEA113196
:1008500002D0404261EB410113F0004F4FEA0333F5
:100860004CEA133302D0524263EB430394EA050F80
:1008700000F0A780A4F10104D5F1200E0DDB02FAEF
:100880000EFC22FA05F2801841F1000103FA0EF283
:10089000801843FA05F359410EE0A5F120050EF149
:1008A000200E012A03FA0EFC28BF4CF0020C43FA7A
:1008B00005F3C01851EBE37101F0004507D54FF087
:1008C000000EDCF1000C7EEB00006EEB0101B1F5D7
:1008D000801F1BD3B1F5001F0CD349085FEA30001D
:1008E0004FEA3C0C04F101044FEA445212F5800F28
:1008F00080F09A80BCF1004F08BF5FEA500C50F1C5
:10090000000041EB045141EA050130BD5FEA4C0CA7
:10091000404141EB0101013C28BFB1F5801FE9D204
:1009200091F0000F04BF01460020B1FA81F308BF27
:100930002033A3F10B03B3F120020CDA0C3208DDF3
:1009400002F1140CC2F10C0201FA0CF021FA02F1CE
:100950000CE002F11402D8BFC2F1200C01FA02F13E
:1009600020FA0CFCDCBF41EA0C019040E41AA2BF63
:1009700001EB0451294330BD6FEA04041F3C1CDA2B
:100980000C340EDC04F11404C4F1200220FA04F04B
:1009900001FA02F340EA030021FA04F345EA0301F5
:1009A00030BDC4F10C04C4F1200220FA02F001FAB7
:1009B00004F340EA0300294630BD21FA04F0294639
:1009C00030BD94F0000F83F4801306BF81F48011D2
:1009D0000134013D4EE77FEA645C18BF7FEA655C45
:1009E00029D094EA050F08BF90EA020F05D054EA17
:1009F000000C04BF1946104630BD91EA030F1EBF1C
:100A00000021002030BD5FEA545C05D1400049411F
:100A100028BF41F0004130BD14F580043CBF01F512
:100A2000801130BD01F0004545F0FE4141F47001F8
:100A30004FF0000030BD7FEA645C1ABF19461046D3
:100A40007FEA655C1CBF0B46024650EA013406BFD4
:100A500052EA033591EA030F41F4002130BD00BF93
:100A600090F0000F04BF0021704730B54FF4806450
:100A700004F132044FF000054FF0000150E700BFD1
:100A800090F0000F04BF0021704730B54FF4806430
:100A900004F1320410F0004548BF40424FF000011D
:100AA0003EE700BF42004FEAE2014FEA31014FEA60
:100AB00002701FBF12F07F4393F07F4F81F06051AF
:100AC000704732F07F4208BF704793F07F4F04BFFA
:100AD00041F40021704730B54FF4607401F00045D7
:100AE00021F000411CE700BF50EA010208BF704737
:100AF00030B54FF000050AE050EA010208BF704728
:100B000030B511F0004502D5404261EB41014FF490
:100B1000806404F132045FEA915C3FF4D8AE4FF098
:100B200003025FEADC0C18BF03325FEADC0C18BF7B
:100B3000033202EBDC02C2F1200300FA03FC20FACC
:100B400002F001FA03FE40EA0E0021FA02F1144419
:100B5000BDE600BF70B54FF0FF0C4CF4E06C1CEA32
:100B600011541DBF1CEA135594EA0C0F95EA0C0FA3
:100B700000F0DEF82C4481EA030621EA4C5123EA16
:100B80004C5350EA013518BF52EA033541F4801145
:100B900043F4801338D0A0FB02CE4FF00005E1FBF8
:100BA00002E506F00042E0FB03E54FF00006E1FB42
:100BB00003569CF0000F18BF4EF0010EA4F1FF0485
:100BC000B6F5007F64F5407404D25FEA4E0E6D41C5
:100BD00046EB060642EAC62141EA55514FEAC520D6
:100BE00040EA5E504FEACE2EB4F1FD0C88BFBCF552
:100BF000E06F1ED8BEF1004F08BF5FEA500E50F103
:100C0000000041EB045170BD06F0004646EA0101C8
:100C100040EA020081EA0301B4EB5C04C2BFD4EBFA
:100C20000C0541EA045170BD41F480114FF0000EF3
:100C3000013C00F3AB8014F1360FDEBF002001F061
:100C4000004170BDC4F10004203C35DA0C341BDCDB
:100C500004F11404C4F1200500FA05F320FA04F0AD
:100C600001FA05F240EA020001F0004221F00041E1
:100C700010EBD37021FA04F642EB06015EEA430E54
:100C800008BF20EAD37070BDC4F10C04C4F1200584
:100C900000FA04F320FA05F001FA04F240EA020037
:100CA00001F0004110EBD37041F100015EEA430E08
:100CB00008BF20EAD37070BDC4F1200500FA05F228
:100CC0004EEA020E20FA04F301FA05F243EA0203A7
:100CD00021FA04F001F0004121FA04F220EA0200B6
:100CE00000EBD3705EEA430E08BF20EAD37070BDFC
:100CF00094F0000F0FD101F00046400041EB0101DC
:100D000011F4801F08BF013CF7D041EA060195F0BD
:100D1000000F18BF704703F00046520043EB030377
:100D200013F4801F08BF013DF7D043EA0603704764
:100D300094EA0C0F0CEA135518BF95EA0C0F0CD06F
:100D400050EA410618BF52EA4306D1D181EA0301B5
:100D500001F000414FF0000070BD50EA410606BFAF
:100D60001046194652EA430619D094EA0C0F02D1F4
:100D700050EA013613D195EA0C0F05D152EA033639
:100D80001CBF104619460AD181EA030101F0004157
:100D900041F0FE4141F470014FF0000070BD41F0A0
:100DA000FE4141F4780170BD70B54FF0FF0C4CF47A
:100DB000E06C1CEA11541DBF1CEA135594EA0C0F99
:100DC00095EA0C0F00F0A7F8A4EB050481EA030EE6
:100DD00052EA03354FEA013100F088804FEA0333CD
:100DE0004FF0805545EA131343EA12634FEA02229B
:100DF00045EA111545EA10654FEA00260EF000415C
:100E00009D4208BF964244F1FD0404F5407402D2AD
:100E10005B084FEA3202B61A65EB03055B084FEA3E
:100E200032024FF480104FF4002CB6EB020E75EB3B
:100E3000030E22BFB61A754640EA0C005B084FEA63
:100E40003202B6EB020E75EB030E22BFB61A7546E0
:100E500040EA5C005B084FEA3202B6EB020E75EB2B
:100E6000030E22BFB61A754640EA9C005B084FEAA3
:100E70003202B6EB020E75EB030E22BFB61A7546B0
:100E800040EADC0055EA060E18D04FEA051545EA9F
:100E900016754FEA06164FEAC30343EA52734FEA48
:100EA000C2025FEA1C1CC0D111F4801F0BD141EAC1
:100EB00000014FF000004FF0004CB6E711F4801F26
:100EC00004BF01430020B4F1FD0C88BFBCF5E06F06
:100ED0003FF6AFAEB5EB030C04BFB6EB020C5FEA16
:100EE000500C50F1000041EB045170BD0EF0004E6B
:100EF0004EEA113114EB5C04C2BFD4EB0C0541EA9D
:100F0000045170BD41F480114FF0000E013C90E699
:100F100045EA060E8DE60CEA135594EA0C0F08BF5D
:100F200095EA0C0F3FF43BAF94EA0C0F0AD150EA5C
:100F300001347FF434AF95EA0C0F7FF425AF1046EF
:100F400019462CE795EA0C0F06D152EA03353FF417
:100F5000FDAE1046194622E750EA410618BF52EA94
:100F600043067FF4C5AE50EA41047FF40DAF52EA68
:100F700043057FF4EBAE12E74FF0FF3C06E000BF05
:100F80004FF0010C02E000BF4FF0010C4DF804CD12
:100F90004FEA410C7FEA6C5C4FEA430C18BF7FEAD2
:100FA0006C5C1BD001B050EA410C0CBF52EA430C00
:100FB00091EA030F02BF90EA020F0020704710F180
:100FC000000F91EA030F58BF994208BF90422CBF0F
:100FD000D8176FEAE37040F0010070474FEA410C08
:100FE0007FEA6C5C02D150EA013C07D14FEA430C26
:100FF0007FEA6C5CD6D152EA033CD3D05DF8040B97
:10100000704700BF8446104662468C4619466346C8
:1010100000E000BF01B5FFF7B7FF002848BF10F19F
:10102000000F01BD4DF808EDFFF7F4FF0CBF0120E4
:1010300000205DF808FB00BF4DF808EDFFF7EAFF60
:1010400034BF012000205DF808FB00BF4DF808ED1B
:10105000FFF7E0FF94BF012000205DF808FB00BF10
:101060004DF808EDFFF7CEFF94BF012000205DF89A
:1010700008FB00BF4DF808EDFFF7C4FF34BF0120A7
:1010800000205DF808FB00BF4FEA410C7FEA6C5C72
:1010900002D150EA013C0AD14FEA430C7FEA6C5C72
:1010A00002D152EA033C02D14FF0000070474FF0EA
:1010B000010070474FEA410212F5001215D211D516
:1010C0006FF47873B3EB625212D94FEAC12343F045
:1010D000004343EA505311F0004F23FA02F018BFC7
:1010E000404270474FF00000704750EA013005D190
:1010F00011F0004008BF6FF0004070474FF0000053
:10110000704700BF10B59AB00446084619AB1022CC
:10111000694606F08AFF9DF800309DF8012042EAFA
:10112000032222809DF805009DF804100B0443EA79
:1011300000639DF8030043EA00230B4363609DF8BE
:1011400007109DF8063043EA012323819DF809101A
:101150009DF8083043EA012363819DF80D109DF846
:101160000C301B0443EA01639DF80B1043EA012392
:101170009DF80A100B43E36044F24D239A4202D0DB
:1011800000201AB010BD0120FBE730B59BB004462B
:101190000D460E21284607F08AF819AB2822694629
:1011A000284606F042FF9DF803209DF802301B04FC
:1011B00043EA02639DF8012043EA02239DF80020E0
:1011C000134323609DF807209DF806301B0443EA73
:1011D00002639DF8052043EA02239DF8042013438F
:1011E00063609DF80B209DF80A301B0443EA0263FC
:1011F0009DF8092043EA02239DF808201343A360C9
:101200009DF80D209DF80C3043EA0223A3819DF840
:101210000F209DF80E3043EA0223E3819DF813204E
:101220009DF812301B0443EA02639DF8112043EA43
:1012300002239DF81020134323619DF817209DF889
:1012400016301B0443EA02639DF8152043EA02238B
:101250009DF81420134363619DF81B209DF81A30FC
:101260001B0443EA02639DF8192043EA02239DF818
:1012700018201343A3619DF81F209DF81E301B0406
:1012800043EA02639DF81D2043EA02239DF81C20D7
:101290001343E3619DF823209DF822301B0443EAA9
:1012A00002639DF8212043EA02239DF82020134386
:1012B00023629DF827209DF826301B0443EA026331
:1012C0009DF8252043EA02239DF8242013436362FE
:1012D0001BB030BD10B5084C4FF4C063074A042161
:1012E000204602F0E9FE642000F04CFD0421204677
:1012F00003F00CF810BD00BF90240020D40B002098
:1013000008B5002304E00B4A232142F823100133DF
:10131000B3F5B46FF7D34FF4B46304E0054A00218A
:1013200042F823100133B3F5C06FF7D3FFF7D2FFB4
:1013300008BD00BFD40B0020000240EA014010436A
:10134000704700003B2816D97047232500EB400466
:1013500002EBC4020B4C44F822500133DBB2172BD2
:1013600007D81A4601FA03F414F4000FEDD046250D
:10137000ECE730BC70470023172B01D830B4F0E7FE
:10138000704700BFD40B00203C2818D97047232297
:1013900005EB45030CEBC30C0E4B43F82C2001343A
:1013A000E4B2172C13D8424639463046FFF7C4FF43
:1013B000A446A04010F4000FE9D04622E8E72DE94A
:1013C000F04105460E46174698460024E9E7BDE879
:1013D000F08100BFD40B0020F0B583B005460C4669
:1013E000164601462046FFF78DFE08B903B0F0BD52
:1013F00029463046FFF7C9FEE168284606F057FF48
:10140000F389182B01D00020F0E7FFF779FFB768C8
:10141000013F21E001AB03226946284606F005FEA4
:101420009DF80210114A04EB440302EB030CD15463
:101430009DF801208CF801209DF800308CF80230D6
:10144000DB08D208C908A0B2FFF79EFF013C002CC0
:10145000E0DAFFF73FFF013F002F02DB7468013C39
:10146000F5E7FFF74DFF0120C0E700BF8C0B002020
:1014700008B5C043C0B254280ED9A92817D9563090
:10148000C0B2A0EB8001013900EB40000022C9B2DC
:10149000C0B2FFF751FF08BD00EB4002A0EB800097
:1014A0000138D2B20021C0B2FFF746FFF3E755384A
:1014B000C1B2A1EB8102013A01EB4101D2B2C9B242
:1014C0000020FFF739FFE6E710B5044600F054FCB2
:1014D000154B1B689C4211D9002214EB000C42EB07
:1014E0000201914208BF9C451AD0104A137801337B
:1014F000137004440C4B1C6000240FE083420FD295
:10150000F3E70A4B187850FA84F0C0B2FFF7B0FF47
:1015100001462046FFF716FF0134A4B23B2CF0D958
:10152000FFF7D8FE10BD00BF500B00204C0B002071
:1015300000B583B000210191094B1A6B42F40012EF
:101540001A631B6B03F400130193019B0A461120DD
:1015500000F03EFC112000F073FC03B05DF804FBCA
:1015600000380240F0B589B0002403940494059437
:10157000069407940094244B1A6B42F080021A637D
:101580001A6B02F080020092009A01941A6B42F0EA
:1015900001021A631A6B02F001020192019A02948D
:1015A0001A6B42F002021A631B6B03F002030293F0
:1015B000029B164E22461021304600F064FF144F65
:1015C00001224FF48071384600F05DFF012503953C
:1015D0000494059503A9304600F06EFE1023039392
:1015E00004950594069403A9304600F065FE4FF477
:1015F00080730393049502230593069403A9384648
:1016000000F05AFE09B0F0BD003802400000024070
:10161000000402400EB430B5A2B0054625AB53F825
:10162000042B2193802101A809F0E0FC04464FF02F
:10163000FF3382B201A9284603F017F8204622B0F2
:10164000BDE8304003B0704772B6FEE700B595B014
:101650003022002108A807F0B9FE00230393049369
:101660000593069307930193204A116C41F0805132
:101670001164126C02F080520192019A02931C4B89
:101680001A6842F440421A601B6803F44043029314
:10169000029B012308934FF48033099302230E9396
:1016A0004FF480030F93192310934FF4A8731193F1
:1016B000042312930723139308A801F0A5FC80B913
:1016C0000F23039302210491002305934FF48052CA
:1016D0000692079303A801F0E5FE20B915B05DF866
:1016E00004FBFFF7B1FFFFF7AFFF00BF0038024078
:1016F0000070004000B5ADF5805D87B000F016FBCE
:10170000FFF7A4FFFFF72EFFFFF712FF00F014FA18
:1017100000F0BAF803F0E8FD07F07AFA00F062FA98
:10172000FFF7EEFD414A0DF580530C3307CA03C3A2
:101730001A700021039140F6FC7204A807F046FEDF
:101740003B493C48FFF766FF01223B493B4806F016
:101750002BFB00284AD13A493648FFF75BFF0122AC
:101760000DF580510C31374806F04CFB364B1870A4
:1017700000284CD0024635492E48FFF74BFF34492C
:101780002C48FFF747FF334B334A34492D48FFF7C6
:1017900023FE002840D032492648FFF73BFF294866
:1017A00006F070FD284B187000283AD002462D49EB
:1017B0002048FFF72FFF1F4C1D492046FFF72AFF47
:1017C000254DAB686A6828492046FFF723FFEA8960
:1017D00026492046FFF71EFF0121254800F04CFE58
:1017E0000028F9D11420FFF76FFEF5E7164C227898
:1017F00020491048FFF70EFF4FF48053009303ABCE
:10180000002202211C4806F097FE2070A7E71B4922
:101810000848FFF7FFFEB2E719490648FFF7FAFE4E
:10182000BDE718490348FFF7F5FEC4E72C0F010890
:10183000200E0108D8240020802900202025002027
:10184000380E01085027002084290020640E01086A
:101850009C0E01088C0B0020640B0020540B002010
:10186000B40E0108D80E0108080F0108200F010866
:1018700000000240500E0108040F0108800E01080C
:10188000C80E0108F00E010808B50D480D4B0360A5
:101890004FF48273436000238360C360036143613C
:1018A0004FF400728261C3610362436283620A2360
:1018B000C36201F06BFF00B908BDFFF7C5FEFBE78F
:1018C000D42300200030014000B589B000230393E9
:1018D00004930593069307930268154B9A4202D02E
:1018E00009B05DF804FB0021019103F584335A6CC3
:1018F00042F480525A645A6C02F480520192019A66
:1019000002911A6B42F001021A631B6B03F0010390
:101910000293029BE0230393022304930323069381
:101920000523079303A9034800F0C6FCD8E700BFCE
:10193000003001400000024082B0002100910B4BBA
:101940005A6C42F480425A645A6C02F4804200920B
:10195000009A01911A6C42F080521A641B6C03F0D9
:1019600080530193019B02B0704700BF00380240D2
:10197000FEE7FEE7FEE7FEE7FEE7704770477047C9
:1019800008B500F0EDF908BD08B5024800F0A6FB67
:1019900008BD00BF3024002008B5024800F03CFF1D
:1019A00008BD00BF8C2E00200120704708B507F04D
:1019B000E3FC162303604FF0FF3008BD08B54FF07D
:1019C000FF31FFF7F3FFFEE770B50C461646002522
:1019D00006E0AFF30080214601F8010B01350C460B
:1019E000B542F6DB304670BD70B50C461646002594
:1019F00004E014F8010BAFF300800135B542F8DBC9
:101A0000304670BD4FF0FF3070474FF400534B60CD
:101A100000207047012070470020704710B5034632
:101A20000C4A0D490D48006840B10C480068034459
:101A3000521A934206D8094A136010BD0748084C51
:101A40000460F2E707F098FC0C2303604FF0FF30CE
:101A5000F3E700BF00000220001200002C24002049
:101A600058450020704700000368B3F1804F00D054
:101A7000704710B582B0044600230193164A116CDA
:101A800041F001011164126C02F001020192019A0D
:101A90001248134A02604FF0C062426040228260E6
:101AA000C3604FF4806202614FF4805242614FF490
:101AB000804282614FF48072C2610362436200F02F
:101AC0005FFA30B9054BA3629C6323639C6302B049
:101AD00010BDFFF7B9FDF5E70038024030240020C3
:101AE000A060024000B587B00023019302930393E6
:101AF000049305930368B3F1804F02D007B05DF8FB
:101B000004FB002300930A4B1A6B42F002021A6393
:101B10001B6B03F002030093009B08230193022335
:101B200002930123059301A9024800F0C5FBE5E7F4
:101B3000003802400004024000B58FB000230A9331
:101B40000B930C930D9308930993019302930393C2
:101B5000049305930693079321484FF08042026057
:101B6000436083606822C2600361836102F012F9FE
:101B700030BB4FF480530A930AA9194802F00EFAB9
:101B800008BB174802F032F900BB00230893099301
:101B900008A9134802F030FCD8B960230193002350
:101BA00002930393059304220DEB02010C4802F00B
:101BB0007BF988B90A48FFF795FF0FB05DF804FB81
:101BC000FFF742FDD5E7FFF73FFDDAE7FFF73CFD02
:101BD000DBE7FFF739FDE0E7FFF736FDEAE700BF97
:101BE0009024002008B50A480A4B03604FF4E13303
:101BF000436000238360C36003610C224261836100
:101C0000C36102F003FD00B908BDFFF71DFDFBE74E
:101C1000D82400200010014000B589B000230393B0
:101C20000493059306930793026803F1804303F539
:101C300088339A4202D009B05DF804FB002101917B
:101C400003F594335A6C42F010025A645A6C02F055
:101C500010020192019A02911A6B42F001021A637A
:101C60001B6B03F001030293029B4FF4C0630393C9
:101C700002230493032306930723079303A902482F
:101C800000F01AFBD7E700BF00000240DFF834D0B5
:101C90000D480E490E4A002302E0D458C4500433C4
:101CA000C4188C42F9D30B4A0B4C002301E013609B
:101CB0000432A242FBD3FFF7D5FE07F063FBFFF728
:101CC00019FD70470000022000000020300B0020AA
:101CD00074140108300B002054450020FEE700007A
:101CE00010B504460E4B18784FF47A73B3FBF0F33B
:101CF0000C4A1068B0FBF3F000F0B0F868B90F2C94
:101D000001D901200AE0002221464FF0FF3000F007
:101D10005FF8054B1C60002000E0012010BD00BFF3
:101D200004000020000000200800002008B50B4B34
:101D30001A6842F400721A601A6842F480621A60EB
:101D40001A6842F480721A60032000F02FF80F2006
:101D5000FFF7C6FFFFF7F0FD002008BD003C024082
:101D6000034A1168034B1B780B441360704700BF94
:101D70001C25002004000020014B1868704700BF9C
:101D80001C25002038B50446FFF7F6FF0546B4F1E0
:101D9000FF3F02D0044B1B781C44FFF7EDFF401BB4
:101DA000A042FAD338BD00BF04000020074AD36820
:101DB00023F4E0631B041B0C000200F4E060034307
:101DC00043F0BF6343F40033D360704700ED00E09D
:101DD00000B5194BDB68C3F30223C3F1070CBCF158
:101DE000040F28BF4FF0040C03F1040EBEF1060FE0
:101DF00018D9033B4FF0FF3E0EFA0CFC21EA0C0110
:101E000099400EFA03F322EA0303194300280BDB7F
:101E10000901C9B200F1604000F5614080F800138B
:101E20005DF804FB0023E5E700F00F000901C9B2EB
:101E3000024B1954F4E700BF00ED00E014ED00E0A0
:101E4000002807DB00F01F02400901239340024AEB
:101E500042F82030704700BF00E100E00138B0F1E7
:101E6000807F0BD24FF0E0235861054AF02182F8C1
:101E700023100020986107221A61704701207047E3
:101E800000ED00E030B405682C6824F480242C6058
:101E9000046863608368402B05D003689960036819
:101EA000DA6030BC704703689A600368D960F8E76D
:101EB00010B40368D9B210390B4AA2FB01421209CF
:101EC0000A4CA25CC2655F2908D923F47F7323F012
:101ED000030304338365806D10BC704723F47F7364
:101EE00023F003038365F6E7ABAAAAAA500F010803
:101EF000836A826992B9012B0AD0022B02D00BB1FE
:101F000000207047C36A13F0807F28D100207047FB
:101F1000C36AB3F1C07F24D000207047B2F5005FE0
:101F200009D0022B25D9032B25D1C36A13F0807F5A
:101F300023D100207047032B03D8DFE803F01404FB
:101F4000140A00207047C36A13F0807F0DD100206F
:101F50007047C36AB3F1C07F09D0002070470120E9
:101F60007047012070470120704701207047012011
:101F70007047012070470020704701207047000023
:101F800070B50446FFF7F8FE002C5BD0054602232F
:101F900084F83530002384F834302268136823F045
:101FA0000103136023681A6812F0010F0AD0FFF7CB
:101FB000E3FE431B052BF5D920236365032084F83A
:101FC000350070BD1A68204810406168A2680A4355
:101FD000E1680A4321690A4361690A43A1690A4326
:101FE000E1690A43216A0A430243616A04291ED057
:101FF0001A602668756925F00705636A1D43042B7E
:1020000007D1A36A1D43E36A1BB12046FFF770FFA7
:1020100090B975612046FFF74BFFE26D3F23934077
:10202000836000206065012384F83530C9E7E16AE8
:10203000206B01430A43DBE740236365012084F8FA
:102040003500BEE70120BCE73F8010F038B50446FC
:10205000856D90F8340001282BD0012084F83400DD
:1020600094F83500C0B2012804D0002384F834303D
:10207000022038BD022084F835000020606520462B
:10208000FFF700FFE26D3F239340AB6022681368C7
:1020900043F016031360236C23B12268136843F0E6
:1020A000080313602268136843F0010313600020E3
:1020B000DFE70220DDE790F83530DBB2022B03D0FA
:1020C0008023436501207047052380F8353002687E
:1020D000136823F00103136000207047F0B583B04C
:1020E000044600230193724B1D68724BA3FB053518
:1020F000AD0A876D3E68C26D08239340334210D00D
:1021000003681A6812F0040F0BD01A6822F0040258
:102110001A60C26D08239340BB60436D43F0010316
:102120004365E26D01239340334209D0226852692E
:1021300012F0800F04D0BB60636D43F0020363654F
:10214000E26D04239340334209D02268126812F0F2
:10215000020F04D0BB60636D43F004036365E26D5E
:1021600010239340334224D02268126812F0080FE3
:102170001FD0BB6023681A6812F4802F0DD01B6833
:1021800013F4002F04D1236C9BB12046984710E034
:10219000A36C73B1204698470BE01A6812F4807F55
:1021A00003D11A6822F008021A60236C0BB1204692
:1021B0009847E26D20239340334255D0226812683D
:1021C00012F0100F50D0BB6094F83530DBB2052B05
:1021D0000ED023681A6812F4802F33D01B6813F4D2
:1021E000002F2AD1636C002B3ED0204698473BE05D
:1021F0002268136823F0160313602268536923F0E2
:1022000080035361236CA3B12268136823F0080391
:102210001360E26D3F239340BB60012384F83530A7
:10222000002384F83430236D002B3FD0204698479C
:102230003CE0A36C002BE7D1EBE7E36BA3B12046B6
:10224000984711E01A6812F4807F09D11A6822F0C9
:1022500010021A60012384F83530002384F83430EA
:10226000E36B0BB120469847636DFBB1636D13F0D0
:10227000010F17D0052384F835302268136823F046
:1022800001031360019B01330193AB4204D823681F
:102290001B6813F0010FF5D1012384F835300023BA
:1022A00084F83430E36C0BB12046984703B0F0BD9E
:1022B00000000020B5814E1B00230F2B00F2D280BE
:1022C00070B582B060E085685E000324B44025EA02
:1022D0000405CC68B4402C438460456825EA0205B7
:1022E0004C68C4F300129A402A4342605AE0DC086A
:1022F000083450F8246003F0070295000F22AA402A
:1023000026EA020E0A69AA4042EA0E0240F8242098
:102310005CE0042200E0002202FA0EF22A430234BA
:10232000514D45F82420514A14686FEA0C0224EA02
:102330000C054E6816F4803F01D04CEA04054B4C66
:102340002560646802EA04054E6816F4003F01D077
:102350004CEA0405454C6560A46802EA04054E6831
:1023600016F4801F01D04CEA0405404CA560E468D7
:1023700022404D6815F4001F01D04CEA04023B4C8A
:10238000E26001330F2B6BD801229A400C6804EAFB
:10239000020C32EA0404F4D14C6804F00304013C5A
:1023A000012C90D94A6802F00302032A09D0C468BC
:1023B0005D000322AA4024EA02048A68AA4022435C
:1023C000C2604A6802F00302022A90D004684FEA11
:1023D000430E032202FA0EF224EA02044A6802F0D3
:1023E000030202FA0EF2224302604A6812F4403FEE
:1023F000C7D0002201921E4A546C44F480445464B5
:10240000526C02F480420192019A9C08A51C164A63
:1024100052F8255003F003024FEA820E0F2202FA0F
:102420000EF225EA0205134A90423FF474AF02F51A
:10243000806290420ED002F5806290420CD002F58C
:10244000806290420AD002F5806290423FF461AF10
:10245000072261E701225FE702225DE703225BE7D3
:1024600002B070BD704700BF00380140003C014021
:1024700000380240000002400369194201D00120E7
:102480007047002070470AB181617047090481617B
:1024900070472DE9F04383B0D0F80080C1EBC10351
:1024A00000EB83035A6D1B6D9A4254D807460C46C5
:1024B0009B1AC1EBC10200EB8202526C9A4200D31C
:1024C0001A4602F103094FEA990915E006F10309DA
:1024D0004FEA9909C4EBC40507EB8505A96C3B7C61
:1024E0000093B3B2E2B2404602F076FCAB6C3344E8
:1024F000AB646B6D33446B6508EB441303F51063F9
:102500009B699BB24B4512D3C4EBC40207EB82021A
:10251000516D136D99420AD24BB15B1AC4EBC402E0
:1025200007EB8202566C9E42D0D31E46CEE7C4EB28
:10253000C40007EB80073A6D7B6D9A420FD804F018
:102540000F040123A340D8F8344824EA0304C8F850
:102550003448002000E0012003B0BDE8F0830020F3
:10256000FAE770B58AB0002800F09080054604684C
:1025700090F8BD333BB3032385F8BD33E36B13F40D
:10258000807F01D100232B61286802F0BFF92C461F
:1025900054F8106BEC460FCCACE80F000FCCACE855
:1025A0000F0094E803008CE803002B1D0ECB30468F
:1025B00002F0EEF8044658B1022385F8BD33012439
:1025C00020460AB070BD80F8BC3306F00BFCD2E7A1
:1025D0000021286802F019FE234616E0C3EBC3026F
:1025E00005EB8202012182F83D1082F83C30A2F80E
:1025F0004230002182F83F1051649164C3EBC30262
:1026000005EB820211650133DBB269688B42E5D3C9
:1026100016E0C4EBC40305EB8303002283F8FD211D
:1026200083F8FC4183F8FF21C3F80422C3F8082291
:10263000C4EBC40305EB8303C3F810220134E4B2F6
:10264000A142E6D82C4654F8106BEC460FCCACE80F
:102650000F000FCCACE80F0094E803008CE80300F7
:102660002B1D0ECB304602F08DF9044620B102231B
:1026700085F8BD330124A3E7002385F83830012312
:1026800085F8BD33286802F07EFD99E7012497E7BD
:10269000026890F8BC33012B19D010B50446012311
:1026A00080F8BC33836A012B09D0206802F028F936
:1026B000206802F05AFD002084F8BC0310BD836935
:1026C000012BF2D0936B43F480339363EDE7022048
:1026D0007047000070B504460D460068066C00EBBC
:1026E000411303F530639A682169012911D03449F7
:1026F0008E424ED03DB9C5EBC50304EB8303D3F83E
:102700001032002B56D0E9B2204606F0B5FB00206F
:1027100070BD12F0080F09D02A498E42F7D912F481
:10272000004FF4D04FF400429A60F0E712F0200F0F
:1027300002D020229A60EAE712F0280FE7D121495F
:102740008E4206D912F4004F03D04FF400429A6033
:10275000DDE7C5EBC50204EB8202D2F804121B6967
:10276000C3F31203CB1AC2F81432D2F808320B4466
:10277000C2F8083215B9D2F8103223B1E9B22046B6
:1027800006F07AFBC3E704F57172012102F07EFDC9
:10279000F4E712F4004F03D04FF400429A60B6E71A
:1027A00012F0200F01D020229A60E9B2204606F0F4
:1027B00063FBACE704F57172002102F067FDA2E74C
:1027C0000A31544F0A30544F38B5044603681D6C23
:1027D00003EB4113D3F8081B0E4A954207D903F5C2
:1027E000306311F4004F02D04FF400429A6020464B
:1027F00006F03AFB074B9D4202D92369012B01D019
:10280000002038BD04F571720121206802F03EFD00
:10281000F6E700BF0A30544F2DE9F84F044605682B
:10282000284602F0EEFC08B1BDE8F88F06462068A5
:1028300002F0B7FC0028F7D0206802F0B2FC10F0DC
:10284000020F04D02268536903F002035361206829
:1028500002F0A7FC10F0100F13D02268936923F048
:10286000100393612F6A07F00F08C7F34343022B4D
:1028700068D0062B00F084802268936943F010032F
:102880009361206802F08DFC10F4002F40F08A80E4
:10289000206802F086FC10F4802F40F0CC80206885
:1028A00002F07FFC0028C0F23681206802F079FC3B
:1028B00010F4006F0AD0D5F8083813F0010F40F07B
:1028C00044812268536903F400635361206802F075
:1028D00068FC10F4805F40F03C81206802F061FCED
:1028E00010F4005F40F09181206802F05AFC10F073
:1028F000080F40F0A281206802F053FC10F4801F02
:1029000040F0A481206802F04CFC10F4001F40F05D
:10291000A781206802F045FC10F0804F40F0AA81AA
:10292000206802F03EFC10F0040F3FF47DAF2368F6
:102930005D6815F0040F40F0A681226853682B43B0
:10294000536071E747F6F0731F4295D04FEA171BAB
:10295000C8EBC80904EB8909C7F30A12D9F80812B1
:10296000284602F06DFBCBF30A02D9F80832134473
:10297000C9F80832D9F814321A44C9F814227BE78E
:10298000082204F57171284602F05AFBC7F30A17B2
:10299000C8EBC80204EB8202D2F814321F44C2F81A
:1029A000147269E7206802F000FC0746B04616E0A2
:1029B00005EB48130122C3F8082B41462046FFF7D8
:1029C00089FE1BE005EB48130822C3F8082B41469B
:1029D0002046FFF7F9FE14E008F101087F08002FF8
:1029E0003FF456AF17F0010FF6D05FFA88F1206878
:1029F00002F0EBFB814610F0010FD9D119F0080F5E
:102A0000E0D119F0100F04D005EB48131022C3F8E1
:102A1000082B19F0200F04D005EB48132022C3F82F
:102A2000082B19F4005FD7D005EB48134FF4005280
:102A3000C3F8082BD0E7206802F0BFFB0746B0467A
:102A400029E05146204606F023FA19F0080F04D079
:102A500005EB48130822C3F8082919F0100F04D019
:102A600005EB48131022C3F8082919F0400F04D0D1
:102A700005EB48134022C3F8082919F0020F04D0CF
:102A800005EB48130222C3F8082919F0800F3DD145
:102A900008F101087F08002F3FF401AF17F0010F84
:102AA000F6D05FFA88FA5146206802F097FB81461B
:102AB00010F0010FC9D008F00F03012101FA03F251
:102AC000D5F8343823EA0203C5F8343805EB481347
:102AD000C3F8081923698B42B3D1C8EBC80304EBD0
:102AE0008303596C9A6C0A449A64B8F1000FA8D118
:102AF000C8EBC80304EB83031B6D002BA1D104F5C5
:102B000071720121206802F0C1FB9AE7414620461C
:102B1000FFF7BFFCBCE7D5F8043823F00103C5F884
:102B2000043894F8F433012B08D0204606F0ECF971
:102B30002268536903F000435361B6E6002184F82C
:102B4000F413204600F05FFAF2E7204606F0C4F9DD
:102B5000B7E605F500677B6823F001037B60102171
:102B6000206801F0D9FE20E005EB46134FF67F31D7
:102B7000C3F80819D3F8002922F40012C3F8002979
:102B8000D3F8002942F00062C3F80029C3F8081BFB
:102B9000D3F8002B22F40012C3F8002BD3F8002B3B
:102BA00042F00062C3F8002B01366368B342DBD801
:102BB000FB6943F00113FB61236BDBB1D7F8843071
:102BC00043F00B03C7F884307B6C43F00B037B644A
:102BD000D5F8003823F4FE63C5F8003804F57172A7
:102BE000217C206802F052FB2268536903F4805371
:102BF000536172E67B6943F4005343F02B037B611E
:102C00003B6943F00B033B61E2E7206802F02EFBD7
:102C1000206801F07FFFE060256800F0F3FC0146CA
:102C2000227B284601F0FAFD204606F042F9226890
:102C3000536903F40053536156E6204606F033F916
:102C40002268536903F00803536154E600212046CB
:102C500006F066F92268536903F48013536151E664
:102C60000021204606F056F92268536903F4001348
:102C700053614EE6204606F059F92268536903F085
:102C8000804353614CE6204606F056F955E690F82D
:102C9000BC33012B0DD010B50446012380F8BC33A2
:102CA00080F83810006802F050FA002084F8BC0365
:102CB00010BD0220704738B505468C4611F0800FD4
:102CC00029D101F00F0ECEEBCE04A40004F5FC7464
:102CD0000444211DCEEBCE0E00EB8E0E00208EF8AC
:102CE000FD010CF00F0C81F800C08A60CB704A78AF
:102CF0000AB1A1F806C0022B1DD095F8BC33012BF8
:102D00001CD0012385F8BC33286801F014FF002093
:102D100085F8BC0338BD01F00F00C0EBC00189008D
:102D2000383129440431C0EBC00005EB8000012498
:102D300080F83D40D5E700230B71DEE70220E9E78C
:102D400010B504460A4611F0800F20D101F00F00A3
:102D5000C0EBC0039B0003F5FC732344191DC0EBBB
:102D6000C00004EB8000002380F8FD3102F00F0268
:102D70000A7094F8BC33012B19D0012384F8BC33BA
:102D8000206801F027FF002084F8BC0310BD01F08B
:102D90000F00C0EBC0039B0038332344191DC0EB68
:102DA000C00004EB8000012380F83D30DEE7022004
:102DB000ECE710B501F00F04C4EBC401890001F584
:102DC000FC7101440431C4EBC40C00EB8C0CCCF856
:102DD0000822CCF810320023CCF814328CF8FD31E4
:102DE0008CF8FC410369012B06D064B9DAB20068A3
:102DF00001F060FF002010BDC4EBC40C00EB8C0C94
:102E0000CCF80C22F1E7DAB2006801F0FDFFF1E73F
:102E100001F00F01C1EBC10100EB8101D1F81402F7
:102E2000704710B501F00F04C4EBC40189003831BC
:102E300001440431C4EBC40C00EB8C0CCCF84820EA
:102E4000CCF850300023CCF8543001238CF83D30BE
:102E50008CF83C400369012B06D064B9DAB20068F3
:102E600001F028FF002010BDC4EBC40C00EB8C0C5B
:102E7000CCF84C20F1E7DAB2006801F0C5FFF1E7C9
:102E800038B501F00F054268954239D804460B4623
:102E900011F0800F1FD1C1EBC101890001F5FC7158
:102EA00001440431C3EBC30300EB8303002283F826
:102EB000FD2101238B700D7094F8BC33012B21D0C0
:102EC000012384F8BC33206802F0E4F88DB10020BF
:102ED00084F8BC0338BDC5EBC50189003831014415
:102EE0000431C5EBC50300EB8303012283F83D20C9
:102EF000DFE704F57172217C206802F0C7F9E6E78C
:102F00000120E7E70220E5E701F00F034268934262
:102F100031D810B5044611F0800F1ED1C3EBC301A8
:102F2000890001F5FC7101440431C3EBC30200EBDD
:102F30008202002082F8FD0100228A700B7094F852
:102F4000BC33012B19D0012384F8BC33206802F074
:102F5000CEF8002084F8BC0310BDC3EBC301890088
:102F6000383101440431C3EBC30200EB820201207B
:102F700082F83D00E0E7012070470220ECE790F87E
:102F8000BC33012B14D010B50446012380F8BC33A8
:102F900011F0800F06D1006801F0D6FC002084F803
:102FA000BC0310BD01F00F01006801F0B5FCF5E7AE
:102FB0000220704710B40468606A29B940EA0240F0
:102FC000A062002010BC70478C46A36A00EB13403F
:102FD000002308E003F1400104EB8101496800EBA4
:102FE00011400133DBB20CF1FF318B42F2D340EAE6
:102FF00002400CF13F0104EB81014860E1E7036806
:103000005962002070477047002800F0E08170B5D9
:1030100082B00446036813F0010F3BD09F4B9B68BE
:1030200003F00C03042B2CD09C4B9B6803F00C0387
:10303000082B21D06368B3F5803F4FD0B3F5A02FA4
:1030400052D0964B1A6822F480321A601A6822F421
:1030500080221A606368002B50D0FEF78DFE054673
:103060008E4B1B6813F4003F14D1FEF785FE401B06
:103070006428F5D90320B1E1884B5B6813F4800F15
:10308000D8D0864B1B6813F4003F03D06368002B35
:1030900000F09F81236813F0020F54D07F4B9B6890
:1030A00013F00C0F3ED07D4B9B6803F00C03082BF4
:1030B00033D0E368002B68D0794B01221A60FEF709
:1030C0005BFE0546754B1B6813F0020F54D1FEF7EB
:1030D00053FE401B0228F5D903207FE16F4A136895
:1030E00043F480331360B5E76C4B1A6842F48022D6
:1030F0001A601A6842F480321A60ABE7FEF73CFEB1
:103100000546664B1B6813F4003FC3D0FEF734FE40
:10311000401B6428F5D9032060E1604B5B6813F421
:10312000800FC6D15D4B1B6813F0020F03D0E3681C
:10313000012B40F05081594A136823F0F8032169AC
:1031400043EAC1031360236813F0080F42D0636998
:103150006BB3534B0122C3F8802EFEF70DFE0546DC
:103160004E4B5B6F13F0020F34D1FEF705FE401B90
:103170000228F5D9032031E1484A136823F0F80307
:10318000216943EAC1031360DDE7454B00221A6061
:10319000FEF7F2FD0546414B1B6813F0020FD2D03B
:1031A000FEF7EAFD401B0228F5D9032016E13C4B4F
:1031B0000022C3F8802EFEF7DFFD0546374B5B6F1C
:1031C00013F0020F06D0FEF7D7FD401B0228F5D9F9
:1031D000032003E1236813F0040F77D02F4B1B6CFF
:1031E00013F0805F33D1002301932C4B1A6C42F013
:1031F00080521A641B6C03F080530193019B0125DC
:10320000284B1B6813F4807F23D0A368012B34D094
:10321000052B38D0214B1A6F22F001021A671A6F62
:1032200022F004021A67A368002B3DD0FEF7A4FD2C
:1032300006461A4B1B6F13F0020F46D1FEF79CFD9A
:10324000801B41F288339842F3D90320C6E0002561
:10325000D6E7144A136843F480731360FEF78CFDBD
:103260000646104B1B6813F4807FCED1FEF784FD19
:10327000801B0228F5D90320B0E0084A136F43F001
:1032800001031367CFE7054B1A6F42F004021A6778
:103290001A6F42F001021A67C5E700BF003802400A
:1032A0000000474200700040FEF766FD0646524BA4
:1032B0001B6F13F0020F08D0FEF75EFD801B41F27A
:1032C00088339842F3D9032088E0EDB9A369002B35
:1032D00000F08380484A926802F00C02082A51D01C
:1032E000022B17D0454B00221A66FEF745FD044617
:1032F000414B1B6813F0007F42D0FEF73DFD001BE1
:103300000228F5D9032069E03B4A136C23F080536F
:103310001364DBE7394B00221A66FEF72DFD0546E4
:10332000354B1B6813F0007F06D0FEF725FD401BD0
:103330000228F5D9032051E0E369226A1343626A47
:1033400043EA8213A26A5208013A43EA0243E26A5C
:1033500043EA0263284A5360284B01221A66FEF7AB
:103360000BFD0446244B1B6813F0007F06D1FEF7CB
:1033700003FD001B0228F5D903202FE000202DE0DB
:1033800000202BE0012B2BD01B4B5B6803F480014A
:10339000E269914226D103F03F02216A8A4223D199
:1033A000616A47F6C0721A40B2EB811F1ED103F466
:1033B0004031A26A5208013AB1EB024F18D103F032
:1033C0007063E26AB3EB026F14D1002006E00120C3
:1033D0007047012002E0012000E0002002B070BD33
:1033E0000120FBE70120F9E70120F7E70120F5E7DD
:1033F0000120F3E70120F1E70038024000004742D6
:1034000008B5254B9B6803F00C03042B3FD0082B19
:103410003FD1214B5A6802F03F025B6813F4800FE2
:1034200012D01D4B5968C1F388111C480023A1FB21
:103430000001FCF7E5FE184B5B68C3F30143013361
:103440005B00B0FBF3F025E0134B5968C1F3881C17
:103450004FEA4C11B1EB0C006EEB0E0E4FEA8E13DF
:1034600043EA90638101091A63EB0E03DB0043EA30
:103470005173C90011EB0C0C43F1000399020023B6
:103480004FEA8C2041EA9C51FCF7BAFED3E703488F
:1034900000E0034808BD00BF0038024040787D01CD
:1034A0000024F400002800F09B8070B50D4604460F
:1034B0004F4B1B6803F007038B4208D2CBB24C4A38
:1034C0001370136803F007038B4240F08B8023686E
:1034D00013F0020F17D013F0040F04D0454A93687D
:1034E00043F4E0539360236813F0080F04D0414A7B
:1034F000936843F4604393603E4A936823F0F0037B
:10350000A1680B439360236813F0010F32D0636806
:10351000012B21D09A1E012A25D9364A126812F0B1
:10352000020F61D033498A6822F0030213438B6093
:10353000FEF722FC06462F4B9B6803F00C036268E3
:10354000B3EB820F16D0FEF717FC801B41F28833D5
:103550009842F0D9032042E0264A126812F4003F54
:10356000E0D101203BE0234A126812F0007FD9D15C
:10357000012034E01E4B1B6803F00703AB4207D960
:10358000EAB21B4B1A701B6803F00703AB422DD144
:10359000236813F0040F06D0164A936823F4E0530F
:1035A000E1680B439360236813F0080F07D0114ABA
:1035B000936823F46043216943EAC1039360FFF7F2
:1035C0001FFF0C4B9B68C3F303130B4AD35CD8401B
:1035D0000A4B18600A4B1868FEF782FB002070BD8A
:1035E000012070470120FAE70120F8E70120F6E703
:1035F000003C024000380240380F01080000002063
:1036000008000020014B1868704700BF0000002030
:1036100008B5FFF7F7FF044B9B68C3F38223034A07
:10362000D35CD84008BD00BF00380240480F0108F5
:1036300008B5FFF7E7FF044B9B68C3F34233034A27
:10364000D35CD84008BD00BF00380240480F0108D5
:103650002DE9F04782B00546884617461E46FEF71C
:103660008BFB0A9B1B1A03EB0609FEF785FB8246C0
:103670002B4B1B68C3F3CB3309FB03F301932B687C
:103680009C6838EA04030CBF4FF0010C4FF0000CAB
:10369000BC4540D0B6F1FF3FF1D0FEF76DFBA0EB8B
:1036A0000A0048450AD2B9F1000F07D0019A02B1C9
:1036B0004A46019B013B01939146E0E72A68536823
:1036C00023F0E00353606B68B3F5827F0BD0AB6AE5
:1036D000B3F5005F14D0012385F85130002385F83D
:1036E0005030032018E0AB68B3F5004F02D0B3F5BB
:1036F000806FECD12A68136823F040031360E6E77B
:103700002A68136823F4005313602A68136843F48B
:1037100000531360DFE7002002B0BDE8F08700BF70
:103720000000002010B584B00446164B1868164BF4
:10373000A3FB0030400D4FF47A7303FB00F00390BD
:103740006368B3F5827F0BD0039BBBB1039B013B46
:10375000039323689B6813F0800FF5D100200EE0DF
:1037600000920B46002280212046FFF771FF30B106
:10377000636D43F020036365032000E0002004B084
:1037800010BD00BF00000020819F5E1600285AD0A7
:1037900010B50446436A33B94368B3F5827F05D058
:1037A0000023C36102E00023036143610023A3629D
:1037B00094F85130002B40D0022384F85130226815
:1037C000136823F040031360636803F48273A268F4
:1037D00002F404421343E26802F4006213432269D4
:1037E00002F002021343626902F001021343A2696C
:1037F00002F400721343E26902F038021343226AB2
:1038000002F080021343A26A02F4005221681343BB
:103810000B60638B03F00403626A02F010022168FC
:1038200013434B602268D36923F40063D361002003
:103830006065012384F8513010BD84F85030204673
:10384000FEF742F8B8E7012070472DE9F04383B056
:103850001F460A9D90F85030012B00F0108104465D
:1038600088469146012380F85030FEF785FA0646D7
:1038700094F85130DBB26268012B0AD0B2F5827F36
:1038800040F0E380A268002A40F0E980042B40F079
:10389000E880B8F1000F00F0E680B9F1000F00F009
:1038A000E480002F00F0E38094F85130DBB2042B69
:1038B00002D0052384F8513000236365C4F83890A2
:1038C000E787A787C4F83080E786A7862364636408
:1038D00023681A6812F0400F03D11A6842F04002C0
:1038E0001A60E368B3F5006F11D063680BB1012F64
:1038F0000BD1226B236812781A73236B0133236375
:10390000E38E9BB2013B9BB2E38601276BE06368C9
:103910000BB1012F0BD1226B23681288DA60236B65
:1039200002332363E38E9BB2013B9BB2E386012704
:103930001CE023689A6812F0010F0ED0E28F92B259
:103940005AB1DA68A36B1A80A36B0233A363E38FC7
:103950009BB2013B9BB2E3870127FEF70DFA801B68
:10396000A84203D3B5F1FF3F40F08380E38E9BB2C2
:103970001BB9E38F9BB2002B53D023689A6812F0D7
:10398000020FD6D0E28E92B2002AD2D0002FD0D031
:10399000226B1288DA60236B02332363E38E9BB2BF
:1039A000013B9BB2E3860027C3E723689A6812F0C5
:1039B000010F0ED0E28F92B25AB1DA68A36B1A707F
:1039C000A36B0133A363E38F9BB2013B9BB2E387FD
:1039D0000127FEF7D1F9831BAB4202D3B5F1FF3FBC
:1039E00049D1002D49D0E38E9BB213B9E38F9BB22E
:1039F000BBB123689A6812F0020FD6D0E28E92B261
:103A0000002AD2D0002FD0D0226B12781A73236BE9
:103A100001332363E38E9BB2013B9BB2E386002715
:103A2000C3E7324629462046FFF77CFE48B9A36823
:103A300063B901932368DA6801929B680193019B43
:103A400004E020236365012000E00220012384F8C4
:103A50005130002384F8503003B0BDE8F0830220D9
:103A6000F4E70220F2E70120F0E70120EEE7012071
:103A7000ECE70320EAE70320E8E70320E6E702207B
:103A8000EAE7000070B4036A23F001030362036AEB
:103A90004668826922F073020C6844EA020523F04A
:103AA00002028B6813430D4CA04209D00B4CA0427C
:103AB0000DD0466085614A684263036270BC7047FE
:103AC00023F00803CA68134323F00403EEE726F447
:103AD00040764A6932438E691643EAE700000140A6
:103AE00030B4036A23F480730362036A4568C269D1
:103AF00022F073020C68224323F400738C6843EABB
:103B000004230F4CA04209D00D4CA0420ED04560BA
:103B1000C2614A68C263036230BC704723F4006329
:103B2000CC6843EA042323F48063EDE725F4405591
:103B30004C6945EA04158C6945EA0415E7E700BFBE
:103B40000000014030B4036A23F480530362036A27
:103B50004468C26922F4E6420D6842EA052223F471
:103B600000538D6843EA0533074DA84206D04460F0
:103B7000C2614A680264036230BC704724F4804426
:103B80004D6944EA8514F2E70000014010B4036A6D
:103B9000046A24F001040462846924F0F00C4CEA05
:103BA000021223F00A030B438261036210BC7047C8
:103BB00010B4046A24F0100404628469036A24F4D3
:103BC000704C4CEA023223F0A00343EA01138261F5
:103BD000036210BC7047836823F070030B4343F00B
:103BE0000703836070477047704710B5846B636A42
:103BF00083420ED0A36A834214D0E36A83421AD070
:103C0000236B834220D02046FFF7EEFF002323776B
:103C100010BD01232377C369002BF4D1012384F85D
:103C20003E30F0E702232377C369002BEBD1012359
:103C300084F83F30E7E704232377C369002BE2D100
:103C4000012384F84030DEE708232377C369002B83
:103C5000D9D1012384F84130D5E7704710B5846B82
:103C6000636A83420BD0A36A834210D0E36A834223
:103C700010D0236B834204D10823237701E0012372
:103C800023772046FFF7E9FF0023237710BD0223A7
:103C90002377F6E704232377F3E7704710B5846BA7
:103CA000636A83420CD0A36A834213D0E36A8342DF
:103CB00016D0236B834219D0012384F83D3003E0F2
:103CC0000123237784F83E302046FFF7E6FF0023E8
:103CD000237710BD02232377012384F83F30F3E7D5
:103CE00004232377012384F84030EDE7082323776A
:103CF000012384F84130E7E70368254A90420ED05B
:103D0000B0F1804F0BD0A2F57C42904207D002F573
:103D10008062904203D002F58062904203D123F08A
:103D200070034A6813431A4A90421AD0B0F1804F88
:103D300017D0A2F57C42904213D002F580629042E7
:103D40000FD002F5806290420BD002F59A32904279
:103D500007D002F58062904203D002F58062904263
:103D600003D123F44073CA68134323F080034A69E4
:103D7000134303608B68C3620B688362044B9842F1
:103D800002D00123436170470B690363F9E700BF69
:103D90000000014040B310B5044690F83D30F3B147
:103DA000022384F83D30214651F8040BFFF7A4FFAD
:103DB000012384F8463084F83E3084F83F3084F89C
:103DC000403084F8413084F8423084F8433084F83D
:103DD000443084F8453084F83D30002010BD80F830
:103DE0003C30FDF741FEDBE70120704740B310B5E2
:103DF000044690F83D30F3B1022384F83D3021466B
:103E000051F8040BFFF778FF012384F8463084F85B
:103E10003E3084F83F3084F8403084F8413084F8F4
:103E2000423084F8433084F8443084F8453084F8D4
:103E30003D30002010BD80F83C30FFF7D4FEDBE7BA
:103E40000120704730B4036A23F010030362036A51
:103E50004468826922F4E6420D6842EA052223F0B2
:103E600020038D6843EA05130E4DA84209D00D4D7D
:103E7000A8420ED0446082614A688263036230BC0B
:103E8000704723F08003CD6843EA051323F0400315
:103E9000EDE724F440644D6944EA85048D6944EA01
:103EA0008504E7E70000014038B590F83C30012B6D
:103EB00066D004460D46012380F83C300C2A5AD8BF
:103EC000DFE802F0075959591B59595930595959C6
:103ED00044000068FFF7D6FD2268936943F00803A9
:103EE00093612268936923F00403936122689369C4
:103EF00029690B43936100203EE00068FFF7A2FFB1
:103F00002268936943F4006393612268936923F400
:103F10008063936122689369296943EA012393616D
:103F2000002029E00068FFF7DBFD2268D36943F039
:103F30000803D3612268D36923F00403D3612268A4
:103F4000D36929690B43D361002015E00068FFF7AE
:103F5000F9FD2268D36943F40063D3612268D36911
:103F600023F48063D3612268D369296943EA01237A
:103F7000D361002000E00120002384F83C3038BDEC
:103F80000220FCE710B4846824F47F4C42EA032248
:103F90000A4342EA0C02826010BC704790F83C3041
:103FA000012B78D010B50446012380F83C30022361
:103FB00080F83D300268936823F47F4323F0770351
:103FC00093600B68602B4CD029D8402B54D00CD96F
:103FD000502B22D1CA6849680068FFF7D7FD5021ED
:103FE0002068FFF7F8FD002005E0202B0DD009D94F
:103FF000302B0AD00120012384F83D30002384F8BF
:104000003C3010BD0BB1102B05D119462068FFF7CD
:10401000E2FD0020EFE70120EDE70120EBE7B3F53B
:10402000805F34D0B3F5005F0CD1CB684A688968F3
:104030000068FFF7A7FF2268936843F4804393600A
:104040000020D8E7702B24D1CB684A6889680068C3
:10405000FFF798FF2268936843F07703936000208E
:10406000C9E7CA6849680068FFF7A2FD60212068B7
:10407000FFF7B1FD0020BEE7CA6849680068FFF796
:1040800085FD40212068FFF7A6FD0020B3E7002052
:10409000B1E70120AFE70220704701F01F010123C3
:1040A00003FA01FC036A23EA0C030362036A02FABF
:1040B00001F10B430362704770B5044616460D4686
:1040C00000292ED190F83E00C0B2022814BF002073
:1040D0000120002840F00281002D3ED194F83E20BE
:1040E000D2B2012A14BF00220122002A00F0F88077
:1040F000002E4ED0002D50D1022284F83E200C2DEF
:1041000000F2F080DFE815F05900EE00EE00EE005E
:104110009600EE00EE00EE00AD00EE00EE00EE00C8
:10412000C400042909D008290FD090F84100C0B27A
:10413000022814BF00200120CBE790F83F00C0B256
:10414000022814BF00200120C3E790F84000C0B24D
:10415000022814BF00200120BBE7042D09D0082D40
:104160000FD094F84120D2B2012A14BF00220122BC
:10417000BBE794F83F20D2B2012A14BF00220122EB
:10418000B3E794F84020D2B2012A14BF00220122E2
:10419000ABE7002BAED00120A3E0042D05D0082D05
:1041A00007D0022284F84120A9E7022284F83F20A8
:1041B000A5E7022284F84020A1E7626A4F49D16353
:1041C000626A4F491164626A4E49D164226834328E
:1041D0003146606AFDF73AFF002840F0858022688A
:1041E000D36843F40073D360012229462068FFF7A7
:1041F00054FF2368444A934260D02368424A934262
:1042000061D0B3F1804F5ED0A2F57C4293425AD088
:1042100002F58062934256D002F58062934252D0FA
:1042200002F59A3293424ED01A6842F001021A60A7
:10423000002056E0A26A3149D163A26A3049116474
:10424000A26A3049D164226838323146A06AFDF74B
:10425000FDFE00284AD12268D36843F48063D3600E
:10426000C2E7E26A2549D163E26A25491164E26A3C
:104270002449D16422683C323146E06AFDF7E6FE0B
:10428000002835D12268D36843F40063D360ABE7DC
:10429000226B1A49D163226B19491164226B1949A7
:1042A000D164226840323146206BFDF7CFFE08BB57
:1042B0002268D36843F48053D36095E75A6C42F484
:1042C00000425A6499E79A6802F00702062A13D05E
:1042D0001A6842F001021A60002002E0022000E0A9
:1042E000012070BD0120FCE70120FAE70120F8E77A
:1042F0000120F6E70120F4E70020F2E7EB3B00089D
:104300005D3C00089D3C00080000014038B50446B3
:104310000D460C296CD8DFE801F0076B6B6B2E6B38
:104320006B6B376B6B6B40000268D36823F40073D0
:10433000D360406AFDF7BFFE002229462068FFF7E0
:10434000ACFE23682B4A934230D02368196A41F2AD
:104350001112114208D1196A40F24442114203D1AC
:104360001A6822F001021A60002D2ED1012384F870
:104370003E3000203DE00268D36823F48063D360C0
:10438000806AFDF798FED7E70268D36823F40063DC
:10439000D360C06AFDF78FFECEE70268D36823F4CE
:1043A0008053D360006BFDF786FEC5E7196A41F2C2
:1043B00011121142C9D1196A40F244421142C4D1CA
:1043C0005A6C22F400425A64BFE7042D06D0082D2F
:1043D00009D0012384F8413000200AE0012384F849
:1043E0003F30002005E0012384F84030002000E049
:1043F000012038BD0000014090F83C30012B34D042
:1044000010B4012380F83C30022380F83D3003686B
:104410005A689C6822F0700C0A6842EA0C025A60E2
:104420000368134A934212D0B3F1804F0FD0A2F524
:104430007C4293420BD002F58062934207D002F592
:104440008062934203D002F59A32934204D124F061
:1044500080044A6814439C60012380F83D300023A7
:1044600080F83C30184610BC70470220704700BFEF
:104470000000014038B504460268136923F4405334
:10448000C1680B4313618368026913434269134394
:10449000C2691A430168CB6823F4164323F00C0366
:1044A0001343CB600268536923F4407381690B4363
:1044B00053610368314A934206D002F58062934209
:1044C00002D0FFF7A5F801E0FFF7B2F8E369B3F512
:1044D000004F29D00021031849411B1841F1000168
:1044E000C90041EA5371DB00181863684FEA830280
:1044F0004FEA937341F10001FBF782FE204DA5FBCB
:1045000000325109642303FB11031B013233A5FB65
:1045100003235B0903F0F00202EB011203F00F0327
:10452000216813448B6038BD0023021843EB03015C
:10453000121841F10001C90041EA5271D20010186D
:1045400041F10001626892185B41FBF759FE0C4D86
:10455000A5FB00325109642303FB1103DB00323356
:10456000A5FB03235B095A0002F4F87202EB011267
:1045700003F00703216813448B60D4E70010014067
:104580001F85EB512DE9F84305460F46164699461F
:10459000DDF820802C68246837EA04030CBF4FF054
:1045A000010C4FF0000CB4452DD1B8F1FF3FF1D014
:1045B000B8F1000F05D0FDF7DFFBA0EB0900404587
:1045C000E8D92A6802F10C0353E8003F23F4D073C2
:1045D0000C3242E800310029F3D12A6802F11403B9
:1045E00053E8003F23F00103143242E80031002970
:1045F000F3D1202385F83D3085F83E30002385F83F
:104600003C30032000E00020BDE8F88358B310B52B
:10461000044690F83D300BB3242384F83D302268E3
:10462000D36823F40053D3602046FFF723FF2268AA
:10463000136923F4904313612268536923F02A031A
:1046400053612268D36843F40053D3600020206490
:10465000202384F83D3084F83E3010BD80F83C3093
:10466000FDF7DAFAD8E7012070472DE9F04182B072
:104670001E4690F83D30DBB2202B54D104460D4647
:104680009046002953D0002A53D090F83C30012B9B
:1046900051D0012380F83C3000230364212380F8AB
:1046A0003D30FDF769FB0746A4F82480A4F8268076
:1046B000A368B3F5805F05D04FF00008002384F8AD
:1046C0003C3012E0236913B14FF00008F6E7A8462A
:1046D0000025F3E738F8023B2268C3F30803536070
:1046E000E28C92B2013A92B2E284E38C9BB273B153
:1046F00000963B46002280212046FFF743FFE0B9A9
:10470000002DE7D015F8012B23685A60E8E70096E2
:104710003B46002240212046FFF734FF78B9202392
:1047200084F83D3000E0022002B0BDE8F0810120B5
:10473000FAE70120F8E70220F6E70320F4E7032078
:10474000F2E7000082B000230193019B0133019343
:104750000E4A934214D80369002BF6DA0023019322
:10476000036943F001030361019B01330193074A8D
:10477000934208D8036913F0010FF5D1002000E03F
:10478000032002B070470320FBE700BF400D030089
:1047900084B010B5044603A880E80E00089B012BE6
:1047A0001FD1A36B23F48033A363E36823F4840352
:1047B00023F04003E360E36823F44013E3600F9BBE
:1047C000012B09D02046FFF7BDFF069B012B1BD014
:1047D000BDE8104004B07047E36843F48013E36021
:1047E000F0E7E36843F04003E3602046FFF7AAFFE9
:1047F0000C9B23B9A36B43F48033A363E5E7A36B5E
:1048000023F48033A363E0E7A36843F00603A360C7
:10481000A36843F02003A360DAE70000022A0AD06D
:104820000921C26822F47052C260C36843EA81233E
:10483000C36000207047234B0B44234A93422FD977
:10484000224B0B44224A93422CD9A1F57403A3F5C1
:104850001053204A934227D9A1F18373A3F5E7436C
:104860001D4A934222D31D4B0B441D4A93421FD92C
:104870001C4B0B441C4A93421CD31C4B0B441C4A3C
:10488000934219D3A1F1B773A3F55853194A934230
:1048900014D3194B0B44194A934211D20721C0E794
:1048A0000F21BEE70E21BCE70D21BAE70C21B8E7C6
:1048B0000B21B6E70A21B4E70921B2E70821B0E7E6
:1048C0000621AEE7405327FFFF340C00401E1BFFBC
:1048D0003F420F007F4F120020D6130060B6E5FE66
:1048E0005FE3160000D3CEFE40771B00C05BB3FE33
:1048F000C091210020753800E05459FEE09C410031
:10490000836843F00103836000207047836823F0CD
:10491000010383600020704782B000230193890166
:1049200041F020010161019B01330193054A93424B
:1049300005D8036913F0200FF5D1002000E0032013
:1049400002B07047400D030082B000230193102392
:104950000361019B01330193054A934205D8036922
:1049600013F0100FF5D1002000E0032002B07047D3
:10497000400D0300D0F800381943C0F8001800209B
:104980007047000084B02DE9F041044607A880E894
:104990000E00002306E003F1400204EB8202002136
:1049A000516001330E2BF6D9119F27BBD4F8043880
:1049B00043F00203C4F80438A36B43F40013A36369
:1049C000A36B23F40023A363A36B23F48023A363CB
:1049D0000023C4F8003E04F50065D4F80038C4F89C
:1049E00000380C9B012B14D1099B6BB90021204688
:1049F000FFF7C0FF11E0A36B23F40013A363A36BC5
:104A000043F40023A363E3E701212046FFF7B2FF4D
:104A100003E003212046FFF7ADFF10212046FFF7FA
:104A20007BFF804608B14FF001082046FFF78CFF5E
:104A300008B14FF0010800232B616B61EB610AE0C4
:104A4000C3B94FF00060C2F8000900220A614FF6B6
:104A50007F328A6001330799994210D904EB4312DF
:104A600002F51061D2F800090028E9DB0020C2F845
:104A70000009EAE74FF09040C2F80009E5E700239B
:104A80000AE0C3B14FF0904CC2F800CB00220261A3
:104A90004FF67F3282600133994211D904EB431201
:104AA00002F53060D2F8006B002EEADB4FF0000C0C
:104AB000C2F800CBEAE74FF0006CC2F800CBE5E7A4
:104AC0002B6923F480732B610023A3616FF0804373
:104AD00063610A9B1BB9A36943F01003A361A26938
:104AE0000B4B1343A3610D9B1BB1A36943F0080358
:104AF000A361012F04D04046BDE8F04104B07047E7
:104B0000A36943F0804343F00403A361F3E700BFCC
:104B100000383C80D0F8083813F0060307D0022B89
:104B200007D0062B01D00F207047022070470020CD
:104B300070470220704710B591F800C04B78012BE8
:104B400023D000F5006ED0F81C380CF00F040122C1
:104B5000A24043EA0243C0F81C3800EB4C10D0F8E6
:104B6000003B13F4004F0ED1D0F8003B8A68C2F32B
:104B70000A02C97842EA8142134343F0805343F466
:104B80000043C0F8003B002010BDD0F81C280CF0FA
:104B90000F0E03FA0EF39BB21343C0F81C3800EB60
:104BA0004C10D0F8003913F4004FECD1D0F8003994
:104BB0008A68C2F30A02C97842EA814242EA8C5CFE
:104BC00043EA0C0343F0805343F40043C0F8003938
:104BD000D9E7000030B40B784A78012A26D000EBE0
:104BE0004313D3F8002B002A52DBD0F83C480A7854
:104BF00002F00F024FF0010C0CFA02F224EA02421A
:104C0000C0F83C28D0F81C28097801F00F010CFAF4
:104C100001FC22EA0C42C0F81C28D3F8001B234AEE
:104C20000A40C3F8002B002030BC704700EB431350
:104C3000D3F80029002A1EDBD0F83C580A7802F08D
:104C40000F02012404FA02F292B225EA0202C0F82D
:104C50003C28D0F81C28097801F00F018C40A4B240
:104C600022EA0404C0F81C48D3F80019104A0A408C
:104C7000C3F80029D7E7D3F8002942F00062C3F84F
:104C80000029D3F8002942F08042C3F80029D3E775
:104C9000D3F8002B42F00062C3F8002BD3F8002BAE
:104CA00042F08042C3F8002B9FE700BF0078F3EF8B
:104CB000007833EC30B40B784C78012C27D000EB23
:104CC000431000F530631C69E40CE4041C611C69AA
:104CD00024F0FF5424F4C0141C614C690CB18C689E
:104CE0004C611C6944F400241C611C698D68C5F387
:104CF000120C44EA0C041C61012A68D0D0F8003B75
:104D000043F00443C0F8003B002030BC70474C69BE
:104D10006CBB00EB4314D4F8105925F0FF5525F473
:104D2000C015C4F81059D4F8105945F40025C4F83A
:104D30001059D4F81059ED0CED04C4F81059012A9B
:104D400036D000EB4313D3F8002942F00442C3F8F5
:104D500000294B69002BD7D0D0F834380A7802F0FC
:104D60000F0101228A401343C0F83438CCE700EB2E
:104D7000431404F510642569ED0CED0425612569E3
:104D800025F0FF5525F4C01525618D68D1F814C0B4
:104D9000AC4500D94D61256945F40025256125699B
:104DA000D1F814C0CCF3120C45EA0C052561C6E716
:104DB0000A691AB100EB4311C1F8142900EB431042
:104DC000D0F8002942F00442C0F800299CE7CA68E4
:104DD000002A93D05A6191E710B59DF8084084B934
:104DE00003334FEA930E4FF0000C08E000EB023360
:104DF00003F5805351F8044B1C600CF1010CF44591
:104E0000F4D3002010BD000070B582B00B784C7850
:104E1000012C33D000EB431303F5306CDCF8104069
:104E2000E40CE404CCF81040DCF8104024F0FF540B
:104E300024F4C014CCF810404C69002C40F0CA8017
:104E4000DCF810408D68C5F312052C43CCF81040F7
:104E5000DCF8104044F40024CCF81040012A00F0A3
:104E6000D380CA78012A00F0D680D3F8002B42F014
:104E70000442C3F8002B002002B070BD4C6984BB13
:104E800000EB4314D4F8105925F0FF5525F4C01554
:104E9000C4F81059D4F8105945F40025C4F8105935
:104EA000D4F81059ED0CED04C4F81059012A4FD074
:104EB00000EB4313D3F8004944F00444C3F800491D
:104EC000CC78012C6DD04B69002BD4D0D0F834387D
:104ED0000A7802F00F0101228A401343C0F83438E7
:104EE000C9E700EB4314D4F81059ED0CED04C4F8F5
:104EF0001059D4F8105925F0FF5525F4C015C4F801
:104F00001059D4F810598E68D1F814C0B4440CF17B
:104F1000FF3CBCFBF6FC494E06EACC4C45EA0C05CE
:104F2000C4F81059D4F810594E69C6F31206354327
:104F3000C4F8105904F51064CD78012DB6D1256957
:104F400025F0C0452561256945F000552561ADE78F
:104F50000A691AB100EB4314C4F81429CA78012A6B
:104F600008D000EB4313D3F8002942F00442C3F801
:104F7000002980E7D0F8082812F4807F08D100EBE0
:104F80004311D1F8002942F00052C1F80029E8E7A6
:104F900000EB4311D1F8002942F08052C1F80029FA
:104FA000DFE7D0F8084814F4807F0CD1D3F800492B
:104FB00044F00054C3F8004900928B8A0A78C9680B
:104FC000FFF70AFF57E7D3F8004944F08054C3F8CD
:104FD0000049F1E78D682C44013CB4FBF5F4DCF8A2
:104FE00010501FFA84FE154E06EAC4442543CCF83F
:104FF0001050DCF810508C680EFB04F4C4F312045B
:105000002C43CCF8104029E7CA68002A3FF429AFA6
:10501000CCF8142025E7D0F8082812F4807F06D1B8
:10502000D3F8002B42F00052C3F8002B1DE7D3F851
:10503000002B42F08052C3F8002B16E70000F81F47
:1050400000B583B0844608464FEA920E02F0030290
:10505000002305E00CF58051096840F8041B01337A
:105060007345F7D39AB10CF5805CDCF800300193FE
:105070004FF0000C5FFA8CF3D900019BCB4000F895
:10508000013B0CF1010C013A92B2002AF2D103B0BB
:105090005DF804FB0B784A78012A14D000EB43102A
:1050A000D0F8002B002A06DB2BB1D0F8003B23F010
:1050B0008043C0F8003BD0F8003B43F40013C0F835
:1050C000003B0020704700EB4310D0F80029002A75
:1050D00006DB2BB1D0F8003923F08043C0F800394B
:1050E000D0F8003943F40013C0F80039E9E70B7831
:1050F0004A78012A0ED000EB4310D0F8003B23F48D
:105100000013C0F8003BCB78023BDBB2012B15D972
:105110000020704700EB4310D0F8003923F400134F
:10512000C0F80039CB78023BDBB2012BF0D8D0F8C5
:10513000003943F08053C0F80039E9E7D0F8003B6C
:1051400043F08053C0F8003BE2E7D0F8003823F486
:10515000FE63C0F80038D0F80038090101F4FE61A0
:105160001943C0F8001800207047D0F8003E23F023
:105170000303C0F8003ED0F8043823F00203C0F85F
:10518000043800207047D0F8003E23F00303C0F835
:10519000003ED0F8043843F00203C0F80438002081
:1051A00070474269806910407047D0F8183800F5A0
:1051B0000060C0691840000C7047D0F8183800F53E
:1051C0000060C069184080B2704700EB4111D1F80F
:1051D000082B00F5006040691040704710B4D0F80B
:1051E0001048D0F8343801F00F02D340DB01DBB2B5
:1051F000234300EB411000F510608068184010BC9C
:105200007047406900F00100704738B50546C36833
:1052100023F0C043C360012913D019BBC36843F016
:105220008043C36000240120FCF7ACFD0134284614
:10523000FFF7E7FF08B1312CF5D9322C14D000204C
:1052400038BDC36843F00053C36000240120FCF75D
:1052500099FD01342846FFF7D4FF0128EDD0312C09
:10526000F4D9EAE70120EBE70120E9E7D0F80039BB
:1052700023F4FF6323F00703C0F80039D0F80438A3
:1052800043F48073C0F804380020704710B4046CF5
:10529000144B9C4203D9D0F8003B002B16DB0024B2
:1052A000C0F8104BD0F8104B44F40024C0F8104B59
:1052B000D0F8104B44F01804C0F8104BD0F8104B45
:1052C00044F0C044C0F8104B012902D0002010BCAB
:1052D0007047C0F8142BD0F8003B43F08023C0F88F
:1052E000003BF3E70A30544F08B50349034803F085
:1052F00089FC034B187008BD802900201000002095
:10530000842900200020704728B1064B01221A7022
:10531000044B18787047034A137803F0FE031370A8
:10532000F6E700BF0C000020032913D8DFE801F0E6
:10533000020D0409084670474FF4007313800020E3
:10534000704708231380002070474FF48053136088
:10535000002070470420704708B50B4B01221A70DB
:1053600003F0E0FE4EF61473984207D0064B01227C
:105370001A7003F0FDFE044B187808BD024A13783A
:1053800003F0FE031370F4E70C0000209BB170B52E
:105390000C4615461E4601200AE04FF400726902D1
:1053A000204603F0F3FE013504F50074013E0020B1
:1053B000002EF2D170BD042070479BB170B50C4631
:1053C00015461E4601200AE04FF40072690220468D
:1053D00003F080FF013504F50074013E0020002E2B
:1053E000F2D170BD01207047202303800048704730
:1053F0007C00002020230380004870475C000020D0
:105400002023038000487047A80000200A2303805F
:10541000004870479C00002038B504464FF41D70CA
:1054200003F0E2FDD0B1C4F8BC02237CDBB94FF439
:10543000007302220121204603F0EDFD0125A4F8AE
:1054400078514FF4007302228121204603F0E3FDDE
:105450002587204600F018F9002038BD0023C4F845
:10546000BC320220F9E7402302220121204603F04A
:10547000D2FD0125A4F87851402302228121204643
:1054800003F0C9FD2587E4E738B50446012103F0A0
:10549000CDFD0025A4F878518121204603F0C6FDFA
:1054A0002587D4F8BC3243B1204600F027F9D4F860
:1054B000BC0203F09DFDC4F8BC52002038BD2DE9AC
:1054C000F04182B0D0F8BC620023ADF80630002E67
:1054D00000F08D8007460C460B7813F0600535D040
:1054E000202D7DD14A78FE2A05D0FF2A1DD001F05B
:1054F00020F9032577E04A8812B9CA88012A05D025
:105500002146384601F015F903256CE013F0800FB1
:10551000F6D0D0F8C0329B699847306001223146FE
:10552000384601F02FFC00255DE04A8842B9CA8860
:1055300032B913F0800F03D100F0C8F8002552E013
:105540002146384601F0F5F803254CE091F801803A
:10555000B8F10B0F40D8DFE808F006303F3F3F3F7F
:105560003F3F3F3F162490F89C32DBB2032B03D021
:1055700001F0DFF8032536E002220DF1060101F00B
:1055800001FC45462FE090F89C32DBB2032B03D0A0
:1055900001F0CFF8032526E00122311D01F0F2FBD6
:1055A00021E090F89C32DBB2032B02D18B78736040
:1055B00019E001F0BEF8032515E090F89C32DBB24B
:1055C000032B10D14B8873B9097903F037FD21798A
:1055D000384600F046F906E001F0ABF8032502E09A
:1055E00001F0A7F80325284602B0BDE8F0810325A5
:1055F000F9E708B500F0A4F8002008BD08B500F0F0
:1056000015F9002008BD19B1C0F8C012002070477C
:105610000320704738B5D0F8BC42D4F81832934212
:1056200028BF13466CB1D4F83852AA1AC4F83822ED
:10563000002284F83C22042222720A46812103F0CF
:105640001DFD38BD38B5D0F8BC527DB1044695F883
:105650001C3223B9D5F818320BB16B7A3BB18121DA
:10566000204603F0F3FC6B7A022B04D038BD0121F5
:1056700003F0ECFCF3E78121204603F0E7FC012175
:10568000204603F0E3FCF1E738B5D0F8BC52E5B1B1
:10569000044600202872687285F8610285F860026D
:1056A00085F86202D4F8C0321B6898470121204671
:1056B00003F0C4FC8121204603F0C0FC1F2305F544
:1056C00004720121204603F0E1FC38BD70B5D0F82A
:1056D000BC5295B1044600232B7201266E728121C3
:1056E00003F0BCFC3146204603F0B8FC1F2305F54F
:1056F00004723146204603F0C9FC70BDD0F8BC32BC
:105700000BB100221A72704738B5D0F8BC42A4B170
:1057100005460A4BC4F8303284F83C120023237249
:105720000D2304F50C72812103F0A8FC1F2304F55E
:1057300004720121284603F0A9FC38BD5553425399
:10574000D0F8BC12D1B110B504460B7A022B08D0A8
:1057500006D3033BDBB2012B02D80021FFF7D4FFB5
:1057600010BD01F21F2291F81D1200F0A6FD0028C5
:10577000F6DA01212046FFF7C7FFF1E77047000086
:1057800038B5D0F8BC42F4B10546D4F81432C4F8A8
:105790003432D4F81832C4F83832012103F01DFC39
:1057A0001F2804D1D4F810221F4B9A420CD020237A
:1057B000052294F81D12284600F0B8F802236372FF
:1057C0002846FFF73FFF38BD94F81D120129EED897
:1057D00094F81E32002BEAD0102BE8D804F21F22D6
:1057E000284600F06AFD00280CDB237A013BDBB27F
:1057F000022BE8D9E2688AB104F110012846FFF7CC
:1058000009FFE0E7237A052B03D02846FFF71AFFAC
:10581000D9E701212846FFF777FFD4E70021284682
:10582000FFF772FFCFE700BF55534243D0F8BC32B9
:10583000B3B110B504461A7A12B1012A03D010BDD3
:10584000FFF79EFFFBE703F21F2293F81D1200F003
:1058500034FD0028F3DA01212046FFF755FFEEE77B
:105860007047D0F8BC32ABB110B504465B7A022B5E
:1058700008D011F0800F04D0012B02D00121FFF7D6
:1058800043FF10BD812103F0E1FB0121204603F01D
:10589000DDFBF6E77047D0F8BC3253B1127922B97C
:1058A00083F862220020D8607047012283F86222C8
:1058B000F8E74FF0FF307047844658B1C26005E00A
:1058C000013A92B2885C0CEB02031874002AF7D1FB
:1058D000002070474FF0FF3070470000D0F8BC0246
:1058E00050B108B513799AB2172B00D91722044981
:1058F000FFF7E2FF002008BD4FF0FF30704700BF08
:10590000E4000020D0F8BC0250B108B5137A9AB276
:105910001B2B00D91B220449FFF7CEFF002008BD36
:105920004FF0FF30704700BFC8000020D0F8BC0225
:1059300080B190F8611201F1480C00F83C2000EBB6
:10594000CC021371002353714B1CDBB280F861321F
:10595000042B00D07047002380F86132FAE770B55D
:10596000D0F8BC5275B304460E46D5F8183263B968
:1059700095F86232022B11D0D0F8C0329B680846ED
:105980009847A0B90023EB6070BD2023052295F84D
:105990001D12FFF7CBFF4FF0FF30F5E73A2302224D
:1059A000FFF7C4FF05232B724FF0FF30ECE73A23DB
:1059B000022231462046FFF7B9FF05232B724FF034
:1059C000FF30E1E74FF0FF30DEE710B5D0F8BC4222
:1059D000002C3BD0D4F818320BB100230DE020236B
:1059E000052294F81D12FFF7A1FF4FF0FF3028E0C9
:1059F000E118002008740133DBB2112BF8D97023B1
:105A000023740C23E37594F8603294F861128B428E
:105A100010D003F1480114F83100A07404EBC10167
:105A200008792077497961770133DBB284F86032F5
:105A3000042B07D01223E3601379122B09D8E360FB
:105A4000002010BD002384F86032F3E74FF0FF30F0
:105A5000F7E70020F5E700008446D0F8BC020028F4
:105A60003CD008B5D0F818326BB1537813F0010F61
:105A700023D093788BB1802B15D108221949FFF7D9
:105A80001BFF002029E02023052290F81D1260460C
:105A9000FFF74CFF4FF0FF301FE006221249FFF7DF
:105AA0000BFF002019E02423052290F81D12604608
:105AB000FFF73CFF4FF0FF300FE0DCF8C032DB694E
:105AC00001EBC10103EB81010B79053312799A4295
:105AD00000D91A46FFF7F0FE002008BD4FF0FF3056
:105AE000704700BF04010020FC00002010B5D0F872
:105AF000BC422CB394F86232012B0CD0137903F022
